{
  "_format": "hh-sol-artifact-1",
  "contractName": "ERC20ToTokenFlow",
  "sourceName": "contracts/ERC20ToTokenFlow.sol",
  "abi": [
    {
      "inputs": [
        {
          "internalType": "string",
          "name": "_nonRetiredUri",
          "type": "string"
        },
        {
          "internalType": "string",
          "name": "_retiredUri",
          "type": "string"
        },
        {
          "internalType": "contract Carbon",
          "name": "erc1155_",
          "type": "address"
        },
        {
          "internalType": "contract IERC20",
          "name": "erc20_",
          "type": "address"
        }
      ],
      "stateMutability": "nonpayable",
      "type": "constructor"
    },
    {
      "anonymous": false,
      "inputs": [
        {
          "indexed": false,
          "internalType": "address",
          "name": "sender",
          "type": "address"
        },
        {
          "indexed": false,
          "internalType": "uint256",
          "name": "amount",
          "type": "uint256"
        },
        {
          "indexed": false,
          "internalType": "address",
          "name": "from",
          "type": "address"
        },
        {
          "indexed": false,
          "internalType": "address",
          "name": "to",
          "type": "address"
        },
        {
          "indexed": false,
          "internalType": "bytes",
          "name": "data",
          "type": "bytes"
        }
      ],
      "name": "BorrowedERC20",
      "type": "event"
    },
    {
      "anonymous": false,
      "inputs": [
        {
          "indexed": false,
          "internalType": "uint256",
          "name": "amount",
          "type": "uint256"
        },
        {
          "indexed": false,
          "internalType": "address",
          "name": "from",
          "type": "address"
        },
        {
          "indexed": false,
          "internalType": "address",
          "name": "to",
          "type": "address"
        }
      ],
      "name": "ReturnedToERC20",
      "type": "event"
    },
    {
      "inputs": [
        {
          "internalType": "uint256",
          "name": "_amount",
          "type": "uint256"
        },
        {
          "internalType": "address",
          "name": "_from",
          "type": "address"
        },
        {
          "internalType": "address",
          "name": "_to",
          "type": "address"
        },
        {
          "internalType": "bytes",
          "name": "_data",
          "type": "bytes"
        }
      ],
      "name": "borrowERC20",
      "outputs": [],
      "stateMutability": "nonpayable",
      "type": "function"
    },
    {
      "inputs": [],
      "name": "erc1155Contract",
      "outputs": [
        {
          "internalType": "contract Carbon",
          "name": "",
          "type": "address"
        }
      ],
      "stateMutability": "view",
      "type": "function"
    },
    {
      "inputs": [],
      "name": "erc1155TokenId",
      "outputs": [
        {
          "internalType": "uint256",
          "name": "",
          "type": "uint256"
        }
      ],
      "stateMutability": "view",
      "type": "function"
    },
    {
      "inputs": [],
      "name": "erc20",
      "outputs": [
        {
          "internalType": "contract IERC20",
          "name": "",
          "type": "address"
        }
      ],
      "stateMutability": "view",
      "type": "function"
    },
    {
      "inputs": [
        {
          "internalType": "uint256",
          "name": "_amount",
          "type": "uint256"
        },
        {
          "internalType": "address",
          "name": "_to",
          "type": "address"
        }
      ],
      "name": "returnToERC20",
      "outputs": [],
      "stateMutability": "nonpayable",
      "type": "function"
    }
  ],
  "bytecode": "0x60806040523480156200001157600080fd5b5060405162000f9e38038062000f9e8339818101604052810190620000379190620001fc565b816000806101000a81548173ffffffffffffffffffffffffffffffffffffffff021916908373ffffffffffffffffffffffffffffffffffffffff1602179055508173ffffffffffffffffffffffffffffffffffffffff166365f9b9b885856040518363ffffffff1660e01b8152600401620000b492919062000307565b602060405180830381600087803b158015620000cf57600080fd5b505af1158015620000e4573d6000803e3d6000fd5b505050506040513d601f19601f820116820180604052508101906200010a91906200029a565b60018190555080600260006101000a81548173ffffffffffffffffffffffffffffffffffffffff021916908373ffffffffffffffffffffffffffffffffffffffff16021790555050505050620004c2565b6000815190506200016c8162000474565b92915050565b60008151905062000183816200048e565b92915050565b600082601f8301126200019b57600080fd5b8151620001b2620001ac8262000376565b62000342565b91508082526020830160208301858383011115620001cf57600080fd5b620001dc8382846200042b565b50505092915050565b600081519050620001f681620004a8565b92915050565b600080600080608085870312156200021357600080fd5b600085015167ffffffffffffffff8111156200022e57600080fd5b6200023c8782880162000189565b945050602085015167ffffffffffffffff8111156200025a57600080fd5b620002688782880162000189565b93505060406200027b878288016200015b565b92505060606200028e8782880162000172565b91505092959194509250565b600060208284031215620002ad57600080fd5b6000620002bd84828501620001e5565b91505092915050565b6000620002d382620003a9565b620002df8185620003b4565b9350620002f18185602086016200042b565b620002fc8162000463565b840191505092915050565b60006040820190508181036000830152620003238185620002c6565b90508181036020830152620003398184620002c6565b90509392505050565b6000604051905081810181811067ffffffffffffffff821117156200036c576200036b62000461565b5b8060405250919050565b600067ffffffffffffffff82111562000394576200039362000461565b5b601f19601f8301169050602081019050919050565b600081519050919050565b600082825260208201905092915050565b6000620003d28262000401565b9050919050565b6000620003e682620003c5565b9050919050565b6000620003fa82620003c5565b9050919050565b600073ffffffffffffffffffffffffffffffffffffffff82169050919050565b6000819050919050565b60005b838110156200044b5780820151818401526020810190506200042e565b838111156200045b576000848401525b50505050565bfe5b6000601f19601f8301169050919050565b6200047f81620003d9565b81146200048b57600080fd5b50565b6200049981620003ed565b8114620004a557600080fd5b50565b620004b38162000421565b8114620004bf57600080fd5b50565b610acc80620004d26000396000f3fe608060405234801561001057600080fd5b50600436106100575760003560e01c80630436631c1461005c578063637a668714610078578063785e9e86146100965780637a564970146100b4578063c3d5902a146100d2575b600080fd5b610076600480360381019061007191906105d6565b6100ee565b005b6100806102ac565b60405161008d91906108ad565b60405180910390f35b61009e6102b2565b6040516100ab9190610872565b60405180910390f35b6100bc6102d8565b6040516100c99190610857565b60405180910390f35b6100ec60048036038101906100e79190610612565b6102fc565b005b60008054906101000a900473ffffffffffffffffffffffffffffffffffffffff1673ffffffffffffffffffffffffffffffffffffffff1663f5298aca33600154856040518463ffffffff1660e01b815260040161014d939291906107c0565b600060405180830381600087803b15801561016757600080fd5b505af115801561017b573d6000803e3d6000fd5b50505050600260009054906101000a900473ffffffffffffffffffffffffffffffffffffffff1673ffffffffffffffffffffffffffffffffffffffff1663a9059cbb82846040518363ffffffff1660e01b81526004016101dc92919061082e565b602060405180830381600087803b1580156101f657600080fd5b505af115801561020a573d6000803e3d6000fd5b505050506040513d601f19601f8201168201806040525081019061022e9190610584565b61026d576040517f08c379a00000000000000000000000000000000000000000000000000000000081526004016102649061088d565b60405180910390fd5b7f21f0ad8453d87ca894d6e3ae1e5c403a75db934949d1ae2df9b28bf2eb20079d8233836040516102a0939291906108c8565b60405180910390a15050565b60015481565b600260009054906101000a900473ffffffffffffffffffffffffffffffffffffffff1681565b60008054906101000a900473ffffffffffffffffffffffffffffffffffffffff1681565b60008054906101000a900473ffffffffffffffffffffffffffffffffffffffff1673ffffffffffffffffffffffffffffffffffffffff1663a2c2823a60015487866040518463ffffffff1660e01b815260040161035b939291906108ff565b602060405180830381600087803b15801561037557600080fd5b505af1158015610389573d6000803e3d6000fd5b505050506040513d601f19601f820116820180604052508101906103ad91906105ad565b50600260009054906101000a900473ffffffffffffffffffffffffffffffffffffffff1673ffffffffffffffffffffffffffffffffffffffff166323b872dd8530886040518463ffffffff1660e01b815260040161040d939291906107f7565b602060405180830381600087803b15801561042757600080fd5b505af115801561043b573d6000803e3d6000fd5b505050506040513d601f19601f8201168201806040525081019061045f9190610584565b61049e576040517f08c379a00000000000000000000000000000000000000000000000000000000081526004016104959061088d565b60405180910390fd5b7faa2fd543492efbe8fa3e79f371cd52405f8fef8226e9a9722db411674da4561b3386868686866040516104d796959493929190610764565b60405180910390a15050505050565b6000813590506104f581610a51565b92915050565b60008151905061050a81610a68565b92915050565b60008083601f84011261052257600080fd5b8235905067ffffffffffffffff81111561053b57600080fd5b60208301915083600182028301111561055357600080fd5b9250929050565b60008135905061056981610a7f565b92915050565b60008151905061057e81610a7f565b92915050565b60006020828403121561059657600080fd5b60006105a4848285016104fb565b91505092915050565b6000602082840312156105bf57600080fd5b60006105cd8482850161056f565b91505092915050565b600080604083850312156105e957600080fd5b60006105f78582860161055a565b9250506020610608858286016104e6565b9150509250929050565b60008060008060006080868803121561062a57600080fd5b60006106388882890161055a565b9550506020610649888289016104e6565b945050604061065a888289016104e6565b935050606086013567ffffffffffffffff81111561067757600080fd5b61068388828901610510565b92509250509295509295909350565b61069b816109b3565b82525050565b6106aa8161096b565b82525050565b60006106bc8385610949565b93506106c9838584610a31565b6106d283610a40565b840190509392505050565b6106e6816109c5565b82525050565b6106f5816109e9565b82525050565b600061070860108361095a565b91507f43616e6e6f74207472616e736665722e000000000000000000000000000000006000830152602082019050919050565b600061074860008361095a565b9150600082019050919050565b61075e816109a9565b82525050565b600060a0820190506107796000830189610692565b6107866020830188610755565b61079360408301876106a1565b6107a060608301866106a1565b81810360808301526107b38184866106b0565b9050979650505050505050565b60006060820190506107d56000830186610692565b6107e26020830185610755565b6107ef6040830184610755565b949350505050565b600060608201905061080c60008301866106a1565b61081960208301856106a1565b6108266040830184610755565b949350505050565b600060408201905061084360008301856106a1565b6108506020830184610755565b9392505050565b600060208201905061086c60008301846106dd565b92915050565b600060208201905061088760008301846106ec565b92915050565b600060208201905081810360008301526108a6816106fb565b9050919050565b60006020820190506108c26000830184610755565b92915050565b60006060820190506108dd6000830186610755565b6108ea6020830185610692565b6108f760408301846106a1565b949350505050565b60006080820190506109146000830186610755565b6109216020830185610755565b61092e60408301846106a1565b818103606083015261093f8161073b565b9050949350505050565b600082825260208201905092915050565b600082825260208201905092915050565b600061097682610989565b9050919050565b60008115159050919050565b600073ffffffffffffffffffffffffffffffffffffffff82169050919050565b6000819050919050565b60006109be82610a0d565b9050919050565b60006109d0826109d7565b9050919050565b60006109e282610989565b9050919050565b60006109f4826109fb565b9050919050565b6000610a0682610989565b9050919050565b6000610a1882610a1f565b9050919050565b6000610a2a82610989565b9050919050565b82818337600083830152505050565b6000601f19601f8301169050919050565b610a5a8161096b565b8114610a6557600080fd5b50565b610a718161097d565b8114610a7c57600080fd5b50565b610a88816109a9565b8114610a9357600080fd5b5056fea26469706673582212208c20886a75c02919c9c9d0d4a6032a4ae75da64e3c69f72aa033987206db145f64736f6c63430007030033",
  "linkReferences": {},
  "deployedLinkReferences": {}
}