{
  "abi": [
    {
      "inputs": [
        {
          "internalType": "address",
          "name": "_globalCommunityFund",
          "type": "address"
        },
        {
          "internalType": "string",
          "name": "_retiredName",
          "type": "string"
        },
        {
          "internalType": "string",
          "name": "_retiredSymbol",
          "type": "string"
        },
        {
          "internalType": "string",
          "name": "_retiredUri",
          "type": "string"
        },
        {
          "internalType": "string",
          "name": "_nonRetiredName",
          "type": "string"
        },
        {
          "internalType": "string",
          "name": "_nonRetiredSymbol",
          "type": "string"
        },
        {
          "internalType": "string",
          "name": "_nonRetiredUri",
          "type": "string"
        }
      ],
      "stateMutability": "nonpayable",
      "type": "constructor"
    },
    {
      "anonymous": false,
      "inputs": [
        {
          "indexed": false,
          "internalType": "address",
          "name": "owner",
          "type": "address"
        },
        {
          "indexed": false,
          "internalType": "uint256",
          "name": "token",
          "type": "uint256"
        },
        {
          "indexed": false,
          "internalType": "string",
          "name": "name",
          "type": "string"
        },
        {
          "indexed": false,
          "internalType": "string",
          "name": "symbol",
          "type": "string"
        },
        {
          "indexed": false,
          "internalType": "string",
          "name": "uri",
          "type": "string"
        }
      ],
      "name": "AuthorityCreated",
      "type": "event"
    },
    {
      "anonymous": false,
      "inputs": [
        {
          "indexed": false,
          "internalType": "uint256",
          "name": "id",
          "type": "uint256"
        },
        {
          "indexed": false,
          "internalType": "address",
          "name": "authority",
          "type": "address"
        },
        {
          "indexed": false,
          "internalType": "uint256",
          "name": "serial",
          "type": "uint256"
        },
        {
          "indexed": false,
          "internalType": "uint256",
          "name": "amount",
          "type": "uint256"
        },
        {
          "indexed": false,
          "internalType": "address",
          "name": "owner",
          "type": "address"
        },
        {
          "indexed": false,
          "internalType": "bytes32",
          "name": "arweaveHash",
          "type": "bytes32"
        }
      ],
      "name": "CreditCreated",
      "type": "event"
    },
    {
      "anonymous": false,
      "inputs": [
        {
          "indexed": false,
          "internalType": "uint256",
          "name": "id",
          "type": "uint256"
        },
        {
          "indexed": false,
          "internalType": "address",
          "name": "owner",
          "type": "address"
        },
        {
          "indexed": false,
          "internalType": "string",
          "name": "name",
          "type": "string"
        },
        {
          "indexed": false,
          "internalType": "string",
          "name": "symbol",
          "type": "string"
        },
        {
          "indexed": false,
          "internalType": "string",
          "name": "uri",
          "type": "string"
        }
      ],
      "name": "NewToken",
      "type": "event"
    },
    {
      "anonymous": false,
      "inputs": [
        {
          "indexed": true,
          "internalType": "address",
          "name": "_operator",
          "type": "address"
        },
        {
          "indexed": true,
          "internalType": "address",
          "name": "_from",
          "type": "address"
        },
        {
          "indexed": true,
          "internalType": "address",
          "name": "_to",
          "type": "address"
        },
        {
          "indexed": false,
          "internalType": "uint256[]",
          "name": "_ids",
          "type": "uint256[]"
        },
        {
          "indexed": false,
          "internalType": "uint256[]",
          "name": "_values",
          "type": "uint256[]"
        }
      ],
      "name": "TransferBatch",
      "type": "event"
    },
    {
      "anonymous": false,
      "inputs": [
        {
          "indexed": true,
          "internalType": "address",
          "name": "_operator",
          "type": "address"
        },
        {
          "indexed": true,
          "internalType": "address",
          "name": "_from",
          "type": "address"
        },
        {
          "indexed": true,
          "internalType": "address",
          "name": "_to",
          "type": "address"
        },
        {
          "indexed": false,
          "internalType": "uint256",
          "name": "_id",
          "type": "uint256"
        },
        {
          "indexed": false,
          "internalType": "uint256",
          "name": "_value",
          "type": "uint256"
        }
      ],
      "name": "TransferSingle",
      "type": "event"
    },
    {
      "anonymous": false,
      "inputs": [
        {
          "indexed": false,
          "internalType": "string",
          "name": "_value",
          "type": "string"
        },
        {
          "indexed": true,
          "internalType": "uint256",
          "name": "_id",
          "type": "uint256"
        }
      ],
      "name": "URI",
      "type": "event"
    },
    {
      "inputs": [
        {
          "internalType": "address",
          "name": "_from",
          "type": "address"
        },
        {
          "internalType": "uint256",
          "name": "_id",
          "type": "uint256"
        },
        {
          "internalType": "uint256",
          "name": "_value",
          "type": "uint256"
        }
      ],
      "name": "_doBurn",
      "outputs": [],
      "stateMutability": "nonpayable",
      "type": "function"
    },
    {
      "inputs": [
        {
          "internalType": "address",
          "name": "_to",
          "type": "address"
        },
        {
          "internalType": "uint256",
          "name": "_id",
          "type": "uint256"
        },
        {
          "internalType": "uint256",
          "name": "_value",
          "type": "uint256"
        },
        {
          "internalType": "bytes",
          "name": "_data",
          "type": "bytes"
        }
      ],
      "name": "_doMint",
      "outputs": [],
      "stateMutability": "nonpayable",
      "type": "function"
    },
    {
      "inputs": [
        {
          "components": [
            {
              "internalType": "uint256",
              "name": "parentToken",
              "type": "uint256"
            },
            {
              "internalType": "int256",
              "name": "maxSwapCredit",
              "type": "int256"
            },
            {
              "internalType": "int256",
              "name": "swapCreditPeriod",
              "type": "int256"
            },
            {
              "internalType": "int256",
              "name": "timeEnteredSwapCredit",
              "type": "int256"
            },
            {
              "internalType": "int256",
              "name": "lastSwapTime",
              "type": "int256"
            },
            {
              "internalType": "int256",
              "name": "remainingSwapCredit",
              "type": "int256"
            },
            {
              "internalType": "bool",
              "name": "enabled",
              "type": "bool"
            }
          ],
          "internalType": "struct TokensFlow.TokenFlow",
          "name": "_flow",
          "type": "tuple"
        },
        {
          "internalType": "int256",
          "name": "_currentTimeResult",
          "type": "int256"
        }
      ],
      "name": "_inSwapCredit",
      "outputs": [
        {
          "internalType": "bool",
          "name": "",
          "type": "bool"
        }
      ],
      "stateMutability": "pure",
      "type": "function"
    },
    {
      "inputs": [
        {
          "components": [
            {
              "internalType": "uint256",
              "name": "parentToken",
              "type": "uint256"
            },
            {
              "internalType": "int256",
              "name": "maxSwapCredit",
              "type": "int256"
            },
            {
              "internalType": "int256",
              "name": "swapCreditPeriod",
              "type": "int256"
            },
            {
              "internalType": "int256",
              "name": "timeEnteredSwapCredit",
              "type": "int256"
            },
            {
              "internalType": "int256",
              "name": "lastSwapTime",
              "type": "int256"
            },
            {
              "internalType": "int256",
              "name": "remainingSwapCredit",
              "type": "int256"
            },
            {
              "internalType": "bool",
              "name": "enabled",
              "type": "bool"
            }
          ],
          "internalType": "struct TokensFlow.TokenFlow",
          "name": "_flow",
          "type": "tuple"
        },
        {
          "internalType": "int256",
          "name": "_currentTimeResult",
          "type": "int256"
        },
        {
          "internalType": "bool",
          "name": "_inSwapCreditResult",
          "type": "bool"
        }
      ],
      "name": "_maxSwapAmount",
      "outputs": [
        {
          "internalType": "uint256",
          "name": "",
          "type": "uint256"
        }
      ],
      "stateMutability": "pure",
      "type": "function"
    },
    {
      "inputs": [
        {
          "internalType": "uint256",
          "name": "_id",
          "type": "uint256"
        },
        {
          "internalType": "address",
          "name": "_owner",
          "type": "address"
        },
        {
          "internalType": "address",
          "name": "_spender",
          "type": "address"
        }
      ],
      "name": "allowance",
      "outputs": [
        {
          "internalType": "uint256",
          "name": "",
          "type": "uint256"
        }
      ],
      "stateMutability": "view",
      "type": "function"
    },
    {
      "inputs": [
        {
          "internalType": "address",
          "name": "_spender",
          "type": "address"
        },
        {
          "internalType": "uint256",
          "name": "_id",
          "type": "uint256"
        },
        {
          "internalType": "uint256",
          "name": "_currentValue",
          "type": "uint256"
        },
        {
          "internalType": "uint256",
          "name": "_value",
          "type": "uint256"
        }
      ],
      "name": "approve",
      "outputs": [],
      "stateMutability": "nonpayable",
      "type": "function"
    },
    {
      "inputs": [
        {
          "internalType": "uint256",
          "name": "",
          "type": "uint256"
        }
      ],
      "name": "authorities",
      "outputs": [
        {
          "internalType": "uint256",
          "name": "token",
          "type": "uint256"
        },
        {
          "internalType": "uint256",
          "name": "maxSerial",
          "type": "uint256"
        }
      ],
      "stateMutability": "view",
      "type": "function"
    },
    {
      "inputs": [
        {
          "internalType": "address",
          "name": "_owner",
          "type": "address"
        },
        {
          "internalType": "uint256",
          "name": "_id",
          "type": "uint256"
        }
      ],
      "name": "balanceOf",
      "outputs": [
        {
          "internalType": "uint256",
          "name": "",
          "type": "uint256"
        }
      ],
      "stateMutability": "view",
      "type": "function"
    },
    {
      "inputs": [
        {
          "internalType": "address[]",
          "name": "_owners",
          "type": "address[]"
        },
        {
          "internalType": "uint256[]",
          "name": "_ids",
          "type": "uint256[]"
        }
      ],
      "name": "balanceOfBatch",
      "outputs": [
        {
          "internalType": "uint256[]",
          "name": "",
          "type": "uint256[]"
        }
      ],
      "stateMutability": "view",
      "type": "function"
    },
    {
      "inputs": [
        {
          "internalType": "address",
          "name": "_spender",
          "type": "address"
        },
        {
          "internalType": "uint256[]",
          "name": "_ids",
          "type": "uint256[]"
        },
        {
          "internalType": "uint256[]",
          "name": "_currentValues",
          "type": "uint256[]"
        },
        {
          "internalType": "uint256[]",
          "name": "_values",
          "type": "uint256[]"
        }
      ],
      "name": "batchApprove",
      "outputs": [],
      "stateMutability": "nonpayable",
      "type": "function"
    },
    {
      "inputs": [
        {
          "internalType": "uint256",
          "name": "_parent",
          "type": "uint256"
        },
        {
          "internalType": "string",
          "name": "_name",
          "type": "string"
        },
        {
          "internalType": "string",
          "name": "_symbol",
          "type": "string"
        },
        {
          "internalType": "string",
          "name": "_uri",
          "type": "string"
        }
      ],
      "name": "createAuthority",
      "outputs": [],
      "stateMutability": "nonpayable",
      "type": "function"
    },
    {
      "inputs": [
        {
          "internalType": "uint256",
          "name": "_token",
          "type": "uint256"
        },
        {
          "internalType": "uint256",
          "name": "_amount",
          "type": "uint256"
        },
        {
          "internalType": "address",
          "name": "_owner",
          "type": "address"
        },
        {
          "internalType": "bytes32",
          "name": "_arweaveHash",
          "type": "bytes32"
        }
      ],
      "name": "createCredit",
      "outputs": [
        {
          "internalType": "uint256",
          "name": "",
          "type": "uint256"
        }
      ],
      "stateMutability": "nonpayable",
      "type": "function"
    },
    {
      "inputs": [
        {
          "internalType": "uint256",
          "name": "",
          "type": "uint256"
        }
      ],
      "name": "credits",
      "outputs": [
        {
          "internalType": "address",
          "name": "authority",
          "type": "address"
        },
        {
          "internalType": "uint256",
          "name": "serial",
          "type": "uint256"
        },
        {
          "internalType": "uint256",
          "name": "amount",
          "type": "uint256"
        },
        {
          "internalType": "address",
          "name": "owner",
          "type": "address"
        },
        {
          "internalType": "bytes32",
          "name": "arweaveHash",
          "type": "bytes32"
        }
      ],
      "stateMutability": "view",
      "type": "function"
    },
    {
      "inputs": [
        {
          "internalType": "uint256",
          "name": "",
          "type": "uint256"
        }
      ],
      "name": "decimals",
      "outputs": [
        {
          "internalType": "uint8",
          "name": "",
          "type": "uint8"
        }
      ],
      "stateMutability": "pure",
      "type": "function"
    },
    {
      "inputs": [
        {
          "internalType": "uint256",
          "name": "_id",
          "type": "uint256"
        },
        {
          "internalType": "uint256",
          "name": "_amount",
          "type": "uint256"
        },
        {
          "internalType": "uint256",
          "name": "_levels",
          "type": "uint256"
        },
        {
          "internalType": "bytes",
          "name": "_data",
          "type": "bytes"
        }
      ],
      "name": "exchangeToParent",
      "outputs": [],
      "stateMutability": "nonpayable",
      "type": "function"
    },
    {
      "inputs": [],
      "name": "globalCommunityFund",
      "outputs": [
        {
          "internalType": "address",
          "name": "",
          "type": "address"
        }
      ],
      "stateMutability": "view",
      "type": "function"
    },
    {
      "inputs": [],
      "name": "maxTokenId",
      "outputs": [
        {
          "internalType": "uint256",
          "name": "",
          "type": "uint256"
        }
      ],
      "stateMutability": "view",
      "type": "function"
    },
    {
      "inputs": [
        {
          "internalType": "uint256",
          "name": "_id",
          "type": "uint256"
        }
      ],
      "name": "name",
      "outputs": [
        {
          "internalType": "string",
          "name": "",
          "type": "string"
        }
      ],
      "stateMutability": "view",
      "type": "function"
    },
    {
      "inputs": [
        {
          "internalType": "uint256",
          "name": "",
          "type": "uint256"
        }
      ],
      "name": "nameImpl",
      "outputs": [
        {
          "internalType": "string",
          "name": "",
          "type": "string"
        }
      ],
      "stateMutability": "view",
      "type": "function"
    },
    {
      "inputs": [
        {
          "internalType": "uint256",
          "name": "_parent",
          "type": "uint256"
        },
        {
          "internalType": "string",
          "name": "_name",
          "type": "string"
        },
        {
          "internalType": "string",
          "name": "_symbol",
          "type": "string"
        },
        {
          "internalType": "string",
          "name": "_uri",
          "type": "string"
        }
      ],
      "name": "newToken",
      "outputs": [
        {
          "internalType": "uint256",
          "name": "",
          "type": "uint256"
        }
      ],
      "stateMutability": "nonpayable",
      "type": "function"
    },
    {
      "inputs": [
        {
          "internalType": "uint256",
          "name": "_amount",
          "type": "uint256"
        }
      ],
      "name": "retireCredit",
      "outputs": [],
      "stateMutability": "nonpayable",
      "type": "function"
    },
    {
      "inputs": [
        {
          "internalType": "address",
          "name": "_from",
          "type": "address"
        },
        {
          "internalType": "address",
          "name": "_to",
          "type": "address"
        },
        {
          "internalType": "uint256[]",
          "name": "_ids",
          "type": "uint256[]"
        },
        {
          "internalType": "uint256[]",
          "name": "_values",
          "type": "uint256[]"
        },
        {
          "internalType": "bytes",
          "name": "_data",
          "type": "bytes"
        }
      ],
      "name": "safeBatchTransferFrom",
      "outputs": [],
      "stateMutability": "nonpayable",
      "type": "function"
    },
    {
      "inputs": [
        {
          "internalType": "address",
          "name": "_from",
          "type": "address"
        },
        {
          "internalType": "address",
          "name": "_to",
          "type": "address"
        },
        {
          "internalType": "uint256",
          "name": "_id",
          "type": "uint256"
        },
        {
          "internalType": "uint256",
          "name": "_value",
          "type": "uint256"
        },
        {
          "internalType": "bytes",
          "name": "_data",
          "type": "bytes"
        }
      ],
      "name": "safeTransferFrom",
      "outputs": [],
      "stateMutability": "nonpayable",
      "type": "function"
    },
    {
      "inputs": [
        {
          "internalType": "uint256[]",
          "name": "_childs",
          "type": "uint256[]"
        },
        {
          "internalType": "bool",
          "name": "_enabled",
          "type": "bool"
        }
      ],
      "name": "setEnabled",
      "outputs": [],
      "stateMutability": "nonpayable",
      "type": "function"
    },
    {
      "inputs": [
        {
          "internalType": "address",
          "name": "_globalCommunityFund",
          "type": "address"
        }
      ],
      "name": "setGlobalCommunityFundAddress",
      "outputs": [],
      "stateMutability": "nonpayable",
      "type": "function"
    },
    {
      "inputs": [
        {
          "internalType": "int128",
          "name": "_tax",
          "type": "int128"
        }
      ],
      "name": "setTax",
      "outputs": [],
      "stateMutability": "nonpayable",
      "type": "function"
    },
    {
      "inputs": [
        {
          "internalType": "uint256",
          "name": "_child",
          "type": "uint256"
        },
        {
          "internalType": "int256",
          "name": "_maxSwapCredit",
          "type": "int256"
        },
        {
          "internalType": "int256",
          "name": "_remainingSwapCredit",
          "type": "int256"
        },
        {
          "internalType": "int256",
          "name": "_swapCreditPeriod",
          "type": "int256"
        },
        {
          "internalType": "int256",
          "name": "timeEnteredSwapCredit",
          "type": "int256"
        }
      ],
      "name": "setTokenFlow",
      "outputs": [],
      "stateMutability": "nonpayable",
      "type": "function"
    },
    {
      "inputs": [
        {
          "internalType": "uint256",
          "name": "_child",
          "type": "uint256"
        },
        {
          "internalType": "uint256",
          "name": "_parent",
          "type": "uint256"
        }
      ],
      "name": "setTokenParent",
      "outputs": [],
      "stateMutability": "nonpayable",
      "type": "function"
    },
    {
      "inputs": [
        {
          "internalType": "uint256",
          "name": "_id",
          "type": "uint256"
        },
        {
          "internalType": "string",
          "name": "_uri",
          "type": "string"
        }
      ],
      "name": "setTokenUri",
      "outputs": [],
      "stateMutability": "nonpayable",
      "type": "function"
    },
    {
      "inputs": [
        {
          "internalType": "bytes4",
          "name": "_interfaceId",
          "type": "bytes4"
        }
      ],
      "name": "supportsInterface",
      "outputs": [
        {
          "internalType": "bool",
          "name": "",
          "type": "bool"
        }
      ],
      "stateMutability": "pure",
      "type": "function"
    },
    {
      "inputs": [
        {
          "internalType": "uint256",
          "name": "_id",
          "type": "uint256"
        }
      ],
      "name": "symbol",
      "outputs": [
        {
          "internalType": "string",
          "name": "",
          "type": "string"
        }
      ],
      "stateMutability": "view",
      "type": "function"
    },
    {
      "inputs": [
        {
          "internalType": "uint256",
          "name": "",
          "type": "uint256"
        }
      ],
      "name": "symbolImpl",
      "outputs": [
        {
          "internalType": "string",
          "name": "",
          "type": "string"
        }
      ],
      "stateMutability": "view",
      "type": "function"
    },
    {
      "inputs": [],
      "name": "tax",
      "outputs": [
        {
          "internalType": "int128",
          "name": "",
          "type": "int128"
        }
      ],
      "stateMutability": "view",
      "type": "function"
    },
    {
      "inputs": [
        {
          "internalType": "uint256",
          "name": "",
          "type": "uint256"
        }
      ],
      "name": "tokenFlow",
      "outputs": [
        {
          "internalType": "uint256",
          "name": "parentToken",
          "type": "uint256"
        },
        {
          "internalType": "int256",
          "name": "maxSwapCredit",
          "type": "int256"
        },
        {
          "internalType": "int256",
          "name": "swapCreditPeriod",
          "type": "int256"
        },
        {
          "internalType": "int256",
          "name": "timeEnteredSwapCredit",
          "type": "int256"
        },
        {
          "internalType": "int256",
          "name": "lastSwapTime",
          "type": "int256"
        },
        {
          "internalType": "int256",
          "name": "remainingSwapCredit",
          "type": "int256"
        },
        {
          "internalType": "bool",
          "name": "enabled",
          "type": "bool"
        }
      ],
      "stateMutability": "view",
      "type": "function"
    },
    {
      "inputs": [
        {
          "internalType": "uint256",
          "name": "",
          "type": "uint256"
        }
      ],
      "name": "tokenOwners",
      "outputs": [
        {
          "internalType": "address",
          "name": "",
          "type": "address"
        }
      ],
      "stateMutability": "view",
      "type": "function"
    },
    {
      "inputs": [
        {
          "internalType": "uint256",
          "name": "_id",
          "type": "uint256"
        }
      ],
      "name": "totalSupply",
      "outputs": [
        {
          "internalType": "uint256",
          "name": "",
          "type": "uint256"
        }
      ],
      "stateMutability": "view",
      "type": "function"
    },
    {
      "inputs": [
        {
          "internalType": "uint256",
          "name": "",
          "type": "uint256"
        }
      ],
      "name": "totalSupplyImpl",
      "outputs": [
        {
          "internalType": "uint256",
          "name": "",
          "type": "uint256"
        }
      ],
      "stateMutability": "view",
      "type": "function"
    },
    {
      "inputs": [
        {
          "internalType": "uint256",
          "name": "_id",
          "type": "uint256"
        }
      ],
      "name": "uri",
      "outputs": [
        {
          "internalType": "string",
          "name": "",
          "type": "string"
        }
      ],
      "stateMutability": "view",
      "type": "function"
    },
    {
      "inputs": [
        {
          "internalType": "uint256",
          "name": "",
          "type": "uint256"
        }
      ],
      "name": "uriImpl",
      "outputs": [
        {
          "internalType": "string",
          "name": "",
          "type": "string"
        }
      ],
      "stateMutability": "view",
      "type": "function"
    }
  ],
  "address": "0xBab0Fb354c9100EE7D549B0Db5E0697dE45947BC",
  "args": [
    "0xC62ce5310E175fcE50589550AF3e1a4bEDe34077",
    "Retired carbon credits",
    "M+",
    "https://example.com/retired",
    "Non-retired carbon credits",
    "M-",
    "https://example.com/nonretired"
  ],
  "solcInputHash": "0xe7431d5c741ad81a69d9a4ce4475edebe1d5159e94f5aef838084ac12d926bb6",
  "bytecode": "0x6080604052620000236064600a600f0b6200011b60201b620023c11790919060201c565b600a60006101000a8154816fffffffffffffffffffffffffffffffff0219169083600f0b6fffffffffffffffffffffffffffffffff1602179055503480156200006b57600080fd5b5060405162005218380380620052188339818101604052810190620000919190620004c9565b8686868686868686600960006101000a81548173ffffffffffffffffffffffffffffffffffffffff021916908373ffffffffffffffffffffffffffffffffffffffff160217905550620000ef60008787878b620001a260201b60201c565b506200010660008484848b620001a260201b60201c565b50505050505050505050505050505062000805565b60008082600f0b14156200012e57600080fd5b600082600f0b604085600f0b901b816200014457fe5b0590507fffffffffffffffffffffffffffffffff80000000000000000000000000000000600f0b81121580156200018e57506f7fffffffffffffffffffffffffffffff600f0b8113155b6200019857600080fd5b8091505092915050565b60008160036000600260008154600101919050819055815260200190815260200160002060006101000a81548173ffffffffffffffffffffffffffffffffffffffff021916908373ffffffffffffffffffffffffffffffffffffffff1602179055508460066000600254815260200190815260200160002090805190602001906200022f929190620003b0565b508360076000600254815260200190815260200160002090805190602001906200025b929190620003b0565b5082600860006002548152602001908152602001600020908051906020019062000287929190620003b0565b506200029c60025487620002ed60201b60201c565b7f6bb0d056b49e8fe9e41616c109b2c99031f3b7714fadd8d83daeea8ba9989f8160025483878787604051620002d79594939291906200066f565b60405180910390a1600254905095945050505050565b600254811115620002fd57600080fd5b6040518060e00160405280828152602001600081526020016000815260200160008152602001600081526020016000815260200160008314151581525060046000848152602001908152602001600020600082015181600001556020820151816001015560408201518160020155606082015181600301556080820151816004015560a0820151816005015560c08201518160060160006101000a81548160ff0219169083151502179055509050505050565b828054600181600116156101000203166002900490600052602060002090601f016020900481019282601f10620003f357805160ff191683800117855562000424565b8280016001018555821562000424579182015b828111156200042357825182559160200191906001019062000406565b5b50905062000433919062000437565b5090565b5b808211156200045257600081600090555060010162000438565b5090565b6000815190506200046781620007eb565b92915050565b600082601f8301126200047f57600080fd5b815162000496620004908262000715565b620006e1565b91508082526020830160208301858383011115620004b357600080fd5b620004c0838284620007a2565b50505092915050565b600080600080600080600060e0888a031215620004e557600080fd5b6000620004f58a828b0162000456565b975050602088015167ffffffffffffffff8111156200051357600080fd5b620005218a828b016200046d565b965050604088015167ffffffffffffffff8111156200053f57600080fd5b6200054d8a828b016200046d565b955050606088015167ffffffffffffffff8111156200056b57600080fd5b620005798a828b016200046d565b945050608088015167ffffffffffffffff8111156200059757600080fd5b620005a58a828b016200046d565b93505060a088015167ffffffffffffffff811115620005c357600080fd5b620005d18a828b016200046d565b92505060c088015167ffffffffffffffff811115620005ef57600080fd5b620005fd8a828b016200046d565b91505092959891949750929550565b620006178162000764565b82525050565b60006200062a8262000748565b62000636818562000753565b935062000648818560208601620007a2565b6200065381620007da565b840191505092915050565b620006698162000798565b82525050565b600060a0820190506200068660008301886200065e565b6200069560208301876200060c565b8181036040830152620006a981866200061d565b90508181036060830152620006bf81856200061d565b90508181036080830152620006d581846200061d565b90509695505050505050565b6000604051905081810181811067ffffffffffffffff821117156200070b576200070a620007d8565b5b8060405250919050565b600067ffffffffffffffff821115620007335762000732620007d8565b5b601f19601f8301169050602081019050919050565b600081519050919050565b600082825260208201905092915050565b6000620007718262000778565b9050919050565b600073ffffffffffffffffffffffffffffffffffffffff82169050919050565b6000819050919050565b60005b83811015620007c2578082015181840152602081019050620007a5565b83811115620007d2576000848401525b50505050565bfe5b6000601f19601f8301169050919050565b620007f68162000764565b81146200080257600080fd5b50565b614a0380620008156000396000f3fe608060405234801561001057600080fd5b506004361061023b5760003560e01c8063507644c51161013b578063d9ea47d9116100b8578063eedc7dc41161007c578063eedc7dc414610771578063f242432a146107a1578063f8a14f46146107bd578063f9417f85146107ed578063ff992fd21461081d5761023b565b8063d9ea47d9146106cf578063e0adfe4e146106eb578063e322e39514610709578063ea67de9714610739578063eb899eeb146107555761023b565b8063a041c2a1116100ff578063a041c2a114610607578063a2513d2e14610637578063b0f18bbc14610653578063bd85b03914610683578063d1bab4cc146106b35761023b565b8063507644c51461057757806357f7789e1461059357806387b5c66a146105af57806391ba317a146105cb57806399c8d556146105e95761023b565b806313ce3b84116101c9578063489b5d421161018d578063489b5d42146104ae578063494503d4146104ca5780634e1273f4146104fb5780634e41a1fb1461052b5780634f4df4421461055b5761023b565b806313ce3b84146103e6578063233a161c146104025780632eb2c2d61461043257806338d85f031461044e5780633f47e6621461047e5761023b565b806307e84a201161021057806307e84a201461030457806309839498146103345780630a074d3e1461036a5780630d550b75146103865780630e89341c146103b65761023b565b8062ad800c14610240578062fdd58e1461027057806301ffc9a7146102a0578063036a1c22146102d0575b600080fd5b61025a60048036038101906102559190613bb8565b610839565b60405161026791906144d4565b60405180910390f35b61028a60048036038101906102859190613879565b6108ee565b6040516102979190614596565b60405180910390f35b6102ba60048036038101906102b59190613aaf565b610948565b6040516102c7919061449e565b60405180910390f35b6102ea60048036038101906102e59190613bb8565b6109f9565b6040516102fb9594939291906143ee565b60405180910390f35b61031e60048036038101906103199190613b2a565b610a6f565b60405161032b919061449e565b60405180910390f35b61034e60048036038101906103499190613bb8565b610a96565b604051610361979695949392919061467a565b60405180910390f35b610384600480360381019061037f91906138b5565b610ae5565b005b6103a0600480360381019061039b9190613be1565b610c3f565b6040516103ad9190614596565b60405180910390f35b6103d060048036038101906103cb9190613bb8565b610c55565b6040516103dd91906144d4565b60405180910390f35b61040060048036038101906103fb9190613a57565b610d0a565b005b61041c60048036038101906104179190613bb8565b610e70565b60405161042991906144d4565b60405180910390f35b61044c60048036038101906104479190613662565b610f20565b005b61046860048036038101906104639190613cff565b610f93565b6040516104759190614596565b60405180910390f35b61049860048036038101906104939190613bb8565b61107b565b6040516104a59190614712565b60405180910390f35b6104c860048036038101906104c39190613904565b611086565b005b6104e460048036038101906104df9190613bb8565b611252565b6040516104f29291906146e9565b60405180910390f35b610515600480360381019061051091906139e2565b611276565b604051610522919061447c565b60405180910390f35b61054560048036038101906105409190613bb8565b611398565b60405161055291906144d4565b60405180910390f35b6105756004803603810190610570919061397f565b61144d565b005b610591600480360381019061058c9190613c30565b61157e565b005b6105ad60048036038101906105a89190613ca7565b611630565b005b6105c960048036038101906105c49190613e57565b611658565b005b6105d36118d1565b6040516105e09190614596565b60405180910390f35b6105f16118d7565b6040516105fe91906144b9565b60405180910390f35b610621600480360381019061061c9190613bb8565b6118ea565b60405161062e91906144d4565b60405180910390f35b610651600480360381019061064c9190613db8565b61199a565b005b61066d60048036038101906106689190613df4565b611a13565b60405161067a9190614596565b60405180910390f35b61069d60048036038101906106989190613bb8565b611c78565b6040516106aa9190614596565b60405180910390f35b6106cd60048036038101906106c891906137c0565b611c95565b005b6106e960048036038101906106e49190613cff565b611e4f565b005b6106f3611fc7565b60405161070091906142a3565b60405180910390f35b610723600480360381019061071e9190613bb8565b611fed565b6040516107309190614596565b60405180910390f35b610753600480360381019061074e9190613639565b612005565b005b61076f600480360381019061076a9190613bb8565b6120dd565b005b61078b60048036038101906107869190613bb8565b61217b565b60405161079891906144d4565b60405180910390f35b6107bb60048036038101906107b6919061372e565b61222b565b005b6107d760048036038101906107d29190613bb8565b61226e565b6040516107e491906142a3565b60405180910390f35b61080760048036038101906108029190613b67565b6122a1565b6040516108149190614596565b60405180910390f35b61083760048036038101906108329190613b01565b612300565b005b6060600660008381526020019081526020016000208054600181600116156101000203166002900480601f0160208091040260200160405190810160405280929190818152602001828054600181600116156101000203166002900480156108e25780601f106108b7576101008083540402835291602001916108e2565b820191906000526020600020905b8154815290600101906020018083116108c557829003601f168201915b50505050509050919050565b600080600083815260200190815260200160002060008473ffffffffffffffffffffffffffffffffffffffff1673ffffffffffffffffffffffffffffffffffffffff16815260200190815260200160002054905092915050565b60006301ffc9a760e01b7bffffffffffffffffffffffffffffffffffffffffffffffffffffffff1916827bffffffffffffffffffffffffffffffffffffffffffffffffffffffff191614806109e1575063d9b67a2660e01b7bffffffffffffffffffffffffffffffffffffffffffffffffffffffff1916827bffffffffffffffffffffffffffffffffffffffffffffffffffffffff1916145b156109ef57600190506109f4565b600090505b919050565b600c6020528060005260406000206000915090508060000160009054906101000a900473ffffffffffffffffffffffffffffffffffffffff16908060010154908060020154908060030160009054906101000a900473ffffffffffffffffffffffffffffffffffffffff16908060040154905085565b600080836060015114158015610a8e5750826040015183606001518303125b905092915050565b60046020528060005260406000206000915090508060000154908060010154908060020154908060030154908060040154908060050154908060060160009054906101000a900460ff16905087565b610b478160008085815260200190815260200160002060008673ffffffffffffffffffffffffffffffffffffffff1673ffffffffffffffffffffffffffffffffffffffff1681526020019081526020016000205461244490919063ffffffff16565b60008084815260200190815260200160002060008573ffffffffffffffffffffffffffffffffffffffff1673ffffffffffffffffffffffffffffffffffffffff16815260200190815260200160002081905550806005600084815260200190815260200160002060008282540392505081905550600073ffffffffffffffffffffffffffffffffffffffff168373ffffffffffffffffffffffffffffffffffffffff163373ffffffffffffffffffffffffffffffffffffffff167fc3d58168c5ae7397731d063d5bbf3d657854427343f4c083240f7aacaa2d0f628585604051610c329291906146e9565b60405180910390a4505050565b6000610c4c84848461245b565b90509392505050565b6060600860008381526020019081526020016000208054600181600116156101000203166002900480601f016020809104026020016040519081016040528092919081815260200182805460018160011615610100020316600290048015610cfe5780601f10610cd357610100808354040283529160200191610cfe565b820191906000526020600020905b815481529060010190602001808311610ce157829003601f168201915b50505050509050919050565b600083836000818110610d1957fe5b9050602002013590506000806000905060005b868690508114610e5d576000878783818110610d4457fe5b9050602002013590506000821480610d675750848114158015610d6657508381145b5b610d7057600080fd5b600460008281526020019081526020016000206000015493506004600085815260200190815260200160002060060160009054906101000a900460ff16610db75750610e5d565b6003600085815260200190815260200160002060009054906101000a900473ffffffffffffffffffffffffffffffffffffffff1673ffffffffffffffffffffffffffffffffffffffff163373ffffffffffffffffffffffffffffffffffffffff161415610e2357600192505b856004600083815260200190815260200160002060060160006101000a81548160ff02191690831515021790555050806001019050610d2c565b5080610e6857600080fd5b505050505050565b60076020528060005260406000206000915090508054600181600116156101000203166002900480601f016020809104026020016040519081016040528092919081815260200182805460018160011615610100020316600290048015610f185780601f10610eed57610100808354040283529160200191610f18565b820191906000526020600020905b815481529060010190602001808311610efb57829003601f168201915b505050505081565b60005b86869050811015610f785760046000888884818110610f3e57fe5b90506020020135815260200190815260200160002060060160009054906101000a900460ff16610f6d57600080fd5b806001019050610f23565b50610f8988888888888888886124f4565b5050505050505050565b600061106e8888888080601f016020809104026020016040519081016040528093929190818152602001838380828437600081840152601f19601f8201169050808301925050505050505087878080601f016020809104026020016040519081016040528093929190818152602001838380828437600081840152601f19601f8201169050808301925050505050505086868080601f016020809104026020016040519081016040528093929190818152602001838380828437600081840152601f19601f820116905080830192505050505050503361296e565b9050979650505050505050565b600060129050919050565b600073ffffffffffffffffffffffffffffffffffffffff168473ffffffffffffffffffffffffffffffffffffffff1614156110f6576040517f08c379a00000000000000000000000000000000000000000000000000000000081526004016110ed90614576565b60405180910390fd5b6000821461119957611124600560008581526020019081526020016000205483612aa990919063ffffffff16565b60056000858152602001908152602001600020819055508160008085815260200190815260200160002060008673ffffffffffffffffffffffffffffffffffffffff1673ffffffffffffffffffffffffffffffffffffffff168152602001908152602001600020600082825401925050819055505b8373ffffffffffffffffffffffffffffffffffffffff16600073ffffffffffffffffffffffffffffffffffffffff163373ffffffffffffffffffffffffffffffffffffffff167fc3d58168c5ae7397731d063d5bbf3d657854427343f4c083240f7aacaa2d0f6286866040516112109291906146e9565b60405180910390a46112378473ffffffffffffffffffffffffffffffffffffffff16612ac0565b1561124c5761124b33600086868686612ad3565b5b50505050565b600b6020528060005260406000206000915090508060000154908060010154905082565b606082829050858590501461128a57600080fd5b60608585905067ffffffffffffffff811180156112a657600080fd5b506040519080825280602002602001820160405280156112d55781602001602082028036833780820191505090505b50905060005b8686905081101561138b576000808686848181106112f557fe5b905060200201358152602001908152602001600020600088888481811061131857fe5b905060200201602081019061132d9190613639565b73ffffffffffffffffffffffffffffffffffffffff1673ffffffffffffffffffffffffffffffffffffffff1681526020019081526020016000205482828151811061137457fe5b6020026020010181815250508060010190506112db565b5080915050949350505050565b6060600760008381526020019081526020016000208054600181600116156101000203166002900480601f0160208091040260200160405190810160405280929190818152602001828054600181600116156101000203166002900480156114415780601f1061141657610100808354040283529160200191611441565b820191906000526020600020905b81548152906001019060200180831161142457829003601f168201915b50505050509050919050565b816001600085815260200190815260200160002060003373ffffffffffffffffffffffffffffffffffffffff1673ffffffffffffffffffffffffffffffffffffffff16815260200190815260200160002060008673ffffffffffffffffffffffffffffffffffffffff1673ffffffffffffffffffffffffffffffffffffffff16815260200190815260200160002054146114e657600080fd5b806001600085815260200190815260200160002060003373ffffffffffffffffffffffffffffffffffffffff1673ffffffffffffffffffffffffffffffffffffffff16815260200190815260200160002060008673ffffffffffffffffffffffffffffffffffffffff1673ffffffffffffffffffffffffffffffffffffffff1681526020019081526020016000208190555050505050565b6000600460008781526020019081526020016000209050600360008260000154815260200190815260200160002060009054906101000a900473ffffffffffffffffffffffffffffffffffffffff1673ffffffffffffffffffffffffffffffffffffffff163373ffffffffffffffffffffffffffffffffffffffff161461160457600080fd5b848160010181905550828160020181905550818160030181905550838160050181905550505050505050565b81816008600086815260200190815260200160002091906116529291906131d0565b50505050565b6000831415611666576118ca565b6000859050600080600090505b8581101561186757600460008481526020019081526020016000209150600061169a612bf4565b9050600061170a846040518060e00160405290816000820154815260200160018201548152602001600282015481526020016003820154815260200160048201548152602001600582015481526020016006820160009054906101000a900460ff16151515158152505083610a6f565b9050600061177b856040518060e00160405290816000820154815260200160018201548152602001600282015481526020016003820154815260200160048201548152602001600582015481526020016006820160009054906101000a900460ff16151515158152505084846122a1565b9050808a111561178a57600080fd5b600080600088815260200190815260200160002060003373ffffffffffffffffffffffffffffffffffffffff1673ffffffffffffffffffffffffffffffffffffffff168152602001908152602001600020549050808b11156117eb57600080fd5b8261180757838660030181905550856001015486600501819055505b8386600401819055507001000000000000000000000000000000008b1061182d57600080fd5b8a86600501600082825403925050819055506004600088815260200190815260200160002060000154965050505050806001019050611673565b50611873338888610ae5565b6118c73382600001548887878080601f016020809104026020016040519081016040528093929190818152602001838380828437600081840152601f19601f82011690508083019250505050505050611086565b50505b5050505050565b60025481565b600a60009054906101000a9004600f0b81565b60086020528060005260406000206000915090508054600181600116156101000203166002900480601f0160208091040260200160405190810160405280929190818152602001828054600181600116156101000203166002900480156119925780601f1061196757610100808354040283529160200191611992565b820191906000526020600020905b81548152906001019060200180831161197557829003601f168201915b505050505081565b6003600083815260200190815260200160002060009054906101000a900473ffffffffffffffffffffffffffffffffffffffff1673ffffffffffffffffffffffffffffffffffffffff163373ffffffffffffffffffffffffffffffffffffffff1614611a0557600080fd5b611a0f8282612bfc565b5050565b60003373ffffffffffffffffffffffffffffffffffffffff166003600087815260200190815260200160002060009054906101000a900473ffffffffffffffffffffffffffffffffffffffff1673ffffffffffffffffffffffffffffffffffffffff16148015611aa357506004600086815260200190815260200160002060060160009054906101000a900460ff165b611aac57600080fd5b6000600b60008781526020019081526020016000209050611acb613250565b6040518060a001604052803373ffffffffffffffffffffffffffffffffffffffff168152602001836001016000815460010191905081905581526020018781526020018673ffffffffffffffffffffffffffffffffffffffff16815260200185815250905080600c6000600d60008154600101919050819055815260200190815260200160002060008201518160000160006101000a81548173ffffffffffffffffffffffffffffffffffffffff021916908373ffffffffffffffffffffffffffffffffffffffff160217905550602082015181600101556040820151816002015560608201518160030160006101000a81548173ffffffffffffffffffffffffffffffffffffffff021916908373ffffffffffffffffffffffffffffffffffffffff160217905550608082015181600401559050506060604051806020016040528060008152509050611c2186898984611086565b7f81173549302bc25b22a7d6569dab51ffc17c7c470fecf64c9e61e22d8f3ea8d2600d543385600101548a8a8a604051611c60969594939291906145b1565b60405180910390a1600d549350505050949350505050565b600060056000838152602001908152602001600020549050919050565b838390508686905014611ca757600080fd5b818190508686905014611cb957600080fd5b60005b86869050811015611e45576000878783818110611cd557fe5b9050602002013590506000868684818110611cec57fe5b9050602002013590506000858585818110611d0357fe5b905060200201359050816001600085815260200190815260200160002060003373ffffffffffffffffffffffffffffffffffffffff1673ffffffffffffffffffffffffffffffffffffffff16815260200190815260200160002060008d73ffffffffffffffffffffffffffffffffffffffff1673ffffffffffffffffffffffffffffffffffffffff1681526020019081526020016000205414611da557600080fd5b806001600085815260200190815260200160002060003373ffffffffffffffffffffffffffffffffffffffff1673ffffffffffffffffffffffffffffffffffffffff16815260200190815260200160002060008d73ffffffffffffffffffffffffffffffffffffffff1673ffffffffffffffffffffffffffffffffffffffff16815260200190815260200160002081905550505050806001019050611cbc565b5050505050505050565b6000611f2a8888888080601f016020809104026020016040519081016040528093929190818152602001838380828437600081840152601f19601f8201169050808301925050505050505087878080601f016020809104026020016040519081016040528093929190818152602001838380828437600081840152601f19601f8201169050808301925050505050505086868080601f016020809104026020016040519081016040528093929190818152602001838380828437600081840152601f19601f820116905080830192505050505050503361296e565b9050611f346132ae565b60405180604001604052808381526020016000815250905080600b600084815260200190815260200160002060008201518160000155602082015181600101559050507fe147f26093ddb86245219082300640c1d349ede6c703c1676b6fcc3c8197ccea33838a8a8a8a8a8a604051611fb49897969594939291906142be565b60405180910390a1505050505050505050565b600960009054906101000a900473ffffffffffffffffffffffffffffffffffffffff1681565b60056020528060005260406000206000915090505481565b600960009054906101000a900473ffffffffffffffffffffffffffffffffffffffff1673ffffffffffffffffffffffffffffffffffffffff163373ffffffffffffffffffffffffffffffffffffffff161461205f57600080fd5b600073ffffffffffffffffffffffffffffffffffffffff168173ffffffffffffffffffffffffffffffffffffffff16141561209957600080fd5b80600960006101000a81548173ffffffffffffffffffffffffffffffffffffffff021916908373ffffffffffffffffffffffffffffffffffffffff16021790555050565b6120ef336120e9612cbe565b83610ae5565b600061211682600a60009054906101000a9004600f0b600f0b612cc790919063ffffffff16565b90506060604051806020016040528060008152509050612161600960009054906101000a900473ffffffffffffffffffffffffffffffffffffffff1661215a612d82565b8484611086565b6121763361216d612d82565b84860384611086565b505050565b60066020528060005260406000206000915090508054600181600116156101000203166002900480601f0160208091040260200160405190810160405280929190818152602001828054600181600116156101000203166002900480156122235780601f106121f857610100808354040283529160200191612223565b820191906000526020600020905b81548152906001019060200180831161220657829003601f168201915b505050505081565b6004600085815260200190815260200160002060060160009054906101000a900460ff1661225857600080fd5b612266868686868686612d8b565b505050505050565b60036020528060005260406000206000915054906101000a900473ffffffffffffffffffffffffffffffffffffffff1681565b60008082156122dd5760008560800151850390506000866040015182886020015102816122ca57fe5b059050808760a0015103925050506122e5565b846020015190505b600081126122f357806122f6565b60005b9150509392505050565b600960009054906101000a900473ffffffffffffffffffffffffffffffffffffffff1673ffffffffffffffffffffffffffffffffffffffff163373ffffffffffffffffffffffffffffffffffffffff161461235a57600080fd5b600081600f0b1215801561237957506801000000000000000081600f0b125b61238257600080fd5b80600a60006101000a8154816fffffffffffffffffffffffffffffffff0219169083600f0b6fffffffffffffffffffffffffffffffff16021790555050565b60008082600f0b14156123d357600080fd5b600082600f0b604085600f0b901b816123e857fe5b0590507fffffffffffffffffffffffffffffffff80000000000000000000000000000000600f0b811215801561243157506f7fffffffffffffffffffffffffffffff600f0b8113155b61243a57600080fd5b8091505092915050565b60008282111561245057fe5b818303905092915050565b60006001600085815260200190815260200160002060008473ffffffffffffffffffffffffffffffffffffffff1673ffffffffffffffffffffffffffffffffffffffff16815260200190815260200160002060008373ffffffffffffffffffffffffffffffffffffffff1673ffffffffffffffffffffffffffffffffffffffff1681526020019081526020016000205490509392505050565b600073ffffffffffffffffffffffffffffffffffffffff168773ffffffffffffffffffffffffffffffffffffffff161415612564576040517f08c379a000000000000000000000000000000000000000000000000000000000815260040161255b906144f6565b60405180910390fd5b8383905086869050146125ac576040517f08c379a00000000000000000000000000000000000000000000000000000000081526004016125a390614536565b60405180910390fd5b3373ffffffffffffffffffffffffffffffffffffffff168873ffffffffffffffffffffffffffffffffffffffff16146126355760005b86869050811015612633578484828181106125f957fe5b9050602002013561261d88888481811061260f57fe5b905060200201358b3361245b565b101561262857600080fd5b8060010190506125e2565b505b60005b868690508110156127e857600087878381811061265157fe5b905060200201359050600086868481811061266857fe5b9050602002013590506126d38160008085815260200190815260200160002060008e73ffffffffffffffffffffffffffffffffffffffff1673ffffffffffffffffffffffffffffffffffffffff1681526020019081526020016000205461244490919063ffffffff16565b60008084815260200190815260200160002060008d73ffffffffffffffffffffffffffffffffffffffff1673ffffffffffffffffffffffffffffffffffffffff1681526020019081526020016000208190555061278860008084815260200190815260200160002060008c73ffffffffffffffffffffffffffffffffffffffff1673ffffffffffffffffffffffffffffffffffffffff1681526020019081526020016000205482612aa990919063ffffffff16565b60008084815260200190815260200160002060008c73ffffffffffffffffffffffffffffffffffffffff1673ffffffffffffffffffffffffffffffffffffffff168152602001908152602001600020819055505050806001019050612638565b508673ffffffffffffffffffffffffffffffffffffffff168873ffffffffffffffffffffffffffffffffffffffff163373ffffffffffffffffffffffffffffffffffffffff167f4a39dc06d4c0dbc64b70af90fd698a233a518aa5d07e595d983b8c0526c8f7fb898989896040516128639493929190614441565b60405180910390a461288a8773ffffffffffffffffffffffffffffffffffffffff16612ac0565b1561296457612963338989898980806020026020016040519081016040528093929190818152602001838360200280828437600081840152601f19601f82011690508083019250505050505050888880806020026020016040519081016040528093929190818152602001838360200280828437600081840152601f19601f8201169050808301925050505050505087878080601f016020809104026020016040519081016040528093929190818152602001838380828437600081840152601f19601f820116905080830192505050505050506130af565b5b5050505050505050565b60008160036000600260008154600101919050819055815260200190815260200160002060006101000a81548173ffffffffffffffffffffffffffffffffffffffff021916908373ffffffffffffffffffffffffffffffffffffffff1602179055508460066000600254815260200190815260200160002090805190602001906129f99291906132c8565b50836007600060025481526020019081526020016000209080519060200190612a239291906132c8565b50826008600060025481526020019081526020016000209080519060200190612a4d9291906132c8565b50612a5a60025487612bfc565b7f6bb0d056b49e8fe9e41616c109b2c99031f3b7714fadd8d83daeea8ba9989f8160025483878787604051612a93959493929190614612565b60405180910390a1600254905095945050505050565b6000818301905082811015612aba57fe5b92915050565b600080823b905060008111915050919050565b63f23a6e6160e01b7bffffffffffffffffffffffffffffffffffffffffffffffffffffffff19168473ffffffffffffffffffffffffffffffffffffffff1663f23a6e6188888787876040518663ffffffff1660e01b8152600401612b3b959493929190614394565b602060405180830381600087803b158015612b5557600080fd5b505af1158015612b69573d6000803e3d6000fd5b505050506040513d601f19601f82011682018060405250810190612b8d9190613ad8565b7bffffffffffffffffffffffffffffffffffffffffffffffffffffffff191614612bec576040517f08c379a0000000000000000000000000000000000000000000000000000000008152600401612be390614556565b60405180910390fd5b505050505050565b600042905090565b600254811115612c0b57600080fd5b6040518060e00160405280828152602001600081526020016000815260200160008152602001600081526020016000815260200160008314151581525060046000848152602001908152602001600020600082015181600001556020820151816001015560408201518160020155606082015181600301556080820151816004015560a0820151816005015560c08201518160060160006101000a81548160ff0219169083151502179055509050505050565b60006002905090565b600080821415612cda5760009050612d7c565b600083600f0b1215612ceb57600080fd5b600060406fffffffffffffffffffffffffffffffff841685600f0b02901c90506000608084901c85600f0b02905077ffffffffffffffffffffffffffffffffffffffffffffffff811115612d3e57600080fd5b604081901b9050817fffffffffffffffffffffffffffffffffffffffffffffffffffffffffffffffff03811115612d7457600080fd5b818101925050505b92915050565b60006001905090565b600073ffffffffffffffffffffffffffffffffffffffff168573ffffffffffffffffffffffffffffffffffffffff161415612dfb576040517f08c379a0000000000000000000000000000000000000000000000000000000008152600401612df290614576565b60405180910390fd5b3373ffffffffffffffffffffffffffffffffffffffff168673ffffffffffffffffffffffffffffffffffffffff161480612e3f575082612e3c85883361245b565b10155b612e4857600080fd5b612eaa8360008087815260200190815260200160002060008973ffffffffffffffffffffffffffffffffffffffff1673ffffffffffffffffffffffffffffffffffffffff1681526020019081526020016000205461244490919063ffffffff16565b60008086815260200190815260200160002060008873ffffffffffffffffffffffffffffffffffffffff1673ffffffffffffffffffffffffffffffffffffffff16815260200190815260200160002081905550612f5f60008086815260200190815260200160002060008773ffffffffffffffffffffffffffffffffffffffff1673ffffffffffffffffffffffffffffffffffffffff1681526020019081526020016000205484612aa990919063ffffffff16565b60008086815260200190815260200160002060008773ffffffffffffffffffffffffffffffffffffffff1673ffffffffffffffffffffffffffffffffffffffff168152602001908152602001600020819055508473ffffffffffffffffffffffffffffffffffffffff168673ffffffffffffffffffffffffffffffffffffffff163373ffffffffffffffffffffffffffffffffffffffff167fc3d58168c5ae7397731d063d5bbf3d657854427343f4c083240f7aacaa2d0f6287876040516130289291906146e9565b60405180910390a461304f8573ffffffffffffffffffffffffffffffffffffffff16612ac0565b156130a7576130a6338787878787878080601f016020809104026020016040519081016040528093929190818152602001838380828437600081840152601f19601f82011690508083019250505050505050612ad3565b5b505050505050565b63bc197c8160e01b7bffffffffffffffffffffffffffffffffffffffffffffffffffffffff19168473ffffffffffffffffffffffffffffffffffffffff1663bc197c8188888787876040518663ffffffff1660e01b815260040161311795949392919061432c565b602060405180830381600087803b15801561313157600080fd5b505af1158015613145573d6000803e3d6000fd5b505050506040513d601f19601f820116820180604052508101906131699190613ad8565b7bffffffffffffffffffffffffffffffffffffffffffffffffffffffff1916146131c8576040517f08c379a00000000000000000000000000000000000000000000000000000000081526004016131bf90614516565b60405180910390fd5b505050505050565b828054600181600116156101000203166002900490600052602060002090601f016020900481019282601f1061321157803560ff191683800117855561323f565b8280016001018555821561323f579182015b8281111561323e578235825591602001919060010190613223565b5b50905061324c9190613348565b5090565b6040518060a00160405280600073ffffffffffffffffffffffffffffffffffffffff1681526020016000815260200160008152602001600073ffffffffffffffffffffffffffffffffffffffff168152602001600080191681525090565b604051806040016040528060008152602001600081525090565b828054600181600116156101000203166002900490600052602060002090601f016020900481019282601f1061330957805160ff1916838001178555613337565b82800160010185558215613337579182015b8281111561333657825182559160200191906001019061331b565b5b5090506133449190613348565b5090565b5b80821115613361576000816000905550600101613349565b5090565b6000813590506133748161492c565b92915050565b60008083601f84011261338c57600080fd5b8235905067ffffffffffffffff8111156133a557600080fd5b6020830191508360208202830111156133bd57600080fd5b9250929050565b60008083601f8401126133d657600080fd5b8235905067ffffffffffffffff8111156133ef57600080fd5b60208301915083602082028301111561340757600080fd5b9250929050565b60008135905061341d81614943565b92915050565b6000813590506134328161495a565b92915050565b60008135905061344781614971565b92915050565b60008151905061345c81614971565b92915050565b60008083601f84011261347457600080fd5b8235905067ffffffffffffffff81111561348d57600080fd5b6020830191508360018202830111156134a557600080fd5b9250929050565b600082601f8301126134bd57600080fd5b81356134d06134cb8261475e565b61472d565b915080825260208301602083018583830111156134ec57600080fd5b6134f78382846148d7565b50505092915050565b60008135905061350f81614988565b92915050565b6000813590506135248161499f565b92915050565b60008083601f84011261353c57600080fd5b8235905067ffffffffffffffff81111561355557600080fd5b60208301915083600182028301111561356d57600080fd5b9250929050565b600060e0828403121561358657600080fd5b61359060e061472d565b905060006135a084828501613624565b60008301525060206135b484828501613515565b60208301525060406135c884828501613515565b60408301525060606135dc84828501613515565b60608301525060806135f084828501613515565b60808301525060a061360484828501613515565b60a08301525060c06136188482850161340e565b60c08301525092915050565b600081359050613633816149b6565b92915050565b60006020828403121561364b57600080fd5b600061365984828501613365565b91505092915050565b60008060008060008060008060a0898b03121561367e57600080fd5b600061368c8b828c01613365565b985050602061369d8b828c01613365565b975050604089013567ffffffffffffffff8111156136ba57600080fd5b6136c68b828c016133c4565b9650965050606089013567ffffffffffffffff8111156136e557600080fd5b6136f18b828c016133c4565b9450945050608089013567ffffffffffffffff81111561371057600080fd5b61371c8b828c01613462565b92509250509295985092959890939650565b60008060008060008060a0878903121561374757600080fd5b600061375589828a01613365565b965050602061376689828a01613365565b955050604061377789828a01613624565b945050606061378889828a01613624565b935050608087013567ffffffffffffffff8111156137a557600080fd5b6137b189828a01613462565b92509250509295509295509295565b60008060008060008060006080888a0312156137db57600080fd5b60006137e98a828b01613365565b975050602088013567ffffffffffffffff81111561380657600080fd5b6138128a828b016133c4565b9650965050604088013567ffffffffffffffff81111561383157600080fd5b61383d8a828b016133c4565b9450945050606088013567ffffffffffffffff81111561385c57600080fd5b6138688a828b016133c4565b925092505092959891949750929550565b6000806040838503121561388c57600080fd5b600061389a85828601613365565b92505060206138ab85828601613624565b9150509250929050565b6000806000606084860312156138ca57600080fd5b60006138d886828701613365565b93505060206138e986828701613624565b92505060406138fa86828701613624565b9150509250925092565b6000806000806080858703121561391a57600080fd5b600061392887828801613365565b945050602061393987828801613624565b935050604061394a87828801613624565b925050606085013567ffffffffffffffff81111561396757600080fd5b613973878288016134ac565b91505092959194509250565b6000806000806080858703121561399557600080fd5b60006139a387828801613365565b94505060206139b487828801613624565b93505060406139c587828801613624565b92505060606139d687828801613624565b91505092959194509250565b600080600080604085870312156139f857600080fd5b600085013567ffffffffffffffff811115613a1257600080fd5b613a1e8782880161337a565b9450945050602085013567ffffffffffffffff811115613a3d57600080fd5b613a49878288016133c4565b925092505092959194509250565b600080600060408486031215613a6c57600080fd5b600084013567ffffffffffffffff811115613a8657600080fd5b613a92868287016133c4565b93509350506020613aa58682870161340e565b9150509250925092565b600060208284031215613ac157600080fd5b6000613acf84828501613438565b91505092915050565b600060208284031215613aea57600080fd5b6000613af88482850161344d565b91505092915050565b600060208284031215613b1357600080fd5b6000613b2184828501613500565b91505092915050565b6000806101008385031215613b3e57600080fd5b6000613b4c85828601613574565b92505060e0613b5d85828601613515565b9150509250929050565b60008060006101208486031215613b7d57600080fd5b6000613b8b86828701613574565b93505060e0613b9c86828701613515565b925050610100613bae8682870161340e565b9150509250925092565b600060208284031215613bca57600080fd5b6000613bd884828501613624565b91505092915050565b600080600060608486031215613bf657600080fd5b6000613c0486828701613624565b9350506020613c1586828701613365565b9250506040613c2686828701613365565b9150509250925092565b600080600080600060a08688031215613c4857600080fd5b6000613c5688828901613624565b9550506020613c6788828901613515565b9450506040613c7888828901613515565b9350506060613c8988828901613515565b9250506080613c9a88828901613515565b9150509295509295909350565b600080600060408486031215613cbc57600080fd5b6000613cca86828701613624565b935050602084013567ffffffffffffffff811115613ce757600080fd5b613cf38682870161352a565b92509250509250925092565b60008060008060008060006080888a031215613d1a57600080fd5b6000613d288a828b01613624565b975050602088013567ffffffffffffffff811115613d4557600080fd5b613d518a828b0161352a565b9650965050604088013567ffffffffffffffff811115613d7057600080fd5b613d7c8a828b0161352a565b9450945050606088013567ffffffffffffffff811115613d9b57600080fd5b613da78a828b0161352a565b925092505092959891949750929550565b60008060408385031215613dcb57600080fd5b6000613dd985828601613624565b9250506020613dea85828601613624565b9150509250929050565b60008060008060808587031215613e0a57600080fd5b6000613e1887828801613624565b9450506020613e2987828801613624565b9350506040613e3a87828801613365565b9250506060613e4b87828801613423565b91505092959194509250565b600080600080600060808688031215613e6f57600080fd5b6000613e7d88828901613624565b9550506020613e8e88828901613624565b9450506040613e9f88828901613624565b935050606086013567ffffffffffffffff811115613ebc57600080fd5b613ec888828901613462565b92509250509295509295909350565b6000613ee38383614276565b60208301905092915050565b613ef8816148a1565b82525050565b613f07816147ff565b82525050565b6000613f1983856147cc565b93507f07ffffffffffffffffffffffffffffffffffffffffffffffffffffffffffffff831115613f4857600080fd5b602083029250613f598385846148d7565b82840190509392505050565b6000613f708261479e565b613f7a81856147cc565b9350613f858361478e565b8060005b83811015613fb6578151613f9d8882613ed7565b9750613fa8836147bf565b925050600181019050613f89565b5085935050505092915050565b613fcc81614811565b82525050565b613fdb8161481d565b82525050565b6000613fec826147a9565b613ff681856147dd565b93506140068185602086016148e6565b61400f8161491b565b840191505092915050565b61402381614853565b82525050565b61403281614860565b82525050565b600061404483856147ee565b93506140518385846148d7565b61405a8361491b565b840190509392505050565b6000614070826147b4565b61407a81856147ee565b935061408a8185602086016148e6565b6140938161491b565b840191505092915050565b60006140ab6025836147ee565b91507f64657374696e6174696f6e2061646472657373206d757374206265206e6f6e2d60008301527f7a65726f2e0000000000000000000000000000000000000000000000000000006020830152604082019050919050565b6000614111603e836147ee565b91507f636f6e74726163742072657475726e656420616e20756e6b6e6f776e2076616c60008301527f75652066726f6d206f6e455243313135354261746368526563656976656400006020830152604082019050919050565b60006141776029836147ee565b91507f5f69647320616e64205f76616c756573206172726179206c656e677468206d7560008301527f7374206d617463682e00000000000000000000000000000000000000000000006020830152604082019050919050565b60006141dd6039836147ee565b91507f636f6e74726163742072657475726e656420616e20756e6b6e6f776e2076616c60008301527f75652066726f6d206f6e455243313135355265636569766564000000000000006020830152604082019050919050565b60006142436015836147ee565b91507f5f746f206d757374206265206e6f6e2d7a65726f2e00000000000000000000006000830152602082019050919050565b61427f8161488a565b82525050565b61428e8161488a565b82525050565b61429d81614894565b82525050565b60006020820190506142b86000830184613efe565b92915050565b600060a0820190506142d3600083018b613eef565b6142e0602083018a614285565b81810360408301526142f381888a614038565b90508181036060830152614308818688614038565b9050818103608083015261431d818486614038565b90509998505050505050505050565b600060a0820190506143416000830188613efe565b61434e6020830187613efe565b81810360408301526143608186613f65565b905081810360608301526143748185613f65565b905081810360808301526143888184613fe1565b90509695505050505050565b600060a0820190506143a96000830188613efe565b6143b66020830187613efe565b6143c36040830186614285565b6143d06060830185614285565b81810360808301526143e28184613fe1565b90509695505050505050565b600060a0820190506144036000830188613efe565b6144106020830187614285565b61441d6040830186614285565b61442a6060830185613efe565b6144376080830184613fd2565b9695505050505050565b6000604082019050818103600083015261445c818688613f0d565b90508181036020830152614471818486613f0d565b905095945050505050565b600060208201905081810360008301526144968184613f65565b905092915050565b60006020820190506144b36000830184613fc3565b92915050565b60006020820190506144ce600083018461401a565b92915050565b600060208201905081810360008301526144ee8184614065565b905092915050565b6000602082019050818103600083015261450f8161409e565b9050919050565b6000602082019050818103600083015261452f81614104565b9050919050565b6000602082019050818103600083015261454f8161416a565b9050919050565b6000602082019050818103600083015261456f816141d0565b9050919050565b6000602082019050818103600083015261458f81614236565b9050919050565b60006020820190506145ab6000830184614285565b92915050565b600060c0820190506145c66000830189614285565b6145d36020830188613eef565b6145e06040830187614285565b6145ed6060830186614285565b6145fa6080830185613efe565b61460760a0830184613fd2565b979650505050505050565b600060a0820190506146276000830188614285565b6146346020830187613efe565b81810360408301526146468186614065565b9050818103606083015261465a8185614065565b9050818103608083015261466e8184614065565b90509695505050505050565b600060e08201905061468f600083018a614285565b61469c6020830189614029565b6146a96040830188614029565b6146b66060830187614029565b6146c36080830186614029565b6146d060a0830185614029565b6146dd60c0830184613fc3565b98975050505050505050565b60006040820190506146fe6000830185614285565b61470b6020830184614285565b9392505050565b60006020820190506147276000830184614294565b92915050565b6000604051905081810181811067ffffffffffffffff8211171561475457614753614919565b5b8060405250919050565b600067ffffffffffffffff82111561477957614778614919565b5b601f19601f8301169050602081019050919050565b6000819050602082019050919050565b600081519050919050565b600081519050919050565b600081519050919050565b6000602082019050919050565b600082825260208201905092915050565b600082825260208201905092915050565b600082825260208201905092915050565b600061480a8261486a565b9050919050565b60008115159050919050565b6000819050919050565b60007fffffffff0000000000000000000000000000000000000000000000000000000082169050919050565b600081600f0b9050919050565b6000819050919050565b600073ffffffffffffffffffffffffffffffffffffffff82169050919050565b6000819050919050565b600060ff82169050919050565b60006148ac826148b3565b9050919050565b60006148be826148c5565b9050919050565b60006148d08261486a565b9050919050565b82818337600083830152505050565b60005b838110156149045780820151818401526020810190506148e9565b83811115614913576000848401525b50505050565bfe5b6000601f19601f8301169050919050565b614935816147ff565b811461494057600080fd5b50565b61494c81614811565b811461495757600080fd5b50565b6149638161481d565b811461496e57600080fd5b50565b61497a81614827565b811461498557600080fd5b50565b61499181614853565b811461499c57600080fd5b50565b6149a881614860565b81146149b357600080fd5b50565b6149bf8161488a565b81146149ca57600080fd5b5056fea2646970667358221220faca2e9cce5ed0ec54fa46b3bee1e31f9772a057b1d613141aefd0b0b9d12ed664736f6c63430007030033",
  "devdoc": {
    "kind": "dev",
    "methods": {
      "balanceOf(address,uint256)": {
        "params": {
          "_id": "ID of the Token",
          "_owner": "The address of the token holder"
        },
        "returns": {
          "_0": "The _owner's balance of the Token type requested"
        }
      },
      "balanceOfBatch(address[],uint256[])": {
        "params": {
          "_ids": "ID of the Tokens",
          "_owners": "The addresses of the token holders"
        },
        "returns": {
          "_0": "The _owner's balance of the Token types requested (i.e. balance for each (owner, id) pair)"
        }
      },
      "batchApprove(address,uint256[],uint256[],uint256[])": {
        "details": "Allow other accounts/contracts to spend tokens on behalf of msg.sender Also, to minimize the risk of the approve/transferFrom attack vector (see https://docs.google.com/document/d/1YLPtQxZu1UAvO9cZ1O2RPXBbT0mooh4DYKjA_jp-RLM/), this function will throw if the current approved allowance does not equal the expected _currentValue, unless _value is 0",
        "params": {
          "_currentValues": "Expected current values of allowances per item type",
          "_ids": "IDs of the CryptoItems",
          "_spender": "Address to approve",
          "_values": "Allowance amounts per item type"
        }
      },
      "safeBatchTransferFrom(address,address,uint256[],uint256[],bytes)": {
        "details": "Caller must be approved to manage the tokens being transferred out of the `_from` account (see \"Approval\" section of the standard). MUST revert if `_to` is the zero address. MUST revert if length of `_ids` is not the same as length of `_values`. MUST revert if any of the balance(s) of the holder(s) for token(s) in `_ids` is lower than the respective amount(s) in `_values` sent to the recipient. MUST revert on any other error. MUST emit `TransferSingle` or `TransferBatch` event(s) such that all the balance changes are reflected (see \"Safe Transfer Rules\" section of the standard). Balance changes and events MUST follow the ordering of the arrays (_ids[0]/_values[0] before _ids[1]/_values[1], etc). After the above conditions for the transfer(s) in the batch are met, this function MUST check if `_to` is a smart contract (e.g. code size > 0). If so, it MUST call the relevant `ERC1155TokenReceiver` hook(s) on `_to` and act appropriately (see \"Safe Transfer Rules\" section of the standard).",
        "params": {
          "_data": "Additional data with no specified format, MUST be sent unaltered in call to the `ERC1155TokenReceiver` hook(s) on `_to`",
          "_from": "Source address",
          "_ids": "IDs of each token type (order and length must match _values array)",
          "_to": "Target address",
          "_values": "Transfer amounts per token type (order and length must match _ids array)"
        }
      },
      "safeTransferFrom(address,address,uint256,uint256,bytes)": {
        "details": "Caller must be approved to manage the tokens being transferred out of the `_from` account (see \"Approval\" section of the standard). MUST revert if `_to` is the zero address. MUST revert if balance of holder for token `_id` is lower than the `_value` sent. MUST revert on any other error. MUST emit the `TransferSingle` event to reflect the balance change (see \"Safe Transfer Rules\" section of the standard). After the above conditions are met, this function MUST check if `_to` is a smart contract (e.g. code size > 0). If so, it MUST call `onERC1155Received` on `_to` and act appropriately (see \"Safe Transfer Rules\" section of the standard).",
        "params": {
          "_data": "Additional data with no specified format, MUST be sent unaltered in call to `onERC1155Received` on `_to`",
          "_from": "Source address",
          "_id": "ID of the token type",
          "_to": "Target address",
          "_value": "Transfer amount"
        }
      },
      "supportsInterface(bytes4)": {
        "details": "Interface identification is specified in ERC-165. This function uses less than 30,000 gas.",
        "params": {
          "_interfaceId": "The interface identifier, as specified in ERC-165"
        }
      }
    },
    "version": 1
  },
  "userdoc": {
    "kind": "user",
    "methods": {
      "balanceOf(address,uint256)": {
        "notice": "Get the balance of an account's Tokens."
      },
      "balanceOfBatch(address[],uint256[])": {
        "notice": "Get the balance of multiple account/token pairs"
      },
      "safeBatchTransferFrom(address,address,uint256[],uint256[],bytes)": {
        "notice": "Transfers `_values` amount(s) of `_ids` from the `_from` address to the `_to` address specified (with safety call)."
      },
      "safeTransferFrom(address,address,uint256,uint256,bytes)": {
        "notice": "Transfers `_value` amount of an `_id` from the `_from` address to the `_to` address specified (with safety call)."
      },
      "supportsInterface(bytes4)": {
        "notice": "Query if a contract implements an interface"
      }
    },
    "version": 1
  },
  "storageLayout": {
    "storage": [
      {
        "astId": 11274,
        "contract": "contracts/Carbon.sol:Carbon",
        "label": "balances",
        "offset": 0,
        "slot": "0",
        "type": "t_mapping(t_uint256,t_mapping(t_address,t_uint256))"
      },
      {
        "astId": 11282,
        "contract": "contracts/Carbon.sol:Carbon",
        "label": "allowanceImpl",
        "offset": 0,
        "slot": "1",
        "type": "t_mapping(t_uint256,t_mapping(t_address,t_mapping(t_address,t_uint256)))"
      },
      {
        "astId": 14038,
        "contract": "contracts/Carbon.sol:Carbon",
        "label": "maxTokenId",
        "offset": 0,
        "slot": "2",
        "type": "t_uint256"
      },
      {
        "astId": 14042,
        "contract": "contracts/Carbon.sol:Carbon",
        "label": "tokenOwners",
        "offset": 0,
        "slot": "3",
        "type": "t_mapping(t_uint256,t_address)"
      },
      {
        "astId": 14046,
        "contract": "contracts/Carbon.sol:Carbon",
        "label": "tokenFlow",
        "offset": 0,
        "slot": "4",
        "type": "t_mapping(t_uint256,t_struct(TokenFlow)14036_storage)"
      },
      {
        "astId": 14050,
        "contract": "contracts/Carbon.sol:Carbon",
        "label": "totalSupplyImpl",
        "offset": 0,
        "slot": "5",
        "type": "t_mapping(t_uint256,t_uint256)"
      },
      {
        "astId": 14054,
        "contract": "contracts/Carbon.sol:Carbon",
        "label": "nameImpl",
        "offset": 0,
        "slot": "6",
        "type": "t_mapping(t_uint256,t_string_storage)"
      },
      {
        "astId": 14058,
        "contract": "contracts/Carbon.sol:Carbon",
        "label": "symbolImpl",
        "offset": 0,
        "slot": "7",
        "type": "t_mapping(t_uint256,t_string_storage)"
      },
      {
        "astId": 14062,
        "contract": "contracts/Carbon.sol:Carbon",
        "label": "uriImpl",
        "offset": 0,
        "slot": "8",
        "type": "t_mapping(t_uint256,t_string_storage)"
      },
      {
        "astId": 10771,
        "contract": "contracts/Carbon.sol:Carbon",
        "label": "globalCommunityFund",
        "offset": 0,
        "slot": "9",
        "type": "t_address"
      },
      {
        "astId": 10780,
        "contract": "contracts/Carbon.sol:Carbon",
        "label": "tax",
        "offset": 0,
        "slot": "10",
        "type": "t_int128"
      },
      {
        "astId": 10963,
        "contract": "contracts/Carbon.sol:Carbon",
        "label": "authorities",
        "offset": 0,
        "slot": "11",
        "type": "t_mapping(t_uint256,t_struct(Authority)10948_storage)"
      },
      {
        "astId": 10967,
        "contract": "contracts/Carbon.sol:Carbon",
        "label": "credits",
        "offset": 0,
        "slot": "12",
        "type": "t_mapping(t_uint256,t_struct(CarbonCredit)10959_storage)"
      },
      {
        "astId": 10969,
        "contract": "contracts/Carbon.sol:Carbon",
        "label": "maxCreditId",
        "offset": 0,
        "slot": "13",
        "type": "t_uint256"
      }
    ],
    "types": {
      "t_address": {
        "encoding": "inplace",
        "label": "address",
        "numberOfBytes": "20"
      },
      "t_bool": {
        "encoding": "inplace",
        "label": "bool",
        "numberOfBytes": "1"
      },
      "t_bytes32": {
        "encoding": "inplace",
        "label": "bytes32",
        "numberOfBytes": "32"
      },
      "t_int128": {
        "encoding": "inplace",
        "label": "int128",
        "numberOfBytes": "16"
      },
      "t_int256": {
        "encoding": "inplace",
        "label": "int256",
        "numberOfBytes": "32"
      },
      "t_mapping(t_address,t_mapping(t_address,t_uint256))": {
        "encoding": "mapping",
        "key": "t_address",
        "label": "mapping(address => mapping(address => uint256))",
        "numberOfBytes": "32",
        "value": "t_mapping(t_address,t_uint256)"
      },
      "t_mapping(t_address,t_uint256)": {
        "encoding": "mapping",
        "key": "t_address",
        "label": "mapping(address => uint256)",
        "numberOfBytes": "32",
        "value": "t_uint256"
      },
      "t_mapping(t_uint256,t_address)": {
        "encoding": "mapping",
        "key": "t_uint256",
        "label": "mapping(uint256 => address)",
        "numberOfBytes": "32",
        "value": "t_address"
      },
      "t_mapping(t_uint256,t_mapping(t_address,t_mapping(t_address,t_uint256)))": {
        "encoding": "mapping",
        "key": "t_uint256",
        "label": "mapping(uint256 => mapping(address => mapping(address => uint256)))",
        "numberOfBytes": "32",
        "value": "t_mapping(t_address,t_mapping(t_address,t_uint256))"
      },
      "t_mapping(t_uint256,t_mapping(t_address,t_uint256))": {
        "encoding": "mapping",
        "key": "t_uint256",
        "label": "mapping(uint256 => mapping(address => uint256))",
        "numberOfBytes": "32",
        "value": "t_mapping(t_address,t_uint256)"
      },
      "t_mapping(t_uint256,t_string_storage)": {
        "encoding": "mapping",
        "key": "t_uint256",
        "label": "mapping(uint256 => string)",
        "numberOfBytes": "32",
        "value": "t_string_storage"
      },
      "t_mapping(t_uint256,t_struct(Authority)10948_storage)": {
        "encoding": "mapping",
        "key": "t_uint256",
        "label": "mapping(uint256 => struct Carbon.Authority)",
        "numberOfBytes": "32",
        "value": "t_struct(Authority)10948_storage"
      },
      "t_mapping(t_uint256,t_struct(CarbonCredit)10959_storage)": {
        "encoding": "mapping",
        "key": "t_uint256",
        "label": "mapping(uint256 => struct Carbon.CarbonCredit)",
        "numberOfBytes": "32",
        "value": "t_struct(CarbonCredit)10959_storage"
      },
      "t_mapping(t_uint256,t_struct(TokenFlow)14036_storage)": {
        "encoding": "mapping",
        "key": "t_uint256",
        "label": "mapping(uint256 => struct TokensFlow.TokenFlow)",
        "numberOfBytes": "32",
        "value": "t_struct(TokenFlow)14036_storage"
      },
      "t_mapping(t_uint256,t_uint256)": {
        "encoding": "mapping",
        "key": "t_uint256",
        "label": "mapping(uint256 => uint256)",
        "numberOfBytes": "32",
        "value": "t_uint256"
      },
      "t_string_storage": {
        "encoding": "bytes",
        "label": "string",
        "numberOfBytes": "32"
      },
      "t_struct(Authority)10948_storage": {
        "encoding": "inplace",
        "label": "struct Carbon.Authority",
        "members": [
          {
            "astId": 10945,
            "contract": "contracts/Carbon.sol:Carbon",
            "label": "token",
            "offset": 0,
            "slot": "0",
            "type": "t_uint256"
          },
          {
            "astId": 10947,
            "contract": "contracts/Carbon.sol:Carbon",
            "label": "maxSerial",
            "offset": 0,
            "slot": "1",
            "type": "t_uint256"
          }
        ],
        "numberOfBytes": "64"
      },
      "t_struct(CarbonCredit)10959_storage": {
        "encoding": "inplace",
        "label": "struct Carbon.CarbonCredit",
        "members": [
          {
            "astId": 10950,
            "contract": "contracts/Carbon.sol:Carbon",
            "label": "authority",
            "offset": 0,
            "slot": "0",
            "type": "t_address"
          },
          {
            "astId": 10952,
            "contract": "contracts/Carbon.sol:Carbon",
            "label": "serial",
            "offset": 0,
            "slot": "1",
            "type": "t_uint256"
          },
          {
            "astId": 10954,
            "contract": "contracts/Carbon.sol:Carbon",
            "label": "amount",
            "offset": 0,
            "slot": "2",
            "type": "t_uint256"
          },
          {
            "astId": 10956,
            "contract": "contracts/Carbon.sol:Carbon",
            "label": "owner",
            "offset": 0,
            "slot": "3",
            "type": "t_address"
          },
          {
            "astId": 10958,
            "contract": "contracts/Carbon.sol:Carbon",
            "label": "arweaveHash",
            "offset": 0,
            "slot": "4",
            "type": "t_bytes32"
          }
        ],
        "numberOfBytes": "160"
      },
      "t_struct(TokenFlow)14036_storage": {
        "encoding": "inplace",
        "label": "struct TokensFlow.TokenFlow",
        "members": [
          {
            "astId": 14023,
            "contract": "contracts/Carbon.sol:Carbon",
            "label": "parentToken",
            "offset": 0,
            "slot": "0",
            "type": "t_uint256"
          },
          {
            "astId": 14025,
            "contract": "contracts/Carbon.sol:Carbon",
            "label": "maxSwapCredit",
            "offset": 0,
            "slot": "1",
            "type": "t_int256"
          },
          {
            "astId": 14027,
            "contract": "contracts/Carbon.sol:Carbon",
            "label": "swapCreditPeriod",
            "offset": 0,
            "slot": "2",
            "type": "t_int256"
          },
          {
            "astId": 14029,
            "contract": "contracts/Carbon.sol:Carbon",
            "label": "timeEnteredSwapCredit",
            "offset": 0,
            "slot": "3",
            "type": "t_int256"
          },
          {
            "astId": 14031,
            "contract": "contracts/Carbon.sol:Carbon",
            "label": "lastSwapTime",
            "offset": 0,
            "slot": "4",
            "type": "t_int256"
          },
          {
            "astId": 14033,
            "contract": "contracts/Carbon.sol:Carbon",
            "label": "remainingSwapCredit",
            "offset": 0,
            "slot": "5",
            "type": "t_int256"
          },
          {
            "astId": 14035,
            "contract": "contracts/Carbon.sol:Carbon",
            "label": "enabled",
            "offset": 0,
            "slot": "6",
            "type": "t_bool"
          }
        ],
        "numberOfBytes": "224"
      },
      "t_uint256": {
        "encoding": "inplace",
        "label": "uint256",
        "numberOfBytes": "32"
      }
    }
  },
  "gasEstimates": {
    "creation": {
      "codeDepositCost": "3789400",
      "executionCost": "infinite",
      "totalCost": "infinite"
    },
    "external": {
      "_doBurn(address,uint256,uint256)": "infinite",
      "_doMint(address,uint256,uint256,bytes)": "infinite",
      "_inSwapCredit((uint256,int256,int256,int256,int256,int256,bool),int256)": "infinite",
      "_maxSwapAmount((uint256,int256,int256,int256,int256,int256,bool),int256,bool)": "infinite",
      "allowance(uint256,address,address)": "infinite",
      "approve(address,uint256,uint256,uint256)": "infinite",
      "authorities(uint256)": "infinite",
      "balanceOf(address,uint256)": "infinite",
      "balanceOfBatch(address[],uint256[])": "infinite",
      "batchApprove(address,uint256[],uint256[],uint256[])": "infinite",
      "createAuthority(uint256,string,string,string)": "infinite",
      "createCredit(uint256,uint256,address,bytes32)": "infinite",
      "credits(uint256)": "infinite",
      "decimals(uint256)": "742",
      "exchangeToParent(uint256,uint256,uint256,bytes)": "infinite",
      "globalCommunityFund()": "1281",
      "maxTokenId()": "1241",
      "name(uint256)": "infinite",
      "nameImpl(uint256)": "infinite",
      "newToken(uint256,string,string,string)": "infinite",
      "retireCredit(uint256)": "infinite",
      "safeBatchTransferFrom(address,address,uint256[],uint256[],bytes)": "infinite",
      "safeTransferFrom(address,address,uint256,uint256,bytes)": "infinite",
      "setEnabled(uint256[],bool)": "infinite",
      "setGlobalCommunityFundAddress(address)": "22341",
      "setTax(int128)": "22364",
      "setTokenFlow(uint256,int256,int256,int256,int256)": "infinite",
      "setTokenParent(uint256,uint256)": "infinite",
      "setTokenUri(uint256,string)": "infinite",
      "supportsInterface(bytes4)": "818",
      "symbol(uint256)": "infinite",
      "symbolImpl(uint256)": "infinite",
      "tax()": "1309",
      "tokenFlow(uint256)": "infinite",
      "tokenOwners(uint256)": "1627",
      "totalSupply(uint256)": "infinite",
      "totalSupplyImpl(uint256)": "infinite",
      "uri(uint256)": "infinite",
      "uriImpl(uint256)": "infinite"
    },
    "internal": {
      "_setTokenParent(uint256,uint256)": "infinite"
    }
  }
}