{
  "_format": "hh-sol-artifact-1",
  "contractName": "TokensFlow",
  "sourceName": "contracts/TokensFlow.sol",
  "abi": [
    {
      "anonymous": false,
      "inputs": [
        {
          "indexed": true,
          "internalType": "address",
          "name": "_owner",
          "type": "address"
        },
        {
          "indexed": true,
          "internalType": "address",
          "name": "_operator",
          "type": "address"
        },
        {
          "indexed": false,
          "internalType": "bool",
          "name": "_approved",
          "type": "bool"
        }
      ],
      "name": "ApprovalForAll",
      "type": "event"
    },
    {
      "anonymous": false,
      "inputs": [
        {
          "indexed": true,
          "internalType": "uint256",
          "name": "id",
          "type": "uint256"
        },
        {
          "indexed": true,
          "internalType": "address",
          "name": "owner",
          "type": "address"
        },
        {
          "indexed": false,
          "internalType": "string",
          "name": "uri",
          "type": "string"
        }
      ],
      "name": "NewToken",
      "type": "event"
    },
    {
      "anonymous": false,
      "inputs": [
        {
          "indexed": true,
          "internalType": "address",
          "name": "_operator",
          "type": "address"
        },
        {
          "indexed": true,
          "internalType": "address",
          "name": "_from",
          "type": "address"
        },
        {
          "indexed": true,
          "internalType": "address",
          "name": "_to",
          "type": "address"
        },
        {
          "indexed": false,
          "internalType": "uint256[]",
          "name": "_ids",
          "type": "uint256[]"
        },
        {
          "indexed": false,
          "internalType": "uint256[]",
          "name": "_values",
          "type": "uint256[]"
        }
      ],
      "name": "TransferBatch",
      "type": "event"
    },
    {
      "anonymous": false,
      "inputs": [
        {
          "indexed": true,
          "internalType": "address",
          "name": "_operator",
          "type": "address"
        },
        {
          "indexed": true,
          "internalType": "address",
          "name": "_from",
          "type": "address"
        },
        {
          "indexed": true,
          "internalType": "address",
          "name": "_to",
          "type": "address"
        },
        {
          "indexed": false,
          "internalType": "uint256",
          "name": "_id",
          "type": "uint256"
        },
        {
          "indexed": false,
          "internalType": "uint256",
          "name": "_value",
          "type": "uint256"
        }
      ],
      "name": "TransferSingle",
      "type": "event"
    },
    {
      "anonymous": false,
      "inputs": [
        {
          "indexed": false,
          "internalType": "string",
          "name": "_value",
          "type": "string"
        },
        {
          "indexed": true,
          "internalType": "uint256",
          "name": "_id",
          "type": "uint256"
        }
      ],
      "name": "URI",
      "type": "event"
    },
    {
      "inputs": [
        {
          "internalType": "address",
          "name": "_from",
          "type": "address"
        },
        {
          "internalType": "uint256",
          "name": "_id",
          "type": "uint256"
        },
        {
          "internalType": "uint256",
          "name": "_value",
          "type": "uint256"
        }
      ],
      "name": "_doBurn",
      "outputs": [],
      "stateMutability": "nonpayable",
      "type": "function"
    },
    {
      "inputs": [
        {
          "internalType": "address",
          "name": "_to",
          "type": "address"
        },
        {
          "internalType": "uint256",
          "name": "_id",
          "type": "uint256"
        },
        {
          "internalType": "uint256",
          "name": "_value",
          "type": "uint256"
        },
        {
          "internalType": "bytes",
          "name": "_data",
          "type": "bytes"
        }
      ],
      "name": "_doMint",
      "outputs": [],
      "stateMutability": "nonpayable",
      "type": "function"
    },
    {
      "inputs": [
        {
          "components": [
            {
              "components": [
                {
                  "internalType": "bool",
                  "name": "recurring",
                  "type": "bool"
                },
                {
                  "internalType": "int256",
                  "name": "initialSwapCredit",
                  "type": "int256"
                },
                {
                  "internalType": "int256",
                  "name": "maxSwapCredit",
                  "type": "int256"
                },
                {
                  "internalType": "int256",
                  "name": "swapCreditPeriod",
                  "type": "int256"
                },
                {
                  "internalType": "int256",
                  "name": "firstTimeEnteredSwapCredit",
                  "type": "int256"
                }
              ],
              "internalType": "struct TokensFlow.SwapLimit",
              "name": "limit",
              "type": "tuple"
            },
            {
              "internalType": "int256",
              "name": "remainingSwapCredit",
              "type": "int256"
            },
            {
              "internalType": "int256",
              "name": "timeEnteredSwapCredit",
              "type": "int256"
            },
            {
              "internalType": "int256",
              "name": "lastSwapTime",
              "type": "int256"
            },
            {
              "internalType": "bool",
              "name": "disabled",
              "type": "bool"
            }
          ],
          "internalType": "struct TokensFlow.TokenFlow",
          "name": "_flow",
          "type": "tuple"
        },
        {
          "internalType": "int256",
          "name": "_currentTimeResult",
          "type": "int256"
        }
      ],
      "name": "_inSwapCredit",
      "outputs": [
        {
          "internalType": "bool",
          "name": "",
          "type": "bool"
        }
      ],
      "stateMutability": "pure",
      "type": "function"
    },
    {
      "inputs": [
        {
          "components": [
            {
              "components": [
                {
                  "internalType": "bool",
                  "name": "recurring",
                  "type": "bool"
                },
                {
                  "internalType": "int256",
                  "name": "initialSwapCredit",
                  "type": "int256"
                },
                {
                  "internalType": "int256",
                  "name": "maxSwapCredit",
                  "type": "int256"
                },
                {
                  "internalType": "int256",
                  "name": "swapCreditPeriod",
                  "type": "int256"
                },
                {
                  "internalType": "int256",
                  "name": "firstTimeEnteredSwapCredit",
                  "type": "int256"
                }
              ],
              "internalType": "struct TokensFlow.SwapLimit",
              "name": "limit",
              "type": "tuple"
            },
            {
              "internalType": "int256",
              "name": "remainingSwapCredit",
              "type": "int256"
            },
            {
              "internalType": "int256",
              "name": "timeEnteredSwapCredit",
              "type": "int256"
            },
            {
              "internalType": "int256",
              "name": "lastSwapTime",
              "type": "int256"
            },
            {
              "internalType": "bool",
              "name": "disabled",
              "type": "bool"
            }
          ],
          "internalType": "struct TokensFlow.TokenFlow",
          "name": "_flow",
          "type": "tuple"
        },
        {
          "internalType": "int256",
          "name": "_currentTimeResult",
          "type": "int256"
        },
        {
          "internalType": "bool",
          "name": "_inSwapCreditResult",
          "type": "bool"
        }
      ],
      "name": "_maxRecurringSwapAmount",
      "outputs": [
        {
          "internalType": "uint256",
          "name": "",
          "type": "uint256"
        }
      ],
      "stateMutability": "pure",
      "type": "function"
    },
    {
      "inputs": [
        {
          "internalType": "address",
          "name": "_owner",
          "type": "address"
        },
        {
          "internalType": "uint256",
          "name": "_id",
          "type": "uint256"
        }
      ],
      "name": "balanceOf",
      "outputs": [
        {
          "internalType": "uint256",
          "name": "",
          "type": "uint256"
        }
      ],
      "stateMutability": "view",
      "type": "function"
    },
    {
      "inputs": [
        {
          "internalType": "address[]",
          "name": "_owners",
          "type": "address[]"
        },
        {
          "internalType": "uint256[]",
          "name": "_ids",
          "type": "uint256[]"
        }
      ],
      "name": "balanceOfBatch",
      "outputs": [
        {
          "internalType": "uint256[]",
          "name": "",
          "type": "uint256[]"
        }
      ],
      "stateMutability": "view",
      "type": "function"
    },
    {
      "inputs": [
        {
          "internalType": "address",
          "name": "_from",
          "type": "address"
        },
        {
          "internalType": "uint256",
          "name": "_id",
          "type": "uint256"
        },
        {
          "internalType": "uint256",
          "name": "_value",
          "type": "uint256"
        }
      ],
      "name": "burn",
      "outputs": [],
      "stateMutability": "nonpayable",
      "type": "function"
    },
    {
      "inputs": [
        {
          "internalType": "uint256",
          "name": "_child",
          "type": "uint256"
        },
        {
          "internalType": "uint256",
          "name": "_parent",
          "type": "uint256"
        }
      ],
      "name": "coeffient",
      "outputs": [
        {
          "internalType": "int128",
          "name": "",
          "type": "int128"
        }
      ],
      "stateMutability": "view",
      "type": "function"
    },
    {
      "inputs": [
        {
          "internalType": "uint256[]",
          "name": "_ids",
          "type": "uint256[]"
        },
        {
          "internalType": "uint256",
          "name": "_amount",
          "type": "uint256"
        },
        {
          "internalType": "address",
          "name": "_from",
          "type": "address"
        },
        {
          "internalType": "bytes",
          "name": "_data",
          "type": "bytes"
        }
      ],
      "name": "exchangeToAncestor",
      "outputs": [],
      "stateMutability": "nonpayable",
      "type": "function"
    },
    {
      "inputs": [
        {
          "internalType": "address",
          "name": "_owner",
          "type": "address"
        },
        {
          "internalType": "address",
          "name": "_operator",
          "type": "address"
        }
      ],
      "name": "isApprovedForAll",
      "outputs": [
        {
          "internalType": "bool",
          "name": "",
          "type": "bool"
        }
      ],
      "stateMutability": "view",
      "type": "function"
    },
    {
      "inputs": [
        {
          "internalType": "uint256",
          "name": "_child",
          "type": "uint256"
        },
        {
          "internalType": "uint256",
          "name": "_parent",
          "type": "uint256"
        }
      ],
      "name": "isChild",
      "outputs": [
        {
          "internalType": "bool",
          "name": "",
          "type": "bool"
        }
      ],
      "stateMutability": "view",
      "type": "function"
    },
    {
      "inputs": [],
      "name": "nextTokenId",
      "outputs": [
        {
          "internalType": "uint256",
          "name": "",
          "type": "uint256"
        }
      ],
      "stateMutability": "view",
      "type": "function"
    },
    {
      "inputs": [
        {
          "internalType": "uint256",
          "name": "_id",
          "type": "uint256"
        }
      ],
      "name": "removeTokenOwner",
      "outputs": [],
      "stateMutability": "nonpayable",
      "type": "function"
    },
    {
      "inputs": [
        {
          "internalType": "address",
          "name": "_from",
          "type": "address"
        },
        {
          "internalType": "address",
          "name": "_to",
          "type": "address"
        },
        {
          "internalType": "uint256[]",
          "name": "_ids",
          "type": "uint256[]"
        },
        {
          "internalType": "uint256[]",
          "name": "_values",
          "type": "uint256[]"
        },
        {
          "internalType": "bytes",
          "name": "_data",
          "type": "bytes"
        }
      ],
      "name": "safeBatchTransferFrom",
      "outputs": [],
      "stateMutability": "nonpayable",
      "type": "function"
    },
    {
      "inputs": [
        {
          "internalType": "address",
          "name": "_from",
          "type": "address"
        },
        {
          "internalType": "address",
          "name": "_to",
          "type": "address"
        },
        {
          "internalType": "uint256",
          "name": "_id",
          "type": "uint256"
        },
        {
          "internalType": "uint256",
          "name": "_value",
          "type": "uint256"
        },
        {
          "internalType": "bytes",
          "name": "_data",
          "type": "bytes"
        }
      ],
      "name": "safeTransferFrom",
      "outputs": [],
      "stateMutability": "nonpayable",
      "type": "function"
    },
    {
      "inputs": [
        {
          "internalType": "address",
          "name": "_operator",
          "type": "address"
        },
        {
          "internalType": "bool",
          "name": "_approved",
          "type": "bool"
        }
      ],
      "name": "setApprovalForAll",
      "outputs": [],
      "stateMutability": "nonpayable",
      "type": "function"
    },
    {
      "inputs": [
        {
          "internalType": "uint256",
          "name": "_child",
          "type": "uint256"
        },
        {
          "internalType": "uint256",
          "name": "_parent",
          "type": "uint256"
        },
        {
          "internalType": "int128",
          "name": "_coefficient",
          "type": "int128"
        }
      ],
      "name": "setCoefficient",
      "outputs": [],
      "stateMutability": "nonpayable",
      "type": "function"
    },
    {
      "inputs": [
        {
          "internalType": "uint256[]",
          "name": "_childs",
          "type": "uint256[]"
        },
        {
          "internalType": "bool",
          "name": "_disabled",
          "type": "bool"
        }
      ],
      "name": "setDisabled",
      "outputs": [],
      "stateMutability": "nonpayable",
      "type": "function"
    },
    {
      "inputs": [
        {
          "internalType": "uint256",
          "name": "_child",
          "type": "uint256"
        },
        {
          "internalType": "uint256",
          "name": "_parent",
          "type": "uint256"
        },
        {
          "internalType": "int256",
          "name": "_remainingSwapCredit",
          "type": "int256"
        },
        {
          "internalType": "bytes32",
          "name": "oldLimitHash",
          "type": "bytes32"
        }
      ],
      "name": "setNonRecurringFlow",
      "outputs": [],
      "stateMutability": "nonpayable",
      "type": "function"
    },
    {
      "inputs": [
        {
          "internalType": "uint256",
          "name": "_child",
          "type": "uint256"
        },
        {
          "internalType": "uint256",
          "name": "_parent",
          "type": "uint256"
        },
        {
          "internalType": "int256",
          "name": "_maxSwapCredit",
          "type": "int256"
        },
        {
          "internalType": "int256",
          "name": "_remainingSwapCredit",
          "type": "int256"
        },
        {
          "internalType": "int256",
          "name": "_swapCreditPeriod",
          "type": "int256"
        },
        {
          "internalType": "int256",
          "name": "_timeEnteredSwapCredit",
          "type": "int256"
        },
        {
          "internalType": "bytes32",
          "name": "oldLimitHash",
          "type": "bytes32"
        }
      ],
      "name": "setRecurringFlow",
      "outputs": [],
      "stateMutability": "nonpayable",
      "type": "function"
    },
    {
      "inputs": [
        {
          "internalType": "uint256",
          "name": "_id",
          "type": "uint256"
        },
        {
          "internalType": "address",
          "name": "_newOwner",
          "type": "address"
        }
      ],
      "name": "setTokenOwner",
      "outputs": [],
      "stateMutability": "nonpayable",
      "type": "function"
    },
    {
      "inputs": [
        {
          "internalType": "uint256",
          "name": "_child",
          "type": "uint256"
        },
        {
          "internalType": "uint256",
          "name": "_parent",
          "type": "uint256"
        },
        {
          "internalType": "bool",
          "name": "_value",
          "type": "bool"
        }
      ],
      "name": "setTokenParent",
      "outputs": [],
      "stateMutability": "nonpayable",
      "type": "function"
    },
    {
      "inputs": [
        {
          "internalType": "uint256",
          "name": "_id",
          "type": "uint256"
        },
        {
          "internalType": "string",
          "name": "_uri",
          "type": "string"
        }
      ],
      "name": "setTokenUri",
      "outputs": [],
      "stateMutability": "nonpayable",
      "type": "function"
    },
    {
      "inputs": [
        {
          "internalType": "bytes4",
          "name": "_interfaceId",
          "type": "bytes4"
        }
      ],
      "name": "supportsInterface",
      "outputs": [
        {
          "internalType": "bool",
          "name": "",
          "type": "bool"
        }
      ],
      "stateMutability": "pure",
      "type": "function"
    },
    {
      "inputs": [
        {
          "internalType": "uint256",
          "name": "_child",
          "type": "uint256"
        },
        {
          "internalType": "uint256",
          "name": "_parent",
          "type": "uint256"
        }
      ],
      "name": "tokenFlow",
      "outputs": [
        {
          "components": [
            {
              "components": [
                {
                  "internalType": "bool",
                  "name": "recurring",
                  "type": "bool"
                },
                {
                  "internalType": "int256",
                  "name": "initialSwapCredit",
                  "type": "int256"
                },
                {
                  "internalType": "int256",
                  "name": "maxSwapCredit",
                  "type": "int256"
                },
                {
                  "internalType": "int256",
                  "name": "swapCreditPeriod",
                  "type": "int256"
                },
                {
                  "internalType": "int256",
                  "name": "firstTimeEnteredSwapCredit",
                  "type": "int256"
                }
              ],
              "internalType": "struct TokensFlow.SwapLimit",
              "name": "limit",
              "type": "tuple"
            },
            {
              "internalType": "int256",
              "name": "remainingSwapCredit",
              "type": "int256"
            },
            {
              "internalType": "int256",
              "name": "timeEnteredSwapCredit",
              "type": "int256"
            },
            {
              "internalType": "int256",
              "name": "lastSwapTime",
              "type": "int256"
            },
            {
              "internalType": "bool",
              "name": "disabled",
              "type": "bool"
            }
          ],
          "internalType": "struct TokensFlow.TokenFlow",
          "name": "",
          "type": "tuple"
        }
      ],
      "stateMutability": "view",
      "type": "function"
    },
    {
      "inputs": [
        {
          "internalType": "uint256",
          "name": "",
          "type": "uint256"
        }
      ],
      "name": "tokenOwners",
      "outputs": [
        {
          "internalType": "address",
          "name": "",
          "type": "address"
        }
      ],
      "stateMutability": "view",
      "type": "function"
    },
    {
      "inputs": [
        {
          "internalType": "uint256",
          "name": "_id",
          "type": "uint256"
        }
      ],
      "name": "totalSupply",
      "outputs": [
        {
          "internalType": "uint256",
          "name": "",
          "type": "uint256"
        }
      ],
      "stateMutability": "view",
      "type": "function"
    },
    {
      "inputs": [
        {
          "internalType": "uint256",
          "name": "_id",
          "type": "uint256"
        }
      ],
      "name": "uri",
      "outputs": [
        {
          "internalType": "string",
          "name": "",
          "type": "string"
        }
      ],
      "stateMutability": "view",
      "type": "function"
    }
  ],
  "bytecode": "0x608060405234801561001057600080fd5b5061430a806100206000396000f3fe608060405234801561001057600080fd5b50600436106101c35760003560e01c8063946c0c0f116100f9578063e985e9c511610097578063f5298aca11610071578063f5298aca14610546578063f8a14f4614610562578063f98e990f14610592578063fbd1342d146105ae576101c3565b8063e985e9c5146104de578063ecf95bc91461050e578063f242432a1461052a576101c3565b8063bd85b039116100d3578063bd85b03914610432578063de3d7f8a14610462578063e0511b3114610492578063e0a82ab4146104c2576101c3565b8063946c0c0f146103de578063a22cb465146103fa578063b7fdf31414610416576101c3565b80632eb2c2d61161016657806357f7789e1161014057806357f7789e14610358578063728dc9921461037457806375794a3c146103a45780637c65cd03146103c2576101c3565b80632eb2c2d6146102f0578063489b5d421461030c5780634e1273f414610328576101c3565b806309aca943116101a257806309aca943146102585780630a074d3e146102885780630e89341c146102a457806323eac4bd146102d4576101c3565b8062fdd58e146101c857806301ffc9a7146101f8578063061af13514610228575b600080fd5b6101e260048036038101906101dd9190613282565b6105ca565b6040516101ef9190613ff8565b60405180910390f35b610212600480360381019061020d91906134f0565b610624565b60405161021f9190613ec4565b60405180910390f35b610242600480360381019061023d919061368f565b6106d5565b60405161024f9190613ec4565b60405180910390f35b610272600480360381019061026d9190613542565b610711565b60405161027f9190613ec4565b60405180910390f35b6102a2600480360381019061029d91906132be565b61073c565b005b6102be60048036038101906102b991906135d2565b610896565b6040516102cb9190613efa565b60405180910390f35b6102ee60048036038101906102e991906135fb565b61094b565b005b61030a600480360381019061030591906130e8565b610a46565b005b6103266004803603810190610321919061330d565b610a60565b005b610342600480360381019061033d9190613388565b610c2c565b60405161034f9190613ea2565b60405180910390f35b610372600480360381019061036d9190613637565b610d4e565b005b61038e6004803603810190610389919061368f565b610de1565b60405161039b9190613edf565b60405180910390f35b6103ac610e1d565b6040516103b99190613ff8565b60405180910390f35b6103dc60048036038101906103d79190613455565b610e23565b005b6103f860048036038101906103f391906135d2565b611387565b005b610414600480360381019061040f9190613246565b611448565b005b610430600480360381019061042b91906137cc565b611545565b005b61044c600480360381019061044791906135d2565b6116b6565b6040516104599190613ff8565b60405180910390f35b61047c60048036038101906104779190613580565b6116d3565b6040516104899190613ff8565b60405180910390f35b6104ac60048036038101906104a7919061368f565b61173e565b6040516104b99190613fdc565b60405180910390f35b6104dc60048036038101906104d791906136cb565b61180d565b005b6104f860048036038101906104f391906130ac565b611888565b6040516105059190613ec4565b60405180910390f35b6105286004803603810190610523919061371a565b61191c565b005b610544600480360381019061053f91906131b4565b6119ea565b005b610560600480360381019061055b91906132be565b611a00565b005b61057c600480360381019061057791906135d2565b611c59565b6040516105899190613d8a565b60405180910390f35b6105ac60048036038101906105a79190613769565b611c8c565b005b6105c860048036038101906105c391906133fd565b611df3565b005b600080600083815260200190815260200160002060008473ffffffffffffffffffffffffffffffffffffffff1673ffffffffffffffffffffffffffffffffffffffff16815260200190815260200160002054905092915050565b60006301ffc9a760e01b7bffffffffffffffffffffffffffffffffffffffffffffffffffffffff1916827bffffffffffffffffffffffffffffffffffffffffffffffffffffffff191614806106bd575063d9b67a2660e01b7bffffffffffffffffffffffffffffffffffffffffffffffffffffffff1916827bffffffffffffffffffffffffffffffffffffffffffffffffffffffff1916145b156106cb57600190506106d0565b600090505b919050565b600060036000848152602001908152602001600020600083815260200190815260200160002060009054906101000a900460ff16905092915050565b600080836040015114158015610734575082600001516060015183604001518303125b905092915050565b61079e8160008085815260200190815260200160002060008673ffffffffffffffffffffffffffffffffffffffff1673ffffffffffffffffffffffffffffffffffffffff16815260200190815260200160002054611f6590919063ffffffff16565b60008084815260200190815260200160002060008573ffffffffffffffffffffffffffffffffffffffff1673ffffffffffffffffffffffffffffffffffffffff16815260200190815260200160002081905550806007600084815260200190815260200160002060008282540392505081905550600073ffffffffffffffffffffffffffffffffffffffff168373ffffffffffffffffffffffffffffffffffffffff163373ffffffffffffffffffffffffffffffffffffffff167fc3d58168c5ae7397731d063d5bbf3d657854427343f4c083240f7aacaa2d0f628585604051610889929190614013565b60405180910390a4505050565b6060600860008381526020019081526020016000208054600181600116156101000203166002900480601f01602080910402602001604051908101604052809291908181526020018280546001816001161561010002031660029004801561093f5780601f106109145761010080835404028352916020019161093f565b820191906000526020600020905b81548152906001019060200180831161092257829003601f168201915b50505050509050919050565b6006600083815260200190815260200160002060009054906101000a900473ffffffffffffffffffffffffffffffffffffffff1673ffffffffffffffffffffffffffffffffffffffff163373ffffffffffffffffffffffffffffffffffffffff16146109b657600080fd5b600073ffffffffffffffffffffffffffffffffffffffff168173ffffffffffffffffffffffffffffffffffffffff1614156109f057600080fd5b806006600084815260200190815260200160002060006101000a81548173ffffffffffffffffffffffffffffffffffffffff021916908373ffffffffffffffffffffffffffffffffffffffff1602179055505050565b610a568888888888888888611f7c565b5050505050505050565b600073ffffffffffffffffffffffffffffffffffffffff168473ffffffffffffffffffffffffffffffffffffffff161415610ad0576040517f08c379a0000000000000000000000000000000000000000000000000000000008152600401610ac790613fbc565b60405180910390fd5b60008214610b7357610afe60076000858152602001908152602001600020548361246c90919063ffffffff16565b60076000858152602001908152602001600020819055508160008085815260200190815260200160002060008673ffffffffffffffffffffffffffffffffffffffff1673ffffffffffffffffffffffffffffffffffffffff168152602001908152602001600020600082825401925050819055505b8373ffffffffffffffffffffffffffffffffffffffff16600073ffffffffffffffffffffffffffffffffffffffff163373ffffffffffffffffffffffffffffffffffffffff167fc3d58168c5ae7397731d063d5bbf3d657854427343f4c083240f7aacaa2d0f628686604051610bea929190614013565b60405180910390a4610c118473ffffffffffffffffffffffffffffffffffffffff16612483565b15610c2657610c2533600086868686612496565b5b50505050565b6060828290508585905014610c4057600080fd5b60608585905067ffffffffffffffff81118015610c5c57600080fd5b50604051908082528060200260200182016040528015610c8b5781602001602082028036833780820191505090505b50905060005b86869050811015610d4157600080868684818110610cab57fe5b9050602002013581526020019081526020016000206000888884818110610cce57fe5b9050602002016020810190610ce39190613083565b73ffffffffffffffffffffffffffffffffffffffff1673ffffffffffffffffffffffffffffffffffffffff16815260200190815260200160002054828281518110610d2a57fe5b602002602001018181525050806001019050610c91565b5080915050949350505050565b6006600084815260200190815260200160002060009054906101000a900473ffffffffffffffffffffffffffffffffffffffff1673ffffffffffffffffffffffffffffffffffffffff163373ffffffffffffffffffffffffffffffffffffffff1614610db957600080fd5b8181600860008681526020019081526020016000209190610ddb929190612c48565b50505050565b600060056000848152602001908152602001600020600083815260200190815260200160002060009054906101000a9004600f0b905092915050565b60025481565b3373ffffffffffffffffffffffffffffffffffffffff168373ffffffffffffffffffffffffffffffffffffffff161480610ee35750600160003373ffffffffffffffffffffffffffffffffffffffff1673ffffffffffffffffffffffffffffffffffffffff16815260200190815260200160002060008473ffffffffffffffffffffffffffffffffffffffff1673ffffffffffffffffffffffffffffffffffffffff16815260200190815260200160002060009054906101000a900460ff165b610f22576040517f08c379a0000000000000000000000000000000000000000000000000000000008152600401610f1990613f1c565b60405180910390fd5b6000868660018989905003818110610f3657fe5b905060200201351415610f4857600080fd5b7001000000000000000000000000000000008410610f6557600080fd5b600080600088886000818110610f7757fe5b90506020020135815260200190815260200160002060008573ffffffffffffffffffffffffffffffffffffffff1673ffffffffffffffffffffffffffffffffffffffff16815260200190815260200160002054905080851115610fd957600080fd5b60008086905060005b60018a8a90500381146112f55760008a8a83818110610ffd57fe5b90506020020135905060008b8b6001850181811061101757fe5b90506020020135905060036000838152602001908152602001600020600082815260200190815260200160002060009054906101000a900460ff1661105b57600080fd5b60046000838152602001908152602001600020600082815260200190815260200160002094508460080160009054906101000a900460ff161561109d57600080fd5b60006110a76125b7565b90506000808760000160000160009054906101000a900460ff161561121a5761116b886040518060a0016040529081600082016040518060a00160405290816000820160009054906101000a900460ff1615151515815260200160018201548152602001600282015481526020016003820154815260200160048201548152505081526020016005820154815260200160068201548152602001600782015481526020016008820160009054906101000a900460ff16151515158152505084610711565b9050611213886040518060a0016040529081600082016040518060a00160405290816000820160009054906101000a900460ff1615151515815260200160018201548152602001600282015481526020016003820154815260200160048201548152505081526020016005820154815260200160068201548152602001600782015481526020016008820160009054906101000a900460ff16151515158152505084836116d3565b9150611236565b6000886005015412611230578760050154611233565b60005b91505b818d111561124357600080fd5b8760000160000160009054906101000a900460ff168015611262575080155b1561128157828860060181905550876000016002015488600501819055505b8288600701819055508c88600501600082825403925050819055506112e38760056000888152602001908152602001600020600087815260200190815260200160002060009054906101000a9004600f0b600f0b6125bf90919063ffffffff16565b96505050505050806001019050610fe2565b50611314868a8a600081811061130757fe5b905060200201358961073c565b61137c868a8a60018d8d90500381811061132a57fe5b905060200201358388888080601f016020809104026020016040519081016040528093929190818152602001838380828437600081840152601f19601f82011690508083019250505050505050610a60565b505050505050505050565b6006600082815260200190815260200160002060009054906101000a900473ffffffffffffffffffffffffffffffffffffffff1673ffffffffffffffffffffffffffffffffffffffff163373ffffffffffffffffffffffffffffffffffffffff16146113f257600080fd5b60006006600083815260200190815260200160002060006101000a81548173ffffffffffffffffffffffffffffffffffffffff021916908373ffffffffffffffffffffffffffffffffffffffff16021790555050565b80600160003373ffffffffffffffffffffffffffffffffffffffff1673ffffffffffffffffffffffffffffffffffffffff16815260200190815260200160002060008473ffffffffffffffffffffffffffffffffffffffff1673ffffffffffffffffffffffffffffffffffffffff16815260200190815260200160002060006101000a81548160ff0219169083151502179055508173ffffffffffffffffffffffffffffffffffffffff163373ffffffffffffffffffffffffffffffffffffffff167f17307eab39ab6107e8899845ad3d59bd9653f200f220920489ca2b5937696c31836040516115399190613ec4565b60405180910390a35050565b6006600087815260200190815260200160002060009054906101000a900473ffffffffffffffffffffffffffffffffffffffff1673ffffffffffffffffffffffffffffffffffffffff163373ffffffffffffffffffffffffffffffffffffffff16146115b057600080fd5b60006004600089815260200190815260200160002060008881526020019081526020016000209050611632816000016040518060a00160405290816000820160009054906101000a900460ff1615151515815260200160018201548152602001600282015481526020016003820154815260200160048201548152505061267a565b821461163d57600080fd5b61164b6001868887876126c6565b8160000160008201518160000160006101000a81548160ff021916908315150217905550602082015181600101556040820151816002015560608201518160030155608082015181600401559050508281600601819055508481600501819055505050505050505050565b600060076000838152602001908152602001600020549050919050565b6000808215611717576000856060015185039050600086600001516060015182886000015160400151028161170457fe5b0590508087602001510392505050611723565b84600001516040015190505b600081126117315780611734565b60005b9150509392505050565b611746612cc8565b6004600084815260200190815260200160002060008381526020019081526020016000206040518060a0016040529081600082016040518060a00160405290816000820160009054906101000a900460ff1615151515815260200160018201548152602001600282015481526020016003820154815260200160048201548152505081526020016005820154815260200160068201548152602001600782015481526020016008820160009054906101000a900460ff161515151581525050905092915050565b6006600084815260200190815260200160002060009054906101000a900473ffffffffffffffffffffffffffffffffffffffff1673ffffffffffffffffffffffffffffffffffffffff163373ffffffffffffffffffffffffffffffffffffffff161461187857600080fd5b611883838383612702565b505050565b6000600160008473ffffffffffffffffffffffffffffffffffffffff1673ffffffffffffffffffffffffffffffffffffffff16815260200190815260200160002060008373ffffffffffffffffffffffffffffffffffffffff1673ffffffffffffffffffffffffffffffffffffffff16815260200190815260200160002060009054906101000a900460ff16905092915050565b6006600083815260200190815260200160002060009054906101000a900473ffffffffffffffffffffffffffffffffffffffff1673ffffffffffffffffffffffffffffffffffffffff163373ffffffffffffffffffffffffffffffffffffffff161461198757600080fd5b8060056000858152602001908152602001600020600084815260200190815260200160002060006101000a8154816fffffffffffffffffffffffffffffffff0219169083600f0b6fffffffffffffffffffffffffffffffff160217905550505050565b6119f8868686868686612751565b505050505050565b3373ffffffffffffffffffffffffffffffffffffffff168373ffffffffffffffffffffffffffffffffffffffff161480611ac05750600160003373ffffffffffffffffffffffffffffffffffffffff1673ffffffffffffffffffffffffffffffffffffffff16815260200190815260200160002060008473ffffffffffffffffffffffffffffffffffffffff1673ffffffffffffffffffffffffffffffffffffffff16815260200190815260200160002060009054906101000a900460ff165b611aff576040517f08c379a0000000000000000000000000000000000000000000000000000000008152600401611af690613f1c565b60405180910390fd5b611b618160008085815260200190815260200160002060008673ffffffffffffffffffffffffffffffffffffffff1673ffffffffffffffffffffffffffffffffffffffff16815260200190815260200160002054611f6590919063ffffffff16565b60008084815260200190815260200160002060008573ffffffffffffffffffffffffffffffffffffffff1673ffffffffffffffffffffffffffffffffffffffff16815260200190815260200160002081905550806007600084815260200190815260200160002060008282540392505081905550600073ffffffffffffffffffffffffffffffffffffffff168373ffffffffffffffffffffffffffffffffffffffff163373ffffffffffffffffffffffffffffffffffffffff167fc3d58168c5ae7397731d063d5bbf3d657854427343f4c083240f7aacaa2d0f628585604051611c4c929190614013565b60405180910390a4505050565b60066020528060005260406000206000915054906101000a900473ffffffffffffffffffffffffffffffffffffffff1681565b6006600084815260200190815260200160002060009054906101000a900473ffffffffffffffffffffffffffffffffffffffff1673ffffffffffffffffffffffffffffffffffffffff163373ffffffffffffffffffffffffffffffffffffffff1614611cf757600080fd5b60006004600086815260200190815260200160002060008581526020019081526020016000209050611d79816000016040518060a00160405290816000820160009054906101000a900460ff1615151515815260200160018201548152602001600282015481526020016003820154815260200160048201548152505061267a565b8214611d8457600080fd5b611d9460008460008060006126c6565b8160000160008201518160000160006101000a81548160ff021916908315150217905550602082015181600101556040820151816002015560608201518160030155608082015181600401559050508281600501819055505050505050565b6000838360018686905003818110611e0757fe5b9050602002013590506006600082815260200190815260200160002060009054906101000a900473ffffffffffffffffffffffffffffffffffffffff1673ffffffffffffffffffffffffffffffffffffffff163373ffffffffffffffffffffffffffffffffffffffff1614611e7b57600080fd5b60005b600185859050038114611f5e576000858583818110611e9957fe5b90506020020135905082811415611eaf57600080fd5b600186869050038214611f52576000868660018501818110611ecd57fe5b90506020020135905060036000838152602001908152602001600020600082815260200190815260200160002060009054906101000a900460ff16611f1157600080fd5b8460046000848152602001908152602001600020600083815260200190815260200160002060080160006101000a81548160ff021916908315150217905550505b50806001019050611e7e565b5050505050565b600082821115611f7157fe5b818303905092915050565b600073ffffffffffffffffffffffffffffffffffffffff168773ffffffffffffffffffffffffffffffffffffffff161415611fec576040517f08c379a0000000000000000000000000000000000000000000000000000000008152600401611fe390613f3c565b60405180910390fd5b838390508686905014612034576040517f08c379a000000000000000000000000000000000000000000000000000000000815260040161202b90613f7c565b60405180910390fd5b3373ffffffffffffffffffffffffffffffffffffffff168873ffffffffffffffffffffffffffffffffffffffff1614806120f45750600160003373ffffffffffffffffffffffffffffffffffffffff1673ffffffffffffffffffffffffffffffffffffffff16815260200190815260200160002060008973ffffffffffffffffffffffffffffffffffffffff1673ffffffffffffffffffffffffffffffffffffffff16815260200190815260200160002060009054906101000a900460ff165b612133576040517f08c379a000000000000000000000000000000000000000000000000000000000815260040161212a90613f1c565b60405180910390fd5b60005b868690508110156122e657600087878381811061214f57fe5b905060200201359050600086868481811061216657fe5b9050602002013590506121d18160008085815260200190815260200160002060008e73ffffffffffffffffffffffffffffffffffffffff1673ffffffffffffffffffffffffffffffffffffffff16815260200190815260200160002054611f6590919063ffffffff16565b60008084815260200190815260200160002060008d73ffffffffffffffffffffffffffffffffffffffff1673ffffffffffffffffffffffffffffffffffffffff1681526020019081526020016000208190555061228660008084815260200190815260200160002060008c73ffffffffffffffffffffffffffffffffffffffff1673ffffffffffffffffffffffffffffffffffffffff168152602001908152602001600020548261246c90919063ffffffff16565b60008084815260200190815260200160002060008c73ffffffffffffffffffffffffffffffffffffffff1673ffffffffffffffffffffffffffffffffffffffff168152602001908152602001600020819055505050806001019050612136565b508673ffffffffffffffffffffffffffffffffffffffff168873ffffffffffffffffffffffffffffffffffffffff163373ffffffffffffffffffffffffffffffffffffffff167f4a39dc06d4c0dbc64b70af90fd698a233a518aa5d07e595d983b8c0526c8f7fb898989896040516123619493929190613e67565b60405180910390a46123888773ffffffffffffffffffffffffffffffffffffffff16612483565b1561246257612461338989898980806020026020016040519081016040528093929190818152602001838360200280828437600081840152601f19601f82011690508083019250505050505050888880806020026020016040519081016040528093929190818152602001838360200280828437600081840152601f19601f8201169050808301925050505050505087878080601f016020809104026020016040519081016040528093929190818152602001838380828437600081840152601f19601f82011690508083019250505050505050612b27565b5b5050505050505050565b600081830190508281101561247d57fe5b92915050565b600080823b905060008111915050919050565b63f23a6e6160e01b7bffffffffffffffffffffffffffffffffffffffffffffffffffffffff19168473ffffffffffffffffffffffffffffffffffffffff1663f23a6e6188888787876040518663ffffffff1660e01b81526004016124fe959493929190613e0d565b602060405180830381600087803b15801561251857600080fd5b505af115801561252c573d6000803e3d6000fd5b505050506040513d601f19601f820116820180604052508101906125509190613519565b7bffffffffffffffffffffffffffffffffffffffffffffffffffffffff1916146125af576040517f08c379a00000000000000000000000000000000000000000000000000000000081526004016125a690613f9c565b60405180910390fd5b505050505050565b600042905090565b6000808214156125d25760009050612674565b600083600f0b12156125e357600080fd5b600060406fffffffffffffffffffffffffffffffff841685600f0b02901c90506000608084901c85600f0b02905077ffffffffffffffffffffffffffffffffffffffffffffffff81111561263657600080fd5b604081901b9050817fffffffffffffffffffffffffffffffffffffffffffffffffffffffffffffffff0381111561266c57600080fd5b818101925050505b92915050565b6000816000015182602001518360400151846060015185608001516040516020016126a9959493929190613d2b565b604051602081830303815290604052805190602001209050919050565b6126ce612cff565b6040518060a00160405280871515815260200186815260200185815260200184815260200183815250905095945050505050565b600254821061271057600080fd5b8060036000858152602001908152602001600020600084815260200190815260200160002060006101000a81548160ff021916908315150217905550505050565b600073ffffffffffffffffffffffffffffffffffffffff168573ffffffffffffffffffffffffffffffffffffffff1614156127c1576040517f08c379a00000000000000000000000000000000000000000000000000000000081526004016127b890613fbc565b60405180910390fd5b3373ffffffffffffffffffffffffffffffffffffffff168673ffffffffffffffffffffffffffffffffffffffff1614806128815750600160003373ffffffffffffffffffffffffffffffffffffffff1673ffffffffffffffffffffffffffffffffffffffff16815260200190815260200160002060008773ffffffffffffffffffffffffffffffffffffffff1673ffffffffffffffffffffffffffffffffffffffff16815260200190815260200160002060009054906101000a900460ff165b6128c0576040517f08c379a00000000000000000000000000000000000000000000000000000000081526004016128b790613f1c565b60405180910390fd5b6129228360008087815260200190815260200160002060008973ffffffffffffffffffffffffffffffffffffffff1673ffffffffffffffffffffffffffffffffffffffff16815260200190815260200160002054611f6590919063ffffffff16565b60008086815260200190815260200160002060008873ffffffffffffffffffffffffffffffffffffffff1673ffffffffffffffffffffffffffffffffffffffff168152602001908152602001600020819055506129d760008086815260200190815260200160002060008773ffffffffffffffffffffffffffffffffffffffff1673ffffffffffffffffffffffffffffffffffffffff168152602001908152602001600020548461246c90919063ffffffff16565b60008086815260200190815260200160002060008773ffffffffffffffffffffffffffffffffffffffff1673ffffffffffffffffffffffffffffffffffffffff168152602001908152602001600020819055508473ffffffffffffffffffffffffffffffffffffffff168673ffffffffffffffffffffffffffffffffffffffff163373ffffffffffffffffffffffffffffffffffffffff167fc3d58168c5ae7397731d063d5bbf3d657854427343f4c083240f7aacaa2d0f628787604051612aa0929190614013565b60405180910390a4612ac78573ffffffffffffffffffffffffffffffffffffffff16612483565b15612b1f57612b1e338787878787878080601f016020809104026020016040519081016040528093929190818152602001838380828437600081840152601f19601f82011690508083019250505050505050612496565b5b505050505050565b63bc197c8160e01b7bffffffffffffffffffffffffffffffffffffffffffffffffffffffff19168473ffffffffffffffffffffffffffffffffffffffff1663bc197c8188888787876040518663ffffffff1660e01b8152600401612b8f959493929190613da5565b602060405180830381600087803b158015612ba957600080fd5b505af1158015612bbd573d6000803e3d6000fd5b505050506040513d601f19601f82011682018060405250810190612be19190613519565b7bffffffffffffffffffffffffffffffffffffffffffffffffffffffff191614612c40576040517f08c379a0000000000000000000000000000000000000000000000000000000008152600401612c3790613f5c565b60405180910390fd5b505050505050565b828054600181600116156101000203166002900490600052602060002090601f016020900481019282601f10612c8957803560ff1916838001178555612cb7565b82800160010185558215612cb7579182015b82811115612cb6578235825591602001919060010190612c9b565b5b509050612cc49190612d30565b5090565b6040518060a00160405280612cdb612cff565b81526020016000815260200160008152602001600081526020016000151581525090565b6040518060a00160405280600015158152602001600081526020016000815260200160008152602001600081525090565b5b80821115612d49576000816000905550600101612d31565b5090565b600081359050612d5c81614233565b92915050565b60008083601f840112612d7457600080fd5b8235905067ffffffffffffffff811115612d8d57600080fd5b602083019150836020820283011115612da557600080fd5b9250929050565b60008083601f840112612dbe57600080fd5b8235905067ffffffffffffffff811115612dd757600080fd5b602083019150836020820283011115612def57600080fd5b9250929050565b600081359050612e058161424a565b92915050565b600081359050612e1a81614261565b92915050565b600081359050612e2f81614278565b92915050565b600081519050612e4481614278565b92915050565b60008083601f840112612e5c57600080fd5b8235905067ffffffffffffffff811115612e7557600080fd5b602083019150836001820283011115612e8d57600080fd5b9250929050565b600082601f830112612ea557600080fd5b8135612eb8612eb38261406d565b61403c565b91508082526020830160208301858383011115612ed457600080fd5b612edf8382846141a3565b50505092915050565b600081359050612ef78161428f565b92915050565b600081359050612f0c816142a6565b92915050565b60008083601f840112612f2457600080fd5b8235905067ffffffffffffffff811115612f3d57600080fd5b602083019150836001820283011115612f5557600080fd5b9250929050565b600060a08284031215612f6e57600080fd5b612f7860a061403c565b90506000612f8884828501612df6565b6000830152506020612f9c84828501612efd565b6020830152506040612fb084828501612efd565b6040830152506060612fc484828501612efd565b6060830152506080612fd884828501612efd565b60808301525092915050565b60006101208284031215612ff757600080fd5b61300160a061403c565b9050600061301184828501612f5c565b60008301525060a061302584828501612efd565b60208301525060c061303984828501612efd565b60408301525060e061304d84828501612efd565b60608301525061010061306284828501612df6565b60808301525092915050565b60008135905061307d816142bd565b92915050565b60006020828403121561309557600080fd5b60006130a384828501612d4d565b91505092915050565b600080604083850312156130bf57600080fd5b60006130cd85828601612d4d565b92505060206130de85828601612d4d565b9150509250929050565b60008060008060008060008060a0898b03121561310457600080fd5b60006131128b828c01612d4d565b98505060206131238b828c01612d4d565b975050604089013567ffffffffffffffff81111561314057600080fd5b61314c8b828c01612dac565b9650965050606089013567ffffffffffffffff81111561316b57600080fd5b6131778b828c01612dac565b9450945050608089013567ffffffffffffffff81111561319657600080fd5b6131a28b828c01612e4a565b92509250509295985092959890939650565b60008060008060008060a087890312156131cd57600080fd5b60006131db89828a01612d4d565b96505060206131ec89828a01612d4d565b95505060406131fd89828a0161306e565b945050606061320e89828a0161306e565b935050608087013567ffffffffffffffff81111561322b57600080fd5b61323789828a01612e4a565b92509250509295509295509295565b6000806040838503121561325957600080fd5b600061326785828601612d4d565b925050602061327885828601612df6565b9150509250929050565b6000806040838503121561329557600080fd5b60006132a385828601612d4d565b92505060206132b48582860161306e565b9150509250929050565b6000806000606084860312156132d357600080fd5b60006132e186828701612d4d565b93505060206132f28682870161306e565b92505060406133038682870161306e565b9150509250925092565b6000806000806080858703121561332357600080fd5b600061333187828801612d4d565b94505060206133428782880161306e565b93505060406133538782880161306e565b925050606085013567ffffffffffffffff81111561337057600080fd5b61337c87828801612e94565b91505092959194509250565b6000806000806040858703121561339e57600080fd5b600085013567ffffffffffffffff8111156133b857600080fd5b6133c487828801612d62565b9450945050602085013567ffffffffffffffff8111156133e357600080fd5b6133ef87828801612dac565b925092505092959194509250565b60008060006040848603121561341257600080fd5b600084013567ffffffffffffffff81111561342c57600080fd5b61343886828701612dac565b9350935050602061344b86828701612df6565b9150509250925092565b6000806000806000806080878903121561346e57600080fd5b600087013567ffffffffffffffff81111561348857600080fd5b61349489828a01612dac565b965096505060206134a789828a0161306e565b94505060406134b889828a01612d4d565b935050606087013567ffffffffffffffff8111156134d557600080fd5b6134e189828a01612e4a565b92509250509295509295509295565b60006020828403121561350257600080fd5b600061351084828501612e20565b91505092915050565b60006020828403121561352b57600080fd5b600061353984828501612e35565b91505092915050565b600080610140838503121561355657600080fd5b600061356485828601612fe4565b92505061012061357685828601612efd565b9150509250929050565b6000806000610160848603121561359657600080fd5b60006135a486828701612fe4565b9350506101206135b686828701612efd565b9250506101406135c886828701612df6565b9150509250925092565b6000602082840312156135e457600080fd5b60006135f28482850161306e565b91505092915050565b6000806040838503121561360e57600080fd5b600061361c8582860161306e565b925050602061362d85828601612d4d565b9150509250929050565b60008060006040848603121561364c57600080fd5b600061365a8682870161306e565b935050602084013567ffffffffffffffff81111561367757600080fd5b61368386828701612f12565b92509250509250925092565b600080604083850312156136a257600080fd5b60006136b08582860161306e565b92505060206136c18582860161306e565b9150509250929050565b6000806000606084860312156136e057600080fd5b60006136ee8682870161306e565b93505060206136ff8682870161306e565b925050604061371086828701612df6565b9150509250925092565b60008060006060848603121561372f57600080fd5b600061373d8682870161306e565b935050602061374e8682870161306e565b925050604061375f86828701612ee8565b9150509250925092565b6000806000806080858703121561377f57600080fd5b600061378d8782880161306e565b945050602061379e8782880161306e565b93505060406137af87828801612efd565b92505060606137c087828801612e0b565b91505092959194509250565b600080600080600080600060e0888a0312156137e757600080fd5b60006137f58a828b0161306e565b97505060206138068a828b0161306e565b96505060406138178a828b01612efd565b95505060606138288a828b01612efd565b94505060806138398a828b01612efd565b93505060a061384a8a828b01612efd565b92505060c061385b8a828b01612e0b565b91505092959891949750929550565b60006138768383613d0d565b60208301905092915050565b61388b8161410e565b82525050565b600061389d83856140db565b93507f07ffffffffffffffffffffffffffffffffffffffffffffffffffffffffffffff8311156138cc57600080fd5b6020830292506138dd8385846141a3565b82840190509392505050565b60006138f4826140ad565b6138fe81856140db565b93506139098361409d565b8060005b8381101561393a578151613921888261386a565b975061392c836140ce565b92505060018101905061390d565b5085935050505092915050565b61395081614120565b82525050565b61395f81614120565b82525050565b61397661397182614120565b6141e5565b82525050565b6000613987826140b8565b61399181856140ec565b93506139a18185602086016141b2565b6139aa81614215565b840191505092915050565b6139be81614162565b82525050565b6139cd8161416f565b82525050565b6139e46139df8261416f565b6141f7565b82525050565b60006139f5826140c3565b6139ff81856140fd565b9350613a0f8185602086016141b2565b613a1881614215565b840191505092915050565b6000613a30600c836140fd565b91507f4e6f20617070726f76616c2e00000000000000000000000000000000000000006000830152602082019050919050565b6000613a706025836140fd565b91507f64657374696e6174696f6e2061646472657373206d757374206265206e6f6e2d60008301527f7a65726f2e0000000000000000000000000000000000000000000000000000006020830152604082019050919050565b6000613ad6603e836140fd565b91507f636f6e74726163742072657475726e656420616e20756e6b6e6f776e2076616c60008301527f75652066726f6d206f6e455243313135354261746368526563656976656400006020830152604082019050919050565b6000613b3c6029836140fd565b91507f5f69647320616e64205f76616c756573206172726179206c656e677468206d7560008301527f7374206d617463682e00000000000000000000000000000000000000000000006020830152604082019050919050565b6000613ba26039836140fd565b91507f636f6e74726163742072657475726e656420616e20756e6b6e6f776e2076616c60008301527f75652066726f6d206f6e455243313135355265636569766564000000000000006020830152604082019050919050565b6000613c086015836140fd565b91507f5f746f206d757374206265206e6f6e2d7a65726f2e00000000000000000000006000830152602082019050919050565b60a082016000820151613c516000850182613947565b506020820151613c6460208501826139c4565b506040820151613c7760408501826139c4565b506060820151613c8a60608501826139c4565b506080820151613c9d60808501826139c4565b50505050565b61012082016000820151613cba6000850182613c3b565b506020820151613ccd60a08501826139c4565b506040820151613ce060c08501826139c4565b506060820151613cf360e08501826139c4565b506080820151613d07610100850182613947565b50505050565b613d1681614199565b82525050565b613d2581614199565b82525050565b6000613d378288613965565b600182019150613d4782876139d3565b602082019150613d5782866139d3565b602082019150613d6782856139d3565b602082019150613d7782846139d3565b6020820191508190509695505050505050565b6000602082019050613d9f6000830184613882565b92915050565b600060a082019050613dba6000830188613882565b613dc76020830187613882565b8181036040830152613dd981866138e9565b90508181036060830152613ded81856138e9565b90508181036080830152613e01818461397c565b90509695505050505050565b600060a082019050613e226000830188613882565b613e2f6020830187613882565b613e3c6040830186613d1c565b613e496060830185613d1c565b8181036080830152613e5b818461397c565b90509695505050505050565b60006040820190508181036000830152613e82818688613891565b90508181036020830152613e97818486613891565b905095945050505050565b60006020820190508181036000830152613ebc81846138e9565b905092915050565b6000602082019050613ed96000830184613956565b92915050565b6000602082019050613ef460008301846139b5565b92915050565b60006020820190508181036000830152613f1481846139ea565b905092915050565b60006020820190508181036000830152613f3581613a23565b9050919050565b60006020820190508181036000830152613f5581613a63565b9050919050565b60006020820190508181036000830152613f7581613ac9565b9050919050565b60006020820190508181036000830152613f9581613b2f565b9050919050565b60006020820190508181036000830152613fb581613b95565b9050919050565b60006020820190508181036000830152613fd581613bfb565b9050919050565b600061012082019050613ff26000830184613ca3565b92915050565b600060208201905061400d6000830184613d1c565b92915050565b60006040820190506140286000830185613d1c565b6140356020830184613d1c565b9392505050565b6000604051905081810181811067ffffffffffffffff8211171561406357614062614213565b5b8060405250919050565b600067ffffffffffffffff82111561408857614087614213565b5b601f19601f8301169050602081019050919050565b6000819050602082019050919050565b600081519050919050565b600081519050919050565b600081519050919050565b6000602082019050919050565b600082825260208201905092915050565b600082825260208201905092915050565b600082825260208201905092915050565b600061411982614179565b9050919050565b60008115159050919050565b6000819050919050565b60007fffffffff0000000000000000000000000000000000000000000000000000000082169050919050565b600081600f0b9050919050565b6000819050919050565b600073ffffffffffffffffffffffffffffffffffffffff82169050919050565b6000819050919050565b82818337600083830152505050565b60005b838110156141d05780820151818401526020810190506141b5565b838111156141df576000848401525b50505050565b60006141f082614201565b9050919050565b6000819050919050565b600061420c82614226565b9050919050565bfe5b6000601f19601f8301169050919050565b60008160f81b9050919050565b61423c8161410e565b811461424757600080fd5b50565b61425381614120565b811461425e57600080fd5b50565b61426a8161412c565b811461427557600080fd5b50565b61428181614136565b811461428c57600080fd5b50565b61429881614162565b81146142a357600080fd5b50565b6142af8161416f565b81146142ba57600080fd5b50565b6142c681614199565b81146142d157600080fd5b5056fea26469706673582212200962838fc89aa25a237837ffd8b06571352e915dcf33ef407aba84044d72019364736f6c63430007030033",
  "linkReferences": {},
  "deployedLinkReferences": {}
}