{
  "_format": "hh-sol-artifact-1",
  "contractName": "TokensFlow",
  "sourceName": "contracts/TokensFlow.sol",
  "abi": [
    {
      "anonymous": false,
      "inputs": [
        {
          "indexed": true,
          "internalType": "address",
          "name": "_owner",
          "type": "address"
        },
        {
          "indexed": true,
          "internalType": "address",
          "name": "_operator",
          "type": "address"
        },
        {
          "indexed": false,
          "internalType": "bool",
          "name": "_approved",
          "type": "bool"
        }
      ],
      "name": "ApprovalForAll",
      "type": "event"
    },
    {
      "anonymous": false,
      "inputs": [
        {
          "indexed": true,
          "internalType": "uint256",
          "name": "id",
          "type": "uint256"
        },
        {
          "indexed": true,
          "internalType": "address",
          "name": "owner",
          "type": "address"
        },
        {
          "indexed": false,
          "internalType": "string",
          "name": "uri",
          "type": "string"
        }
      ],
      "name": "NewToken",
      "type": "event"
    },
    {
      "anonymous": false,
      "inputs": [
        {
          "indexed": true,
          "internalType": "address",
          "name": "_operator",
          "type": "address"
        },
        {
          "indexed": true,
          "internalType": "address",
          "name": "_from",
          "type": "address"
        },
        {
          "indexed": true,
          "internalType": "address",
          "name": "_to",
          "type": "address"
        },
        {
          "indexed": false,
          "internalType": "uint256[]",
          "name": "_ids",
          "type": "uint256[]"
        },
        {
          "indexed": false,
          "internalType": "uint256[]",
          "name": "_values",
          "type": "uint256[]"
        }
      ],
      "name": "TransferBatch",
      "type": "event"
    },
    {
      "anonymous": false,
      "inputs": [
        {
          "indexed": true,
          "internalType": "address",
          "name": "_operator",
          "type": "address"
        },
        {
          "indexed": true,
          "internalType": "address",
          "name": "_from",
          "type": "address"
        },
        {
          "indexed": true,
          "internalType": "address",
          "name": "_to",
          "type": "address"
        },
        {
          "indexed": false,
          "internalType": "uint256",
          "name": "_id",
          "type": "uint256"
        },
        {
          "indexed": false,
          "internalType": "uint256",
          "name": "_value",
          "type": "uint256"
        }
      ],
      "name": "TransferSingle",
      "type": "event"
    },
    {
      "anonymous": false,
      "inputs": [
        {
          "indexed": false,
          "internalType": "string",
          "name": "_value",
          "type": "string"
        },
        {
          "indexed": true,
          "internalType": "uint256",
          "name": "_id",
          "type": "uint256"
        }
      ],
      "name": "URI",
      "type": "event"
    },
    {
      "inputs": [
        {
          "internalType": "address",
          "name": "_from",
          "type": "address"
        },
        {
          "internalType": "uint256",
          "name": "_id",
          "type": "uint256"
        },
        {
          "internalType": "uint256",
          "name": "_value",
          "type": "uint256"
        }
      ],
      "name": "_doBurn",
      "outputs": [],
      "stateMutability": "nonpayable",
      "type": "function"
    },
    {
      "inputs": [
        {
          "internalType": "address",
          "name": "_to",
          "type": "address"
        },
        {
          "internalType": "uint256",
          "name": "_id",
          "type": "uint256"
        },
        {
          "internalType": "uint256",
          "name": "_value",
          "type": "uint256"
        },
        {
          "internalType": "bytes",
          "name": "_data",
          "type": "bytes"
        }
      ],
      "name": "_doMint",
      "outputs": [],
      "stateMutability": "nonpayable",
      "type": "function"
    },
    {
      "inputs": [
        {
          "components": [
            {
              "components": [
                {
                  "internalType": "bool",
                  "name": "recurring",
                  "type": "bool"
                },
                {
                  "internalType": "int256",
                  "name": "initialSwapCredit",
                  "type": "int256"
                },
                {
                  "internalType": "int256",
                  "name": "maxSwapCredit",
                  "type": "int256"
                },
                {
                  "internalType": "int256",
                  "name": "swapCreditPeriod",
                  "type": "int256"
                },
                {
                  "internalType": "int256",
                  "name": "firstTimeEnteredSwapCredit",
                  "type": "int256"
                }
              ],
              "internalType": "struct TokensFlow.SwapLimit",
              "name": "limit",
              "type": "tuple"
            },
            {
              "internalType": "int256",
              "name": "remainingSwapCredit",
              "type": "int256"
            },
            {
              "internalType": "int256",
              "name": "timeEnteredSwapCredit",
              "type": "int256"
            },
            {
              "internalType": "int256",
              "name": "lastSwapTime",
              "type": "int256"
            },
            {
              "internalType": "bool",
              "name": "disabled",
              "type": "bool"
            }
          ],
          "internalType": "struct TokensFlow.TokenFlow",
          "name": "_flow",
          "type": "tuple"
        },
        {
          "internalType": "int256",
          "name": "_currentTimeResult",
          "type": "int256"
        }
      ],
      "name": "_inSwapCredit",
      "outputs": [
        {
          "internalType": "bool",
          "name": "",
          "type": "bool"
        }
      ],
      "stateMutability": "pure",
      "type": "function"
    },
    {
      "inputs": [
        {
          "components": [
            {
              "components": [
                {
                  "internalType": "bool",
                  "name": "recurring",
                  "type": "bool"
                },
                {
                  "internalType": "int256",
                  "name": "initialSwapCredit",
                  "type": "int256"
                },
                {
                  "internalType": "int256",
                  "name": "maxSwapCredit",
                  "type": "int256"
                },
                {
                  "internalType": "int256",
                  "name": "swapCreditPeriod",
                  "type": "int256"
                },
                {
                  "internalType": "int256",
                  "name": "firstTimeEnteredSwapCredit",
                  "type": "int256"
                }
              ],
              "internalType": "struct TokensFlow.SwapLimit",
              "name": "limit",
              "type": "tuple"
            },
            {
              "internalType": "int256",
              "name": "remainingSwapCredit",
              "type": "int256"
            },
            {
              "internalType": "int256",
              "name": "timeEnteredSwapCredit",
              "type": "int256"
            },
            {
              "internalType": "int256",
              "name": "lastSwapTime",
              "type": "int256"
            },
            {
              "internalType": "bool",
              "name": "disabled",
              "type": "bool"
            }
          ],
          "internalType": "struct TokensFlow.TokenFlow",
          "name": "_flow",
          "type": "tuple"
        },
        {
          "internalType": "int256",
          "name": "_currentTimeResult",
          "type": "int256"
        },
        {
          "internalType": "bool",
          "name": "_inSwapCreditResult",
          "type": "bool"
        }
      ],
      "name": "_maxRecurringSwapAmount",
      "outputs": [
        {
          "internalType": "uint256",
          "name": "",
          "type": "uint256"
        }
      ],
      "stateMutability": "pure",
      "type": "function"
    },
    {
      "inputs": [
        {
          "internalType": "address",
          "name": "_owner",
          "type": "address"
        },
        {
          "internalType": "uint256",
          "name": "_id",
          "type": "uint256"
        }
      ],
      "name": "balanceOf",
      "outputs": [
        {
          "internalType": "uint256",
          "name": "",
          "type": "uint256"
        }
      ],
      "stateMutability": "view",
      "type": "function"
    },
    {
      "inputs": [
        {
          "internalType": "address[]",
          "name": "_owners",
          "type": "address[]"
        },
        {
          "internalType": "uint256[]",
          "name": "_ids",
          "type": "uint256[]"
        }
      ],
      "name": "balanceOfBatch",
      "outputs": [
        {
          "internalType": "uint256[]",
          "name": "",
          "type": "uint256[]"
        }
      ],
      "stateMutability": "view",
      "type": "function"
    },
    {
      "inputs": [
        {
          "internalType": "address",
          "name": "_from",
          "type": "address"
        },
        {
          "internalType": "uint256",
          "name": "_id",
          "type": "uint256"
        },
        {
          "internalType": "uint256",
          "name": "_value",
          "type": "uint256"
        }
      ],
      "name": "burn",
      "outputs": [],
      "stateMutability": "nonpayable",
      "type": "function"
    },
    {
      "inputs": [
        {
          "internalType": "uint256",
          "name": "_child",
          "type": "uint256"
        },
        {
          "internalType": "uint256",
          "name": "_parent",
          "type": "uint256"
        }
      ],
      "name": "coeffient",
      "outputs": [
        {
          "internalType": "int128",
          "name": "",
          "type": "int128"
        }
      ],
      "stateMutability": "view",
      "type": "function"
    },
    {
      "inputs": [
        {
          "internalType": "uint256[]",
          "name": "_ids",
          "type": "uint256[]"
        },
        {
          "internalType": "uint256",
          "name": "_amount",
          "type": "uint256"
        },
        {
          "internalType": "address",
          "name": "_from",
          "type": "address"
        },
        {
          "internalType": "bytes",
          "name": "_data",
          "type": "bytes"
        }
      ],
      "name": "exchangeToAncestor",
      "outputs": [],
      "stateMutability": "nonpayable",
      "type": "function"
    },
    {
      "inputs": [
        {
          "internalType": "address",
          "name": "_owner",
          "type": "address"
        },
        {
          "internalType": "address",
          "name": "_operator",
          "type": "address"
        }
      ],
      "name": "isApprovedForAll",
      "outputs": [
        {
          "internalType": "bool",
          "name": "",
          "type": "bool"
        }
      ],
      "stateMutability": "view",
      "type": "function"
    },
    {
      "inputs": [
        {
          "internalType": "uint256",
          "name": "_child",
          "type": "uint256"
        },
        {
          "internalType": "uint256",
          "name": "_parent",
          "type": "uint256"
        }
      ],
      "name": "isChild",
      "outputs": [
        {
          "internalType": "bool",
          "name": "",
          "type": "bool"
        }
      ],
      "stateMutability": "view",
      "type": "function"
    },
    {
      "inputs": [],
      "name": "nextTokenId",
      "outputs": [
        {
          "internalType": "uint256",
          "name": "",
          "type": "uint256"
        }
      ],
      "stateMutability": "view",
      "type": "function"
    },
    {
      "inputs": [
        {
          "internalType": "uint256",
          "name": "_id",
          "type": "uint256"
        }
      ],
      "name": "removeTokenOwner",
      "outputs": [],
      "stateMutability": "nonpayable",
      "type": "function"
    },
    {
      "inputs": [
        {
          "internalType": "address",
          "name": "_from",
          "type": "address"
        },
        {
          "internalType": "address",
          "name": "_to",
          "type": "address"
        },
        {
          "internalType": "uint256[]",
          "name": "_ids",
          "type": "uint256[]"
        },
        {
          "internalType": "uint256[]",
          "name": "_values",
          "type": "uint256[]"
        },
        {
          "internalType": "bytes",
          "name": "_data",
          "type": "bytes"
        }
      ],
      "name": "safeBatchTransferFrom",
      "outputs": [],
      "stateMutability": "nonpayable",
      "type": "function"
    },
    {
      "inputs": [
        {
          "internalType": "address",
          "name": "_from",
          "type": "address"
        },
        {
          "internalType": "address",
          "name": "_to",
          "type": "address"
        },
        {
          "internalType": "uint256",
          "name": "_id",
          "type": "uint256"
        },
        {
          "internalType": "uint256",
          "name": "_value",
          "type": "uint256"
        },
        {
          "internalType": "bytes",
          "name": "_data",
          "type": "bytes"
        }
      ],
      "name": "safeTransferFrom",
      "outputs": [],
      "stateMutability": "nonpayable",
      "type": "function"
    },
    {
      "inputs": [
        {
          "internalType": "address",
          "name": "_operator",
          "type": "address"
        },
        {
          "internalType": "bool",
          "name": "_approved",
          "type": "bool"
        }
      ],
      "name": "setApprovalForAll",
      "outputs": [],
      "stateMutability": "nonpayable",
      "type": "function"
    },
    {
      "inputs": [
        {
          "internalType": "uint256",
          "name": "_child",
          "type": "uint256"
        },
        {
          "internalType": "uint256",
          "name": "_parent",
          "type": "uint256"
        },
        {
          "internalType": "int128",
          "name": "_coefficient",
          "type": "int128"
        }
      ],
      "name": "setCoefficient",
      "outputs": [],
      "stateMutability": "nonpayable",
      "type": "function"
    },
    {
      "inputs": [
        {
          "internalType": "uint256[]",
          "name": "_childs",
          "type": "uint256[]"
        },
        {
          "internalType": "bool",
          "name": "_disabled",
          "type": "bool"
        }
      ],
      "name": "setDisabled",
      "outputs": [],
      "stateMutability": "nonpayable",
      "type": "function"
    },
    {
      "inputs": [
        {
          "internalType": "uint256",
          "name": "_child",
          "type": "uint256"
        },
        {
          "internalType": "uint256",
          "name": "_parent",
          "type": "uint256"
        },
        {
          "internalType": "int256",
          "name": "_remainingSwapCredit",
          "type": "int256"
        },
        {
          "internalType": "bytes32",
          "name": "oldLimitHash",
          "type": "bytes32"
        }
      ],
      "name": "setNonRecurringFlow",
      "outputs": [],
      "stateMutability": "nonpayable",
      "type": "function"
    },
    {
      "inputs": [
        {
          "internalType": "uint256",
          "name": "_child",
          "type": "uint256"
        },
        {
          "internalType": "uint256",
          "name": "_parent",
          "type": "uint256"
        },
        {
          "internalType": "int256",
          "name": "_maxSwapCredit",
          "type": "int256"
        },
        {
          "internalType": "int256",
          "name": "_remainingSwapCredit",
          "type": "int256"
        },
        {
          "internalType": "int256",
          "name": "_swapCreditPeriod",
          "type": "int256"
        },
        {
          "internalType": "int256",
          "name": "_timeEnteredSwapCredit",
          "type": "int256"
        },
        {
          "internalType": "bytes32",
          "name": "oldLimitHash",
          "type": "bytes32"
        }
      ],
      "name": "setRecurringFlow",
      "outputs": [],
      "stateMutability": "nonpayable",
      "type": "function"
    },
    {
      "inputs": [
        {
          "internalType": "uint256",
          "name": "_id",
          "type": "uint256"
        },
        {
          "internalType": "address",
          "name": "_newOwner",
          "type": "address"
        }
      ],
      "name": "setTokenOwner",
      "outputs": [],
      "stateMutability": "nonpayable",
      "type": "function"
    },
    {
      "inputs": [
        {
          "internalType": "uint256",
          "name": "_child",
          "type": "uint256"
        },
        {
          "internalType": "uint256",
          "name": "_parent",
          "type": "uint256"
        },
        {
          "internalType": "bool",
          "name": "_value",
          "type": "bool"
        }
      ],
      "name": "setTokenParent",
      "outputs": [],
      "stateMutability": "nonpayable",
      "type": "function"
    },
    {
      "inputs": [
        {
          "internalType": "uint256",
          "name": "_id",
          "type": "uint256"
        },
        {
          "internalType": "string",
          "name": "_uri",
          "type": "string"
        }
      ],
      "name": "setTokenUri",
      "outputs": [],
      "stateMutability": "nonpayable",
      "type": "function"
    },
    {
      "inputs": [
        {
          "internalType": "bytes4",
          "name": "_interfaceId",
          "type": "bytes4"
        }
      ],
      "name": "supportsInterface",
      "outputs": [
        {
          "internalType": "bool",
          "name": "",
          "type": "bool"
        }
      ],
      "stateMutability": "pure",
      "type": "function"
    },
    {
      "inputs": [
        {
          "internalType": "uint256",
          "name": "_child",
          "type": "uint256"
        },
        {
          "internalType": "uint256",
          "name": "_parent",
          "type": "uint256"
        }
      ],
      "name": "tokenFlow",
      "outputs": [
        {
          "components": [
            {
              "components": [
                {
                  "internalType": "bool",
                  "name": "recurring",
                  "type": "bool"
                },
                {
                  "internalType": "int256",
                  "name": "initialSwapCredit",
                  "type": "int256"
                },
                {
                  "internalType": "int256",
                  "name": "maxSwapCredit",
                  "type": "int256"
                },
                {
                  "internalType": "int256",
                  "name": "swapCreditPeriod",
                  "type": "int256"
                },
                {
                  "internalType": "int256",
                  "name": "firstTimeEnteredSwapCredit",
                  "type": "int256"
                }
              ],
              "internalType": "struct TokensFlow.SwapLimit",
              "name": "limit",
              "type": "tuple"
            },
            {
              "internalType": "int256",
              "name": "remainingSwapCredit",
              "type": "int256"
            },
            {
              "internalType": "int256",
              "name": "timeEnteredSwapCredit",
              "type": "int256"
            },
            {
              "internalType": "int256",
              "name": "lastSwapTime",
              "type": "int256"
            },
            {
              "internalType": "bool",
              "name": "disabled",
              "type": "bool"
            }
          ],
          "internalType": "struct TokensFlow.TokenFlow",
          "name": "",
          "type": "tuple"
        }
      ],
      "stateMutability": "view",
      "type": "function"
    },
    {
      "inputs": [
        {
          "internalType": "uint256",
          "name": "",
          "type": "uint256"
        }
      ],
      "name": "tokenOwners",
      "outputs": [
        {
          "internalType": "address",
          "name": "",
          "type": "address"
        }
      ],
      "stateMutability": "view",
      "type": "function"
    },
    {
      "inputs": [
        {
          "internalType": "uint256",
          "name": "_id",
          "type": "uint256"
        }
      ],
      "name": "totalSupply",
      "outputs": [
        {
          "internalType": "uint256",
          "name": "",
          "type": "uint256"
        }
      ],
      "stateMutability": "view",
      "type": "function"
    },
    {
      "inputs": [
        {
          "internalType": "uint256",
          "name": "_id",
          "type": "uint256"
        }
      ],
      "name": "uri",
      "outputs": [
        {
          "internalType": "string",
          "name": "",
          "type": "string"
        }
      ],
      "stateMutability": "view",
      "type": "function"
    }
  ],
  "bytecode": "0x608060405234801561001057600080fd5b5061431e806100206000396000f3fe608060405234801561001057600080fd5b50600436106101c35760003560e01c8063946c0c0f116100f9578063e985e9c511610097578063f5298aca11610071578063f5298aca14610546578063f8a14f4614610562578063f98e990f14610592578063fbd1342d146105ae576101c3565b8063e985e9c5146104de578063ecf95bc91461050e578063f242432a1461052a576101c3565b8063bd85b039116100d3578063bd85b03914610432578063de3d7f8a14610462578063e0511b3114610492578063e0a82ab4146104c2576101c3565b8063946c0c0f146103de578063a22cb465146103fa578063b7fdf31414610416576101c3565b80632eb2c2d61161016657806357f7789e1161014057806357f7789e14610358578063728dc9921461037457806375794a3c146103a45780637c65cd03146103c2576101c3565b80632eb2c2d6146102f0578063489b5d421461030c5780634e1273f414610328576101c3565b806309aca943116101a257806309aca943146102585780630a074d3e146102885780630e89341c146102a457806323eac4bd146102d4576101c3565b8062fdd58e146101c857806301ffc9a7146101f8578063061af13514610228575b600080fd5b6101e260048036038101906101dd9190613296565b6105ca565b6040516101ef919061400c565b60405180910390f35b610212600480360381019061020d9190613504565b610624565b60405161021f9190613ed8565b60405180910390f35b610242600480360381019061023d91906136a3565b6106d5565b60405161024f9190613ed8565b60405180910390f35b610272600480360381019061026d9190613556565b610711565b60405161027f9190613ed8565b60405180910390f35b6102a2600480360381019061029d91906132d2565b61073c565b005b6102be60048036038101906102b991906135e6565b610896565b6040516102cb9190613f0e565b60405180910390f35b6102ee60048036038101906102e9919061360f565b61094b565b005b61030a600480360381019061030591906130fc565b610a46565b005b61032660048036038101906103219190613321565b610a60565b005b610342600480360381019061033d919061339c565b610c2c565b60405161034f9190613eb6565b60405180910390f35b610372600480360381019061036d919061364b565b610d4e565b005b61038e600480360381019061038991906136a3565b610de1565b60405161039b9190613ef3565b60405180910390f35b6103ac610e1d565b6040516103b9919061400c565b60405180910390f35b6103dc60048036038101906103d79190613469565b610e23565b005b6103f860048036038101906103f391906135e6565b611332565b005b610414600480360381019061040f919061325a565b6113f3565b005b610430600480360381019061042b91906137e0565b6114f0565b005b61044c600480360381019061044791906135e6565b611661565b604051610459919061400c565b60405180910390f35b61047c60048036038101906104779190613594565b61167e565b604051610489919061400c565b60405180910390f35b6104ac60048036038101906104a791906136a3565b6116e9565b6040516104b99190613ff0565b60405180910390f35b6104dc60048036038101906104d791906136df565b6117b8565b005b6104f860048036038101906104f391906130c0565b611833565b6040516105059190613ed8565b60405180910390f35b6105286004803603810190610523919061372e565b6118c7565b005b610544600480360381019061053f91906131c8565b611995565b005b610560600480360381019061055b91906132d2565b6119ab565b005b61057c600480360381019061057791906135e6565b611c04565b6040516105899190613d9e565b60405180910390f35b6105ac60048036038101906105a7919061377d565b611c37565b005b6105c860048036038101906105c39190613411565b611d9e565b005b600080600083815260200190815260200160002060008473ffffffffffffffffffffffffffffffffffffffff1673ffffffffffffffffffffffffffffffffffffffff16815260200190815260200160002054905092915050565b60006301ffc9a760e01b7bffffffffffffffffffffffffffffffffffffffffffffffffffffffff1916827bffffffffffffffffffffffffffffffffffffffffffffffffffffffff191614806106bd575063d9b67a2660e01b7bffffffffffffffffffffffffffffffffffffffffffffffffffffffff1916827bffffffffffffffffffffffffffffffffffffffffffffffffffffffff1916145b156106cb57600190506106d0565b600090505b919050565b600060036000848152602001908152602001600020600083815260200190815260200160002060009054906101000a900460ff16905092915050565b600080836040015114158015610734575082600001516060015183604001518303125b905092915050565b61079e8160008085815260200190815260200160002060008673ffffffffffffffffffffffffffffffffffffffff1673ffffffffffffffffffffffffffffffffffffffff16815260200190815260200160002054611f1090919063ffffffff16565b60008084815260200190815260200160002060008573ffffffffffffffffffffffffffffffffffffffff1673ffffffffffffffffffffffffffffffffffffffff16815260200190815260200160002081905550806007600084815260200190815260200160002060008282540392505081905550600073ffffffffffffffffffffffffffffffffffffffff168373ffffffffffffffffffffffffffffffffffffffff163373ffffffffffffffffffffffffffffffffffffffff167fc3d58168c5ae7397731d063d5bbf3d657854427343f4c083240f7aacaa2d0f628585604051610889929190614027565b60405180910390a4505050565b6060600860008381526020019081526020016000208054600181600116156101000203166002900480601f01602080910402602001604051908101604052809291908181526020018280546001816001161561010002031660029004801561093f5780601f106109145761010080835404028352916020019161093f565b820191906000526020600020905b81548152906001019060200180831161092257829003601f168201915b50505050509050919050565b6006600083815260200190815260200160002060009054906101000a900473ffffffffffffffffffffffffffffffffffffffff1673ffffffffffffffffffffffffffffffffffffffff163373ffffffffffffffffffffffffffffffffffffffff16146109b657600080fd5b600073ffffffffffffffffffffffffffffffffffffffff168173ffffffffffffffffffffffffffffffffffffffff1614156109f057600080fd5b806006600084815260200190815260200160002060006101000a81548173ffffffffffffffffffffffffffffffffffffffff021916908373ffffffffffffffffffffffffffffffffffffffff1602179055505050565b610a568888888888888888611f27565b5050505050505050565b600073ffffffffffffffffffffffffffffffffffffffff168473ffffffffffffffffffffffffffffffffffffffff161415610ad0576040517f08c379a0000000000000000000000000000000000000000000000000000000008152600401610ac790613fd0565b60405180910390fd5b60008214610b7357610afe60076000858152602001908152602001600020548361241790919063ffffffff16565b60076000858152602001908152602001600020819055508160008085815260200190815260200160002060008673ffffffffffffffffffffffffffffffffffffffff1673ffffffffffffffffffffffffffffffffffffffff168152602001908152602001600020600082825401925050819055505b8373ffffffffffffffffffffffffffffffffffffffff16600073ffffffffffffffffffffffffffffffffffffffff163373ffffffffffffffffffffffffffffffffffffffff167fc3d58168c5ae7397731d063d5bbf3d657854427343f4c083240f7aacaa2d0f628686604051610bea929190614027565b60405180910390a4610c118473ffffffffffffffffffffffffffffffffffffffff1661242e565b15610c2657610c2533600086868686612441565b5b50505050565b6060828290508585905014610c4057600080fd5b60608585905067ffffffffffffffff81118015610c5c57600080fd5b50604051908082528060200260200182016040528015610c8b5781602001602082028036833780820191505090505b50905060005b86869050811015610d4157600080868684818110610cab57fe5b9050602002013581526020019081526020016000206000888884818110610cce57fe5b9050602002016020810190610ce39190613097565b73ffffffffffffffffffffffffffffffffffffffff1673ffffffffffffffffffffffffffffffffffffffff16815260200190815260200160002054828281518110610d2a57fe5b602002602001018181525050806001019050610c91565b5080915050949350505050565b6006600084815260200190815260200160002060009054906101000a900473ffffffffffffffffffffffffffffffffffffffff1673ffffffffffffffffffffffffffffffffffffffff163373ffffffffffffffffffffffffffffffffffffffff1614610db957600080fd5b8181600860008681526020019081526020016000209190610ddb929190612c5c565b50505050565b600060056000848152602001908152602001600020600083815260200190815260200160002060009054906101000a9004600f0b905092915050565b60025481565b3373ffffffffffffffffffffffffffffffffffffffff168373ffffffffffffffffffffffffffffffffffffffff161480610ee35750600160003373ffffffffffffffffffffffffffffffffffffffff1673ffffffffffffffffffffffffffffffffffffffff16815260200190815260200160002060008473ffffffffffffffffffffffffffffffffffffffff1673ffffffffffffffffffffffffffffffffffffffff16815260200190815260200160002060009054906101000a900460ff165b610f22576040517f08c379a0000000000000000000000000000000000000000000000000000000008152600401610f1990613f30565b60405180910390fd5b6000868660018989905003818110610f3657fe5b905060200201351415610f4857600080fd5b7001000000000000000000000000000000008410610f6557600080fd5b600080600088886000818110610f7757fe5b90506020020135815260200190815260200160002060008573ffffffffffffffffffffffffffffffffffffffff1673ffffffffffffffffffffffffffffffffffffffff16815260200190815260200160002054905080851115610fd957600080fd5b60008086905060005b60018a8a90500381146112a05760008a8a83818110610ffd57fe5b90506020020135905060008b8b6001850181811061101757fe5b90506020020135905061102a8282612562565b94508460080160009054906101000a900460ff161561104857600080fd5b60006110526125cb565b90506000808760000160000160009054906101000a900460ff16156111c557611116886040518060a0016040529081600082016040518060a00160405290816000820160009054906101000a900460ff1615151515815260200160018201548152602001600282015481526020016003820154815260200160048201548152505081526020016005820154815260200160068201548152602001600782015481526020016008820160009054906101000a900460ff16151515158152505084610711565b90506111be886040518060a0016040529081600082016040518060a00160405290816000820160009054906101000a900460ff1615151515815260200160018201548152602001600282015481526020016003820154815260200160048201548152505081526020016005820154815260200160068201548152602001600782015481526020016008820160009054906101000a900460ff161515151581525050848361167e565b91506111e1565b60008860050154126111db5787600501546111de565b60005b91505b818d11156111ee57600080fd5b8760000160000160009054906101000a900460ff16801561120d575080155b1561122c57828860060181905550876000016002015488600501819055505b8288600701819055508c886005016000828254039250508190555061128e8760056000888152602001908152602001600020600087815260200190815260200160002060009054906101000a9004600f0b600f0b6125d390919063ffffffff16565b96505050505050806001019050610fe2565b506112bf868a8a60008181106112b257fe5b905060200201358961073c565b611327868a8a60018d8d9050038181106112d557fe5b905060200201358388888080601f016020809104026020016040519081016040528093929190818152602001838380828437600081840152601f19601f82011690508083019250505050505050610a60565b505050505050505050565b6006600082815260200190815260200160002060009054906101000a900473ffffffffffffffffffffffffffffffffffffffff1673ffffffffffffffffffffffffffffffffffffffff163373ffffffffffffffffffffffffffffffffffffffff161461139d57600080fd5b60006006600083815260200190815260200160002060006101000a81548173ffffffffffffffffffffffffffffffffffffffff021916908373ffffffffffffffffffffffffffffffffffffffff16021790555050565b80600160003373ffffffffffffffffffffffffffffffffffffffff1673ffffffffffffffffffffffffffffffffffffffff16815260200190815260200160002060008473ffffffffffffffffffffffffffffffffffffffff1673ffffffffffffffffffffffffffffffffffffffff16815260200190815260200160002060006101000a81548160ff0219169083151502179055508173ffffffffffffffffffffffffffffffffffffffff163373ffffffffffffffffffffffffffffffffffffffff167f17307eab39ab6107e8899845ad3d59bd9653f200f220920489ca2b5937696c31836040516114e49190613ed8565b60405180910390a35050565b6006600087815260200190815260200160002060009054906101000a900473ffffffffffffffffffffffffffffffffffffffff1673ffffffffffffffffffffffffffffffffffffffff163373ffffffffffffffffffffffffffffffffffffffff161461155b57600080fd5b600060046000898152602001908152602001600020600088815260200190815260200160002090506115dd816000016040518060a00160405290816000820160009054906101000a900460ff1615151515815260200160018201548152602001600282015481526020016003820154815260200160048201548152505061268e565b82146115e857600080fd5b6115f66001868887876126da565b8160000160008201518160000160006101000a81548160ff021916908315150217905550602082015181600101556040820151816002015560608201518160030155608082015181600401559050508281600601819055508481600501819055505050505050505050565b600060076000838152602001908152602001600020549050919050565b60008082156116c257600085606001518503905060008660000151606001518288600001516040015102816116af57fe5b05905080876020015103925050506116ce565b84600001516040015190505b600081126116dc57806116df565b60005b9150509392505050565b6116f1612cdc565b6004600084815260200190815260200160002060008381526020019081526020016000206040518060a0016040529081600082016040518060a00160405290816000820160009054906101000a900460ff1615151515815260200160018201548152602001600282015481526020016003820154815260200160048201548152505081526020016005820154815260200160068201548152602001600782015481526020016008820160009054906101000a900460ff161515151581525050905092915050565b6006600084815260200190815260200160002060009054906101000a900473ffffffffffffffffffffffffffffffffffffffff1673ffffffffffffffffffffffffffffffffffffffff163373ffffffffffffffffffffffffffffffffffffffff161461182357600080fd5b61182e838383612716565b505050565b6000600160008473ffffffffffffffffffffffffffffffffffffffff1673ffffffffffffffffffffffffffffffffffffffff16815260200190815260200160002060008373ffffffffffffffffffffffffffffffffffffffff1673ffffffffffffffffffffffffffffffffffffffff16815260200190815260200160002060009054906101000a900460ff16905092915050565b6006600083815260200190815260200160002060009054906101000a900473ffffffffffffffffffffffffffffffffffffffff1673ffffffffffffffffffffffffffffffffffffffff163373ffffffffffffffffffffffffffffffffffffffff161461193257600080fd5b8060056000858152602001908152602001600020600084815260200190815260200160002060006101000a8154816fffffffffffffffffffffffffffffffff0219169083600f0b6fffffffffffffffffffffffffffffffff160217905550505050565b6119a3868686868686612765565b505050505050565b3373ffffffffffffffffffffffffffffffffffffffff168373ffffffffffffffffffffffffffffffffffffffff161480611a6b5750600160003373ffffffffffffffffffffffffffffffffffffffff1673ffffffffffffffffffffffffffffffffffffffff16815260200190815260200160002060008473ffffffffffffffffffffffffffffffffffffffff1673ffffffffffffffffffffffffffffffffffffffff16815260200190815260200160002060009054906101000a900460ff165b611aaa576040517f08c379a0000000000000000000000000000000000000000000000000000000008152600401611aa190613f30565b60405180910390fd5b611b0c8160008085815260200190815260200160002060008673ffffffffffffffffffffffffffffffffffffffff1673ffffffffffffffffffffffffffffffffffffffff16815260200190815260200160002054611f1090919063ffffffff16565b60008084815260200190815260200160002060008573ffffffffffffffffffffffffffffffffffffffff1673ffffffffffffffffffffffffffffffffffffffff16815260200190815260200160002081905550806007600084815260200190815260200160002060008282540392505081905550600073ffffffffffffffffffffffffffffffffffffffff168373ffffffffffffffffffffffffffffffffffffffff163373ffffffffffffffffffffffffffffffffffffffff167fc3d58168c5ae7397731d063d5bbf3d657854427343f4c083240f7aacaa2d0f628585604051611bf7929190614027565b60405180910390a4505050565b60066020528060005260406000206000915054906101000a900473ffffffffffffffffffffffffffffffffffffffff1681565b6006600084815260200190815260200160002060009054906101000a900473ffffffffffffffffffffffffffffffffffffffff1673ffffffffffffffffffffffffffffffffffffffff163373ffffffffffffffffffffffffffffffffffffffff1614611ca257600080fd5b60006004600086815260200190815260200160002060008581526020019081526020016000209050611d24816000016040518060a00160405290816000820160009054906101000a900460ff1615151515815260200160018201548152602001600282015481526020016003820154815260200160048201548152505061268e565b8214611d2f57600080fd5b611d3f60008460008060006126da565b8160000160008201518160000160006101000a81548160ff021916908315150217905550602082015181600101556040820151816002015560608201518160030155608082015181600401559050508281600501819055505050505050565b6000838360018686905003818110611db257fe5b9050602002013590506006600082815260200190815260200160002060009054906101000a900473ffffffffffffffffffffffffffffffffffffffff1673ffffffffffffffffffffffffffffffffffffffff163373ffffffffffffffffffffffffffffffffffffffff1614611e2657600080fd5b60005b600185859050038114611f09576000858583818110611e4457fe5b90506020020135905082811415611e5a57600080fd5b600186869050038214611efd576000868660018501818110611e7857fe5b90506020020135905060036000838152602001908152602001600020600082815260200190815260200160002060009054906101000a900460ff16611ebc57600080fd5b8460046000848152602001908152602001600020600083815260200190815260200160002060080160006101000a81548160ff021916908315150217905550505b50806001019050611e29565b5050505050565b600082821115611f1c57fe5b818303905092915050565b600073ffffffffffffffffffffffffffffffffffffffff168773ffffffffffffffffffffffffffffffffffffffff161415611f97576040517f08c379a0000000000000000000000000000000000000000000000000000000008152600401611f8e90613f50565b60405180910390fd5b838390508686905014611fdf576040517f08c379a0000000000000000000000000000000000000000000000000000000008152600401611fd690613f90565b60405180910390fd5b3373ffffffffffffffffffffffffffffffffffffffff168873ffffffffffffffffffffffffffffffffffffffff16148061209f5750600160003373ffffffffffffffffffffffffffffffffffffffff1673ffffffffffffffffffffffffffffffffffffffff16815260200190815260200160002060008973ffffffffffffffffffffffffffffffffffffffff1673ffffffffffffffffffffffffffffffffffffffff16815260200190815260200160002060009054906101000a900460ff165b6120de576040517f08c379a00000000000000000000000000000000000000000000000000000000081526004016120d590613f30565b60405180910390fd5b60005b868690508110156122915760008787838181106120fa57fe5b905060200201359050600086868481811061211157fe5b90506020020135905061217c8160008085815260200190815260200160002060008e73ffffffffffffffffffffffffffffffffffffffff1673ffffffffffffffffffffffffffffffffffffffff16815260200190815260200160002054611f1090919063ffffffff16565b60008084815260200190815260200160002060008d73ffffffffffffffffffffffffffffffffffffffff1673ffffffffffffffffffffffffffffffffffffffff1681526020019081526020016000208190555061223160008084815260200190815260200160002060008c73ffffffffffffffffffffffffffffffffffffffff1673ffffffffffffffffffffffffffffffffffffffff168152602001908152602001600020548261241790919063ffffffff16565b60008084815260200190815260200160002060008c73ffffffffffffffffffffffffffffffffffffffff1673ffffffffffffffffffffffffffffffffffffffff1681526020019081526020016000208190555050508060010190506120e1565b508673ffffffffffffffffffffffffffffffffffffffff168873ffffffffffffffffffffffffffffffffffffffff163373ffffffffffffffffffffffffffffffffffffffff167f4a39dc06d4c0dbc64b70af90fd698a233a518aa5d07e595d983b8c0526c8f7fb8989898960405161230c9493929190613e7b565b60405180910390a46123338773ffffffffffffffffffffffffffffffffffffffff1661242e565b1561240d5761240c338989898980806020026020016040519081016040528093929190818152602001838360200280828437600081840152601f19601f82011690508083019250505050505050888880806020026020016040519081016040528093929190818152602001838360200280828437600081840152601f19601f8201169050808301925050505050505087878080601f016020809104026020016040519081016040528093929190818152602001838380828437600081840152601f19601f82011690508083019250505050505050612b3b565b5b5050505050505050565b600081830190508281101561242857fe5b92915050565b600080823b905060008111915050919050565b63f23a6e6160e01b7bffffffffffffffffffffffffffffffffffffffffffffffffffffffff19168473ffffffffffffffffffffffffffffffffffffffff1663f23a6e6188888787876040518663ffffffff1660e01b81526004016124a9959493929190613e21565b602060405180830381600087803b1580156124c357600080fd5b505af11580156124d7573d6000803e3d6000fd5b505050506040513d601f19601f820116820180604052508101906124fb919061352d565b7bffffffffffffffffffffffffffffffffffffffffffffffffffffffff19161461255a576040517f08c379a000000000000000000000000000000000000000000000000000000000815260040161255190613fb0565b60405180910390fd5b505050505050565b600060036000848152602001908152602001600020600083815260200190815260200160002060009054906101000a900460ff1661259f57600080fd5b600460008481526020019081526020016000206000838152602001908152602001600020905092915050565b600042905090565b6000808214156125e65760009050612688565b600083600f0b12156125f757600080fd5b600060406fffffffffffffffffffffffffffffffff841685600f0b02901c90506000608084901c85600f0b02905077ffffffffffffffffffffffffffffffffffffffffffffffff81111561264a57600080fd5b604081901b9050817fffffffffffffffffffffffffffffffffffffffffffffffffffffffffffffffff0381111561268057600080fd5b818101925050505b92915050565b6000816000015182602001518360400151846060015185608001516040516020016126bd959493929190613d3f565b604051602081830303815290604052805190602001209050919050565b6126e2612d13565b6040518060a00160405280871515815260200186815260200185815260200184815260200183815250905095945050505050565b600254821061272457600080fd5b8060036000858152602001908152602001600020600084815260200190815260200160002060006101000a81548160ff021916908315150217905550505050565b600073ffffffffffffffffffffffffffffffffffffffff168573ffffffffffffffffffffffffffffffffffffffff1614156127d5576040517f08c379a00000000000000000000000000000000000000000000000000000000081526004016127cc90613fd0565b60405180910390fd5b3373ffffffffffffffffffffffffffffffffffffffff168673ffffffffffffffffffffffffffffffffffffffff1614806128955750600160003373ffffffffffffffffffffffffffffffffffffffff1673ffffffffffffffffffffffffffffffffffffffff16815260200190815260200160002060008773ffffffffffffffffffffffffffffffffffffffff1673ffffffffffffffffffffffffffffffffffffffff16815260200190815260200160002060009054906101000a900460ff165b6128d4576040517f08c379a00000000000000000000000000000000000000000000000000000000081526004016128cb90613f30565b60405180910390fd5b6129368360008087815260200190815260200160002060008973ffffffffffffffffffffffffffffffffffffffff1673ffffffffffffffffffffffffffffffffffffffff16815260200190815260200160002054611f1090919063ffffffff16565b60008086815260200190815260200160002060008873ffffffffffffffffffffffffffffffffffffffff1673ffffffffffffffffffffffffffffffffffffffff168152602001908152602001600020819055506129eb60008086815260200190815260200160002060008773ffffffffffffffffffffffffffffffffffffffff1673ffffffffffffffffffffffffffffffffffffffff168152602001908152602001600020548461241790919063ffffffff16565b60008086815260200190815260200160002060008773ffffffffffffffffffffffffffffffffffffffff1673ffffffffffffffffffffffffffffffffffffffff168152602001908152602001600020819055508473ffffffffffffffffffffffffffffffffffffffff168673ffffffffffffffffffffffffffffffffffffffff163373ffffffffffffffffffffffffffffffffffffffff167fc3d58168c5ae7397731d063d5bbf3d657854427343f4c083240f7aacaa2d0f628787604051612ab4929190614027565b60405180910390a4612adb8573ffffffffffffffffffffffffffffffffffffffff1661242e565b15612b3357612b32338787878787878080601f016020809104026020016040519081016040528093929190818152602001838380828437600081840152601f19601f82011690508083019250505050505050612441565b5b505050505050565b63bc197c8160e01b7bffffffffffffffffffffffffffffffffffffffffffffffffffffffff19168473ffffffffffffffffffffffffffffffffffffffff1663bc197c8188888787876040518663ffffffff1660e01b8152600401612ba3959493929190613db9565b602060405180830381600087803b158015612bbd57600080fd5b505af1158015612bd1573d6000803e3d6000fd5b505050506040513d601f19601f82011682018060405250810190612bf5919061352d565b7bffffffffffffffffffffffffffffffffffffffffffffffffffffffff191614612c54576040517f08c379a0000000000000000000000000000000000000000000000000000000008152600401612c4b90613f70565b60405180910390fd5b505050505050565b828054600181600116156101000203166002900490600052602060002090601f016020900481019282601f10612c9d57803560ff1916838001178555612ccb565b82800160010185558215612ccb579182015b82811115612cca578235825591602001919060010190612caf565b5b509050612cd89190612d44565b5090565b6040518060a00160405280612cef612d13565b81526020016000815260200160008152602001600081526020016000151581525090565b6040518060a00160405280600015158152602001600081526020016000815260200160008152602001600081525090565b5b80821115612d5d576000816000905550600101612d45565b5090565b600081359050612d7081614247565b92915050565b60008083601f840112612d8857600080fd5b8235905067ffffffffffffffff811115612da157600080fd5b602083019150836020820283011115612db957600080fd5b9250929050565b60008083601f840112612dd257600080fd5b8235905067ffffffffffffffff811115612deb57600080fd5b602083019150836020820283011115612e0357600080fd5b9250929050565b600081359050612e198161425e565b92915050565b600081359050612e2e81614275565b92915050565b600081359050612e438161428c565b92915050565b600081519050612e588161428c565b92915050565b60008083601f840112612e7057600080fd5b8235905067ffffffffffffffff811115612e8957600080fd5b602083019150836001820283011115612ea157600080fd5b9250929050565b600082601f830112612eb957600080fd5b8135612ecc612ec782614081565b614050565b91508082526020830160208301858383011115612ee857600080fd5b612ef38382846141b7565b50505092915050565b600081359050612f0b816142a3565b92915050565b600081359050612f20816142ba565b92915050565b60008083601f840112612f3857600080fd5b8235905067ffffffffffffffff811115612f5157600080fd5b602083019150836001820283011115612f6957600080fd5b9250929050565b600060a08284031215612f8257600080fd5b612f8c60a0614050565b90506000612f9c84828501612e0a565b6000830152506020612fb084828501612f11565b6020830152506040612fc484828501612f11565b6040830152506060612fd884828501612f11565b6060830152506080612fec84828501612f11565b60808301525092915050565b6000610120828403121561300b57600080fd5b61301560a0614050565b9050600061302584828501612f70565b60008301525060a061303984828501612f11565b60208301525060c061304d84828501612f11565b60408301525060e061306184828501612f11565b60608301525061010061307684828501612e0a565b60808301525092915050565b600081359050613091816142d1565b92915050565b6000602082840312156130a957600080fd5b60006130b784828501612d61565b91505092915050565b600080604083850312156130d357600080fd5b60006130e185828601612d61565b92505060206130f285828601612d61565b9150509250929050565b60008060008060008060008060a0898b03121561311857600080fd5b60006131268b828c01612d61565b98505060206131378b828c01612d61565b975050604089013567ffffffffffffffff81111561315457600080fd5b6131608b828c01612dc0565b9650965050606089013567ffffffffffffffff81111561317f57600080fd5b61318b8b828c01612dc0565b9450945050608089013567ffffffffffffffff8111156131aa57600080fd5b6131b68b828c01612e5e565b92509250509295985092959890939650565b60008060008060008060a087890312156131e157600080fd5b60006131ef89828a01612d61565b965050602061320089828a01612d61565b955050604061321189828a01613082565b945050606061322289828a01613082565b935050608087013567ffffffffffffffff81111561323f57600080fd5b61324b89828a01612e5e565b92509250509295509295509295565b6000806040838503121561326d57600080fd5b600061327b85828601612d61565b925050602061328c85828601612e0a565b9150509250929050565b600080604083850312156132a957600080fd5b60006132b785828601612d61565b92505060206132c885828601613082565b9150509250929050565b6000806000606084860312156132e757600080fd5b60006132f586828701612d61565b935050602061330686828701613082565b925050604061331786828701613082565b9150509250925092565b6000806000806080858703121561333757600080fd5b600061334587828801612d61565b945050602061335687828801613082565b935050604061336787828801613082565b925050606085013567ffffffffffffffff81111561338457600080fd5b61339087828801612ea8565b91505092959194509250565b600080600080604085870312156133b257600080fd5b600085013567ffffffffffffffff8111156133cc57600080fd5b6133d887828801612d76565b9450945050602085013567ffffffffffffffff8111156133f757600080fd5b61340387828801612dc0565b925092505092959194509250565b60008060006040848603121561342657600080fd5b600084013567ffffffffffffffff81111561344057600080fd5b61344c86828701612dc0565b9350935050602061345f86828701612e0a565b9150509250925092565b6000806000806000806080878903121561348257600080fd5b600087013567ffffffffffffffff81111561349c57600080fd5b6134a889828a01612dc0565b965096505060206134bb89828a01613082565b94505060406134cc89828a01612d61565b935050606087013567ffffffffffffffff8111156134e957600080fd5b6134f589828a01612e5e565b92509250509295509295509295565b60006020828403121561351657600080fd5b600061352484828501612e34565b91505092915050565b60006020828403121561353f57600080fd5b600061354d84828501612e49565b91505092915050565b600080610140838503121561356a57600080fd5b600061357885828601612ff8565b92505061012061358a85828601612f11565b9150509250929050565b600080600061016084860312156135aa57600080fd5b60006135b886828701612ff8565b9350506101206135ca86828701612f11565b9250506101406135dc86828701612e0a565b9150509250925092565b6000602082840312156135f857600080fd5b600061360684828501613082565b91505092915050565b6000806040838503121561362257600080fd5b600061363085828601613082565b925050602061364185828601612d61565b9150509250929050565b60008060006040848603121561366057600080fd5b600061366e86828701613082565b935050602084013567ffffffffffffffff81111561368b57600080fd5b61369786828701612f26565b92509250509250925092565b600080604083850312156136b657600080fd5b60006136c485828601613082565b92505060206136d585828601613082565b9150509250929050565b6000806000606084860312156136f457600080fd5b600061370286828701613082565b935050602061371386828701613082565b925050604061372486828701612e0a565b9150509250925092565b60008060006060848603121561374357600080fd5b600061375186828701613082565b935050602061376286828701613082565b925050604061377386828701612efc565b9150509250925092565b6000806000806080858703121561379357600080fd5b60006137a187828801613082565b94505060206137b287828801613082565b93505060406137c387828801612f11565b92505060606137d487828801612e1f565b91505092959194509250565b600080600080600080600060e0888a0312156137fb57600080fd5b60006138098a828b01613082565b975050602061381a8a828b01613082565b965050604061382b8a828b01612f11565b955050606061383c8a828b01612f11565b945050608061384d8a828b01612f11565b93505060a061385e8a828b01612f11565b92505060c061386f8a828b01612e1f565b91505092959891949750929550565b600061388a8383613d21565b60208301905092915050565b61389f81614122565b82525050565b60006138b183856140ef565b93507f07ffffffffffffffffffffffffffffffffffffffffffffffffffffffffffffff8311156138e057600080fd5b6020830292506138f18385846141b7565b82840190509392505050565b6000613908826140c1565b61391281856140ef565b935061391d836140b1565b8060005b8381101561394e578151613935888261387e565b9750613940836140e2565b925050600181019050613921565b5085935050505092915050565b61396481614134565b82525050565b61397381614134565b82525050565b61398a61398582614134565b6141f9565b82525050565b600061399b826140cc565b6139a58185614100565b93506139b58185602086016141c6565b6139be81614229565b840191505092915050565b6139d281614176565b82525050565b6139e181614183565b82525050565b6139f86139f382614183565b61420b565b82525050565b6000613a09826140d7565b613a138185614111565b9350613a238185602086016141c6565b613a2c81614229565b840191505092915050565b6000613a44600c83614111565b91507f4e6f20617070726f76616c2e00000000000000000000000000000000000000006000830152602082019050919050565b6000613a84602583614111565b91507f64657374696e6174696f6e2061646472657373206d757374206265206e6f6e2d60008301527f7a65726f2e0000000000000000000000000000000000000000000000000000006020830152604082019050919050565b6000613aea603e83614111565b91507f636f6e74726163742072657475726e656420616e20756e6b6e6f776e2076616c60008301527f75652066726f6d206f6e455243313135354261746368526563656976656400006020830152604082019050919050565b6000613b50602983614111565b91507f5f69647320616e64205f76616c756573206172726179206c656e677468206d7560008301527f7374206d617463682e00000000000000000000000000000000000000000000006020830152604082019050919050565b6000613bb6603983614111565b91507f636f6e74726163742072657475726e656420616e20756e6b6e6f776e2076616c60008301527f75652066726f6d206f6e455243313135355265636569766564000000000000006020830152604082019050919050565b6000613c1c601583614111565b91507f5f746f206d757374206265206e6f6e2d7a65726f2e00000000000000000000006000830152602082019050919050565b60a082016000820151613c65600085018261395b565b506020820151613c7860208501826139d8565b506040820151613c8b60408501826139d8565b506060820151613c9e60608501826139d8565b506080820151613cb160808501826139d8565b50505050565b61012082016000820151613cce6000850182613c4f565b506020820151613ce160a08501826139d8565b506040820151613cf460c08501826139d8565b506060820151613d0760e08501826139d8565b506080820151613d1b61010085018261395b565b50505050565b613d2a816141ad565b82525050565b613d39816141ad565b82525050565b6000613d4b8288613979565b600182019150613d5b82876139e7565b602082019150613d6b82866139e7565b602082019150613d7b82856139e7565b602082019150613d8b82846139e7565b6020820191508190509695505050505050565b6000602082019050613db36000830184613896565b92915050565b600060a082019050613dce6000830188613896565b613ddb6020830187613896565b8181036040830152613ded81866138fd565b90508181036060830152613e0181856138fd565b90508181036080830152613e158184613990565b90509695505050505050565b600060a082019050613e366000830188613896565b613e436020830187613896565b613e506040830186613d30565b613e5d6060830185613d30565b8181036080830152613e6f8184613990565b90509695505050505050565b60006040820190508181036000830152613e968186886138a5565b90508181036020830152613eab8184866138a5565b905095945050505050565b60006020820190508181036000830152613ed081846138fd565b905092915050565b6000602082019050613eed600083018461396a565b92915050565b6000602082019050613f0860008301846139c9565b92915050565b60006020820190508181036000830152613f2881846139fe565b905092915050565b60006020820190508181036000830152613f4981613a37565b9050919050565b60006020820190508181036000830152613f6981613a77565b9050919050565b60006020820190508181036000830152613f8981613add565b9050919050565b60006020820190508181036000830152613fa981613b43565b9050919050565b60006020820190508181036000830152613fc981613ba9565b9050919050565b60006020820190508181036000830152613fe981613c0f565b9050919050565b6000610120820190506140066000830184613cb7565b92915050565b60006020820190506140216000830184613d30565b92915050565b600060408201905061403c6000830185613d30565b6140496020830184613d30565b9392505050565b6000604051905081810181811067ffffffffffffffff8211171561407757614076614227565b5b8060405250919050565b600067ffffffffffffffff82111561409c5761409b614227565b5b601f19601f8301169050602081019050919050565b6000819050602082019050919050565b600081519050919050565b600081519050919050565b600081519050919050565b6000602082019050919050565b600082825260208201905092915050565b600082825260208201905092915050565b600082825260208201905092915050565b600061412d8261418d565b9050919050565b60008115159050919050565b6000819050919050565b60007fffffffff0000000000000000000000000000000000000000000000000000000082169050919050565b600081600f0b9050919050565b6000819050919050565b600073ffffffffffffffffffffffffffffffffffffffff82169050919050565b6000819050919050565b82818337600083830152505050565b60005b838110156141e45780820151818401526020810190506141c9565b838111156141f3576000848401525b50505050565b600061420482614215565b9050919050565b6000819050919050565b60006142208261423a565b9050919050565bfe5b6000601f19601f8301169050919050565b60008160f81b9050919050565b61425081614122565b811461425b57600080fd5b50565b61426781614134565b811461427257600080fd5b50565b61427e81614140565b811461428957600080fd5b50565b6142958161414a565b81146142a057600080fd5b50565b6142ac81614176565b81146142b757600080fd5b50565b6142c381614183565b81146142ce57600080fd5b50565b6142da816141ad565b81146142e557600080fd5b5056fea26469706673582212201cade9a720870ff6dcac57dae7d003dbf55f54f888c68e45b5ba4895501b476164736f6c63430007030033",
  "linkReferences": {},
  "deployedLinkReferences": {}
}