{
  "_format": "hh-sol-artifact-1",
  "contractName": "Carbon",
  "sourceName": "contracts/Carbon.sol",
  "abi": [
    {
      "inputs": [],
      "stateMutability": "nonpayable",
      "type": "constructor"
    },
    {
      "anonymous": false,
      "inputs": [
        {
          "indexed": true,
          "internalType": "address",
          "name": "_owner",
          "type": "address"
        },
        {
          "indexed": true,
          "internalType": "address",
          "name": "_operator",
          "type": "address"
        },
        {
          "indexed": false,
          "internalType": "bool",
          "name": "_approved",
          "type": "bool"
        }
      ],
      "name": "ApprovalForAll",
      "type": "event"
    },
    {
      "anonymous": false,
      "inputs": [
        {
          "indexed": true,
          "internalType": "address",
          "name": "owner",
          "type": "address"
        },
        {
          "indexed": true,
          "internalType": "uint256",
          "name": "token",
          "type": "uint256"
        }
      ],
      "name": "AuthorityCreated",
      "type": "event"
    },
    {
      "anonymous": false,
      "inputs": [
        {
          "indexed": true,
          "internalType": "uint256",
          "name": "id",
          "type": "uint256"
        },
        {
          "indexed": true,
          "internalType": "address",
          "name": "authority",
          "type": "address"
        },
        {
          "indexed": true,
          "internalType": "uint256",
          "name": "serial",
          "type": "uint256"
        },
        {
          "indexed": false,
          "internalType": "uint256",
          "name": "amount",
          "type": "uint256"
        },
        {
          "indexed": false,
          "internalType": "address",
          "name": "owner",
          "type": "address"
        },
        {
          "indexed": false,
          "internalType": "string",
          "name": "fileCoinHash",
          "type": "string"
        }
      ],
      "name": "CreditCreated",
      "type": "event"
    },
    {
      "anonymous": false,
      "inputs": [
        {
          "indexed": true,
          "internalType": "uint256",
          "name": "id",
          "type": "uint256"
        },
        {
          "indexed": true,
          "internalType": "address",
          "name": "owner",
          "type": "address"
        },
        {
          "indexed": false,
          "internalType": "string",
          "name": "uri",
          "type": "string"
        }
      ],
      "name": "NewToken",
      "type": "event"
    },
    {
      "anonymous": false,
      "inputs": [
        {
          "indexed": true,
          "internalType": "address",
          "name": "_operator",
          "type": "address"
        },
        {
          "indexed": true,
          "internalType": "address",
          "name": "_from",
          "type": "address"
        },
        {
          "indexed": true,
          "internalType": "address",
          "name": "_to",
          "type": "address"
        },
        {
          "indexed": false,
          "internalType": "uint256[]",
          "name": "_ids",
          "type": "uint256[]"
        },
        {
          "indexed": false,
          "internalType": "uint256[]",
          "name": "_values",
          "type": "uint256[]"
        }
      ],
      "name": "TransferBatch",
      "type": "event"
    },
    {
      "anonymous": false,
      "inputs": [
        {
          "indexed": true,
          "internalType": "address",
          "name": "_operator",
          "type": "address"
        },
        {
          "indexed": true,
          "internalType": "address",
          "name": "_from",
          "type": "address"
        },
        {
          "indexed": true,
          "internalType": "address",
          "name": "_to",
          "type": "address"
        },
        {
          "indexed": false,
          "internalType": "uint256",
          "name": "_id",
          "type": "uint256"
        },
        {
          "indexed": false,
          "internalType": "uint256",
          "name": "_value",
          "type": "uint256"
        }
      ],
      "name": "TransferSingle",
      "type": "event"
    },
    {
      "anonymous": false,
      "inputs": [
        {
          "indexed": false,
          "internalType": "string",
          "name": "_value",
          "type": "string"
        },
        {
          "indexed": true,
          "internalType": "uint256",
          "name": "_id",
          "type": "uint256"
        }
      ],
      "name": "URI",
      "type": "event"
    },
    {
      "inputs": [
        {
          "internalType": "address",
          "name": "_from",
          "type": "address"
        },
        {
          "internalType": "uint256",
          "name": "_id",
          "type": "uint256"
        },
        {
          "internalType": "uint256",
          "name": "_value",
          "type": "uint256"
        }
      ],
      "name": "_doBurn",
      "outputs": [],
      "stateMutability": "nonpayable",
      "type": "function"
    },
    {
      "inputs": [
        {
          "internalType": "address",
          "name": "_to",
          "type": "address"
        },
        {
          "internalType": "uint256",
          "name": "_id",
          "type": "uint256"
        },
        {
          "internalType": "uint256",
          "name": "_value",
          "type": "uint256"
        },
        {
          "internalType": "bytes",
          "name": "_data",
          "type": "bytes"
        }
      ],
      "name": "_doMint",
      "outputs": [],
      "stateMutability": "nonpayable",
      "type": "function"
    },
    {
      "inputs": [
        {
          "components": [
            {
              "components": [
                {
                  "internalType": "bool",
                  "name": "recurring",
                  "type": "bool"
                },
                {
                  "internalType": "int256",
                  "name": "initialSwapCredit",
                  "type": "int256"
                },
                {
                  "internalType": "int256",
                  "name": "maxSwapCredit",
                  "type": "int256"
                },
                {
                  "internalType": "int256",
                  "name": "swapCreditPeriod",
                  "type": "int256"
                },
                {
                  "internalType": "int256",
                  "name": "firstTimeEnteredSwapCredit",
                  "type": "int256"
                }
              ],
              "internalType": "struct TokensFlow.SwapLimit",
              "name": "limit",
              "type": "tuple"
            },
            {
              "internalType": "int256",
              "name": "remainingSwapCredit",
              "type": "int256"
            },
            {
              "internalType": "int256",
              "name": "timeEnteredSwapCredit",
              "type": "int256"
            },
            {
              "internalType": "int256",
              "name": "lastSwapTime",
              "type": "int256"
            },
            {
              "internalType": "bool",
              "name": "disabled",
              "type": "bool"
            }
          ],
          "internalType": "struct TokensFlow.TokenFlow",
          "name": "_flow",
          "type": "tuple"
        },
        {
          "internalType": "int256",
          "name": "_currentTimeResult",
          "type": "int256"
        }
      ],
      "name": "_inSwapCredit",
      "outputs": [
        {
          "internalType": "bool",
          "name": "",
          "type": "bool"
        }
      ],
      "stateMutability": "pure",
      "type": "function"
    },
    {
      "inputs": [
        {
          "components": [
            {
              "components": [
                {
                  "internalType": "bool",
                  "name": "recurring",
                  "type": "bool"
                },
                {
                  "internalType": "int256",
                  "name": "initialSwapCredit",
                  "type": "int256"
                },
                {
                  "internalType": "int256",
                  "name": "maxSwapCredit",
                  "type": "int256"
                },
                {
                  "internalType": "int256",
                  "name": "swapCreditPeriod",
                  "type": "int256"
                },
                {
                  "internalType": "int256",
                  "name": "firstTimeEnteredSwapCredit",
                  "type": "int256"
                }
              ],
              "internalType": "struct TokensFlow.SwapLimit",
              "name": "limit",
              "type": "tuple"
            },
            {
              "internalType": "int256",
              "name": "remainingSwapCredit",
              "type": "int256"
            },
            {
              "internalType": "int256",
              "name": "timeEnteredSwapCredit",
              "type": "int256"
            },
            {
              "internalType": "int256",
              "name": "lastSwapTime",
              "type": "int256"
            },
            {
              "internalType": "bool",
              "name": "disabled",
              "type": "bool"
            }
          ],
          "internalType": "struct TokensFlow.TokenFlow",
          "name": "_flow",
          "type": "tuple"
        },
        {
          "internalType": "int256",
          "name": "_currentTimeResult",
          "type": "int256"
        },
        {
          "internalType": "bool",
          "name": "_inSwapCreditResult",
          "type": "bool"
        }
      ],
      "name": "_maxRecurringSwapAmount",
      "outputs": [
        {
          "internalType": "uint256",
          "name": "",
          "type": "uint256"
        }
      ],
      "stateMutability": "pure",
      "type": "function"
    },
    {
      "inputs": [
        {
          "internalType": "uint256",
          "name": "",
          "type": "uint256"
        }
      ],
      "name": "authorities",
      "outputs": [
        {
          "internalType": "uint256",
          "name": "token",
          "type": "uint256"
        },
        {
          "internalType": "uint256",
          "name": "maxSerial",
          "type": "uint256"
        }
      ],
      "stateMutability": "view",
      "type": "function"
    },
    {
      "inputs": [
        {
          "internalType": "address",
          "name": "_owner",
          "type": "address"
        },
        {
          "internalType": "uint256",
          "name": "_id",
          "type": "uint256"
        }
      ],
      "name": "balanceOf",
      "outputs": [
        {
          "internalType": "uint256",
          "name": "",
          "type": "uint256"
        }
      ],
      "stateMutability": "view",
      "type": "function"
    },
    {
      "inputs": [
        {
          "internalType": "address[]",
          "name": "_owners",
          "type": "address[]"
        },
        {
          "internalType": "uint256[]",
          "name": "_ids",
          "type": "uint256[]"
        }
      ],
      "name": "balanceOfBatch",
      "outputs": [
        {
          "internalType": "uint256[]",
          "name": "",
          "type": "uint256[]"
        }
      ],
      "stateMutability": "view",
      "type": "function"
    },
    {
      "inputs": [
        {
          "internalType": "address",
          "name": "_from",
          "type": "address"
        },
        {
          "internalType": "uint256",
          "name": "_id",
          "type": "uint256"
        },
        {
          "internalType": "uint256",
          "name": "_value",
          "type": "uint256"
        }
      ],
      "name": "burn",
      "outputs": [],
      "stateMutability": "nonpayable",
      "type": "function"
    },
    {
      "inputs": [
        {
          "internalType": "uint256",
          "name": "_child",
          "type": "uint256"
        },
        {
          "internalType": "uint256",
          "name": "_parent",
          "type": "uint256"
        }
      ],
      "name": "coeffient",
      "outputs": [
        {
          "internalType": "int128",
          "name": "",
          "type": "int128"
        }
      ],
      "stateMutability": "view",
      "type": "function"
    },
    {
      "inputs": [
        {
          "internalType": "string",
          "name": "_nonRetiredUri",
          "type": "string"
        },
        {
          "internalType": "string",
          "name": "_retiredUri",
          "type": "string"
        }
      ],
      "name": "createAuthority",
      "outputs": [
        {
          "internalType": "uint256",
          "name": "",
          "type": "uint256"
        }
      ],
      "stateMutability": "nonpayable",
      "type": "function"
    },
    {
      "inputs": [
        {
          "internalType": "uint256",
          "name": "_token",
          "type": "uint256"
        },
        {
          "internalType": "uint256",
          "name": "_amount",
          "type": "uint256"
        },
        {
          "internalType": "address",
          "name": "_owner",
          "type": "address"
        },
        {
          "internalType": "string",
          "name": "_fileCoinHash",
          "type": "string"
        }
      ],
      "name": "createCredit",
      "outputs": [
        {
          "internalType": "uint256",
          "name": "",
          "type": "uint256"
        }
      ],
      "stateMutability": "nonpayable",
      "type": "function"
    },
    {
      "inputs": [
        {
          "internalType": "uint256",
          "name": "",
          "type": "uint256"
        }
      ],
      "name": "credits",
      "outputs": [
        {
          "internalType": "address",
          "name": "authority",
          "type": "address"
        },
        {
          "internalType": "uint256",
          "name": "serial",
          "type": "uint256"
        },
        {
          "internalType": "uint256",
          "name": "amount",
          "type": "uint256"
        },
        {
          "internalType": "address",
          "name": "owner",
          "type": "address"
        },
        {
          "internalType": "string",
          "name": "fileCoinHash",
          "type": "string"
        }
      ],
      "stateMutability": "view",
      "type": "function"
    },
    {
      "inputs": [
        {
          "internalType": "uint256[]",
          "name": "_ids",
          "type": "uint256[]"
        },
        {
          "internalType": "uint256",
          "name": "_amount",
          "type": "uint256"
        },
        {
          "internalType": "address",
          "name": "_from",
          "type": "address"
        },
        {
          "internalType": "bytes",
          "name": "_data",
          "type": "bytes"
        }
      ],
      "name": "exchangeToAncestor",
      "outputs": [],
      "stateMutability": "nonpayable",
      "type": "function"
    },
    {
      "inputs": [
        {
          "internalType": "address",
          "name": "_owner",
          "type": "address"
        },
        {
          "internalType": "address",
          "name": "_operator",
          "type": "address"
        }
      ],
      "name": "isApprovedForAll",
      "outputs": [
        {
          "internalType": "bool",
          "name": "",
          "type": "bool"
        }
      ],
      "stateMutability": "view",
      "type": "function"
    },
    {
      "inputs": [
        {
          "internalType": "uint256",
          "name": "_child",
          "type": "uint256"
        },
        {
          "internalType": "uint256",
          "name": "_parent",
          "type": "uint256"
        }
      ],
      "name": "isChild",
      "outputs": [
        {
          "internalType": "bool",
          "name": "",
          "type": "bool"
        }
      ],
      "stateMutability": "view",
      "type": "function"
    },
    {
      "inputs": [],
      "name": "maxCreditId",
      "outputs": [
        {
          "internalType": "uint256",
          "name": "",
          "type": "uint256"
        }
      ],
      "stateMutability": "view",
      "type": "function"
    },
    {
      "inputs": [],
      "name": "nextTokenId",
      "outputs": [
        {
          "internalType": "uint256",
          "name": "",
          "type": "uint256"
        }
      ],
      "stateMutability": "view",
      "type": "function"
    },
    {
      "inputs": [
        {
          "internalType": "uint256",
          "name": "_id",
          "type": "uint256"
        }
      ],
      "name": "removeTokenOwner",
      "outputs": [],
      "stateMutability": "nonpayable",
      "type": "function"
    },
    {
      "inputs": [
        {
          "internalType": "uint256",
          "name": "_nonRetiredToken",
          "type": "uint256"
        },
        {
          "internalType": "uint256",
          "name": "_amount",
          "type": "uint256"
        }
      ],
      "name": "retireCredit",
      "outputs": [],
      "stateMutability": "nonpayable",
      "type": "function"
    },
    {
      "inputs": [
        {
          "internalType": "address",
          "name": "_from",
          "type": "address"
        },
        {
          "internalType": "address",
          "name": "_to",
          "type": "address"
        },
        {
          "internalType": "uint256[]",
          "name": "_ids",
          "type": "uint256[]"
        },
        {
          "internalType": "uint256[]",
          "name": "_values",
          "type": "uint256[]"
        },
        {
          "internalType": "bytes",
          "name": "_data",
          "type": "bytes"
        }
      ],
      "name": "safeBatchTransferFrom",
      "outputs": [],
      "stateMutability": "nonpayable",
      "type": "function"
    },
    {
      "inputs": [
        {
          "internalType": "address",
          "name": "_from",
          "type": "address"
        },
        {
          "internalType": "address",
          "name": "_to",
          "type": "address"
        },
        {
          "internalType": "uint256",
          "name": "_id",
          "type": "uint256"
        },
        {
          "internalType": "uint256",
          "name": "_value",
          "type": "uint256"
        },
        {
          "internalType": "bytes",
          "name": "_data",
          "type": "bytes"
        }
      ],
      "name": "safeTransferFrom",
      "outputs": [],
      "stateMutability": "nonpayable",
      "type": "function"
    },
    {
      "inputs": [
        {
          "internalType": "address",
          "name": "_operator",
          "type": "address"
        },
        {
          "internalType": "bool",
          "name": "_approved",
          "type": "bool"
        }
      ],
      "name": "setApprovalForAll",
      "outputs": [],
      "stateMutability": "nonpayable",
      "type": "function"
    },
    {
      "inputs": [
        {
          "internalType": "uint256",
          "name": "_child",
          "type": "uint256"
        },
        {
          "internalType": "uint256",
          "name": "_parent",
          "type": "uint256"
        },
        {
          "internalType": "int128",
          "name": "_coefficient",
          "type": "int128"
        }
      ],
      "name": "setCoefficient",
      "outputs": [],
      "stateMutability": "nonpayable",
      "type": "function"
    },
    {
      "inputs": [
        {
          "internalType": "uint256[]",
          "name": "_childs",
          "type": "uint256[]"
        },
        {
          "internalType": "bool",
          "name": "_disabled",
          "type": "bool"
        }
      ],
      "name": "setDisabled",
      "outputs": [],
      "stateMutability": "nonpayable",
      "type": "function"
    },
    {
      "inputs": [
        {
          "internalType": "uint256",
          "name": "_child",
          "type": "uint256"
        },
        {
          "internalType": "uint256",
          "name": "_parent",
          "type": "uint256"
        },
        {
          "internalType": "int256",
          "name": "_remainingSwapCredit",
          "type": "int256"
        },
        {
          "internalType": "bytes32",
          "name": "oldLimitHash",
          "type": "bytes32"
        }
      ],
      "name": "setNonRecurringFlow",
      "outputs": [],
      "stateMutability": "nonpayable",
      "type": "function"
    },
    {
      "inputs": [
        {
          "internalType": "uint256",
          "name": "_child",
          "type": "uint256"
        },
        {
          "internalType": "uint256",
          "name": "_parent",
          "type": "uint256"
        },
        {
          "internalType": "int256",
          "name": "_maxSwapCredit",
          "type": "int256"
        },
        {
          "internalType": "int256",
          "name": "_remainingSwapCredit",
          "type": "int256"
        },
        {
          "internalType": "int256",
          "name": "_swapCreditPeriod",
          "type": "int256"
        },
        {
          "internalType": "int256",
          "name": "_timeEnteredSwapCredit",
          "type": "int256"
        },
        {
          "internalType": "bytes32",
          "name": "oldLimitHash",
          "type": "bytes32"
        }
      ],
      "name": "setRecurringFlow",
      "outputs": [],
      "stateMutability": "nonpayable",
      "type": "function"
    },
    {
      "inputs": [
        {
          "internalType": "uint256",
          "name": "_nonRetiredToken",
          "type": "uint256"
        },
        {
          "internalType": "int128",
          "name": "_tax",
          "type": "int128"
        }
      ],
      "name": "setTax",
      "outputs": [],
      "stateMutability": "nonpayable",
      "type": "function"
    },
    {
      "inputs": [
        {
          "internalType": "uint256",
          "name": "_id",
          "type": "uint256"
        },
        {
          "internalType": "address",
          "name": "_newOwner",
          "type": "address"
        }
      ],
      "name": "setTokenOwner",
      "outputs": [],
      "stateMutability": "nonpayable",
      "type": "function"
    },
    {
      "inputs": [
        {
          "internalType": "uint256",
          "name": "_child",
          "type": "uint256"
        },
        {
          "internalType": "uint256",
          "name": "_parent",
          "type": "uint256"
        },
        {
          "internalType": "bool",
          "name": "_value",
          "type": "bool"
        }
      ],
      "name": "setTokenParent",
      "outputs": [],
      "stateMutability": "nonpayable",
      "type": "function"
    },
    {
      "inputs": [
        {
          "internalType": "uint256",
          "name": "_id",
          "type": "uint256"
        },
        {
          "internalType": "string",
          "name": "_uri",
          "type": "string"
        }
      ],
      "name": "setTokenUri",
      "outputs": [],
      "stateMutability": "nonpayable",
      "type": "function"
    },
    {
      "inputs": [
        {
          "internalType": "bytes4",
          "name": "_interfaceId",
          "type": "bytes4"
        }
      ],
      "name": "supportsInterface",
      "outputs": [
        {
          "internalType": "bool",
          "name": "",
          "type": "bool"
        }
      ],
      "stateMutability": "pure",
      "type": "function"
    },
    {
      "inputs": [
        {
          "internalType": "uint256",
          "name": "",
          "type": "uint256"
        }
      ],
      "name": "taxes",
      "outputs": [
        {
          "internalType": "int128",
          "name": "",
          "type": "int128"
        }
      ],
      "stateMutability": "view",
      "type": "function"
    },
    {
      "inputs": [
        {
          "internalType": "uint256",
          "name": "_child",
          "type": "uint256"
        },
        {
          "internalType": "uint256",
          "name": "_parent",
          "type": "uint256"
        }
      ],
      "name": "tokenFlow",
      "outputs": [
        {
          "components": [
            {
              "components": [
                {
                  "internalType": "bool",
                  "name": "recurring",
                  "type": "bool"
                },
                {
                  "internalType": "int256",
                  "name": "initialSwapCredit",
                  "type": "int256"
                },
                {
                  "internalType": "int256",
                  "name": "maxSwapCredit",
                  "type": "int256"
                },
                {
                  "internalType": "int256",
                  "name": "swapCreditPeriod",
                  "type": "int256"
                },
                {
                  "internalType": "int256",
                  "name": "firstTimeEnteredSwapCredit",
                  "type": "int256"
                }
              ],
              "internalType": "struct TokensFlow.SwapLimit",
              "name": "limit",
              "type": "tuple"
            },
            {
              "internalType": "int256",
              "name": "remainingSwapCredit",
              "type": "int256"
            },
            {
              "internalType": "int256",
              "name": "timeEnteredSwapCredit",
              "type": "int256"
            },
            {
              "internalType": "int256",
              "name": "lastSwapTime",
              "type": "int256"
            },
            {
              "internalType": "bool",
              "name": "disabled",
              "type": "bool"
            }
          ],
          "internalType": "struct TokensFlow.TokenFlow",
          "name": "",
          "type": "tuple"
        }
      ],
      "stateMutability": "view",
      "type": "function"
    },
    {
      "inputs": [
        {
          "internalType": "uint256",
          "name": "",
          "type": "uint256"
        }
      ],
      "name": "tokenOwners",
      "outputs": [
        {
          "internalType": "address",
          "name": "",
          "type": "address"
        }
      ],
      "stateMutability": "view",
      "type": "function"
    },
    {
      "inputs": [
        {
          "internalType": "uint256",
          "name": "_id",
          "type": "uint256"
        }
      ],
      "name": "totalSupply",
      "outputs": [
        {
          "internalType": "uint256",
          "name": "",
          "type": "uint256"
        }
      ],
      "stateMutability": "view",
      "type": "function"
    },
    {
      "inputs": [
        {
          "internalType": "uint256",
          "name": "_id",
          "type": "uint256"
        }
      ],
      "name": "uri",
      "outputs": [
        {
          "internalType": "string",
          "name": "",
          "type": "string"
        }
      ],
      "stateMutability": "view",
      "type": "function"
    }
  ],
  "bytecode": "0x608060405234801561001057600080fd5b50600160028190555061502d806100286000396000f3fe608060405234801561001057600080fd5b506004361061021b5760003560e01c8063946c0c0f11610125578063e0a82ab4116100ad578063f242432a1161007c578063f242432a146106cd578063f5298aca146106e9578063f8a14f4614610705578063f98e990f14610735578063fbd1342d146107515761021b565b8063e0a82ab414610649578063e985e9c514610665578063ecf95bc914610695578063f104eb95146106b15761021b565b8063bd85b039116100f4578063bd85b0391461056d578063c11abbd91461059d578063c5be2bc7146105b9578063de3d7f8a146105e9578063e0511b31146106195761021b565b8063946c0c0f146104e9578063a22cb46514610505578063a2c2823a14610521578063b7fdf314146105515761021b565b8063489b5d42116101a857806357f7789e1161017757806357f7789e1461043357806365f9b9b81461044f578063728dc9921461047f57806375794a3c146104af5780637c65cd03146104cd5761021b565b8063489b5d4214610398578063494503d4146103b45780634e1273f4146103e5578063543a76d5146104155761021b565b806309aca943116101ef57806309aca943146102e45780630a074d3e146103145780630e89341c1461033057806323eac4bd146103605780632eb2c2d61461037c5761021b565b8062fdd58e1461022057806301ffc9a714610250578063036a1c2214610280578063061af135146102b4575b600080fd5b61023a60048036038101906102359190613dad565b61076d565b6040516102479190614cdb565b60405180910390f35b61026a6004803603810190610265919061401b565b6107c7565b6040516102779190614ba7565b60405180910390f35b61029a60048036038101906102959190614172565b610878565b6040516102ab959493929190614af0565b60405180910390f35b6102ce60048036038101906102c9919061426b565b610986565b6040516102db9190614ba7565b60405180910390f35b6102fe60048036038101906102f991906140e2565b6109c2565b60405161030b9190614ba7565b60405180910390f35b61032e60048036038101906103299190613de9565b6109ed565b005b61034a60048036038101906103459190614172565b610b47565b6040516103579190614bdd565b60405180910390f35b61037a6004803603810190610375919061419b565b610bfc565b005b61039660048036038101906103919190613c13565b610cf7565b005b6103b260048036038101906103ad9190613e38565b610d11565b005b6103ce60048036038101906103c99190614172565b610edd565b6040516103dc929190614d36565b60405180910390f35b6103ff60048036038101906103fa9190613eb3565b610f01565b60405161040c9190614b85565b60405180910390f35b61041d611023565b60405161042a9190614cdb565b60405180910390f35b61044d60048036038101906104489190614213565b611029565b005b6104696004803603810190610464919061406d565b6110bc565b6040516104769190614cdb565b60405180910390f35b6104996004803603810190610494919061426b565b6111fb565b6040516104a69190614bc2565b60405180910390f35b6104b7611237565b6040516104c49190614cdb565b60405180910390f35b6104e760048036038101906104e29190613f80565b61123d565b005b61050360048036038101906104fe9190614172565b61174c565b005b61051f600480360381019061051a9190613d71565b61180d565b005b61053b600480360381019061053691906142a7565b61190a565b6040516105489190614cdb565b60405180910390f35b61056b60048036038101906105669190614428565b611bb0565b005b61058760048036038101906105829190614172565b611d21565b6040516105949190614cdb565b60405180910390f35b6105b760048036038101906105b2919061426b565b611d3e565b005b6105d360048036038101906105ce9190614172565b611e11565b6040516105e09190614bc2565b60405180910390f35b61060360048036038101906105fe9190614120565b611e31565b6040516106109190614cdb565b60405180910390f35b610633600480360381019061062e919061426b565b611e9c565b6040516106409190614cbf565b60405180910390f35b610663600480360381019061065e9190614327565b611f6b565b005b61067f600480360381019061067a9190613bd7565b611fe6565b60405161068c9190614ba7565b60405180910390f35b6106af60048036038101906106aa9190614376565b61207a565b005b6106cb60048036038101906106c691906141d7565b612148565b005b6106e760048036038101906106e29190613cdf565b612246565b005b61070360048036038101906106fe9190613de9565b61225c565b005b61071f600480360381019061071a9190614172565b6124b5565b60405161072c9190614a13565b60405180910390f35b61074f600480360381019061074a91906143c5565b6124e8565b005b61076b60048036038101906107669190613f28565b61264f565b005b600080600083815260200190815260200160002060008473ffffffffffffffffffffffffffffffffffffffff1673ffffffffffffffffffffffffffffffffffffffff16815260200190815260200160002054905092915050565b60006301ffc9a760e01b7bffffffffffffffffffffffffffffffffffffffffffffffffffffffff1916827bffffffffffffffffffffffffffffffffffffffffffffffffffffffff19161480610860575063d9b67a2660e01b7bffffffffffffffffffffffffffffffffffffffffffffffffffffffff1916827bffffffffffffffffffffffffffffffffffffffffffffffffffffffff1916145b1561086e5760019050610873565b600090505b919050565b600b6020528060005260406000206000915090508060000160009054906101000a900473ffffffffffffffffffffffffffffffffffffffff16908060010154908060020154908060030160009054906101000a900473ffffffffffffffffffffffffffffffffffffffff1690806004018054600181600116156101000203166002900480601f01602080910402602001604051908101604052809291908181526020018280546001816001161561010002031660029004801561097c5780601f106109515761010080835404028352916020019161097c565b820191906000526020600020905b81548152906001019060200180831161095f57829003601f168201915b5050505050905085565b600060036000848152602001908152602001600020600083815260200190815260200160002060009054906101000a900460ff16905092915050565b6000808360400151141580156109e5575082600001516060015183604001518303125b905092915050565b610a4f8160008085815260200190815260200160002060008673ffffffffffffffffffffffffffffffffffffffff1673ffffffffffffffffffffffffffffffffffffffff168152602001908152602001600020546127c190919063ffffffff16565b60008084815260200190815260200160002060008573ffffffffffffffffffffffffffffffffffffffff1673ffffffffffffffffffffffffffffffffffffffff16815260200190815260200160002081905550806007600084815260200190815260200160002060008282540392505081905550600073ffffffffffffffffffffffffffffffffffffffff168373ffffffffffffffffffffffffffffffffffffffff163373ffffffffffffffffffffffffffffffffffffffff167fc3d58168c5ae7397731d063d5bbf3d657854427343f4c083240f7aacaa2d0f628585604051610b3a929190614d36565b60405180910390a4505050565b6060600860008381526020019081526020016000208054600181600116156101000203166002900480601f016020809104026020016040519081016040528092919081815260200182805460018160011615610100020316600290048015610bf05780601f10610bc557610100808354040283529160200191610bf0565b820191906000526020600020905b815481529060010190602001808311610bd357829003601f168201915b50505050509050919050565b6006600083815260200190815260200160002060009054906101000a900473ffffffffffffffffffffffffffffffffffffffff1673ffffffffffffffffffffffffffffffffffffffff163373ffffffffffffffffffffffffffffffffffffffff1614610c6757600080fd5b600073ffffffffffffffffffffffffffffffffffffffff168173ffffffffffffffffffffffffffffffffffffffff161415610ca157600080fd5b806006600084815260200190815260200160002060006101000a81548173ffffffffffffffffffffffffffffffffffffffff021916908373ffffffffffffffffffffffffffffffffffffffff1602179055505050565b610d0788888888888888886127d8565b5050505050505050565b600073ffffffffffffffffffffffffffffffffffffffff168473ffffffffffffffffffffffffffffffffffffffff161415610d81576040517f08c379a0000000000000000000000000000000000000000000000000000000008152600401610d7890614c9f565b60405180910390fd5b60008214610e2457610daf600760008581526020019081526020016000205483612cc890919063ffffffff16565b60076000858152602001908152602001600020819055508160008085815260200190815260200160002060008673ffffffffffffffffffffffffffffffffffffffff1673ffffffffffffffffffffffffffffffffffffffff168152602001908152602001600020600082825401925050819055505b8373ffffffffffffffffffffffffffffffffffffffff16600073ffffffffffffffffffffffffffffffffffffffff163373ffffffffffffffffffffffffffffffffffffffff167fc3d58168c5ae7397731d063d5bbf3d657854427343f4c083240f7aacaa2d0f628686604051610e9b929190614d36565b60405180910390a4610ec28473ffffffffffffffffffffffffffffffffffffffff16612cdf565b15610ed757610ed633600086868686612cf2565b5b50505050565b600a6020528060005260406000206000915090508060000154908060010154905082565b6060828290508585905014610f1557600080fd5b60608585905067ffffffffffffffff81118015610f3157600080fd5b50604051908082528060200260200182016040528015610f605781602001602082028036833780820191505090505b50905060005b8686905081101561101657600080868684818110610f8057fe5b9050602002013581526020019081526020016000206000888884818110610fa357fe5b9050602002016020810190610fb89190613bae565b73ffffffffffffffffffffffffffffffffffffffff1673ffffffffffffffffffffffffffffffffffffffff16815260200190815260200160002054828281518110610fff57fe5b602002602001018181525050806001019050610f66565b5080915050949350505050565b600c5481565b6006600084815260200190815260200160002060009054906101000a900473ffffffffffffffffffffffffffffffffffffffff1673ffffffffffffffffffffffffffffffffffffffff163373ffffffffffffffffffffffffffffffffffffffff161461109457600080fd5b81816008600086815260200190815260200160002091906110b692919061367e565b50505050565b60008061110d86868080601f016020809104026020016040519081016040528093929190818152602001838380828437600081840152601f19601f8201169050808301925050505050505033612e13565b905061115e84848080601f016020809104026020016040519081016040528093929190818152602001838380828437600081840152601f19601f820116905080830192505050505050506000612e13565b506111676136fe565b60405180604001604052808381526020016000815250905080600a60008481526020019081526020016000206000820151816000015560208201518160010155905050813373ffffffffffffffffffffffffffffffffffffffff167f0e77afbf76314bb085ab34f7e91e15cdb38dc97d740b8421e3bc413074b7148f60405160405180910390a38192505050949350505050565b600060056000848152602001908152602001600020600083815260200190815260200160002060009054906101000a9004600f0b905092915050565b60025481565b3373ffffffffffffffffffffffffffffffffffffffff168373ffffffffffffffffffffffffffffffffffffffff1614806112fd5750600160003373ffffffffffffffffffffffffffffffffffffffff1673ffffffffffffffffffffffffffffffffffffffff16815260200190815260200160002060008473ffffffffffffffffffffffffffffffffffffffff1673ffffffffffffffffffffffffffffffffffffffff16815260200190815260200160002060009054906101000a900460ff165b61133c576040517f08c379a000000000000000000000000000000000000000000000000000000000815260040161133390614bff565b60405180910390fd5b600086866001898990500381811061135057fe5b90506020020135141561136257600080fd5b700100000000000000000000000000000000841061137f57600080fd5b60008060008888600081811061139157fe5b90506020020135815260200190815260200160002060008573ffffffffffffffffffffffffffffffffffffffff1673ffffffffffffffffffffffffffffffffffffffff168152602001908152602001600020549050808511156113f357600080fd5b60008086905060005b60018a8a90500381146116ba5760008a8a8381811061141757fe5b90506020020135905060008b8b6001850181811061143157fe5b9050602002013590506114448282612efd565b94508460080160009054906101000a900460ff161561146257600080fd5b600061146c612fc7565b90506000808760000160000160009054906101000a900460ff16156115df57611530886040518060a0016040529081600082016040518060a00160405290816000820160009054906101000a900460ff1615151515815260200160018201548152602001600282015481526020016003820154815260200160048201548152505081526020016005820154815260200160068201548152602001600782015481526020016008820160009054906101000a900460ff161515151581525050846109c2565b90506115d8886040518060a0016040529081600082016040518060a00160405290816000820160009054906101000a900460ff1615151515815260200160018201548152602001600282015481526020016003820154815260200160048201548152505081526020016005820154815260200160068201548152602001600782015481526020016008820160009054906101000a900460ff1615151515815250508483611e31565b91506115fb565b60008860050154126115f55787600501546115f8565b60005b91505b818d111561160857600080fd5b8760000160000160009054906101000a900460ff168015611627575080155b1561164657828860060181905550876000016002015488600501819055505b8288600701819055508c88600501600082825403925050819055506116a88760056000888152602001908152602001600020600087815260200190815260200160002060009054906101000a9004600f0b600f0b612fcf90919063ffffffff16565b965050505050508060010190506113fc565b506116d9868a8a60008181106116cc57fe5b90506020020135896109ed565b611741868a8a60018d8d9050038181106116ef57fe5b905060200201358388888080601f016020809104026020016040519081016040528093929190818152602001838380828437600081840152601f19601f82011690508083019250505050505050610d11565b505050505050505050565b6006600082815260200190815260200160002060009054906101000a900473ffffffffffffffffffffffffffffffffffffffff1673ffffffffffffffffffffffffffffffffffffffff163373ffffffffffffffffffffffffffffffffffffffff16146117b757600080fd5b60006006600083815260200190815260200160002060006101000a81548173ffffffffffffffffffffffffffffffffffffffff021916908373ffffffffffffffffffffffffffffffffffffffff16021790555050565b80600160003373ffffffffffffffffffffffffffffffffffffffff1673ffffffffffffffffffffffffffffffffffffffff16815260200190815260200160002060008473ffffffffffffffffffffffffffffffffffffffff1673ffffffffffffffffffffffffffffffffffffffff16815260200190815260200160002060006101000a81548160ff0219169083151502179055508173ffffffffffffffffffffffffffffffffffffffff163373ffffffffffffffffffffffffffffffffffffffff167f17307eab39ab6107e8899845ad3d59bd9653f200f220920489ca2b5937696c31836040516118fe9190614ba7565b60405180910390a35050565b60003373ffffffffffffffffffffffffffffffffffffffff166006600088815260200190815260200160002060009054906101000a900473ffffffffffffffffffffffffffffffffffffffff1673ffffffffffffffffffffffffffffffffffffffff161461197757600080fd5b6000600a60008881526020019081526020016000209050611996613718565b6040518060a001604052803373ffffffffffffffffffffffffffffffffffffffff168152602001836001016000815460010191905081905581526020018881526020018773ffffffffffffffffffffffffffffffffffffffff16815260200186868080601f016020809104026020016040519081016040528093929190818152602001838380828437600081840152601f19601f82011690508083019250505050505050815250905080600b6000600c60008154600101919050819055815260200190815260200160002060008201518160000160006101000a81548173ffffffffffffffffffffffffffffffffffffffff021916908373ffffffffffffffffffffffffffffffffffffffff160217905550602082015181600101556040820151816002015560608201518160030160006101000a81548173ffffffffffffffffffffffffffffffffffffffff021916908373ffffffffffffffffffffffffffffffffffffffff1602179055506080820151816004019080519060200190611b1f929190613773565b509050506060604051806020016040528060008152509050611b43878a8a84610d11565b82600101543373ffffffffffffffffffffffffffffffffffffffff16600c547f5fb186fbfd022553cd9c231aeaca029cb50000d19f12e02ff460c13b0bc53d708b8b8b8b604051611b979493929190614cf6565b60405180910390a4600c54935050505095945050505050565b6006600087815260200190815260200160002060009054906101000a900473ffffffffffffffffffffffffffffffffffffffff1673ffffffffffffffffffffffffffffffffffffffff163373ffffffffffffffffffffffffffffffffffffffff1614611c1b57600080fd5b60006004600089815260200190815260200160002060008881526020019081526020016000209050611c9d816000016040518060a00160405290816000820160009054906101000a900460ff1615151515815260200160018201548152602001600282015481526020016003820154815260200160048201548152505061308a565b8214611ca857600080fd5b611cb66001868887876130d6565b8160000160008201518160000160006101000a81548160ff021916908315150217905550602082015181600101556040820151816002015560608201518160030155608082015181600401559050508281600601819055508481600501819055505050505050505050565b600060076000838152602001908152602001600020549050919050565b81600160028281611d4b57fe5b0614611d5657600080fd5b611d613384846109ed565b6000611d99836009600087815260200190815260200160002060009054906101000a9004600f0b600f0b612fcf90919063ffffffff16565b905060606040518060200160405280600081525090506000611dba86613112565b9050611dfb6006600083815260200190815260200160002060009054906101000a900473ffffffffffffffffffffffffffffffffffffffff16828585610d11565b611e09338285880385610d11565b505050505050565b60096020528060005260406000206000915054906101000a9004600f0b81565b6000808215611e755760008560600151850390506000866000015160600151828860000151604001510281611e6257fe5b0590508087602001510392505050611e81565b84600001516040015190505b60008112611e8f5780611e92565b60005b9150509392505050565b611ea46137f3565b6004600084815260200190815260200160002060008381526020019081526020016000206040518060a0016040529081600082016040518060a00160405290816000820160009054906101000a900460ff1615151515815260200160018201548152602001600282015481526020016003820154815260200160048201548152505081526020016005820154815260200160068201548152602001600782015481526020016008820160009054906101000a900460ff161515151581525050905092915050565b6006600084815260200190815260200160002060009054906101000a900473ffffffffffffffffffffffffffffffffffffffff1673ffffffffffffffffffffffffffffffffffffffff163373ffffffffffffffffffffffffffffffffffffffff1614611fd657600080fd5b611fe1838383613138565b505050565b6000600160008473ffffffffffffffffffffffffffffffffffffffff1673ffffffffffffffffffffffffffffffffffffffff16815260200190815260200160002060008373ffffffffffffffffffffffffffffffffffffffff1673ffffffffffffffffffffffffffffffffffffffff16815260200190815260200160002060009054906101000a900460ff16905092915050565b6006600083815260200190815260200160002060009054906101000a900473ffffffffffffffffffffffffffffffffffffffff1673ffffffffffffffffffffffffffffffffffffffff163373ffffffffffffffffffffffffffffffffffffffff16146120e557600080fd5b8060056000858152602001908152602001600020600084815260200190815260200160002060006101000a8154816fffffffffffffffffffffffffffffffff0219169083600f0b6fffffffffffffffffffffffffffffffff160217905550505050565b8160016002828161215557fe5b061461216057600080fd5b6006600084815260200190815260200160002060009054906101000a900473ffffffffffffffffffffffffffffffffffffffff1673ffffffffffffffffffffffffffffffffffffffff163373ffffffffffffffffffffffffffffffffffffffff16146121cb57600080fd5b600082600f0b121580156121eb57506801000000000000000082600f0b13155b6121f457600080fd5b816009600085815260200190815260200160002060006101000a8154816fffffffffffffffffffffffffffffffff0219169083600f0b6fffffffffffffffffffffffffffffffff160217905550505050565b612254868686868686613187565b505050505050565b3373ffffffffffffffffffffffffffffffffffffffff168373ffffffffffffffffffffffffffffffffffffffff16148061231c5750600160003373ffffffffffffffffffffffffffffffffffffffff1673ffffffffffffffffffffffffffffffffffffffff16815260200190815260200160002060008473ffffffffffffffffffffffffffffffffffffffff1673ffffffffffffffffffffffffffffffffffffffff16815260200190815260200160002060009054906101000a900460ff165b61235b576040517f08c379a000000000000000000000000000000000000000000000000000000000815260040161235290614bff565b60405180910390fd5b6123bd8160008085815260200190815260200160002060008673ffffffffffffffffffffffffffffffffffffffff1673ffffffffffffffffffffffffffffffffffffffff168152602001908152602001600020546127c190919063ffffffff16565b60008084815260200190815260200160002060008573ffffffffffffffffffffffffffffffffffffffff1673ffffffffffffffffffffffffffffffffffffffff16815260200190815260200160002081905550806007600084815260200190815260200160002060008282540392505081905550600073ffffffffffffffffffffffffffffffffffffffff168373ffffffffffffffffffffffffffffffffffffffff163373ffffffffffffffffffffffffffffffffffffffff167fc3d58168c5ae7397731d063d5bbf3d657854427343f4c083240f7aacaa2d0f6285856040516124a8929190614d36565b60405180910390a4505050565b60066020528060005260406000206000915054906101000a900473ffffffffffffffffffffffffffffffffffffffff1681565b6006600084815260200190815260200160002060009054906101000a900473ffffffffffffffffffffffffffffffffffffffff1673ffffffffffffffffffffffffffffffffffffffff163373ffffffffffffffffffffffffffffffffffffffff161461255357600080fd5b600060046000868152602001908152602001600020600085815260200190815260200160002090506125d5816000016040518060a00160405290816000820160009054906101000a900460ff1615151515815260200160018201548152602001600282015481526020016003820154815260200160048201548152505061308a565b82146125e057600080fd5b6125f060008460008060006130d6565b8160000160008201518160000160006101000a81548160ff021916908315150217905550602082015181600101556040820151816002015560608201518160030155608082015181600401559050508281600501819055505050505050565b600083836001868690500381811061266357fe5b9050602002013590506006600082815260200190815260200160002060009054906101000a900473ffffffffffffffffffffffffffffffffffffffff1673ffffffffffffffffffffffffffffffffffffffff163373ffffffffffffffffffffffffffffffffffffffff16146126d757600080fd5b60005b6001858590500381146127ba5760008585838181106126f557fe5b9050602002013590508281141561270b57600080fd5b6001868690500382146127ae57600086866001850181811061272957fe5b90506020020135905060036000838152602001908152602001600020600082815260200190815260200160002060009054906101000a900460ff1661276d57600080fd5b8460046000848152602001908152602001600020600083815260200190815260200160002060080160006101000a81548160ff021916908315150217905550505b508060010190506126da565b5050505050565b6000828211156127cd57fe5b818303905092915050565b600073ffffffffffffffffffffffffffffffffffffffff168773ffffffffffffffffffffffffffffffffffffffff161415612848576040517f08c379a000000000000000000000000000000000000000000000000000000000815260040161283f90614c1f565b60405180910390fd5b838390508686905014612890576040517f08c379a000000000000000000000000000000000000000000000000000000000815260040161288790614c5f565b60405180910390fd5b3373ffffffffffffffffffffffffffffffffffffffff168873ffffffffffffffffffffffffffffffffffffffff1614806129505750600160003373ffffffffffffffffffffffffffffffffffffffff1673ffffffffffffffffffffffffffffffffffffffff16815260200190815260200160002060008973ffffffffffffffffffffffffffffffffffffffff1673ffffffffffffffffffffffffffffffffffffffff16815260200190815260200160002060009054906101000a900460ff165b61298f576040517f08c379a000000000000000000000000000000000000000000000000000000000815260040161298690614bff565b60405180910390fd5b60005b86869050811015612b425760008787838181106129ab57fe5b90506020020135905060008686848181106129c257fe5b905060200201359050612a2d8160008085815260200190815260200160002060008e73ffffffffffffffffffffffffffffffffffffffff1673ffffffffffffffffffffffffffffffffffffffff168152602001908152602001600020546127c190919063ffffffff16565b60008084815260200190815260200160002060008d73ffffffffffffffffffffffffffffffffffffffff1673ffffffffffffffffffffffffffffffffffffffff16815260200190815260200160002081905550612ae260008084815260200190815260200160002060008c73ffffffffffffffffffffffffffffffffffffffff1673ffffffffffffffffffffffffffffffffffffffff1681526020019081526020016000205482612cc890919063ffffffff16565b60008084815260200190815260200160002060008c73ffffffffffffffffffffffffffffffffffffffff1673ffffffffffffffffffffffffffffffffffffffff168152602001908152602001600020819055505050806001019050612992565b508673ffffffffffffffffffffffffffffffffffffffff168873ffffffffffffffffffffffffffffffffffffffff163373ffffffffffffffffffffffffffffffffffffffff167f4a39dc06d4c0dbc64b70af90fd698a233a518aa5d07e595d983b8c0526c8f7fb89898989604051612bbd9493929190614b4a565b60405180910390a4612be48773ffffffffffffffffffffffffffffffffffffffff16612cdf565b15612cbe57612cbd338989898980806020026020016040519081016040528093929190818152602001838360200280828437600081840152601f19601f82011690508083019250505050505050888880806020026020016040519081016040528093929190818152602001838360200280828437600081840152601f19601f8201169050808301925050505050505087878080601f016020809104026020016040519081016040528093929190818152602001838380828437600081840152601f19601f8201169050808301925050505050505061355d565b5b5050505050505050565b6000818301905082811015612cd957fe5b92915050565b600080823b905060008111915050919050565b63f23a6e6160e01b7bffffffffffffffffffffffffffffffffffffffffffffffffffffffff19168473ffffffffffffffffffffffffffffffffffffffff1663f23a6e6188888787876040518663ffffffff1660e01b8152600401612d5a959493929190614a96565b602060405180830381600087803b158015612d7457600080fd5b505af1158015612d88573d6000803e3d6000fd5b505050506040513d601f19601f82011682018060405250810190612dac9190614044565b7bffffffffffffffffffffffffffffffffffffffffffffffffffffffff191614612e0b576040517f08c379a0000000000000000000000000000000000000000000000000000000008152600401612e0290614c7f565b60405180910390fd5b505050505050565b60008160066000600254815260200190815260200160002060006101000a81548173ffffffffffffffffffffffffffffffffffffffff021916908373ffffffffffffffffffffffffffffffffffffffff160217905550826008600060025481526020019081526020016000209080519060200190612e92929190613773565b508173ffffffffffffffffffffffffffffffffffffffff166002547ff031a088aa7b1646f284daae9871f10581d991a0d4dcfe07f7834d04201680c585604051612edc9190614bdd565b60405180910390a36002600081548092919060010191905055905092915050565b6000807ffffffffffffffffffffffffffffffffffffffffffffffffffffffffffffffffe8416905060007ffffffffffffffffffffffffffffffffffffffffffffffffffffffffffffffffe8416905060036000838152602001908152602001600020600082815260200190815260200160002060009054906101000a900460ff16612f8757600080fd5b600184166001861614612f9957600080fd5b6004600083815260200190815260200160002060008281526020019081526020016000209250505092915050565b600042905090565b600080821415612fe25760009050613084565b600083600f0b1215612ff357600080fd5b600060406fffffffffffffffffffffffffffffffff841685600f0b02901c90506000608084901c85600f0b02905077ffffffffffffffffffffffffffffffffffffffffffffffff81111561304657600080fd5b604081901b9050817fffffffffffffffffffffffffffffffffffffffffffffffffffffffffffffffff0381111561307c57600080fd5b818101925050505b92915050565b6000816000015182602001518360400151846060015185608001516040516020016130b99594939291906149b4565b604051602081830303815290604052805190602001209050919050565b6130de61382a565b6040518060a00160405280871515815260200186815260200185815260200184815260200183815250905095945050505050565b60008160016002828161312157fe5b061461312c57600080fd5b60018301915050919050565b600254821061314657600080fd5b8060036000858152602001908152602001600020600084815260200190815260200160002060006101000a81548160ff021916908315150217905550505050565b600073ffffffffffffffffffffffffffffffffffffffff168573ffffffffffffffffffffffffffffffffffffffff1614156131f7576040517f08c379a00000000000000000000000000000000000000000000000000000000081526004016131ee90614c9f565b60405180910390fd5b3373ffffffffffffffffffffffffffffffffffffffff168673ffffffffffffffffffffffffffffffffffffffff1614806132b75750600160003373ffffffffffffffffffffffffffffffffffffffff1673ffffffffffffffffffffffffffffffffffffffff16815260200190815260200160002060008773ffffffffffffffffffffffffffffffffffffffff1673ffffffffffffffffffffffffffffffffffffffff16815260200190815260200160002060009054906101000a900460ff165b6132f6576040517f08c379a00000000000000000000000000000000000000000000000000000000081526004016132ed90614bff565b60405180910390fd5b6133588360008087815260200190815260200160002060008973ffffffffffffffffffffffffffffffffffffffff1673ffffffffffffffffffffffffffffffffffffffff168152602001908152602001600020546127c190919063ffffffff16565b60008086815260200190815260200160002060008873ffffffffffffffffffffffffffffffffffffffff1673ffffffffffffffffffffffffffffffffffffffff1681526020019081526020016000208190555061340d60008086815260200190815260200160002060008773ffffffffffffffffffffffffffffffffffffffff1673ffffffffffffffffffffffffffffffffffffffff1681526020019081526020016000205484612cc890919063ffffffff16565b60008086815260200190815260200160002060008773ffffffffffffffffffffffffffffffffffffffff1673ffffffffffffffffffffffffffffffffffffffff168152602001908152602001600020819055508473ffffffffffffffffffffffffffffffffffffffff168673ffffffffffffffffffffffffffffffffffffffff163373ffffffffffffffffffffffffffffffffffffffff167fc3d58168c5ae7397731d063d5bbf3d657854427343f4c083240f7aacaa2d0f6287876040516134d6929190614d36565b60405180910390a46134fd8573ffffffffffffffffffffffffffffffffffffffff16612cdf565b1561355557613554338787878787878080601f016020809104026020016040519081016040528093929190818152602001838380828437600081840152601f19601f82011690508083019250505050505050612cf2565b5b505050505050565b63bc197c8160e01b7bffffffffffffffffffffffffffffffffffffffffffffffffffffffff19168473ffffffffffffffffffffffffffffffffffffffff1663bc197c8188888787876040518663ffffffff1660e01b81526004016135c5959493929190614a2e565b602060405180830381600087803b1580156135df57600080fd5b505af11580156135f3573d6000803e3d6000fd5b505050506040513d601f19601f820116820180604052508101906136179190614044565b7bffffffffffffffffffffffffffffffffffffffffffffffffffffffff191614613676576040517f08c379a000000000000000000000000000000000000000000000000000000000815260040161366d90614c3f565b60405180910390fd5b505050505050565b828054600181600116156101000203166002900490600052602060002090601f016020900481019282601f106136bf57803560ff19168380011785556136ed565b828001600101855582156136ed579182015b828111156136ec5782358255916020019190600101906136d1565b5b5090506136fa919061385b565b5090565b604051806040016040528060008152602001600081525090565b6040518060a00160405280600073ffffffffffffffffffffffffffffffffffffffff1681526020016000815260200160008152602001600073ffffffffffffffffffffffffffffffffffffffff168152602001606081525090565b828054600181600116156101000203166002900490600052602060002090601f016020900481019282601f106137b457805160ff19168380011785556137e2565b828001600101855582156137e2579182015b828111156137e15782518255916020019190600101906137c6565b5b5090506137ef919061385b565b5090565b6040518060a0016040528061380661382a565b81526020016000815260200160008152602001600081526020016000151581525090565b6040518060a00160405280600015158152602001600081526020016000815260200160008152602001600081525090565b5b8082111561387457600081600090555060010161385c565b5090565b60008135905061388781614f56565b92915050565b60008083601f84011261389f57600080fd5b8235905067ffffffffffffffff8111156138b857600080fd5b6020830191508360208202830111156138d057600080fd5b9250929050565b60008083601f8401126138e957600080fd5b8235905067ffffffffffffffff81111561390257600080fd5b60208301915083602082028301111561391a57600080fd5b9250929050565b60008135905061393081614f6d565b92915050565b60008135905061394581614f84565b92915050565b60008135905061395a81614f9b565b92915050565b60008151905061396f81614f9b565b92915050565b60008083601f84011261398757600080fd5b8235905067ffffffffffffffff8111156139a057600080fd5b6020830191508360018202830111156139b857600080fd5b9250929050565b600082601f8301126139d057600080fd5b81356139e36139de82614d90565b614d5f565b915080825260208301602083018583830111156139ff57600080fd5b613a0a838284614ec6565b50505092915050565b600081359050613a2281614fb2565b92915050565b600081359050613a3781614fc9565b92915050565b60008083601f840112613a4f57600080fd5b8235905067ffffffffffffffff811115613a6857600080fd5b602083019150836001820283011115613a8057600080fd5b9250929050565b600060a08284031215613a9957600080fd5b613aa360a0614d5f565b90506000613ab384828501613921565b6000830152506020613ac784828501613a28565b6020830152506040613adb84828501613a28565b6040830152506060613aef84828501613a28565b6060830152506080613b0384828501613a28565b60808301525092915050565b60006101208284031215613b2257600080fd5b613b2c60a0614d5f565b90506000613b3c84828501613a87565b60008301525060a0613b5084828501613a28565b60208301525060c0613b6484828501613a28565b60408301525060e0613b7884828501613a28565b606083015250610100613b8d84828501613921565b60808301525092915050565b600081359050613ba881614fe0565b92915050565b600060208284031215613bc057600080fd5b6000613bce84828501613878565b91505092915050565b60008060408385031215613bea57600080fd5b6000613bf885828601613878565b9250506020613c0985828601613878565b9150509250929050565b60008060008060008060008060a0898b031215613c2f57600080fd5b6000613c3d8b828c01613878565b9850506020613c4e8b828c01613878565b975050604089013567ffffffffffffffff811115613c6b57600080fd5b613c778b828c016138d7565b9650965050606089013567ffffffffffffffff811115613c9657600080fd5b613ca28b828c016138d7565b9450945050608089013567ffffffffffffffff811115613cc157600080fd5b613ccd8b828c01613975565b92509250509295985092959890939650565b60008060008060008060a08789031215613cf857600080fd5b6000613d0689828a01613878565b9650506020613d1789828a01613878565b9550506040613d2889828a01613b99565b9450506060613d3989828a01613b99565b935050608087013567ffffffffffffffff811115613d5657600080fd5b613d6289828a01613975565b92509250509295509295509295565b60008060408385031215613d8457600080fd5b6000613d9285828601613878565b9250506020613da385828601613921565b9150509250929050565b60008060408385031215613dc057600080fd5b6000613dce85828601613878565b9250506020613ddf85828601613b99565b9150509250929050565b600080600060608486031215613dfe57600080fd5b6000613e0c86828701613878565b9350506020613e1d86828701613b99565b9250506040613e2e86828701613b99565b9150509250925092565b60008060008060808587031215613e4e57600080fd5b6000613e5c87828801613878565b9450506020613e6d87828801613b99565b9350506040613e7e87828801613b99565b925050606085013567ffffffffffffffff811115613e9b57600080fd5b613ea7878288016139bf565b91505092959194509250565b60008060008060408587031215613ec957600080fd5b600085013567ffffffffffffffff811115613ee357600080fd5b613eef8782880161388d565b9450945050602085013567ffffffffffffffff811115613f0e57600080fd5b613f1a878288016138d7565b925092505092959194509250565b600080600060408486031215613f3d57600080fd5b600084013567ffffffffffffffff811115613f5757600080fd5b613f63868287016138d7565b93509350506020613f7686828701613921565b9150509250925092565b60008060008060008060808789031215613f9957600080fd5b600087013567ffffffffffffffff811115613fb357600080fd5b613fbf89828a016138d7565b96509650506020613fd289828a01613b99565b9450506040613fe389828a01613878565b935050606087013567ffffffffffffffff81111561400057600080fd5b61400c89828a01613975565b92509250509295509295509295565b60006020828403121561402d57600080fd5b600061403b8482850161394b565b91505092915050565b60006020828403121561405657600080fd5b600061406484828501613960565b91505092915050565b6000806000806040858703121561408357600080fd5b600085013567ffffffffffffffff81111561409d57600080fd5b6140a987828801613a3d565b9450945050602085013567ffffffffffffffff8111156140c857600080fd5b6140d487828801613a3d565b925092505092959194509250565b60008061014083850312156140f657600080fd5b600061410485828601613b0f565b92505061012061411685828601613a28565b9150509250929050565b6000806000610160848603121561413657600080fd5b600061414486828701613b0f565b93505061012061415686828701613a28565b92505061014061416886828701613921565b9150509250925092565b60006020828403121561418457600080fd5b600061419284828501613b99565b91505092915050565b600080604083850312156141ae57600080fd5b60006141bc85828601613b99565b92505060206141cd85828601613878565b9150509250929050565b600080604083850312156141ea57600080fd5b60006141f885828601613b99565b925050602061420985828601613a13565b9150509250929050565b60008060006040848603121561422857600080fd5b600061423686828701613b99565b935050602084013567ffffffffffffffff81111561425357600080fd5b61425f86828701613a3d565b92509250509250925092565b6000806040838503121561427e57600080fd5b600061428c85828601613b99565b925050602061429d85828601613b99565b9150509250929050565b6000806000806000608086880312156142bf57600080fd5b60006142cd88828901613b99565b95505060206142de88828901613b99565b94505060406142ef88828901613878565b935050606086013567ffffffffffffffff81111561430c57600080fd5b61431888828901613a3d565b92509250509295509295909350565b60008060006060848603121561433c57600080fd5b600061434a86828701613b99565b935050602061435b86828701613b99565b925050604061436c86828701613921565b9150509250925092565b60008060006060848603121561438b57600080fd5b600061439986828701613b99565b93505060206143aa86828701613b99565b92505060406143bb86828701613a13565b9150509250925092565b600080600080608085870312156143db57600080fd5b60006143e987828801613b99565b94505060206143fa87828801613b99565b935050604061440b87828801613a28565b925050606061441c87828801613936565b91505092959194509250565b600080600080600080600060e0888a03121561444357600080fd5b60006144518a828b01613b99565b97505060206144628a828b01613b99565b96505060406144738a828b01613a28565b95505060606144848a828b01613a28565b94505060806144958a828b01613a28565b93505060a06144a68a828b01613a28565b92505060c06144b78a828b01613936565b91505092959891949750929550565b60006144d28383614996565b60208301905092915050565b6144e781614e31565b82525050565b60006144f98385614dfe565b93507f07ffffffffffffffffffffffffffffffffffffffffffffffffffffffffffffff83111561452857600080fd5b602083029250614539838584614ec6565b82840190509392505050565b600061455082614dd0565b61455a8185614dfe565b935061456583614dc0565b8060005b8381101561459657815161457d88826144c6565b975061458883614df1565b925050600181019050614569565b5085935050505092915050565b6145ac81614e43565b82525050565b6145bb81614e43565b82525050565b6145d26145cd82614e43565b614f08565b82525050565b60006145e382614ddb565b6145ed8185614e0f565b93506145fd818560208601614ed5565b61460681614f38565b840191505092915050565b61461a81614e85565b82525050565b61462981614e92565b82525050565b61464061463b82614e92565b614f1a565b82525050565b60006146528385614e20565b935061465f838584614ec6565b61466883614f38565b840190509392505050565b600061467e82614de6565b6146888185614e20565b9350614698818560208601614ed5565b6146a181614f38565b840191505092915050565b60006146b9600c83614e20565b91507f4e6f20617070726f76616c2e00000000000000000000000000000000000000006000830152602082019050919050565b60006146f9602583614e20565b91507f64657374696e6174696f6e2061646472657373206d757374206265206e6f6e2d60008301527f7a65726f2e0000000000000000000000000000000000000000000000000000006020830152604082019050919050565b600061475f603e83614e20565b91507f636f6e74726163742072657475726e656420616e20756e6b6e6f776e2076616c60008301527f75652066726f6d206f6e455243313135354261746368526563656976656400006020830152604082019050919050565b60006147c5602983614e20565b91507f5f69647320616e64205f76616c756573206172726179206c656e677468206d7560008301527f7374206d617463682e00000000000000000000000000000000000000000000006020830152604082019050919050565b600061482b603983614e20565b91507f636f6e74726163742072657475726e656420616e20756e6b6e6f776e2076616c60008301527f75652066726f6d206f6e455243313135355265636569766564000000000000006020830152604082019050919050565b6000614891601583614e20565b91507f5f746f206d757374206265206e6f6e2d7a65726f2e00000000000000000000006000830152602082019050919050565b60a0820160008201516148da60008501826145a3565b5060208201516148ed6020850182614620565b5060408201516149006040850182614620565b5060608201516149136060850182614620565b5060808201516149266080850182614620565b50505050565b6101208201600082015161494360008501826148c4565b50602082015161495660a0850182614620565b50604082015161496960c0850182614620565b50606082015161497c60e0850182614620565b5060808201516149906101008501826145a3565b50505050565b61499f81614ebc565b82525050565b6149ae81614ebc565b82525050565b60006149c082886145c1565b6001820191506149d0828761462f565b6020820191506149e0828661462f565b6020820191506149f0828561462f565b602082019150614a00828461462f565b6020820191508190509695505050505050565b6000602082019050614a2860008301846144de565b92915050565b600060a082019050614a4360008301886144de565b614a5060208301876144de565b8181036040830152614a628186614545565b90508181036060830152614a768185614545565b90508181036080830152614a8a81846145d8565b90509695505050505050565b600060a082019050614aab60008301886144de565b614ab860208301876144de565b614ac560408301866149a5565b614ad260608301856149a5565b8181036080830152614ae481846145d8565b90509695505050505050565b600060a082019050614b0560008301886144de565b614b1260208301876149a5565b614b1f60408301866149a5565b614b2c60608301856144de565b8181036080830152614b3e8184614673565b90509695505050505050565b60006040820190508181036000830152614b658186886144ed565b90508181036020830152614b7a8184866144ed565b905095945050505050565b60006020820190508181036000830152614b9f8184614545565b905092915050565b6000602082019050614bbc60008301846145b2565b92915050565b6000602082019050614bd76000830184614611565b92915050565b60006020820190508181036000830152614bf78184614673565b905092915050565b60006020820190508181036000830152614c18816146ac565b9050919050565b60006020820190508181036000830152614c38816146ec565b9050919050565b60006020820190508181036000830152614c5881614752565b9050919050565b60006020820190508181036000830152614c78816147b8565b9050919050565b60006020820190508181036000830152614c988161481e565b9050919050565b60006020820190508181036000830152614cb881614884565b9050919050565b600061012082019050614cd5600083018461492c565b92915050565b6000602082019050614cf060008301846149a5565b92915050565b6000606082019050614d0b60008301876149a5565b614d1860208301866144de565b8181036040830152614d2b818486614646565b905095945050505050565b6000604082019050614d4b60008301856149a5565b614d5860208301846149a5565b9392505050565b6000604051905081810181811067ffffffffffffffff82111715614d8657614d85614f36565b5b8060405250919050565b600067ffffffffffffffff821115614dab57614daa614f36565b5b601f19601f8301169050602081019050919050565b6000819050602082019050919050565b600081519050919050565b600081519050919050565b600081519050919050565b6000602082019050919050565b600082825260208201905092915050565b600082825260208201905092915050565b600082825260208201905092915050565b6000614e3c82614e9c565b9050919050565b60008115159050919050565b6000819050919050565b60007fffffffff0000000000000000000000000000000000000000000000000000000082169050919050565b600081600f0b9050919050565b6000819050919050565b600073ffffffffffffffffffffffffffffffffffffffff82169050919050565b6000819050919050565b82818337600083830152505050565b60005b83811015614ef3578082015181840152602081019050614ed8565b83811115614f02576000848401525b50505050565b6000614f1382614f24565b9050919050565b6000819050919050565b6000614f2f82614f49565b9050919050565bfe5b6000601f19601f8301169050919050565b60008160f81b9050919050565b614f5f81614e31565b8114614f6a57600080fd5b50565b614f7681614e43565b8114614f8157600080fd5b50565b614f8d81614e4f565b8114614f9857600080fd5b50565b614fa481614e59565b8114614faf57600080fd5b50565b614fbb81614e85565b8114614fc657600080fd5b50565b614fd281614e92565b8114614fdd57600080fd5b50565b614fe981614ebc565b8114614ff457600080fd5b5056fea2646970667358221220d4a4da8dc4aa3301c8e8192788ae1df303fe36e0e8b0ca49236f96e317cf772364736f6c63430007030033",
  "linkReferences": {},
  "deployedLinkReferences": {}
}