{
  "_format": "hh-sol-artifact-1",
  "contractName": "Carbon",
  "sourceName": "contracts/Carbon.sol",
  "abi": [
    {
      "inputs": [],
      "stateMutability": "nonpayable",
      "type": "constructor"
    },
    {
      "anonymous": false,
      "inputs": [
        {
          "indexed": true,
          "internalType": "address",
          "name": "_owner",
          "type": "address"
        },
        {
          "indexed": true,
          "internalType": "address",
          "name": "_operator",
          "type": "address"
        },
        {
          "indexed": false,
          "internalType": "bool",
          "name": "_approved",
          "type": "bool"
        }
      ],
      "name": "ApprovalForAll",
      "type": "event"
    },
    {
      "anonymous": false,
      "inputs": [
        {
          "indexed": true,
          "internalType": "address",
          "name": "owner",
          "type": "address"
        },
        {
          "indexed": true,
          "internalType": "uint256",
          "name": "token",
          "type": "uint256"
        }
      ],
      "name": "AuthorityCreated",
      "type": "event"
    },
    {
      "anonymous": false,
      "inputs": [
        {
          "indexed": true,
          "internalType": "uint256",
          "name": "id",
          "type": "uint256"
        },
        {
          "indexed": true,
          "internalType": "address",
          "name": "authority",
          "type": "address"
        },
        {
          "indexed": true,
          "internalType": "uint256",
          "name": "serial",
          "type": "uint256"
        },
        {
          "indexed": false,
          "internalType": "uint256",
          "name": "amount",
          "type": "uint256"
        },
        {
          "indexed": false,
          "internalType": "address",
          "name": "owner",
          "type": "address"
        },
        {
          "indexed": false,
          "internalType": "string",
          "name": "fileCoinHash",
          "type": "string"
        }
      ],
      "name": "CreditCreated",
      "type": "event"
    },
    {
      "anonymous": false,
      "inputs": [
        {
          "indexed": true,
          "internalType": "uint256",
          "name": "id",
          "type": "uint256"
        },
        {
          "indexed": true,
          "internalType": "address",
          "name": "owner",
          "type": "address"
        },
        {
          "indexed": false,
          "internalType": "string",
          "name": "uri",
          "type": "string"
        }
      ],
      "name": "NewToken",
      "type": "event"
    },
    {
      "anonymous": false,
      "inputs": [
        {
          "indexed": true,
          "internalType": "address",
          "name": "_operator",
          "type": "address"
        },
        {
          "indexed": true,
          "internalType": "address",
          "name": "_from",
          "type": "address"
        },
        {
          "indexed": true,
          "internalType": "address",
          "name": "_to",
          "type": "address"
        },
        {
          "indexed": false,
          "internalType": "uint256[]",
          "name": "_ids",
          "type": "uint256[]"
        },
        {
          "indexed": false,
          "internalType": "uint256[]",
          "name": "_values",
          "type": "uint256[]"
        }
      ],
      "name": "TransferBatch",
      "type": "event"
    },
    {
      "anonymous": false,
      "inputs": [
        {
          "indexed": true,
          "internalType": "address",
          "name": "_operator",
          "type": "address"
        },
        {
          "indexed": true,
          "internalType": "address",
          "name": "_from",
          "type": "address"
        },
        {
          "indexed": true,
          "internalType": "address",
          "name": "_to",
          "type": "address"
        },
        {
          "indexed": false,
          "internalType": "uint256",
          "name": "_id",
          "type": "uint256"
        },
        {
          "indexed": false,
          "internalType": "uint256",
          "name": "_value",
          "type": "uint256"
        }
      ],
      "name": "TransferSingle",
      "type": "event"
    },
    {
      "anonymous": false,
      "inputs": [
        {
          "indexed": false,
          "internalType": "string",
          "name": "_value",
          "type": "string"
        },
        {
          "indexed": true,
          "internalType": "uint256",
          "name": "_id",
          "type": "uint256"
        }
      ],
      "name": "URI",
      "type": "event"
    },
    {
      "inputs": [
        {
          "internalType": "address",
          "name": "_from",
          "type": "address"
        },
        {
          "internalType": "uint256",
          "name": "_id",
          "type": "uint256"
        },
        {
          "internalType": "uint256",
          "name": "_value",
          "type": "uint256"
        }
      ],
      "name": "_doBurn",
      "outputs": [],
      "stateMutability": "nonpayable",
      "type": "function"
    },
    {
      "inputs": [
        {
          "internalType": "address",
          "name": "_to",
          "type": "address"
        },
        {
          "internalType": "uint256",
          "name": "_id",
          "type": "uint256"
        },
        {
          "internalType": "uint256",
          "name": "_value",
          "type": "uint256"
        },
        {
          "internalType": "bytes",
          "name": "_data",
          "type": "bytes"
        }
      ],
      "name": "_doMint",
      "outputs": [],
      "stateMutability": "nonpayable",
      "type": "function"
    },
    {
      "inputs": [
        {
          "components": [
            {
              "components": [
                {
                  "internalType": "bool",
                  "name": "recurring",
                  "type": "bool"
                },
                {
                  "internalType": "int256",
                  "name": "initialSwapCredit",
                  "type": "int256"
                },
                {
                  "internalType": "int256",
                  "name": "maxSwapCredit",
                  "type": "int256"
                },
                {
                  "internalType": "int256",
                  "name": "swapCreditPeriod",
                  "type": "int256"
                },
                {
                  "internalType": "int256",
                  "name": "firstTimeEnteredSwapCredit",
                  "type": "int256"
                }
              ],
              "internalType": "struct TokensFlow.SwapLimit",
              "name": "limit",
              "type": "tuple"
            },
            {
              "internalType": "int256",
              "name": "remainingSwapCredit",
              "type": "int256"
            },
            {
              "internalType": "int256",
              "name": "timeEnteredSwapCredit",
              "type": "int256"
            },
            {
              "internalType": "int256",
              "name": "lastSwapTime",
              "type": "int256"
            },
            {
              "internalType": "bool",
              "name": "disabled",
              "type": "bool"
            }
          ],
          "internalType": "struct TokensFlow.TokenFlow",
          "name": "_flow",
          "type": "tuple"
        },
        {
          "internalType": "int256",
          "name": "_currentTimeResult",
          "type": "int256"
        }
      ],
      "name": "_inSwapCredit",
      "outputs": [
        {
          "internalType": "bool",
          "name": "",
          "type": "bool"
        }
      ],
      "stateMutability": "pure",
      "type": "function"
    },
    {
      "inputs": [
        {
          "components": [
            {
              "components": [
                {
                  "internalType": "bool",
                  "name": "recurring",
                  "type": "bool"
                },
                {
                  "internalType": "int256",
                  "name": "initialSwapCredit",
                  "type": "int256"
                },
                {
                  "internalType": "int256",
                  "name": "maxSwapCredit",
                  "type": "int256"
                },
                {
                  "internalType": "int256",
                  "name": "swapCreditPeriod",
                  "type": "int256"
                },
                {
                  "internalType": "int256",
                  "name": "firstTimeEnteredSwapCredit",
                  "type": "int256"
                }
              ],
              "internalType": "struct TokensFlow.SwapLimit",
              "name": "limit",
              "type": "tuple"
            },
            {
              "internalType": "int256",
              "name": "remainingSwapCredit",
              "type": "int256"
            },
            {
              "internalType": "int256",
              "name": "timeEnteredSwapCredit",
              "type": "int256"
            },
            {
              "internalType": "int256",
              "name": "lastSwapTime",
              "type": "int256"
            },
            {
              "internalType": "bool",
              "name": "disabled",
              "type": "bool"
            }
          ],
          "internalType": "struct TokensFlow.TokenFlow",
          "name": "_flow",
          "type": "tuple"
        },
        {
          "internalType": "int256",
          "name": "_currentTimeResult",
          "type": "int256"
        },
        {
          "internalType": "bool",
          "name": "_inSwapCreditResult",
          "type": "bool"
        }
      ],
      "name": "_maxRecurringSwapAmount",
      "outputs": [
        {
          "internalType": "uint256",
          "name": "",
          "type": "uint256"
        }
      ],
      "stateMutability": "pure",
      "type": "function"
    },
    {
      "inputs": [
        {
          "internalType": "uint256",
          "name": "",
          "type": "uint256"
        }
      ],
      "name": "authorities",
      "outputs": [
        {
          "internalType": "uint256",
          "name": "token",
          "type": "uint256"
        },
        {
          "internalType": "uint256",
          "name": "maxSerial",
          "type": "uint256"
        }
      ],
      "stateMutability": "view",
      "type": "function"
    },
    {
      "inputs": [
        {
          "internalType": "address",
          "name": "_owner",
          "type": "address"
        },
        {
          "internalType": "uint256",
          "name": "_id",
          "type": "uint256"
        }
      ],
      "name": "balanceOf",
      "outputs": [
        {
          "internalType": "uint256",
          "name": "",
          "type": "uint256"
        }
      ],
      "stateMutability": "view",
      "type": "function"
    },
    {
      "inputs": [
        {
          "internalType": "address[]",
          "name": "_owners",
          "type": "address[]"
        },
        {
          "internalType": "uint256[]",
          "name": "_ids",
          "type": "uint256[]"
        }
      ],
      "name": "balanceOfBatch",
      "outputs": [
        {
          "internalType": "uint256[]",
          "name": "",
          "type": "uint256[]"
        }
      ],
      "stateMutability": "view",
      "type": "function"
    },
    {
      "inputs": [
        {
          "internalType": "address",
          "name": "_from",
          "type": "address"
        },
        {
          "internalType": "uint256",
          "name": "_id",
          "type": "uint256"
        },
        {
          "internalType": "uint256",
          "name": "_value",
          "type": "uint256"
        }
      ],
      "name": "burn",
      "outputs": [],
      "stateMutability": "nonpayable",
      "type": "function"
    },
    {
      "inputs": [
        {
          "internalType": "uint256",
          "name": "_child",
          "type": "uint256"
        },
        {
          "internalType": "uint256",
          "name": "_parent",
          "type": "uint256"
        }
      ],
      "name": "coeffient",
      "outputs": [
        {
          "internalType": "int128",
          "name": "",
          "type": "int128"
        }
      ],
      "stateMutability": "view",
      "type": "function"
    },
    {
      "inputs": [
        {
          "internalType": "string",
          "name": "_nonRetiredUri",
          "type": "string"
        },
        {
          "internalType": "string",
          "name": "_retiredUri",
          "type": "string"
        }
      ],
      "name": "createAuthority",
      "outputs": [],
      "stateMutability": "nonpayable",
      "type": "function"
    },
    {
      "inputs": [
        {
          "internalType": "uint256",
          "name": "_token",
          "type": "uint256"
        },
        {
          "internalType": "uint256",
          "name": "_amount",
          "type": "uint256"
        },
        {
          "internalType": "address",
          "name": "_owner",
          "type": "address"
        },
        {
          "internalType": "string",
          "name": "_fileCoinHash",
          "type": "string"
        }
      ],
      "name": "createCredit",
      "outputs": [
        {
          "internalType": "uint256",
          "name": "",
          "type": "uint256"
        }
      ],
      "stateMutability": "nonpayable",
      "type": "function"
    },
    {
      "inputs": [
        {
          "internalType": "uint256",
          "name": "",
          "type": "uint256"
        }
      ],
      "name": "credits",
      "outputs": [
        {
          "internalType": "address",
          "name": "authority",
          "type": "address"
        },
        {
          "internalType": "uint256",
          "name": "serial",
          "type": "uint256"
        },
        {
          "internalType": "uint256",
          "name": "amount",
          "type": "uint256"
        },
        {
          "internalType": "address",
          "name": "owner",
          "type": "address"
        },
        {
          "internalType": "string",
          "name": "fileCoinHash",
          "type": "string"
        }
      ],
      "stateMutability": "view",
      "type": "function"
    },
    {
      "inputs": [
        {
          "internalType": "uint256[]",
          "name": "_ids",
          "type": "uint256[]"
        },
        {
          "internalType": "uint256",
          "name": "_amount",
          "type": "uint256"
        },
        {
          "internalType": "address",
          "name": "_from",
          "type": "address"
        },
        {
          "internalType": "bytes",
          "name": "_data",
          "type": "bytes"
        }
      ],
      "name": "exchangeToAncestor",
      "outputs": [],
      "stateMutability": "nonpayable",
      "type": "function"
    },
    {
      "inputs": [
        {
          "internalType": "address",
          "name": "_owner",
          "type": "address"
        },
        {
          "internalType": "address",
          "name": "_operator",
          "type": "address"
        }
      ],
      "name": "isApprovedForAll",
      "outputs": [
        {
          "internalType": "bool",
          "name": "",
          "type": "bool"
        }
      ],
      "stateMutability": "view",
      "type": "function"
    },
    {
      "inputs": [
        {
          "internalType": "uint256",
          "name": "_child",
          "type": "uint256"
        },
        {
          "internalType": "uint256",
          "name": "_parent",
          "type": "uint256"
        }
      ],
      "name": "isChild",
      "outputs": [
        {
          "internalType": "bool",
          "name": "",
          "type": "bool"
        }
      ],
      "stateMutability": "view",
      "type": "function"
    },
    {
      "inputs": [],
      "name": "maxCreditId",
      "outputs": [
        {
          "internalType": "uint256",
          "name": "",
          "type": "uint256"
        }
      ],
      "stateMutability": "view",
      "type": "function"
    },
    {
      "inputs": [],
      "name": "nextTokenId",
      "outputs": [
        {
          "internalType": "uint256",
          "name": "",
          "type": "uint256"
        }
      ],
      "stateMutability": "view",
      "type": "function"
    },
    {
      "inputs": [
        {
          "internalType": "uint256",
          "name": "_id",
          "type": "uint256"
        }
      ],
      "name": "removeTokenOwner",
      "outputs": [],
      "stateMutability": "nonpayable",
      "type": "function"
    },
    {
      "inputs": [
        {
          "internalType": "uint256",
          "name": "_nonRetiredToken",
          "type": "uint256"
        },
        {
          "internalType": "uint256",
          "name": "_amount",
          "type": "uint256"
        }
      ],
      "name": "retireCredit",
      "outputs": [],
      "stateMutability": "nonpayable",
      "type": "function"
    },
    {
      "inputs": [
        {
          "internalType": "address",
          "name": "_from",
          "type": "address"
        },
        {
          "internalType": "address",
          "name": "_to",
          "type": "address"
        },
        {
          "internalType": "uint256[]",
          "name": "_ids",
          "type": "uint256[]"
        },
        {
          "internalType": "uint256[]",
          "name": "_values",
          "type": "uint256[]"
        },
        {
          "internalType": "bytes",
          "name": "_data",
          "type": "bytes"
        }
      ],
      "name": "safeBatchTransferFrom",
      "outputs": [],
      "stateMutability": "nonpayable",
      "type": "function"
    },
    {
      "inputs": [
        {
          "internalType": "address",
          "name": "_from",
          "type": "address"
        },
        {
          "internalType": "address",
          "name": "_to",
          "type": "address"
        },
        {
          "internalType": "uint256",
          "name": "_id",
          "type": "uint256"
        },
        {
          "internalType": "uint256",
          "name": "_value",
          "type": "uint256"
        },
        {
          "internalType": "bytes",
          "name": "_data",
          "type": "bytes"
        }
      ],
      "name": "safeTransferFrom",
      "outputs": [],
      "stateMutability": "nonpayable",
      "type": "function"
    },
    {
      "inputs": [
        {
          "internalType": "address",
          "name": "_operator",
          "type": "address"
        },
        {
          "internalType": "bool",
          "name": "_approved",
          "type": "bool"
        }
      ],
      "name": "setApprovalForAll",
      "outputs": [],
      "stateMutability": "nonpayable",
      "type": "function"
    },
    {
      "inputs": [
        {
          "internalType": "uint256",
          "name": "_child",
          "type": "uint256"
        },
        {
          "internalType": "uint256",
          "name": "_parent",
          "type": "uint256"
        },
        {
          "internalType": "int128",
          "name": "_coefficient",
          "type": "int128"
        }
      ],
      "name": "setCoefficient",
      "outputs": [],
      "stateMutability": "nonpayable",
      "type": "function"
    },
    {
      "inputs": [
        {
          "internalType": "uint256[]",
          "name": "_childs",
          "type": "uint256[]"
        },
        {
          "internalType": "bool",
          "name": "_disabled",
          "type": "bool"
        }
      ],
      "name": "setDisabled",
      "outputs": [],
      "stateMutability": "nonpayable",
      "type": "function"
    },
    {
      "inputs": [
        {
          "internalType": "uint256",
          "name": "_child",
          "type": "uint256"
        },
        {
          "internalType": "uint256",
          "name": "_parent",
          "type": "uint256"
        },
        {
          "internalType": "int256",
          "name": "_remainingSwapCredit",
          "type": "int256"
        },
        {
          "internalType": "bytes32",
          "name": "oldLimitHash",
          "type": "bytes32"
        }
      ],
      "name": "setNonRecurringFlow",
      "outputs": [],
      "stateMutability": "nonpayable",
      "type": "function"
    },
    {
      "inputs": [
        {
          "internalType": "uint256",
          "name": "_child",
          "type": "uint256"
        },
        {
          "internalType": "uint256",
          "name": "_parent",
          "type": "uint256"
        },
        {
          "internalType": "int256",
          "name": "_maxSwapCredit",
          "type": "int256"
        },
        {
          "internalType": "int256",
          "name": "_remainingSwapCredit",
          "type": "int256"
        },
        {
          "internalType": "int256",
          "name": "_swapCreditPeriod",
          "type": "int256"
        },
        {
          "internalType": "int256",
          "name": "_timeEnteredSwapCredit",
          "type": "int256"
        },
        {
          "internalType": "bytes32",
          "name": "oldLimitHash",
          "type": "bytes32"
        }
      ],
      "name": "setRecurringFlow",
      "outputs": [],
      "stateMutability": "nonpayable",
      "type": "function"
    },
    {
      "inputs": [
        {
          "internalType": "uint256",
          "name": "_nonRetiredToken",
          "type": "uint256"
        },
        {
          "internalType": "int128",
          "name": "_tax",
          "type": "int128"
        }
      ],
      "name": "setTax",
      "outputs": [],
      "stateMutability": "nonpayable",
      "type": "function"
    },
    {
      "inputs": [
        {
          "internalType": "uint256",
          "name": "_id",
          "type": "uint256"
        },
        {
          "internalType": "address",
          "name": "_newOwner",
          "type": "address"
        }
      ],
      "name": "setTokenOwner",
      "outputs": [],
      "stateMutability": "nonpayable",
      "type": "function"
    },
    {
      "inputs": [
        {
          "internalType": "uint256",
          "name": "_child",
          "type": "uint256"
        },
        {
          "internalType": "uint256",
          "name": "_parent",
          "type": "uint256"
        },
        {
          "internalType": "bool",
          "name": "_value",
          "type": "bool"
        }
      ],
      "name": "setTokenParent",
      "outputs": [],
      "stateMutability": "nonpayable",
      "type": "function"
    },
    {
      "inputs": [
        {
          "internalType": "uint256",
          "name": "_id",
          "type": "uint256"
        },
        {
          "internalType": "string",
          "name": "_uri",
          "type": "string"
        }
      ],
      "name": "setTokenUri",
      "outputs": [],
      "stateMutability": "nonpayable",
      "type": "function"
    },
    {
      "inputs": [
        {
          "internalType": "bytes4",
          "name": "_interfaceId",
          "type": "bytes4"
        }
      ],
      "name": "supportsInterface",
      "outputs": [
        {
          "internalType": "bool",
          "name": "",
          "type": "bool"
        }
      ],
      "stateMutability": "pure",
      "type": "function"
    },
    {
      "inputs": [
        {
          "internalType": "uint256",
          "name": "",
          "type": "uint256"
        }
      ],
      "name": "taxes",
      "outputs": [
        {
          "internalType": "int128",
          "name": "",
          "type": "int128"
        }
      ],
      "stateMutability": "view",
      "type": "function"
    },
    {
      "inputs": [
        {
          "internalType": "uint256",
          "name": "_child",
          "type": "uint256"
        },
        {
          "internalType": "uint256",
          "name": "_parent",
          "type": "uint256"
        }
      ],
      "name": "tokenFlow",
      "outputs": [
        {
          "components": [
            {
              "components": [
                {
                  "internalType": "bool",
                  "name": "recurring",
                  "type": "bool"
                },
                {
                  "internalType": "int256",
                  "name": "initialSwapCredit",
                  "type": "int256"
                },
                {
                  "internalType": "int256",
                  "name": "maxSwapCredit",
                  "type": "int256"
                },
                {
                  "internalType": "int256",
                  "name": "swapCreditPeriod",
                  "type": "int256"
                },
                {
                  "internalType": "int256",
                  "name": "firstTimeEnteredSwapCredit",
                  "type": "int256"
                }
              ],
              "internalType": "struct TokensFlow.SwapLimit",
              "name": "limit",
              "type": "tuple"
            },
            {
              "internalType": "int256",
              "name": "remainingSwapCredit",
              "type": "int256"
            },
            {
              "internalType": "int256",
              "name": "timeEnteredSwapCredit",
              "type": "int256"
            },
            {
              "internalType": "int256",
              "name": "lastSwapTime",
              "type": "int256"
            },
            {
              "internalType": "bool",
              "name": "disabled",
              "type": "bool"
            }
          ],
          "internalType": "struct TokensFlow.TokenFlow",
          "name": "",
          "type": "tuple"
        }
      ],
      "stateMutability": "view",
      "type": "function"
    },
    {
      "inputs": [
        {
          "internalType": "uint256",
          "name": "",
          "type": "uint256"
        }
      ],
      "name": "tokenOwners",
      "outputs": [
        {
          "internalType": "address",
          "name": "",
          "type": "address"
        }
      ],
      "stateMutability": "view",
      "type": "function"
    },
    {
      "inputs": [
        {
          "internalType": "uint256",
          "name": "_id",
          "type": "uint256"
        }
      ],
      "name": "totalSupply",
      "outputs": [
        {
          "internalType": "uint256",
          "name": "",
          "type": "uint256"
        }
      ],
      "stateMutability": "view",
      "type": "function"
    },
    {
      "inputs": [
        {
          "internalType": "uint256",
          "name": "_id",
          "type": "uint256"
        }
      ],
      "name": "uri",
      "outputs": [
        {
          "internalType": "string",
          "name": "",
          "type": "string"
        }
      ],
      "stateMutability": "view",
      "type": "function"
    }
  ],
  "bytecode": "0x608060405234801561001057600080fd5b506001600281905550614f9e806100286000396000f3fe608060405234801561001057600080fd5b506004361061021b5760003560e01c8063946c0c0f11610125578063e0a82ab4116100ad578063f242432a1161007c578063f242432a146106b9578063f5298aca146106d5578063f8a14f46146106f1578063f98e990f14610721578063fbd1342d1461073d5761021b565b8063e0a82ab414610635578063e985e9c514610651578063ecf95bc914610681578063f104eb951461069d5761021b565b8063bd85b039116100f4578063bd85b03914610559578063c11abbd914610589578063c5be2bc7146105a5578063de3d7f8a146105d5578063e0511b31146106055761021b565b8063946c0c0f146104d5578063a22cb465146104f1578063a2c2823a1461050d578063b7fdf3141461053d5761021b565b8063489b5d42116101a857806357f7789e1161017757806357f7789e1461043357806365f9b9b81461044f578063728dc9921461046b57806375794a3c1461049b5780637c65cd03146104b95761021b565b8063489b5d4214610398578063494503d4146103b45780634e1273f4146103e5578063543a76d5146104155761021b565b806309aca943116101ef57806309aca943146102e45780630a074d3e146103145780630e89341c1461033057806323eac4bd146103605780632eb2c2d61461037c5761021b565b8062fdd58e1461022057806301ffc9a714610250578063036a1c2214610280578063061af135146102b4575b600080fd5b61023a60048036038101906102359190613d1e565b610759565b6040516102479190614c4c565b60405180910390f35b61026a60048036038101906102659190613f8c565b6107b3565b6040516102779190614b18565b60405180910390f35b61029a600480360381019061029591906140e3565b610864565b6040516102ab959493929190614a61565b60405180910390f35b6102ce60048036038101906102c991906141dc565b610972565b6040516102db9190614b18565b60405180910390f35b6102fe60048036038101906102f99190614053565b6109ae565b60405161030b9190614b18565b60405180910390f35b61032e60048036038101906103299190613d5a565b6109d9565b005b61034a600480360381019061034591906140e3565b610b33565b6040516103579190614b4e565b60405180910390f35b61037a6004803603810190610375919061410c565b610be8565b005b61039660048036038101906103919190613b84565b610ce3565b005b6103b260048036038101906103ad9190613da9565b610cfd565b005b6103ce60048036038101906103c991906140e3565b610ec9565b6040516103dc929190614ca7565b60405180910390f35b6103ff60048036038101906103fa9190613e24565b610eed565b60405161040c9190614af6565b60405180910390f35b61041d61100f565b60405161042a9190614c4c565b60405180910390f35b61044d60048036038101906104489190614184565b611015565b005b61046960048036038101906104649190613fde565b6110a8565b005b610485600480360381019061048091906141dc565b6111e1565b6040516104929190614b33565b60405180910390f35b6104a361121d565b6040516104b09190614c4c565b60405180910390f35b6104d360048036038101906104ce9190613ef1565b611223565b005b6104ef60048036038101906104ea91906140e3565b611787565b005b61050b60048036038101906105069190613ce2565b611848565b005b61052760048036038101906105229190614218565b611945565b6040516105349190614c4c565b60405180910390f35b61055760048036038101906105529190614399565b611beb565b005b610573600480360381019061056e91906140e3565b611d5c565b6040516105809190614c4c565b60405180910390f35b6105a3600480360381019061059e91906141dc565b611d79565b005b6105bf60048036038101906105ba91906140e3565b611e4c565b6040516105cc9190614b33565b60405180910390f35b6105ef60048036038101906105ea9190614091565b611e6c565b6040516105fc9190614c4c565b60405180910390f35b61061f600480360381019061061a91906141dc565b611ed7565b60405161062c9190614c30565b60405180910390f35b61064f600480360381019061064a9190614298565b611fa6565b005b61066b60048036038101906106669190613b48565b612021565b6040516106789190614b18565b60405180910390f35b61069b600480360381019061069691906142e7565b6120b5565b005b6106b760048036038101906106b29190614148565b612183565b005b6106d360048036038101906106ce9190613c50565b612281565b005b6106ef60048036038101906106ea9190613d5a565b612297565b005b61070b600480360381019061070691906140e3565b6124f0565b6040516107189190614984565b60405180910390f35b61073b60048036038101906107369190614336565b612523565b005b61075760048036038101906107529190613e99565b61268a565b005b600080600083815260200190815260200160002060008473ffffffffffffffffffffffffffffffffffffffff1673ffffffffffffffffffffffffffffffffffffffff16815260200190815260200160002054905092915050565b60006301ffc9a760e01b7bffffffffffffffffffffffffffffffffffffffffffffffffffffffff1916827bffffffffffffffffffffffffffffffffffffffffffffffffffffffff1916148061084c575063d9b67a2660e01b7bffffffffffffffffffffffffffffffffffffffffffffffffffffffff1916827bffffffffffffffffffffffffffffffffffffffffffffffffffffffff1916145b1561085a576001905061085f565b600090505b919050565b600b6020528060005260406000206000915090508060000160009054906101000a900473ffffffffffffffffffffffffffffffffffffffff16908060010154908060020154908060030160009054906101000a900473ffffffffffffffffffffffffffffffffffffffff1690806004018054600181600116156101000203166002900480601f0160208091040260200160405190810160405280929190818152602001828054600181600116156101000203166002900480156109685780601f1061093d57610100808354040283529160200191610968565b820191906000526020600020905b81548152906001019060200180831161094b57829003601f168201915b5050505050905085565b600060036000848152602001908152602001600020600083815260200190815260200160002060009054906101000a900460ff16905092915050565b6000808360400151141580156109d1575082600001516060015183604001518303125b905092915050565b610a3b8160008085815260200190815260200160002060008673ffffffffffffffffffffffffffffffffffffffff1673ffffffffffffffffffffffffffffffffffffffff168152602001908152602001600020546127fc90919063ffffffff16565b60008084815260200190815260200160002060008573ffffffffffffffffffffffffffffffffffffffff1673ffffffffffffffffffffffffffffffffffffffff16815260200190815260200160002081905550806007600084815260200190815260200160002060008282540392505081905550600073ffffffffffffffffffffffffffffffffffffffff168373ffffffffffffffffffffffffffffffffffffffff163373ffffffffffffffffffffffffffffffffffffffff167fc3d58168c5ae7397731d063d5bbf3d657854427343f4c083240f7aacaa2d0f628585604051610b26929190614ca7565b60405180910390a4505050565b6060600860008381526020019081526020016000208054600181600116156101000203166002900480601f016020809104026020016040519081016040528092919081815260200182805460018160011615610100020316600290048015610bdc5780601f10610bb157610100808354040283529160200191610bdc565b820191906000526020600020905b815481529060010190602001808311610bbf57829003601f168201915b50505050509050919050565b6006600083815260200190815260200160002060009054906101000a900473ffffffffffffffffffffffffffffffffffffffff1673ffffffffffffffffffffffffffffffffffffffff163373ffffffffffffffffffffffffffffffffffffffff1614610c5357600080fd5b600073ffffffffffffffffffffffffffffffffffffffff168173ffffffffffffffffffffffffffffffffffffffff161415610c8d57600080fd5b806006600084815260200190815260200160002060006101000a81548173ffffffffffffffffffffffffffffffffffffffff021916908373ffffffffffffffffffffffffffffffffffffffff1602179055505050565b610cf38888888888888888612813565b5050505050505050565b600073ffffffffffffffffffffffffffffffffffffffff168473ffffffffffffffffffffffffffffffffffffffff161415610d6d576040517f08c379a0000000000000000000000000000000000000000000000000000000008152600401610d6490614c10565b60405180910390fd5b60008214610e1057610d9b600760008581526020019081526020016000205483612d0390919063ffffffff16565b60076000858152602001908152602001600020819055508160008085815260200190815260200160002060008673ffffffffffffffffffffffffffffffffffffffff1673ffffffffffffffffffffffffffffffffffffffff168152602001908152602001600020600082825401925050819055505b8373ffffffffffffffffffffffffffffffffffffffff16600073ffffffffffffffffffffffffffffffffffffffff163373ffffffffffffffffffffffffffffffffffffffff167fc3d58168c5ae7397731d063d5bbf3d657854427343f4c083240f7aacaa2d0f628686604051610e87929190614ca7565b60405180910390a4610eae8473ffffffffffffffffffffffffffffffffffffffff16612d1a565b15610ec357610ec233600086868686612d2d565b5b50505050565b600a6020528060005260406000206000915090508060000154908060010154905082565b6060828290508585905014610f0157600080fd5b60608585905067ffffffffffffffff81118015610f1d57600080fd5b50604051908082528060200260200182016040528015610f4c5781602001602082028036833780820191505090505b50905060005b8686905081101561100257600080868684818110610f6c57fe5b9050602002013581526020019081526020016000206000888884818110610f8f57fe5b9050602002016020810190610fa49190613b1f565b73ffffffffffffffffffffffffffffffffffffffff1673ffffffffffffffffffffffffffffffffffffffff16815260200190815260200160002054828281518110610feb57fe5b602002602001018181525050806001019050610f52565b5080915050949350505050565b600c5481565b6006600084815260200190815260200160002060009054906101000a900473ffffffffffffffffffffffffffffffffffffffff1673ffffffffffffffffffffffffffffffffffffffff163373ffffffffffffffffffffffffffffffffffffffff161461108057600080fd5b81816008600086815260200190815260200160002091906110a29291906135ef565b50505050565b60006110f885858080601f016020809104026020016040519081016040528093929190818152602001838380828437600081840152601f19601f8201169050808301925050505050505033612e4e565b905061114983838080601f016020809104026020016040519081016040528093929190818152602001838380828437600081840152601f19601f820116905080830192505050505050506000612e4e565b5061115261366f565b60405180604001604052808381526020016000815250905080600a60008481526020019081526020016000206000820151816000015560208201518160010155905050813373ffffffffffffffffffffffffffffffffffffffff167f0e77afbf76314bb085ab34f7e91e15cdb38dc97d740b8421e3bc413074b7148f60405160405180910390a3505050505050565b600060056000848152602001908152602001600020600083815260200190815260200160002060009054906101000a9004600f0b905092915050565b60025481565b3373ffffffffffffffffffffffffffffffffffffffff168373ffffffffffffffffffffffffffffffffffffffff1614806112e35750600160003373ffffffffffffffffffffffffffffffffffffffff1673ffffffffffffffffffffffffffffffffffffffff16815260200190815260200160002060008473ffffffffffffffffffffffffffffffffffffffff1673ffffffffffffffffffffffffffffffffffffffff16815260200190815260200160002060009054906101000a900460ff165b611322576040517f08c379a000000000000000000000000000000000000000000000000000000000815260040161131990614b70565b60405180910390fd5b600086866001898990500381811061133657fe5b90506020020135141561134857600080fd5b700100000000000000000000000000000000841061136557600080fd5b60008060008888600081811061137757fe5b90506020020135815260200190815260200160002060008573ffffffffffffffffffffffffffffffffffffffff1673ffffffffffffffffffffffffffffffffffffffff168152602001908152602001600020549050808511156113d957600080fd5b60008086905060005b60018a8a90500381146116f55760008a8a838181106113fd57fe5b90506020020135905060008b8b6001850181811061141757fe5b90506020020135905060036000838152602001908152602001600020600082815260200190815260200160002060009054906101000a900460ff1661145b57600080fd5b60046000838152602001908152602001600020600082815260200190815260200160002094508460080160009054906101000a900460ff161561149d57600080fd5b60006114a7612f38565b90506000808760000160000160009054906101000a900460ff161561161a5761156b886040518060a0016040529081600082016040518060a00160405290816000820160009054906101000a900460ff1615151515815260200160018201548152602001600282015481526020016003820154815260200160048201548152505081526020016005820154815260200160068201548152602001600782015481526020016008820160009054906101000a900460ff161515151581525050846109ae565b9050611613886040518060a0016040529081600082016040518060a00160405290816000820160009054906101000a900460ff1615151515815260200160018201548152602001600282015481526020016003820154815260200160048201548152505081526020016005820154815260200160068201548152602001600782015481526020016008820160009054906101000a900460ff1615151515815250508483611e6c565b9150611636565b6000886005015412611630578760050154611633565b60005b91505b818d111561164357600080fd5b8760000160000160009054906101000a900460ff168015611662575080155b1561168157828860060181905550876000016002015488600501819055505b8288600701819055508c88600501600082825403925050819055506116e38760056000888152602001908152602001600020600087815260200190815260200160002060009054906101000a9004600f0b600f0b612f4090919063ffffffff16565b965050505050508060010190506113e2565b50611714868a8a600081811061170757fe5b90506020020135896109d9565b61177c868a8a60018d8d90500381811061172a57fe5b905060200201358388888080601f016020809104026020016040519081016040528093929190818152602001838380828437600081840152601f19601f82011690508083019250505050505050610cfd565b505050505050505050565b6006600082815260200190815260200160002060009054906101000a900473ffffffffffffffffffffffffffffffffffffffff1673ffffffffffffffffffffffffffffffffffffffff163373ffffffffffffffffffffffffffffffffffffffff16146117f257600080fd5b60006006600083815260200190815260200160002060006101000a81548173ffffffffffffffffffffffffffffffffffffffff021916908373ffffffffffffffffffffffffffffffffffffffff16021790555050565b80600160003373ffffffffffffffffffffffffffffffffffffffff1673ffffffffffffffffffffffffffffffffffffffff16815260200190815260200160002060008473ffffffffffffffffffffffffffffffffffffffff1673ffffffffffffffffffffffffffffffffffffffff16815260200190815260200160002060006101000a81548160ff0219169083151502179055508173ffffffffffffffffffffffffffffffffffffffff163373ffffffffffffffffffffffffffffffffffffffff167f17307eab39ab6107e8899845ad3d59bd9653f200f220920489ca2b5937696c31836040516119399190614b18565b60405180910390a35050565b60003373ffffffffffffffffffffffffffffffffffffffff166006600088815260200190815260200160002060009054906101000a900473ffffffffffffffffffffffffffffffffffffffff1673ffffffffffffffffffffffffffffffffffffffff16146119b257600080fd5b6000600a600088815260200190815260200160002090506119d1613689565b6040518060a001604052803373ffffffffffffffffffffffffffffffffffffffff168152602001836001016000815460010191905081905581526020018881526020018773ffffffffffffffffffffffffffffffffffffffff16815260200186868080601f016020809104026020016040519081016040528093929190818152602001838380828437600081840152601f19601f82011690508083019250505050505050815250905080600b6000600c60008154600101919050819055815260200190815260200160002060008201518160000160006101000a81548173ffffffffffffffffffffffffffffffffffffffff021916908373ffffffffffffffffffffffffffffffffffffffff160217905550602082015181600101556040820151816002015560608201518160030160006101000a81548173ffffffffffffffffffffffffffffffffffffffff021916908373ffffffffffffffffffffffffffffffffffffffff1602179055506080820151816004019080519060200190611b5a9291906136e4565b509050506060604051806020016040528060008152509050611b7e878a8a84610cfd565b82600101543373ffffffffffffffffffffffffffffffffffffffff16600c547f5fb186fbfd022553cd9c231aeaca029cb50000d19f12e02ff460c13b0bc53d708b8b8b8b604051611bd29493929190614c67565b60405180910390a4600c54935050505095945050505050565b6006600087815260200190815260200160002060009054906101000a900473ffffffffffffffffffffffffffffffffffffffff1673ffffffffffffffffffffffffffffffffffffffff163373ffffffffffffffffffffffffffffffffffffffff1614611c5657600080fd5b60006004600089815260200190815260200160002060008881526020019081526020016000209050611cd8816000016040518060a00160405290816000820160009054906101000a900460ff16151515158152602001600182015481526020016002820154815260200160038201548152602001600482015481525050612ffb565b8214611ce357600080fd5b611cf1600186888787613047565b8160000160008201518160000160006101000a81548160ff021916908315150217905550602082015181600101556040820151816002015560608201518160030155608082015181600401559050508281600601819055508481600501819055505050505050505050565b600060076000838152602001908152602001600020549050919050565b81600160028281611d8657fe5b0614611d9157600080fd5b611d9c3384846109d9565b6000611dd4836009600087815260200190815260200160002060009054906101000a9004600f0b600f0b612f4090919063ffffffff16565b905060606040518060200160405280600081525090506000611df586613083565b9050611e366006600083815260200190815260200160002060009054906101000a900473ffffffffffffffffffffffffffffffffffffffff16828585610cfd565b611e44338285880385610cfd565b505050505050565b60096020528060005260406000206000915054906101000a9004600f0b81565b6000808215611eb05760008560600151850390506000866000015160600151828860000151604001510281611e9d57fe5b0590508087602001510392505050611ebc565b84600001516040015190505b60008112611eca5780611ecd565b60005b9150509392505050565b611edf613764565b6004600084815260200190815260200160002060008381526020019081526020016000206040518060a0016040529081600082016040518060a00160405290816000820160009054906101000a900460ff1615151515815260200160018201548152602001600282015481526020016003820154815260200160048201548152505081526020016005820154815260200160068201548152602001600782015481526020016008820160009054906101000a900460ff161515151581525050905092915050565b6006600084815260200190815260200160002060009054906101000a900473ffffffffffffffffffffffffffffffffffffffff1673ffffffffffffffffffffffffffffffffffffffff163373ffffffffffffffffffffffffffffffffffffffff161461201157600080fd5b61201c8383836130a9565b505050565b6000600160008473ffffffffffffffffffffffffffffffffffffffff1673ffffffffffffffffffffffffffffffffffffffff16815260200190815260200160002060008373ffffffffffffffffffffffffffffffffffffffff1673ffffffffffffffffffffffffffffffffffffffff16815260200190815260200160002060009054906101000a900460ff16905092915050565b6006600083815260200190815260200160002060009054906101000a900473ffffffffffffffffffffffffffffffffffffffff1673ffffffffffffffffffffffffffffffffffffffff163373ffffffffffffffffffffffffffffffffffffffff161461212057600080fd5b8060056000858152602001908152602001600020600084815260200190815260200160002060006101000a8154816fffffffffffffffffffffffffffffffff0219169083600f0b6fffffffffffffffffffffffffffffffff160217905550505050565b8160016002828161219057fe5b061461219b57600080fd5b6006600084815260200190815260200160002060009054906101000a900473ffffffffffffffffffffffffffffffffffffffff1673ffffffffffffffffffffffffffffffffffffffff163373ffffffffffffffffffffffffffffffffffffffff161461220657600080fd5b600082600f0b1215801561222657506801000000000000000082600f0b13155b61222f57600080fd5b816009600085815260200190815260200160002060006101000a8154816fffffffffffffffffffffffffffffffff0219169083600f0b6fffffffffffffffffffffffffffffffff160217905550505050565b61228f8686868686866130f8565b505050505050565b3373ffffffffffffffffffffffffffffffffffffffff168373ffffffffffffffffffffffffffffffffffffffff1614806123575750600160003373ffffffffffffffffffffffffffffffffffffffff1673ffffffffffffffffffffffffffffffffffffffff16815260200190815260200160002060008473ffffffffffffffffffffffffffffffffffffffff1673ffffffffffffffffffffffffffffffffffffffff16815260200190815260200160002060009054906101000a900460ff165b612396576040517f08c379a000000000000000000000000000000000000000000000000000000000815260040161238d90614b70565b60405180910390fd5b6123f88160008085815260200190815260200160002060008673ffffffffffffffffffffffffffffffffffffffff1673ffffffffffffffffffffffffffffffffffffffff168152602001908152602001600020546127fc90919063ffffffff16565b60008084815260200190815260200160002060008573ffffffffffffffffffffffffffffffffffffffff1673ffffffffffffffffffffffffffffffffffffffff16815260200190815260200160002081905550806007600084815260200190815260200160002060008282540392505081905550600073ffffffffffffffffffffffffffffffffffffffff168373ffffffffffffffffffffffffffffffffffffffff163373ffffffffffffffffffffffffffffffffffffffff167fc3d58168c5ae7397731d063d5bbf3d657854427343f4c083240f7aacaa2d0f6285856040516124e3929190614ca7565b60405180910390a4505050565b60066020528060005260406000206000915054906101000a900473ffffffffffffffffffffffffffffffffffffffff1681565b6006600084815260200190815260200160002060009054906101000a900473ffffffffffffffffffffffffffffffffffffffff1673ffffffffffffffffffffffffffffffffffffffff163373ffffffffffffffffffffffffffffffffffffffff161461258e57600080fd5b60006004600086815260200190815260200160002060008581526020019081526020016000209050612610816000016040518060a00160405290816000820160009054906101000a900460ff16151515158152602001600182015481526020016002820154815260200160038201548152602001600482015481525050612ffb565b821461261b57600080fd5b61262b6000846000806000613047565b8160000160008201518160000160006101000a81548160ff021916908315150217905550602082015181600101556040820151816002015560608201518160030155608082015181600401559050508281600501819055505050505050565b600083836001868690500381811061269e57fe5b9050602002013590506006600082815260200190815260200160002060009054906101000a900473ffffffffffffffffffffffffffffffffffffffff1673ffffffffffffffffffffffffffffffffffffffff163373ffffffffffffffffffffffffffffffffffffffff161461271257600080fd5b60005b6001858590500381146127f557600085858381811061273057fe5b9050602002013590508281141561274657600080fd5b6001868690500382146127e957600086866001850181811061276457fe5b90506020020135905060036000838152602001908152602001600020600082815260200190815260200160002060009054906101000a900460ff166127a857600080fd5b8460046000848152602001908152602001600020600083815260200190815260200160002060080160006101000a81548160ff021916908315150217905550505b50806001019050612715565b5050505050565b60008282111561280857fe5b818303905092915050565b600073ffffffffffffffffffffffffffffffffffffffff168773ffffffffffffffffffffffffffffffffffffffff161415612883576040517f08c379a000000000000000000000000000000000000000000000000000000000815260040161287a90614b90565b60405180910390fd5b8383905086869050146128cb576040517f08c379a00000000000000000000000000000000000000000000000000000000081526004016128c290614bd0565b60405180910390fd5b3373ffffffffffffffffffffffffffffffffffffffff168873ffffffffffffffffffffffffffffffffffffffff16148061298b5750600160003373ffffffffffffffffffffffffffffffffffffffff1673ffffffffffffffffffffffffffffffffffffffff16815260200190815260200160002060008973ffffffffffffffffffffffffffffffffffffffff1673ffffffffffffffffffffffffffffffffffffffff16815260200190815260200160002060009054906101000a900460ff165b6129ca576040517f08c379a00000000000000000000000000000000000000000000000000000000081526004016129c190614b70565b60405180910390fd5b60005b86869050811015612b7d5760008787838181106129e657fe5b90506020020135905060008686848181106129fd57fe5b905060200201359050612a688160008085815260200190815260200160002060008e73ffffffffffffffffffffffffffffffffffffffff1673ffffffffffffffffffffffffffffffffffffffff168152602001908152602001600020546127fc90919063ffffffff16565b60008084815260200190815260200160002060008d73ffffffffffffffffffffffffffffffffffffffff1673ffffffffffffffffffffffffffffffffffffffff16815260200190815260200160002081905550612b1d60008084815260200190815260200160002060008c73ffffffffffffffffffffffffffffffffffffffff1673ffffffffffffffffffffffffffffffffffffffff1681526020019081526020016000205482612d0390919063ffffffff16565b60008084815260200190815260200160002060008c73ffffffffffffffffffffffffffffffffffffffff1673ffffffffffffffffffffffffffffffffffffffff1681526020019081526020016000208190555050508060010190506129cd565b508673ffffffffffffffffffffffffffffffffffffffff168873ffffffffffffffffffffffffffffffffffffffff163373ffffffffffffffffffffffffffffffffffffffff167f4a39dc06d4c0dbc64b70af90fd698a233a518aa5d07e595d983b8c0526c8f7fb89898989604051612bf89493929190614abb565b60405180910390a4612c1f8773ffffffffffffffffffffffffffffffffffffffff16612d1a565b15612cf957612cf8338989898980806020026020016040519081016040528093929190818152602001838360200280828437600081840152601f19601f82011690508083019250505050505050888880806020026020016040519081016040528093929190818152602001838360200280828437600081840152601f19601f8201169050808301925050505050505087878080601f016020809104026020016040519081016040528093929190818152602001838380828437600081840152601f19601f820116905080830192505050505050506134ce565b5b5050505050505050565b6000818301905082811015612d1457fe5b92915050565b600080823b905060008111915050919050565b63f23a6e6160e01b7bffffffffffffffffffffffffffffffffffffffffffffffffffffffff19168473ffffffffffffffffffffffffffffffffffffffff1663f23a6e6188888787876040518663ffffffff1660e01b8152600401612d95959493929190614a07565b602060405180830381600087803b158015612daf57600080fd5b505af1158015612dc3573d6000803e3d6000fd5b505050506040513d601f19601f82011682018060405250810190612de79190613fb5565b7bffffffffffffffffffffffffffffffffffffffffffffffffffffffff191614612e46576040517f08c379a0000000000000000000000000000000000000000000000000000000008152600401612e3d90614bf0565b60405180910390fd5b505050505050565b60008160066000600254815260200190815260200160002060006101000a81548173ffffffffffffffffffffffffffffffffffffffff021916908373ffffffffffffffffffffffffffffffffffffffff160217905550826008600060025481526020019081526020016000209080519060200190612ecd9291906136e4565b508173ffffffffffffffffffffffffffffffffffffffff166002547ff031a088aa7b1646f284daae9871f10581d991a0d4dcfe07f7834d04201680c585604051612f179190614b4e565b60405180910390a36002600081548092919060010191905055905092915050565b600042905090565b600080821415612f535760009050612ff5565b600083600f0b1215612f6457600080fd5b600060406fffffffffffffffffffffffffffffffff841685600f0b02901c90506000608084901c85600f0b02905077ffffffffffffffffffffffffffffffffffffffffffffffff811115612fb757600080fd5b604081901b9050817fffffffffffffffffffffffffffffffffffffffffffffffffffffffffffffffff03811115612fed57600080fd5b818101925050505b92915050565b60008160000151826020015183604001518460600151856080015160405160200161302a959493929190614925565b604051602081830303815290604052805190602001209050919050565b61304f61379b565b6040518060a00160405280871515815260200186815260200185815260200184815260200183815250905095945050505050565b60008160016002828161309257fe5b061461309d57600080fd5b60018301915050919050565b60025482106130b757600080fd5b8060036000858152602001908152602001600020600084815260200190815260200160002060006101000a81548160ff021916908315150217905550505050565b600073ffffffffffffffffffffffffffffffffffffffff168573ffffffffffffffffffffffffffffffffffffffff161415613168576040517f08c379a000000000000000000000000000000000000000000000000000000000815260040161315f90614c10565b60405180910390fd5b3373ffffffffffffffffffffffffffffffffffffffff168673ffffffffffffffffffffffffffffffffffffffff1614806132285750600160003373ffffffffffffffffffffffffffffffffffffffff1673ffffffffffffffffffffffffffffffffffffffff16815260200190815260200160002060008773ffffffffffffffffffffffffffffffffffffffff1673ffffffffffffffffffffffffffffffffffffffff16815260200190815260200160002060009054906101000a900460ff165b613267576040517f08c379a000000000000000000000000000000000000000000000000000000000815260040161325e90614b70565b60405180910390fd5b6132c98360008087815260200190815260200160002060008973ffffffffffffffffffffffffffffffffffffffff1673ffffffffffffffffffffffffffffffffffffffff168152602001908152602001600020546127fc90919063ffffffff16565b60008086815260200190815260200160002060008873ffffffffffffffffffffffffffffffffffffffff1673ffffffffffffffffffffffffffffffffffffffff1681526020019081526020016000208190555061337e60008086815260200190815260200160002060008773ffffffffffffffffffffffffffffffffffffffff1673ffffffffffffffffffffffffffffffffffffffff1681526020019081526020016000205484612d0390919063ffffffff16565b60008086815260200190815260200160002060008773ffffffffffffffffffffffffffffffffffffffff1673ffffffffffffffffffffffffffffffffffffffff168152602001908152602001600020819055508473ffffffffffffffffffffffffffffffffffffffff168673ffffffffffffffffffffffffffffffffffffffff163373ffffffffffffffffffffffffffffffffffffffff167fc3d58168c5ae7397731d063d5bbf3d657854427343f4c083240f7aacaa2d0f628787604051613447929190614ca7565b60405180910390a461346e8573ffffffffffffffffffffffffffffffffffffffff16612d1a565b156134c6576134c5338787878787878080601f016020809104026020016040519081016040528093929190818152602001838380828437600081840152601f19601f82011690508083019250505050505050612d2d565b5b505050505050565b63bc197c8160e01b7bffffffffffffffffffffffffffffffffffffffffffffffffffffffff19168473ffffffffffffffffffffffffffffffffffffffff1663bc197c8188888787876040518663ffffffff1660e01b815260040161353695949392919061499f565b602060405180830381600087803b15801561355057600080fd5b505af1158015613564573d6000803e3d6000fd5b505050506040513d601f19601f820116820180604052508101906135889190613fb5565b7bffffffffffffffffffffffffffffffffffffffffffffffffffffffff1916146135e7576040517f08c379a00000000000000000000000000000000000000000000000000000000081526004016135de90614bb0565b60405180910390fd5b505050505050565b828054600181600116156101000203166002900490600052602060002090601f016020900481019282601f1061363057803560ff191683800117855561365e565b8280016001018555821561365e579182015b8281111561365d578235825591602001919060010190613642565b5b50905061366b91906137cc565b5090565b604051806040016040528060008152602001600081525090565b6040518060a00160405280600073ffffffffffffffffffffffffffffffffffffffff1681526020016000815260200160008152602001600073ffffffffffffffffffffffffffffffffffffffff168152602001606081525090565b828054600181600116156101000203166002900490600052602060002090601f016020900481019282601f1061372557805160ff1916838001178555613753565b82800160010185558215613753579182015b82811115613752578251825591602001919060010190613737565b5b50905061376091906137cc565b5090565b6040518060a0016040528061377761379b565b81526020016000815260200160008152602001600081526020016000151581525090565b6040518060a00160405280600015158152602001600081526020016000815260200160008152602001600081525090565b5b808211156137e55760008160009055506001016137cd565b5090565b6000813590506137f881614ec7565b92915050565b60008083601f84011261381057600080fd5b8235905067ffffffffffffffff81111561382957600080fd5b60208301915083602082028301111561384157600080fd5b9250929050565b60008083601f84011261385a57600080fd5b8235905067ffffffffffffffff81111561387357600080fd5b60208301915083602082028301111561388b57600080fd5b9250929050565b6000813590506138a181614ede565b92915050565b6000813590506138b681614ef5565b92915050565b6000813590506138cb81614f0c565b92915050565b6000815190506138e081614f0c565b92915050565b60008083601f8401126138f857600080fd5b8235905067ffffffffffffffff81111561391157600080fd5b60208301915083600182028301111561392957600080fd5b9250929050565b600082601f83011261394157600080fd5b813561395461394f82614d01565b614cd0565b9150808252602083016020830185838301111561397057600080fd5b61397b838284614e37565b50505092915050565b60008135905061399381614f23565b92915050565b6000813590506139a881614f3a565b92915050565b60008083601f8401126139c057600080fd5b8235905067ffffffffffffffff8111156139d957600080fd5b6020830191508360018202830111156139f157600080fd5b9250929050565b600060a08284031215613a0a57600080fd5b613a1460a0614cd0565b90506000613a2484828501613892565b6000830152506020613a3884828501613999565b6020830152506040613a4c84828501613999565b6040830152506060613a6084828501613999565b6060830152506080613a7484828501613999565b60808301525092915050565b60006101208284031215613a9357600080fd5b613a9d60a0614cd0565b90506000613aad848285016139f8565b60008301525060a0613ac184828501613999565b60208301525060c0613ad584828501613999565b60408301525060e0613ae984828501613999565b606083015250610100613afe84828501613892565b60808301525092915050565b600081359050613b1981614f51565b92915050565b600060208284031215613b3157600080fd5b6000613b3f848285016137e9565b91505092915050565b60008060408385031215613b5b57600080fd5b6000613b69858286016137e9565b9250506020613b7a858286016137e9565b9150509250929050565b60008060008060008060008060a0898b031215613ba057600080fd5b6000613bae8b828c016137e9565b9850506020613bbf8b828c016137e9565b975050604089013567ffffffffffffffff811115613bdc57600080fd5b613be88b828c01613848565b9650965050606089013567ffffffffffffffff811115613c0757600080fd5b613c138b828c01613848565b9450945050608089013567ffffffffffffffff811115613c3257600080fd5b613c3e8b828c016138e6565b92509250509295985092959890939650565b60008060008060008060a08789031215613c6957600080fd5b6000613c7789828a016137e9565b9650506020613c8889828a016137e9565b9550506040613c9989828a01613b0a565b9450506060613caa89828a01613b0a565b935050608087013567ffffffffffffffff811115613cc757600080fd5b613cd389828a016138e6565b92509250509295509295509295565b60008060408385031215613cf557600080fd5b6000613d03858286016137e9565b9250506020613d1485828601613892565b9150509250929050565b60008060408385031215613d3157600080fd5b6000613d3f858286016137e9565b9250506020613d5085828601613b0a565b9150509250929050565b600080600060608486031215613d6f57600080fd5b6000613d7d868287016137e9565b9350506020613d8e86828701613b0a565b9250506040613d9f86828701613b0a565b9150509250925092565b60008060008060808587031215613dbf57600080fd5b6000613dcd878288016137e9565b9450506020613dde87828801613b0a565b9350506040613def87828801613b0a565b925050606085013567ffffffffffffffff811115613e0c57600080fd5b613e1887828801613930565b91505092959194509250565b60008060008060408587031215613e3a57600080fd5b600085013567ffffffffffffffff811115613e5457600080fd5b613e60878288016137fe565b9450945050602085013567ffffffffffffffff811115613e7f57600080fd5b613e8b87828801613848565b925092505092959194509250565b600080600060408486031215613eae57600080fd5b600084013567ffffffffffffffff811115613ec857600080fd5b613ed486828701613848565b93509350506020613ee786828701613892565b9150509250925092565b60008060008060008060808789031215613f0a57600080fd5b600087013567ffffffffffffffff811115613f2457600080fd5b613f3089828a01613848565b96509650506020613f4389828a01613b0a565b9450506040613f5489828a016137e9565b935050606087013567ffffffffffffffff811115613f7157600080fd5b613f7d89828a016138e6565b92509250509295509295509295565b600060208284031215613f9e57600080fd5b6000613fac848285016138bc565b91505092915050565b600060208284031215613fc757600080fd5b6000613fd5848285016138d1565b91505092915050565b60008060008060408587031215613ff457600080fd5b600085013567ffffffffffffffff81111561400e57600080fd5b61401a878288016139ae565b9450945050602085013567ffffffffffffffff81111561403957600080fd5b614045878288016139ae565b925092505092959194509250565b600080610140838503121561406757600080fd5b600061407585828601613a80565b92505061012061408785828601613999565b9150509250929050565b600080600061016084860312156140a757600080fd5b60006140b586828701613a80565b9350506101206140c786828701613999565b9250506101406140d986828701613892565b9150509250925092565b6000602082840312156140f557600080fd5b600061410384828501613b0a565b91505092915050565b6000806040838503121561411f57600080fd5b600061412d85828601613b0a565b925050602061413e858286016137e9565b9150509250929050565b6000806040838503121561415b57600080fd5b600061416985828601613b0a565b925050602061417a85828601613984565b9150509250929050565b60008060006040848603121561419957600080fd5b60006141a786828701613b0a565b935050602084013567ffffffffffffffff8111156141c457600080fd5b6141d0868287016139ae565b92509250509250925092565b600080604083850312156141ef57600080fd5b60006141fd85828601613b0a565b925050602061420e85828601613b0a565b9150509250929050565b60008060008060006080868803121561423057600080fd5b600061423e88828901613b0a565b955050602061424f88828901613b0a565b9450506040614260888289016137e9565b935050606086013567ffffffffffffffff81111561427d57600080fd5b614289888289016139ae565b92509250509295509295909350565b6000806000606084860312156142ad57600080fd5b60006142bb86828701613b0a565b93505060206142cc86828701613b0a565b92505060406142dd86828701613892565b9150509250925092565b6000806000606084860312156142fc57600080fd5b600061430a86828701613b0a565b935050602061431b86828701613b0a565b925050604061432c86828701613984565b9150509250925092565b6000806000806080858703121561434c57600080fd5b600061435a87828801613b0a565b945050602061436b87828801613b0a565b935050604061437c87828801613999565b925050606061438d878288016138a7565b91505092959194509250565b600080600080600080600060e0888a0312156143b457600080fd5b60006143c28a828b01613b0a565b97505060206143d38a828b01613b0a565b96505060406143e48a828b01613999565b95505060606143f58a828b01613999565b94505060806144068a828b01613999565b93505060a06144178a828b01613999565b92505060c06144288a828b016138a7565b91505092959891949750929550565b60006144438383614907565b60208301905092915050565b61445881614da2565b82525050565b600061446a8385614d6f565b93507f07ffffffffffffffffffffffffffffffffffffffffffffffffffffffffffffff83111561449957600080fd5b6020830292506144aa838584614e37565b82840190509392505050565b60006144c182614d41565b6144cb8185614d6f565b93506144d683614d31565b8060005b838110156145075781516144ee8882614437565b97506144f983614d62565b9250506001810190506144da565b5085935050505092915050565b61451d81614db4565b82525050565b61452c81614db4565b82525050565b61454361453e82614db4565b614e79565b82525050565b600061455482614d4c565b61455e8185614d80565b935061456e818560208601614e46565b61457781614ea9565b840191505092915050565b61458b81614df6565b82525050565b61459a81614e03565b82525050565b6145b16145ac82614e03565b614e8b565b82525050565b60006145c38385614d91565b93506145d0838584614e37565b6145d983614ea9565b840190509392505050565b60006145ef82614d57565b6145f98185614d91565b9350614609818560208601614e46565b61461281614ea9565b840191505092915050565b600061462a600c83614d91565b91507f4e6f20617070726f76616c2e00000000000000000000000000000000000000006000830152602082019050919050565b600061466a602583614d91565b91507f64657374696e6174696f6e2061646472657373206d757374206265206e6f6e2d60008301527f7a65726f2e0000000000000000000000000000000000000000000000000000006020830152604082019050919050565b60006146d0603e83614d91565b91507f636f6e74726163742072657475726e656420616e20756e6b6e6f776e2076616c60008301527f75652066726f6d206f6e455243313135354261746368526563656976656400006020830152604082019050919050565b6000614736602983614d91565b91507f5f69647320616e64205f76616c756573206172726179206c656e677468206d7560008301527f7374206d617463682e00000000000000000000000000000000000000000000006020830152604082019050919050565b600061479c603983614d91565b91507f636f6e74726163742072657475726e656420616e20756e6b6e6f776e2076616c60008301527f75652066726f6d206f6e455243313135355265636569766564000000000000006020830152604082019050919050565b6000614802601583614d91565b91507f5f746f206d757374206265206e6f6e2d7a65726f2e00000000000000000000006000830152602082019050919050565b60a08201600082015161484b6000850182614514565b50602082015161485e6020850182614591565b5060408201516148716040850182614591565b5060608201516148846060850182614591565b5060808201516148976080850182614591565b50505050565b610120820160008201516148b46000850182614835565b5060208201516148c760a0850182614591565b5060408201516148da60c0850182614591565b5060608201516148ed60e0850182614591565b506080820151614901610100850182614514565b50505050565b61491081614e2d565b82525050565b61491f81614e2d565b82525050565b60006149318288614532565b60018201915061494182876145a0565b60208201915061495182866145a0565b60208201915061496182856145a0565b60208201915061497182846145a0565b6020820191508190509695505050505050565b6000602082019050614999600083018461444f565b92915050565b600060a0820190506149b4600083018861444f565b6149c1602083018761444f565b81810360408301526149d381866144b6565b905081810360608301526149e781856144b6565b905081810360808301526149fb8184614549565b90509695505050505050565b600060a082019050614a1c600083018861444f565b614a29602083018761444f565b614a366040830186614916565b614a436060830185614916565b8181036080830152614a558184614549565b90509695505050505050565b600060a082019050614a76600083018861444f565b614a836020830187614916565b614a906040830186614916565b614a9d606083018561444f565b8181036080830152614aaf81846145e4565b90509695505050505050565b60006040820190508181036000830152614ad681868861445e565b90508181036020830152614aeb81848661445e565b905095945050505050565b60006020820190508181036000830152614b1081846144b6565b905092915050565b6000602082019050614b2d6000830184614523565b92915050565b6000602082019050614b486000830184614582565b92915050565b60006020820190508181036000830152614b6881846145e4565b905092915050565b60006020820190508181036000830152614b898161461d565b9050919050565b60006020820190508181036000830152614ba98161465d565b9050919050565b60006020820190508181036000830152614bc9816146c3565b9050919050565b60006020820190508181036000830152614be981614729565b9050919050565b60006020820190508181036000830152614c098161478f565b9050919050565b60006020820190508181036000830152614c29816147f5565b9050919050565b600061012082019050614c46600083018461489d565b92915050565b6000602082019050614c616000830184614916565b92915050565b6000606082019050614c7c6000830187614916565b614c89602083018661444f565b8181036040830152614c9c8184866145b7565b905095945050505050565b6000604082019050614cbc6000830185614916565b614cc96020830184614916565b9392505050565b6000604051905081810181811067ffffffffffffffff82111715614cf757614cf6614ea7565b5b8060405250919050565b600067ffffffffffffffff821115614d1c57614d1b614ea7565b5b601f19601f8301169050602081019050919050565b6000819050602082019050919050565b600081519050919050565b600081519050919050565b600081519050919050565b6000602082019050919050565b600082825260208201905092915050565b600082825260208201905092915050565b600082825260208201905092915050565b6000614dad82614e0d565b9050919050565b60008115159050919050565b6000819050919050565b60007fffffffff0000000000000000000000000000000000000000000000000000000082169050919050565b600081600f0b9050919050565b6000819050919050565b600073ffffffffffffffffffffffffffffffffffffffff82169050919050565b6000819050919050565b82818337600083830152505050565b60005b83811015614e64578082015181840152602081019050614e49565b83811115614e73576000848401525b50505050565b6000614e8482614e95565b9050919050565b6000819050919050565b6000614ea082614eba565b9050919050565bfe5b6000601f19601f8301169050919050565b60008160f81b9050919050565b614ed081614da2565b8114614edb57600080fd5b50565b614ee781614db4565b8114614ef257600080fd5b50565b614efe81614dc0565b8114614f0957600080fd5b50565b614f1581614dca565b8114614f2057600080fd5b50565b614f2c81614df6565b8114614f3757600080fd5b50565b614f4381614e03565b8114614f4e57600080fd5b50565b614f5a81614e2d565b8114614f6557600080fd5b5056fea264697066735822122025826ff69a1432876b1f4353a7e3ce5616643bf740973c274322f14884db6bc964736f6c63430007030033",
  "linkReferences": {},
  "deployedLinkReferences": {}
}