{
  "abi": [
    {
      "inputs": [
        {
          "internalType": "address",
          "name": "_globalCommunityFund",
          "type": "address"
        },
        {
          "internalType": "string",
          "name": "_retiredName",
          "type": "string"
        },
        {
          "internalType": "string",
          "name": "_retiredSymbol",
          "type": "string"
        },
        {
          "internalType": "string",
          "name": "_retiredUri",
          "type": "string"
        },
        {
          "internalType": "string",
          "name": "_nonRetiredName",
          "type": "string"
        },
        {
          "internalType": "string",
          "name": "_nonRetiredSymbol",
          "type": "string"
        },
        {
          "internalType": "string",
          "name": "_nonRetiredUri",
          "type": "string"
        }
      ],
      "stateMutability": "nonpayable",
      "type": "constructor"
    },
    {
      "anonymous": false,
      "inputs": [
        {
          "indexed": false,
          "internalType": "address",
          "name": "owner",
          "type": "address"
        },
        {
          "indexed": false,
          "internalType": "uint256",
          "name": "token",
          "type": "uint256"
        },
        {
          "indexed": false,
          "internalType": "string",
          "name": "name",
          "type": "string"
        },
        {
          "indexed": false,
          "internalType": "string",
          "name": "symbol",
          "type": "string"
        },
        {
          "indexed": false,
          "internalType": "string",
          "name": "uri",
          "type": "string"
        }
      ],
      "name": "AuthorityCreated",
      "type": "event"
    },
    {
      "anonymous": false,
      "inputs": [
        {
          "indexed": false,
          "internalType": "uint256",
          "name": "id",
          "type": "uint256"
        },
        {
          "indexed": false,
          "internalType": "address",
          "name": "authority",
          "type": "address"
        },
        {
          "indexed": false,
          "internalType": "uint256",
          "name": "serial",
          "type": "uint256"
        },
        {
          "indexed": false,
          "internalType": "uint256",
          "name": "amount",
          "type": "uint256"
        },
        {
          "indexed": false,
          "internalType": "address",
          "name": "owner",
          "type": "address"
        },
        {
          "indexed": false,
          "internalType": "bytes32",
          "name": "arweaveHash",
          "type": "bytes32"
        }
      ],
      "name": "CreditCreated",
      "type": "event"
    },
    {
      "anonymous": false,
      "inputs": [
        {
          "indexed": false,
          "internalType": "uint256",
          "name": "id",
          "type": "uint256"
        },
        {
          "indexed": false,
          "internalType": "address",
          "name": "owner",
          "type": "address"
        },
        {
          "indexed": false,
          "internalType": "string",
          "name": "name",
          "type": "string"
        },
        {
          "indexed": false,
          "internalType": "string",
          "name": "symbol",
          "type": "string"
        },
        {
          "indexed": false,
          "internalType": "string",
          "name": "uri",
          "type": "string"
        }
      ],
      "name": "NewToken",
      "type": "event"
    },
    {
      "anonymous": false,
      "inputs": [
        {
          "indexed": true,
          "internalType": "address",
          "name": "_operator",
          "type": "address"
        },
        {
          "indexed": true,
          "internalType": "address",
          "name": "_from",
          "type": "address"
        },
        {
          "indexed": true,
          "internalType": "address",
          "name": "_to",
          "type": "address"
        },
        {
          "indexed": false,
          "internalType": "uint256[]",
          "name": "_ids",
          "type": "uint256[]"
        },
        {
          "indexed": false,
          "internalType": "uint256[]",
          "name": "_values",
          "type": "uint256[]"
        }
      ],
      "name": "TransferBatch",
      "type": "event"
    },
    {
      "anonymous": false,
      "inputs": [
        {
          "indexed": true,
          "internalType": "address",
          "name": "_operator",
          "type": "address"
        },
        {
          "indexed": true,
          "internalType": "address",
          "name": "_from",
          "type": "address"
        },
        {
          "indexed": true,
          "internalType": "address",
          "name": "_to",
          "type": "address"
        },
        {
          "indexed": false,
          "internalType": "uint256",
          "name": "_id",
          "type": "uint256"
        },
        {
          "indexed": false,
          "internalType": "uint256",
          "name": "_value",
          "type": "uint256"
        }
      ],
      "name": "TransferSingle",
      "type": "event"
    },
    {
      "anonymous": false,
      "inputs": [
        {
          "indexed": false,
          "internalType": "string",
          "name": "_value",
          "type": "string"
        },
        {
          "indexed": true,
          "internalType": "uint256",
          "name": "_id",
          "type": "uint256"
        }
      ],
      "name": "URI",
      "type": "event"
    },
    {
      "inputs": [
        {
          "internalType": "address",
          "name": "_from",
          "type": "address"
        },
        {
          "internalType": "uint256",
          "name": "_id",
          "type": "uint256"
        },
        {
          "internalType": "uint256",
          "name": "_value",
          "type": "uint256"
        }
      ],
      "name": "_doBurn",
      "outputs": [],
      "stateMutability": "nonpayable",
      "type": "function"
    },
    {
      "inputs": [
        {
          "internalType": "address",
          "name": "_to",
          "type": "address"
        },
        {
          "internalType": "uint256",
          "name": "_id",
          "type": "uint256"
        },
        {
          "internalType": "uint256",
          "name": "_value",
          "type": "uint256"
        },
        {
          "internalType": "bytes",
          "name": "_data",
          "type": "bytes"
        }
      ],
      "name": "_doMint",
      "outputs": [],
      "stateMutability": "nonpayable",
      "type": "function"
    },
    {
      "inputs": [
        {
          "components": [
            {
              "internalType": "uint256",
              "name": "parentToken",
              "type": "uint256"
            },
            {
              "internalType": "int256",
              "name": "maxSwapCredit",
              "type": "int256"
            },
            {
              "internalType": "int256",
              "name": "swapCreditPeriod",
              "type": "int256"
            },
            {
              "internalType": "int256",
              "name": "timeEnteredSwapCredit",
              "type": "int256"
            },
            {
              "internalType": "int256",
              "name": "lastSwapTime",
              "type": "int256"
            },
            {
              "internalType": "int256",
              "name": "remainingSwapCredit",
              "type": "int256"
            },
            {
              "internalType": "bool",
              "name": "enabled",
              "type": "bool"
            }
          ],
          "internalType": "struct TokensFlow.TokenFlow",
          "name": "_flow",
          "type": "tuple"
        },
        {
          "internalType": "int256",
          "name": "_currentTimeResult",
          "type": "int256"
        }
      ],
      "name": "_inSwapCredit",
      "outputs": [
        {
          "internalType": "bool",
          "name": "",
          "type": "bool"
        }
      ],
      "stateMutability": "pure",
      "type": "function"
    },
    {
      "inputs": [
        {
          "components": [
            {
              "internalType": "uint256",
              "name": "parentToken",
              "type": "uint256"
            },
            {
              "internalType": "int256",
              "name": "maxSwapCredit",
              "type": "int256"
            },
            {
              "internalType": "int256",
              "name": "swapCreditPeriod",
              "type": "int256"
            },
            {
              "internalType": "int256",
              "name": "timeEnteredSwapCredit",
              "type": "int256"
            },
            {
              "internalType": "int256",
              "name": "lastSwapTime",
              "type": "int256"
            },
            {
              "internalType": "int256",
              "name": "remainingSwapCredit",
              "type": "int256"
            },
            {
              "internalType": "bool",
              "name": "enabled",
              "type": "bool"
            }
          ],
          "internalType": "struct TokensFlow.TokenFlow",
          "name": "_flow",
          "type": "tuple"
        },
        {
          "internalType": "int256",
          "name": "_currentTimeResult",
          "type": "int256"
        },
        {
          "internalType": "bool",
          "name": "_inSwapCreditResult",
          "type": "bool"
        }
      ],
      "name": "_maxSwapAmount",
      "outputs": [
        {
          "internalType": "uint256",
          "name": "",
          "type": "uint256"
        }
      ],
      "stateMutability": "pure",
      "type": "function"
    },
    {
      "inputs": [
        {
          "internalType": "uint256",
          "name": "_id",
          "type": "uint256"
        },
        {
          "internalType": "address",
          "name": "_owner",
          "type": "address"
        },
        {
          "internalType": "address",
          "name": "_spender",
          "type": "address"
        }
      ],
      "name": "allowance",
      "outputs": [
        {
          "internalType": "uint256",
          "name": "",
          "type": "uint256"
        }
      ],
      "stateMutability": "view",
      "type": "function"
    },
    {
      "inputs": [
        {
          "internalType": "address",
          "name": "_spender",
          "type": "address"
        },
        {
          "internalType": "uint256",
          "name": "_id",
          "type": "uint256"
        },
        {
          "internalType": "uint256",
          "name": "_currentValue",
          "type": "uint256"
        },
        {
          "internalType": "uint256",
          "name": "_value",
          "type": "uint256"
        }
      ],
      "name": "approve",
      "outputs": [],
      "stateMutability": "nonpayable",
      "type": "function"
    },
    {
      "inputs": [
        {
          "internalType": "uint256",
          "name": "",
          "type": "uint256"
        }
      ],
      "name": "authorities",
      "outputs": [
        {
          "internalType": "uint256",
          "name": "token",
          "type": "uint256"
        },
        {
          "internalType": "uint256",
          "name": "maxSerial",
          "type": "uint256"
        }
      ],
      "stateMutability": "view",
      "type": "function"
    },
    {
      "inputs": [
        {
          "internalType": "address",
          "name": "_owner",
          "type": "address"
        },
        {
          "internalType": "uint256",
          "name": "_id",
          "type": "uint256"
        }
      ],
      "name": "balanceOf",
      "outputs": [
        {
          "internalType": "uint256",
          "name": "",
          "type": "uint256"
        }
      ],
      "stateMutability": "view",
      "type": "function"
    },
    {
      "inputs": [
        {
          "internalType": "address[]",
          "name": "_owners",
          "type": "address[]"
        },
        {
          "internalType": "uint256[]",
          "name": "_ids",
          "type": "uint256[]"
        }
      ],
      "name": "balanceOfBatch",
      "outputs": [
        {
          "internalType": "uint256[]",
          "name": "",
          "type": "uint256[]"
        }
      ],
      "stateMutability": "view",
      "type": "function"
    },
    {
      "inputs": [
        {
          "internalType": "address",
          "name": "_spender",
          "type": "address"
        },
        {
          "internalType": "uint256[]",
          "name": "_ids",
          "type": "uint256[]"
        },
        {
          "internalType": "uint256[]",
          "name": "_currentValues",
          "type": "uint256[]"
        },
        {
          "internalType": "uint256[]",
          "name": "_values",
          "type": "uint256[]"
        }
      ],
      "name": "batchApprove",
      "outputs": [],
      "stateMutability": "nonpayable",
      "type": "function"
    },
    {
      "inputs": [
        {
          "internalType": "uint256",
          "name": "_parent",
          "type": "uint256"
        },
        {
          "internalType": "string",
          "name": "_name",
          "type": "string"
        },
        {
          "internalType": "string",
          "name": "_symbol",
          "type": "string"
        },
        {
          "internalType": "string",
          "name": "_uri",
          "type": "string"
        }
      ],
      "name": "createAuthority",
      "outputs": [],
      "stateMutability": "nonpayable",
      "type": "function"
    },
    {
      "inputs": [
        {
          "internalType": "uint256",
          "name": "_token",
          "type": "uint256"
        },
        {
          "internalType": "uint256",
          "name": "_amount",
          "type": "uint256"
        },
        {
          "internalType": "address",
          "name": "_owner",
          "type": "address"
        },
        {
          "internalType": "bytes32",
          "name": "_arweaveHash",
          "type": "bytes32"
        }
      ],
      "name": "createCredit",
      "outputs": [
        {
          "internalType": "uint256",
          "name": "",
          "type": "uint256"
        }
      ],
      "stateMutability": "nonpayable",
      "type": "function"
    },
    {
      "inputs": [
        {
          "internalType": "uint256",
          "name": "",
          "type": "uint256"
        }
      ],
      "name": "credits",
      "outputs": [
        {
          "internalType": "address",
          "name": "authority",
          "type": "address"
        },
        {
          "internalType": "uint256",
          "name": "serial",
          "type": "uint256"
        },
        {
          "internalType": "uint256",
          "name": "amount",
          "type": "uint256"
        },
        {
          "internalType": "address",
          "name": "owner",
          "type": "address"
        },
        {
          "internalType": "bytes32",
          "name": "arweaveHash",
          "type": "bytes32"
        }
      ],
      "stateMutability": "view",
      "type": "function"
    },
    {
      "inputs": [
        {
          "internalType": "uint256",
          "name": "",
          "type": "uint256"
        }
      ],
      "name": "decimals",
      "outputs": [
        {
          "internalType": "uint8",
          "name": "",
          "type": "uint8"
        }
      ],
      "stateMutability": "pure",
      "type": "function"
    },
    {
      "inputs": [
        {
          "internalType": "uint256",
          "name": "_id",
          "type": "uint256"
        },
        {
          "internalType": "uint256",
          "name": "_amount",
          "type": "uint256"
        },
        {
          "internalType": "uint256",
          "name": "_levels",
          "type": "uint256"
        },
        {
          "internalType": "bytes",
          "name": "_data",
          "type": "bytes"
        }
      ],
      "name": "exchangeToParent",
      "outputs": [],
      "stateMutability": "nonpayable",
      "type": "function"
    },
    {
      "inputs": [],
      "name": "globalCommunityFund",
      "outputs": [
        {
          "internalType": "address",
          "name": "",
          "type": "address"
        }
      ],
      "stateMutability": "view",
      "type": "function"
    },
    {
      "inputs": [],
      "name": "maxTokenId",
      "outputs": [
        {
          "internalType": "uint256",
          "name": "",
          "type": "uint256"
        }
      ],
      "stateMutability": "view",
      "type": "function"
    },
    {
      "inputs": [
        {
          "internalType": "uint256",
          "name": "_id",
          "type": "uint256"
        }
      ],
      "name": "name",
      "outputs": [
        {
          "internalType": "string",
          "name": "",
          "type": "string"
        }
      ],
      "stateMutability": "view",
      "type": "function"
    },
    {
      "inputs": [
        {
          "internalType": "uint256",
          "name": "",
          "type": "uint256"
        }
      ],
      "name": "nameImpl",
      "outputs": [
        {
          "internalType": "string",
          "name": "",
          "type": "string"
        }
      ],
      "stateMutability": "view",
      "type": "function"
    },
    {
      "inputs": [
        {
          "internalType": "uint256",
          "name": "_parent",
          "type": "uint256"
        },
        {
          "internalType": "string",
          "name": "_name",
          "type": "string"
        },
        {
          "internalType": "string",
          "name": "_symbol",
          "type": "string"
        },
        {
          "internalType": "string",
          "name": "_uri",
          "type": "string"
        }
      ],
      "name": "newToken",
      "outputs": [
        {
          "internalType": "uint256",
          "name": "",
          "type": "uint256"
        }
      ],
      "stateMutability": "nonpayable",
      "type": "function"
    },
    {
      "inputs": [
        {
          "internalType": "uint256",
          "name": "_amount",
          "type": "uint256"
        }
      ],
      "name": "retireCredit",
      "outputs": [],
      "stateMutability": "nonpayable",
      "type": "function"
    },
    {
      "inputs": [
        {
          "internalType": "address",
          "name": "_from",
          "type": "address"
        },
        {
          "internalType": "address",
          "name": "_to",
          "type": "address"
        },
        {
          "internalType": "uint256[]",
          "name": "_ids",
          "type": "uint256[]"
        },
        {
          "internalType": "uint256[]",
          "name": "_values",
          "type": "uint256[]"
        },
        {
          "internalType": "bytes",
          "name": "_data",
          "type": "bytes"
        }
      ],
      "name": "safeBatchTransferFrom",
      "outputs": [],
      "stateMutability": "nonpayable",
      "type": "function"
    },
    {
      "inputs": [
        {
          "internalType": "address",
          "name": "_from",
          "type": "address"
        },
        {
          "internalType": "address",
          "name": "_to",
          "type": "address"
        },
        {
          "internalType": "uint256",
          "name": "_id",
          "type": "uint256"
        },
        {
          "internalType": "uint256",
          "name": "_value",
          "type": "uint256"
        },
        {
          "internalType": "bytes",
          "name": "_data",
          "type": "bytes"
        }
      ],
      "name": "safeTransferFrom",
      "outputs": [],
      "stateMutability": "nonpayable",
      "type": "function"
    },
    {
      "inputs": [
        {
          "internalType": "uint256[]",
          "name": "_childs",
          "type": "uint256[]"
        },
        {
          "internalType": "bool",
          "name": "_enabled",
          "type": "bool"
        }
      ],
      "name": "setEnabled",
      "outputs": [],
      "stateMutability": "nonpayable",
      "type": "function"
    },
    {
      "inputs": [
        {
          "internalType": "address",
          "name": "_globalCommunityFund",
          "type": "address"
        }
      ],
      "name": "setGlobalCommunityFundAddress",
      "outputs": [],
      "stateMutability": "nonpayable",
      "type": "function"
    },
    {
      "inputs": [
        {
          "internalType": "int128",
          "name": "_tax",
          "type": "int128"
        }
      ],
      "name": "setTax",
      "outputs": [],
      "stateMutability": "nonpayable",
      "type": "function"
    },
    {
      "inputs": [
        {
          "internalType": "uint256",
          "name": "_child",
          "type": "uint256"
        },
        {
          "internalType": "int256",
          "name": "_maxSwapCredit",
          "type": "int256"
        },
        {
          "internalType": "int256",
          "name": "_remainingSwapCredit",
          "type": "int256"
        },
        {
          "internalType": "int256",
          "name": "_swapCreditPeriod",
          "type": "int256"
        },
        {
          "internalType": "int256",
          "name": "timeEnteredSwapCredit",
          "type": "int256"
        }
      ],
      "name": "setTokenFlow",
      "outputs": [],
      "stateMutability": "nonpayable",
      "type": "function"
    },
    {
      "inputs": [
        {
          "internalType": "uint256",
          "name": "_child",
          "type": "uint256"
        },
        {
          "internalType": "uint256",
          "name": "_parent",
          "type": "uint256"
        }
      ],
      "name": "setTokenParent",
      "outputs": [],
      "stateMutability": "nonpayable",
      "type": "function"
    },
    {
      "inputs": [
        {
          "internalType": "uint256",
          "name": "_id",
          "type": "uint256"
        },
        {
          "internalType": "string",
          "name": "_uri",
          "type": "string"
        }
      ],
      "name": "setTokenUri",
      "outputs": [],
      "stateMutability": "nonpayable",
      "type": "function"
    },
    {
      "inputs": [
        {
          "internalType": "bytes4",
          "name": "_interfaceId",
          "type": "bytes4"
        }
      ],
      "name": "supportsInterface",
      "outputs": [
        {
          "internalType": "bool",
          "name": "",
          "type": "bool"
        }
      ],
      "stateMutability": "pure",
      "type": "function"
    },
    {
      "inputs": [
        {
          "internalType": "uint256",
          "name": "_id",
          "type": "uint256"
        }
      ],
      "name": "symbol",
      "outputs": [
        {
          "internalType": "string",
          "name": "",
          "type": "string"
        }
      ],
      "stateMutability": "view",
      "type": "function"
    },
    {
      "inputs": [
        {
          "internalType": "uint256",
          "name": "",
          "type": "uint256"
        }
      ],
      "name": "symbolImpl",
      "outputs": [
        {
          "internalType": "string",
          "name": "",
          "type": "string"
        }
      ],
      "stateMutability": "view",
      "type": "function"
    },
    {
      "inputs": [],
      "name": "tax",
      "outputs": [
        {
          "internalType": "int128",
          "name": "",
          "type": "int128"
        }
      ],
      "stateMutability": "view",
      "type": "function"
    },
    {
      "inputs": [
        {
          "internalType": "uint256",
          "name": "",
          "type": "uint256"
        }
      ],
      "name": "tokenFlow",
      "outputs": [
        {
          "internalType": "uint256",
          "name": "parentToken",
          "type": "uint256"
        },
        {
          "internalType": "int256",
          "name": "maxSwapCredit",
          "type": "int256"
        },
        {
          "internalType": "int256",
          "name": "swapCreditPeriod",
          "type": "int256"
        },
        {
          "internalType": "int256",
          "name": "timeEnteredSwapCredit",
          "type": "int256"
        },
        {
          "internalType": "int256",
          "name": "lastSwapTime",
          "type": "int256"
        },
        {
          "internalType": "int256",
          "name": "remainingSwapCredit",
          "type": "int256"
        },
        {
          "internalType": "bool",
          "name": "enabled",
          "type": "bool"
        }
      ],
      "stateMutability": "view",
      "type": "function"
    },
    {
      "inputs": [
        {
          "internalType": "uint256",
          "name": "",
          "type": "uint256"
        }
      ],
      "name": "tokenOwners",
      "outputs": [
        {
          "internalType": "address",
          "name": "",
          "type": "address"
        }
      ],
      "stateMutability": "view",
      "type": "function"
    },
    {
      "inputs": [
        {
          "internalType": "uint256",
          "name": "_id",
          "type": "uint256"
        }
      ],
      "name": "totalSupply",
      "outputs": [
        {
          "internalType": "uint256",
          "name": "",
          "type": "uint256"
        }
      ],
      "stateMutability": "view",
      "type": "function"
    },
    {
      "inputs": [
        {
          "internalType": "uint256",
          "name": "",
          "type": "uint256"
        }
      ],
      "name": "totalSupplyImpl",
      "outputs": [
        {
          "internalType": "uint256",
          "name": "",
          "type": "uint256"
        }
      ],
      "stateMutability": "view",
      "type": "function"
    },
    {
      "inputs": [
        {
          "internalType": "uint256",
          "name": "_id",
          "type": "uint256"
        }
      ],
      "name": "uri",
      "outputs": [
        {
          "internalType": "string",
          "name": "",
          "type": "string"
        }
      ],
      "stateMutability": "view",
      "type": "function"
    },
    {
      "inputs": [
        {
          "internalType": "uint256",
          "name": "",
          "type": "uint256"
        }
      ],
      "name": "uriImpl",
      "outputs": [
        {
          "internalType": "string",
          "name": "",
          "type": "string"
        }
      ],
      "stateMutability": "view",
      "type": "function"
    }
  ],
  "address": "0xe78A0F7E598Cc8b0Bb87894B0F60dD2a88d6a8Ab",
  "args": [
    "0xFFcf8FDEE72ac11b5c542428B35EEF5769C409f0",
    "Retired carbon credits",
    "M+",
    "https://example.com/retired",
    "Non-retired carbon credits",
    "M-",
    "https://example.com/nonretired"
  ],
  "solcInputHash": "0x3b3aa465639375963874f4db4af40c517ba66aa4e48c04b7c93eea7fbff77f5f",
  "bytecode": "0x6080604052620000236064600a600f0b620000d060201b620016e91790919060201c565b600a8054600f9290920b6001600160801b03166001600160801b03199092169190911790553480156200005557600080fd5b50604051620033a0380380620033a08339810160408190526200007891620003f8565b600980546001600160a01b0319166001600160a01b03891617905586868686868686620000aa60008787878b6200012e565b50620000bb60008484848b6200012e565b505050505050505050505050505050620005d0565b600081600f0b60001415620000e457600080fd5b600082600f0b604085600f0b901b81620000fa57fe5b05905060016001607f1b031981128015906200011d575060016001607f1b038113155b6200012757600080fd5b9392505050565b60028054600101808255600090815260036020908152604080832080546001600160a01b0319166001600160a01b038716179055925482526006815291812086519192620001809290880190620002c2565b5060025460009081526007602090815260409091208551620001a592870190620002c2565b5060025460009081526008602090815260409091208451620001ca92860190620002c2565b50600254620001da90876200022a565b7f6bb0d056b49e8fe9e41616c109b2c99031f3b7714fadd8d83daeea8ba9989f8160025483878787604051620002159594939291906200053b565b60405180910390a15060025495945050505050565b6002548111156200023a57600080fd5b6040805160e08101825282815260006020808301828152838501838152606085018481526080860185815260a08701868152981560c08801908152998652600494859052969094209451855590516001850155516002840155905160038301559151918101919091559051600582015590516006909101805460ff1916911515919091179055565b828054600181600116156101000203166002900490600052602060002090601f016020900481019282601f106200030557805160ff191683800117855562000335565b8280016001018555821562000335579182015b828111156200033557825182559160200191906001019062000318565b506200034392915062000347565b5090565b5b8082111562000343576000815560010162000348565b80516001600160a01b03811681146200037657600080fd5b919050565b600082601f8301126200038c578081fd5b81516001600160401b0380821115620003a157fe5b604051601f8301601f191681016020018281118282101715620003c057fe5b604052828152925082848301602001861015620003dc57600080fd5b620003ef8360208301602088016200059d565b50505092915050565b600080600080600080600060e0888a03121562000413578283fd5b6200041e886200035e565b60208901519097506001600160401b03808211156200043b578485fd5b620004498b838c016200037b565b975060408a01519150808211156200045f578485fd5b6200046d8b838c016200037b565b965060608a015191508082111562000483578485fd5b620004918b838c016200037b565b955060808a0151915080821115620004a7578485fd5b620004b58b838c016200037b565b945060a08a0151915080821115620004cb578384fd5b620004d98b838c016200037b565b935060c08a0151915080821115620004ef578283fd5b50620004fe8a828b016200037b565b91505092959891949750929550565b60008151808452620005278160208601602086016200059d565b601f01601f19169290920160200192915050565b8581526001600160a01b038516602082015260a06040820181905260009062000567908301866200050d565b82810360608401526200057b81866200050d565b905082810360808401526200059181856200050d565b98975050505050505050565b60005b83811015620005ba578181015183820152602001620005a0565b83811115620005ca576000848401525b50505050565b612dc080620005e06000396000f3fe608060405234801561001057600080fd5b506004361061023b5760003560e01c8063507644c51161013b578063d9ea47d9116100b8578063eedc7dc41161007c578063eedc7dc41461053d578063f242432a14610550578063f8a14f4614610563578063f9417f8514610576578063ff992fd2146105895761023b565b8063d9ea47d9146104dc578063e0adfe4e146104ef578063e322e39514610504578063ea67de9714610517578063eb899eeb1461052a5761023b565b8063a041c2a1116100ff578063a041c2a11461047d578063a2513d2e14610490578063b0f18bbc146104a3578063bd85b039146104b6578063d1bab4cc146104c95761023b565b8063507644c51461042757806357f7789e1461043a57806387b5c66a1461044d57806391ba317a1461046057806399c8d556146104685761023b565b806313ce3b84116101c9578063489b5d421161018d578063489b5d42146103ad578063494503d4146103c05780634e1273f4146103e15780634e41a1fb146104015780634f4df442146104145761023b565b806313ce3b8414610341578063233a161c146103545780632eb2c2d61461036757806338d85f031461037a5780633f47e6621461038d5761023b565b806307e84a201161021057806307e84a20146102cd57806309839498146102e05780630a074d3e146103065780630d550b751461031b5780630e89341c1461032e5761023b565b8062ad800c14610240578062fdd58e1461026957806301ffc9a714610289578063036a1c22146102a9575b600080fd5b61025361024e366004612674565b61059c565b6040516102609190612afb565b60405180910390f35b61027c6102773660046123c5565b61063e565b6040516102609190612c85565b61029c6102973660046125bb565b610666565b6040516102609190612ae2565b6102bc6102b7366004612674565b6106ac565b604051610260959493929190612a75565b61029c6102db366004612614565b6106e8565b6102f36102ee366004612674565b61070f565b6040516102609796959493929190612d00565b6103196103143660046123ee565b61074f565b005b61027c61032936600461268c565b6107f4565b61025361033c366004612674565b610809565b61031961034f36600461256a565b610873565b610253610362366004612674565b61095a565b6103196103753660046121f4565b6109f5565b61027c610388366004612741565b610a5c565b6103a061039b366004612674565b610b14565b6040516102609190612d40565b6103196103bb366004612420565b610b1a565b6103d36103ce366004612674565b610c1e565b604051610260929190612d32565b6103f46103ef366004612502565b610c37565b6040516102609190612acf565b61025361040f366004612674565b610d26565b6103196104223660046124ca565b610d90565b6103196104353660046126be565b610dfb565b6103196104483660046126f8565b610e4b565b61031961045b36600461282a565b610e64565b61027c61103c565b610470611042565b6040516102609190612aed565b61025361048b366004612674565b61104b565b61031961049e3660046127cd565b6110b3565b61027c6104b13660046127ee565b6110e4565b61027c6104c4366004612674565b611245565b6103196104d736600461231f565b611257565b6103196104ea366004612741565b611357565b6104f761148c565b604051610260919061296b565b61027c610512366004612674565b61149b565b6103196105253660046121da565b6114ad565b610319610538366004612674565b6114f9565b61025361054b366004612674565b61156e565b61031961055e3660046122aa565b6115d6565b6104f7610571366004612674565b611602565b61027c61058436600461263f565b61161d565b6103196105973660046125f3565b61167a565b60008181526006602090815260409182902080548351601f60026000196101006001861615020190931692909204918201849004840281018401909452808452606093928301828280156106315780601f1061060657610100808354040283529160200191610631565b820191906000526020600020905b81548152906001019060200180831161061457829003601f168201915b505050505090505b919050565b6000818152602081815260408083206001600160a01b03861684529091529020545b92915050565b60006001600160e01b031982166301ffc9a760e01b148061069757506001600160e01b03198216636cdb3d1360e11b145b156106a457506001610639565b506000919050565b600c60205260009081526040902080546001820154600283015460038401546004909401546001600160a01b0393841694929391929091169085565b600082606001516000141580156107085750826040015183606001518303125b9392505050565b6004602081905260009182526040909120805460018201546002830154600384015494840154600585015460069095015493959294919390919060ff1687565b6000828152602081815260408083206001600160a01b038716845290915290205461077a908261174e565b6000838152602081815260408083206001600160a01b038816808552908352818420949094558583526005909152808220805485900390555190919033907fc3d58168c5ae7397731d063d5bbf3d657854427343f4c083240f7aacaa2d0f62906107e79087908790612d32565b60405180910390a4505050565b6000610801848484611760565b949350505050565b60008181526008602090815260409182902080548351601f60026000196101006001861615020190931692909204918201849004840281018401909452808452606093928301828280156106315780601f1061060657610100808354040283529160200191610631565b60008383600081811061088257fe5b9050602002013590506000806000905060005b8086146109475760008787838181106108aa57fe5b90506020020135905081600014806108cc57508481141580156108cc57508381145b6108d557600080fd5b6000818152600460205260408082205480835291206006015490945060ff166108fe5750610947565b6000848152600360205260409020546001600160a01b031633141561092257600192505b6000908152600460205260409020600601805460ff1916861515179055600101610895565b508061095257600080fd5b505050505050565b60076020908152600091825260409182902080548351601f6002600019610100600186161502019093169290920491820184900484028101840190945280845290918301828280156109ed5780601f106109c2576101008083540402835291602001916109ed565b820191906000526020600020905b8154815290600101906020018083116109d057829003601f168201915b505050505081565b60005b85811015610a415760046000888884818110610a1057fe5b602090810292909201358352508101919091526040016000206006015460ff16610a3957600080fd5b6001016109f8565b50610a528888888888888888611790565b5050505050505050565b6000610b088888888080601f01602080910402602001604051908101604052809392919081815260200183838082843760009201919091525050604080516020601f8c018190048102820181019092528a815292508a915089908190840183828082843760009201919091525050604080516020601f8b018190048102820181019092528981529250899150889081908401838280828437600092019190915250339250611a7c915050565b98975050505050505050565b50601290565b6001600160a01b038416610b495760405162461bcd60e51b8152600401610b4090612c56565b60405180910390fd5b8115610b9a57600083815260056020526040902054610b69908390611b6d565b6000848152600560209081526040808320939093558181528282206001600160a01b03881683529052208054830190555b836001600160a01b031660006001600160a01b0316336001600160a01b03167fc3d58168c5ae7397731d063d5bbf3d657854427343f4c083240f7aacaa2d0f628686604051610bea929190612d32565b60405180910390a4610c04846001600160a01b0316611b7a565b15610c1857610c1833600086868686611b80565b50505050565b600b602052600090815260409020805460019091015482565b6060838214610c4557600080fd5b6060846001600160401b0381118015610c5d57600080fd5b50604051908082528060200260200182016040528015610c87578160200160208202803683370190505b50905060005b85811015610d1c57600080868684818110610ca457fe5b9050602002013581526020019081526020016000206000888884818110610cc757fe5b9050602002016020810190610cdc91906121da565b6001600160a01b03166001600160a01b0316815260200190815260200160002054828281518110610d0957fe5b6020908102919091010152600101610c8d565b5095945050505050565b60008181526007602090815260409182902080548351601f60026000196101006001861615020190931692909204918201849004840281018401909452808452606093928301828280156106315780601f1061060657610100808354040283529160200191610631565b600083815260016020908152604080832033845282528083206001600160a01b03881684529091529020548214610dc657600080fd5b600092835260016020908152604080852033865282528085206001600160a01b03969096168552949052929091209190915550565b6000858152600460209081526040808320805484526003909252909120546001600160a01b03163314610e2d57600080fd5b60018101949094556002840191909155600383015560059091015550565b6000838152600860205260409020610c18908383611f60565b82610e6e57611035565b846000805b85811015610fe05760008381526004602052604081209250610e93611c2f565b6040805160e08101825285548152600186015460208201526002860154918101919091526003850154606082015260048501546080820152600585015460a0820152600685015460ff16151560c0820152909150600090610ef490836106e8565b6040805160e08101825286548152600187015460208201526002870154918101919091526003860154606082015260048601546080820152600586015460a0820152600686015460ff16151560c0820152909150600090610f5690848461161d565b9050808a1115610f6557600080fd5b600086815260208181526040808320338452909152902054808b1115610f8a57600080fd5b82610fa15760038601849055600186015460058701555b60048601849055600160801b8b10610fb857600080fd5b5050506005830180548990039055506000928352600460205260409092205491600101610e73565b50610fec33888861074f565b6110323382600001548887878080601f016020809104026020016040519081016040528093929190818152602001838380828437600092019190915250610b1a92505050565b50505b5050505050565b60025481565b600a54600f0b81565b60086020908152600091825260409182902080548351601f6002600019610100600186161502019093169290920491820184900484028101840190945280845290918301828280156109ed5780601f106109c2576101008083540402835291602001916109ed565b6000828152600360205260409020546001600160a01b031633146110d657600080fd5b6110e08282611c33565b5050565b6000848152600360205260408120546001600160a01b03163314801561111b575060008581526004602052604090206006015460ff165b61112457600080fd5b6000858152600b6020526040902061113a611fde565b506040805160a0810182523381526001808401805482019081905560208084019182528385018a81526001600160a01b038a811660608701908152608087018b8152600d80548801908190556000908152600c8652898120895181549086166001600160a01b031991821617825597519881019890985593516002880155905160038701805491909316951694909417905591516004909301929092558351918201909352918252906111ef86898984610b1a565b7f81173549302bc25b22a7d6569dab51ffc17c7c470fecf64c9e61e22d8f3ea8d2600d543385600101548a8a8a60405161122e96959493929190612c8e565b60405180910390a15050600d549695505050505050565b60009081526005602052604090205490565b84831461126357600080fd5b84811461126f57600080fd5b60005b85811015610a5257600087878381811061128857fe5b905060200201359050600086868481811061129f57fe5b90506020020135905060008585858181106112b657fe5b90506020020135905081600160008581526020019081526020016000206000336001600160a01b03166001600160a01b0316815260200190815260200160002060008d6001600160a01b03166001600160a01b03168152602001908152602001600020541461132457600080fd5b600092835260016020818152604080862033875282528086206001600160a01b038f168752909152909320555001611272565b60006114038888888080601f01602080910402602001604051908101604052809392919081815260200183838082843760009201919091525050604080516020601f8c018190048102820181019092528a815292508a915089908190840183828082843760009201919091525050604080516020601f8b018190048102820181019092528981529250899150889081908401838280828437600092019190915250339250611a7c915050565b905061140d61200c565b5060408051808201825282815260006020808301828152858352600b9091529083902082518155905160019091015590517fe147f26093ddb86245219082300640c1d349ede6c703c1676b6fcc3c8197ccea9061147990339085908c908c908c908c908c908c9061297f565b60405180910390a1505050505050505050565b6009546001600160a01b031681565b60056020526000908152604090205481565b6009546001600160a01b031633146114c457600080fd5b6001600160a01b0381166114d757600080fd5b600980546001600160a01b0319166001600160a01b0392909216919091179055565b61150b33611505611cca565b8361074f565b600a5460009061152290600f90810b900b83611ccf565b60408051602081019091526000815260095491925090611554906001600160a01b031661154d611d37565b8484610b1a565b61156933611560611d37565b84860384610b1a565b505050565b60066020908152600091825260409182902080548351601f6002600019610100600186161502019093169290920491820184900484028101840190945280845290918301828280156109ed5780601f106109c2576101008083540402835291602001916109ed565b60008481526004602052604090206006015460ff166115f457600080fd5b610952868686868686611d3c565b6003602052600090815260409020546001600160a01b031681565b600080821561165957600085608001518503905060008660400151828860200151028161164657fe5b059050808760a001510392505050611660565b5060208401515b6000811261166e5780611671565b60005b95945050505050565b6009546001600160a01b0316331461169157600080fd5b600081600f0b121580156116b057506801000000000000000081600f0b125b6116b957600080fd5b600a8054600f9290920b6001600160801b03166fffffffffffffffffffffffffffffffff19909216919091179055565b600081600f0b600014156116fc57600080fd5b600082600f0b604085600f0b901b8161171157fe5b0590506f7fffffffffffffffffffffffffffffff19811280159061174557506f7fffffffffffffffffffffffffffffff8113155b61070857600080fd5b60008282111561175a57fe5b50900390565b60009283526001602090815260408085206001600160a01b03948516865282528085209290931684525290205490565b6001600160a01b0387166117b65760405162461bcd60e51b8152600401610b4090612b0e565b8483146117d55760405162461bcd60e51b8152600401610b4090612bb0565b6001600160a01b03881633146118355760005b85811015611833578484828181106117fc57fe5b9050602002013561182088888481811061181257fe5b905060200201358b33611760565b101561182b57600080fd5b6001016117e8565b505b60005b8581101561196557600087878381811061184e57fe5b905060200201359050600086868481811061186557fe5b9050602002013590506118b68160008085815260200190815260200160002060008e6001600160a01b03166001600160a01b031681526020019081526020016000205461174e90919063ffffffff16565b60008084815260200190815260200160002060008d6001600160a01b03166001600160a01b031681526020019081526020016000208190555061193760008084815260200190815260200160002060008c6001600160a01b03166001600160a01b031681526020019081526020016000205482611b6d90919063ffffffff16565b6000928352602083815260408085206001600160a01b038e1686529091529092209190915550600101611838565b50866001600160a01b0316886001600160a01b0316336001600160a01b03167f4a39dc06d4c0dbc64b70af90fd698a233a518aa5d07e595d983b8c0526c8f7fb898989896040516119b99493929190612aa8565b60405180910390a46119d3876001600160a01b0316611b7a565b15610a5257610a5233898989898080602002602001604051908101604052809392919081815260200183836020028082843760009201919091525050604080516020808d0282810182019093528c82529093508c92508b91829185019084908082843760009201919091525050604080516020601f8c018190048102820181019092528a815292508a9150899081908401838280828437600092019190915250611eb192505050565b60028054600101808255600090815260036020908152604080832080546001600160a01b0319166001600160a01b038716179055925482526006815291812086519192611acc9290880190612026565b5060025460009081526007602090815260409091208551611aef92870190612026565b5060025460009081526008602090815260409091208451611b1292860190612026565b50611b1f60025487611c33565b7f6bb0d056b49e8fe9e41616c109b2c99031f3b7714fadd8d83daeea8ba9989f8160025483878787604051611b58959493929190612cc4565b60405180910390a15060025495945050505050565b8181018281101561066057fe5b3b151590565b60405163f23a6e6160e01b808252906001600160a01b0386169063f23a6e6190611bb6908a908a90899089908990600401612a30565b602060405180830381600087803b158015611bd057600080fd5b505af1158015611be4573d6000803e3d6000fd5b505050506040513d601f19601f82011682018060405250810190611c0891906125d7565b6001600160e01b031916146109525760405162461bcd60e51b8152600401610b4090612bf9565b4290565b600254811115611c4257600080fd5b6040805160e08101825282815260006020808301828152838501838152606085018481526080860185815260a08701868152981560c08801908152998652600494859052969094209451855590516001850155516002840155905160038301559151918101919091559051600582015590516006909101805460ff1916911515919091179055565b600290565b600081611cde57506000610660565b600083600f0b1215611cef57600080fd5b600f83900b6001600160801b038316810260401c90608084901c026001600160c01b03811115611d1e57600080fd5b60401b8119811115611d2f57600080fd5b019392505050565b600190565b6001600160a01b038516611d625760405162461bcd60e51b8152600401610b4090612c56565b6001600160a01b038616331480611d83575082611d80858833611760565b10155b611d8c57600080fd5b6000848152602081815260408083206001600160a01b038a168452909152902054611db7908461174e565b6000858152602081815260408083206001600160a01b038b81168552925280832093909355871681522054611ded908490611b6d565b6000858152602081815260408083206001600160a01b03808b168086529190935292819020939093559151909188169033907fc3d58168c5ae7397731d063d5bbf3d657854427343f4c083240f7aacaa2d0f6290611e4e9089908990612d32565b60405180910390a4611e68856001600160a01b0316611b7a565b1561095257610952338787878787878080601f016020809104026020016040519081016040528093929190818152602001838380828437600092019190915250611b8092505050565b60405163bc197c8160e01b808252906001600160a01b0386169063bc197c8190611ee7908a908a908990899089906004016129de565b602060405180830381600087803b158015611f0157600080fd5b505af1158015611f15573d6000803e3d6000fd5b505050506040513d601f19601f82011682018060405250810190611f3991906125d7565b6001600160e01b031916146109525760405162461bcd60e51b8152600401610b4090612b53565b828054600181600116156101000203166002900490600052602060002090601f016020900481019282601f10611fa15782800160ff19823516178555611fce565b82800160010185558215611fce579182015b82811115611fce578235825591602001919060010190611fb3565b50611fda929150612094565b5090565b6040805160a08101825260008082526020820181905291810182905260608101829052608081019190915290565b604051806040016040528060008152602001600081525090565b828054600181600116156101000203166002900490600052602060002090601f016020900481019282601f1061206757805160ff1916838001178555611fce565b82800160010185558215611fce579182015b82811115611fce578251825591602001919060010190612079565b5b80821115611fda5760008155600101612095565b80356001600160a01b038116811461063957600080fd5b60008083601f8401126120d1578182fd5b5081356001600160401b038111156120e7578182fd5b602083019150836020808302850101111561210157600080fd5b9250929050565b8035801515811461063957600080fd5b60008083601f840112612129578182fd5b5081356001600160401b0381111561213f578182fd5b60208301915083602082850101111561210157600080fd5b600060e08284031215612168578081fd5b60405160e081018181106001600160401b038211171561218457fe5b8060405250809150823581526020830135602082015260408301356040820152606083013560608201526080830135608082015260a083013560a08201526121ce60c08401612108565b60c08201525092915050565b6000602082840312156121eb578081fd5b610708826120a9565b60008060008060008060008060a0898b03121561220f578384fd5b612218896120a9565b975061222660208a016120a9565b965060408901356001600160401b0380821115612241578586fd5b61224d8c838d016120c0565b909850965060608b0135915080821115612265578586fd5b6122718c838d016120c0565b909650945060808b0135915080821115612289578384fd5b506122968b828c01612118565b999c989b5096995094979396929594505050565b60008060008060008060a087890312156122c2578182fd5b6122cb876120a9565b95506122d9602088016120a9565b9450604087013593506060870135925060808701356001600160401b03811115612301578283fd5b61230d89828a01612118565b979a9699509497509295939492505050565b60008060008060008060006080888a031215612339578283fd5b612342886120a9565b965060208801356001600160401b038082111561235d578485fd5b6123698b838c016120c0565b909850965060408a0135915080821115612381578485fd5b61238d8b838c016120c0565b909650945060608a01359150808211156123a5578384fd5b506123b28a828b016120c0565b989b979a50959850939692959293505050565b600080604083850312156123d7578182fd5b6123e0836120a9565b946020939093013593505050565b600080600060608486031215612402578283fd5b61240b846120a9565b95602085013595506040909401359392505050565b60008060008060808587031215612435578182fd5b61243e856120a9565b935060208086013593506040860135925060608601356001600160401b0380821115612468578384fd5b818801915088601f83011261247b578384fd5b81358181111561248757fe5b612499601f8201601f19168501612d4e565b915080825289848285010111156124ae578485fd5b8084840185840137810190920192909252939692955090935050565b600080600080608085870312156124df578182fd5b6124e8856120a9565b966020860135965060408601359560600135945092505050565b60008060008060408587031215612517578182fd5b84356001600160401b038082111561252d578384fd5b612539888389016120c0565b90965094506020870135915080821115612551578384fd5b5061255e878288016120c0565b95989497509550505050565b60008060006040848603121561257e578081fd5b83356001600160401b03811115612593578182fd5b61259f868287016120c0565b90945092506125b2905060208501612108565b90509250925092565b6000602082840312156125cc578081fd5b813561070881612d71565b6000602082840312156125e8578081fd5b815161070881612d71565b600060208284031215612604578081fd5b813580600f0b8114610708578182fd5b6000806101008385031215612627578182fd5b6126318484612157565b9460e0939093013593505050565b60008060006101208486031215612654578081fd5b61265e8585612157565b925060e084013591506125b26101008501612108565b600060208284031215612685578081fd5b5035919050565b6000806000606084860312156126a0578081fd5b833592506126b0602085016120a9565b91506125b2604085016120a9565b600080600080600060a086880312156126d5578283fd5b505083359560208501359550604085013594606081013594506080013592509050565b60008060006040848603121561270c578081fd5b8335925060208401356001600160401b03811115612728578182fd5b61273486828701612118565b9497909650939450505050565b60008060008060008060006080888a03121561275b578081fd5b8735965060208801356001600160401b0380821115612778578283fd5b6127848b838c01612118565b909850965060408a013591508082111561279c578283fd5b6127a88b838c01612118565b909650945060608a01359150808211156127c0578283fd5b506123b28a828b01612118565b600080604083850312156127df578182fd5b50508035926020909101359150565b60008060008060808587031215612803578182fd5b843593506020850135925061281a604086016120a9565b9396929550929360600135925050565b600080600080600060808688031215612841578283fd5b85359450602086013593506040860135925060608601356001600160401b0381111561286b578182fd5b61287788828901612118565b969995985093965092949392505050565b81835260006001600160fb1b038311156128a0578081fd5b6020830280836020870137939093016020019283525090919050565b6000815180845260208085019450808401835b838110156128eb578151875295820195908201906001016128cf565b509495945050505050565b60008151808452815b8181101561291b576020818501810151868301820152016128ff565b8181111561292c5782602083870101525b50601f01601f19169290920160200192915050565b60008284528282602086013780602084860101526020601f19601f85011685010190509392505050565b6001600160a01b0391909116815260200190565b600060018060a01b038a16825288602083015260a060408301526129a760a08301888a612941565b82810360608401526129ba818789612941565b905082810360808401526129cf818587612941565b9b9a5050505050505050505050565b6001600160a01b0386811682528516602082015260a060408201819052600090612a0a908301866128bc565b8281036060840152612a1c81866128bc565b90508281036080840152610b0881856128f6565b6001600160a01b03868116825285166020820152604081018490526060810183905260a060808201819052600090612a6a908301846128f6565b979650505050505050565b6001600160a01b039586168152602081019490945260408401929092529092166060820152608081019190915260a00190565b600060408252612abc604083018688612888565b8281036020840152612a6a818587612888565b60006020825261070860208301846128bc565b901515815260200190565b600f9190910b815260200190565b60006020825261070860208301846128f6565b60208082526025908201527f64657374696e6174696f6e2061646472657373206d757374206265206e6f6e2d6040820152643d32b9379760d91b606082015260800190565b6020808252603e908201527f636f6e74726163742072657475726e656420616e20756e6b6e6f776e2076616c60408201527f75652066726f6d206f6e45524331313535426174636852656365697665640000606082015260800190565b60208082526029908201527f5f69647320616e64205f76616c756573206172726179206c656e677468206d7560408201526839ba1036b0ba31b41760b91b606082015260800190565b60208082526039908201527f636f6e74726163742072657475726e656420616e20756e6b6e6f776e2076616c60408201527f75652066726f6d206f6e45524331313535526563656976656400000000000000606082015260800190565b6020808252601590820152742fba379036bab9ba103132903737b716bd32b9379760591b604082015260600190565b90815260200190565b9586526001600160a01b03948516602087015260408601939093526060850191909152909116608083015260a082015260c00190565b8581526001600160a01b038516602082015260a060408201819052600090612cee908301866128f6565b8281036060840152612a1c81866128f6565b968752602087019590955260408601939093526060850191909152608084015260a0830152151560c082015260e00190565b918252602082015260400190565b60ff91909116815260200190565b6040518181016001600160401b0381118282101715612d6957fe5b604052919050565b6001600160e01b031981168114612d8757600080fd5b5056fea2646970667358221220e7cc9402f2203c927c8f35bc2d6c49ae05e13b1af7401404b512ce83b9a3df3764736f6c63430007030033",
  "devdoc": {
    "kind": "dev",
    "methods": {
      "balanceOf(address,uint256)": {
        "params": {
          "_id": "ID of the Token",
          "_owner": "The address of the token holder"
        },
        "returns": {
          "_0": "The _owner's balance of the Token type requested"
        }
      },
      "balanceOfBatch(address[],uint256[])": {
        "params": {
          "_ids": "ID of the Tokens",
          "_owners": "The addresses of the token holders"
        },
        "returns": {
          "_0": "The _owner's balance of the Token types requested (i.e. balance for each (owner, id) pair)"
        }
      },
      "batchApprove(address,uint256[],uint256[],uint256[])": {
        "details": "Allow other accounts/contracts to spend tokens on behalf of msg.sender Also, to minimize the risk of the approve/transferFrom attack vector (see https://docs.google.com/document/d/1YLPtQxZu1UAvO9cZ1O2RPXBbT0mooh4DYKjA_jp-RLM/), this function will throw if the current approved allowance does not equal the expected _currentValue, unless _value is 0",
        "params": {
          "_currentValues": "Expected current values of allowances per item type",
          "_ids": "IDs of the CryptoItems",
          "_spender": "Address to approve",
          "_values": "Allowance amounts per item type"
        }
      },
      "safeBatchTransferFrom(address,address,uint256[],uint256[],bytes)": {
        "details": "Caller must be approved to manage the tokens being transferred out of the `_from` account (see \"Approval\" section of the standard). MUST revert if `_to` is the zero address. MUST revert if length of `_ids` is not the same as length of `_values`. MUST revert if any of the balance(s) of the holder(s) for token(s) in `_ids` is lower than the respective amount(s) in `_values` sent to the recipient. MUST revert on any other error. MUST emit `TransferSingle` or `TransferBatch` event(s) such that all the balance changes are reflected (see \"Safe Transfer Rules\" section of the standard). Balance changes and events MUST follow the ordering of the arrays (_ids[0]/_values[0] before _ids[1]/_values[1], etc). After the above conditions for the transfer(s) in the batch are met, this function MUST check if `_to` is a smart contract (e.g. code size > 0). If so, it MUST call the relevant `ERC1155TokenReceiver` hook(s) on `_to` and act appropriately (see \"Safe Transfer Rules\" section of the standard).",
        "params": {
          "_data": "Additional data with no specified format, MUST be sent unaltered in call to the `ERC1155TokenReceiver` hook(s) on `_to`",
          "_from": "Source address",
          "_ids": "IDs of each token type (order and length must match _values array)",
          "_to": "Target address",
          "_values": "Transfer amounts per token type (order and length must match _ids array)"
        }
      },
      "safeTransferFrom(address,address,uint256,uint256,bytes)": {
        "details": "Caller must be approved to manage the tokens being transferred out of the `_from` account (see \"Approval\" section of the standard). MUST revert if `_to` is the zero address. MUST revert if balance of holder for token `_id` is lower than the `_value` sent. MUST revert on any other error. MUST emit the `TransferSingle` event to reflect the balance change (see \"Safe Transfer Rules\" section of the standard). After the above conditions are met, this function MUST check if `_to` is a smart contract (e.g. code size > 0). If so, it MUST call `onERC1155Received` on `_to` and act appropriately (see \"Safe Transfer Rules\" section of the standard).",
        "params": {
          "_data": "Additional data with no specified format, MUST be sent unaltered in call to `onERC1155Received` on `_to`",
          "_from": "Source address",
          "_id": "ID of the token type",
          "_to": "Target address",
          "_value": "Transfer amount"
        }
      },
      "supportsInterface(bytes4)": {
        "details": "Interface identification is specified in ERC-165. This function uses less than 30,000 gas.",
        "params": {
          "_interfaceId": "The interface identifier, as specified in ERC-165"
        }
      }
    },
    "version": 1
  },
  "userdoc": {
    "kind": "user",
    "methods": {
      "balanceOf(address,uint256)": {
        "notice": "Get the balance of an account's Tokens."
      },
      "balanceOfBatch(address[],uint256[])": {
        "notice": "Get the balance of multiple account/token pairs"
      },
      "safeBatchTransferFrom(address,address,uint256[],uint256[],bytes)": {
        "notice": "Transfers `_values` amount(s) of `_ids` from the `_from` address to the `_to` address specified (with safety call)."
      },
      "safeTransferFrom(address,address,uint256,uint256,bytes)": {
        "notice": "Transfers `_value` amount of an `_id` from the `_from` address to the `_to` address specified (with safety call)."
      },
      "supportsInterface(bytes4)": {
        "notice": "Query if a contract implements an interface"
      }
    },
    "version": 1
  },
  "storageLayout": {
    "storage": [
      {
        "astId": 11274,
        "contract": "contracts/Carbon.sol:Carbon",
        "label": "balances",
        "offset": 0,
        "slot": "0",
        "type": "t_mapping(t_uint256,t_mapping(t_address,t_uint256))"
      },
      {
        "astId": 11282,
        "contract": "contracts/Carbon.sol:Carbon",
        "label": "allowanceImpl",
        "offset": 0,
        "slot": "1",
        "type": "t_mapping(t_uint256,t_mapping(t_address,t_mapping(t_address,t_uint256)))"
      },
      {
        "astId": 14038,
        "contract": "contracts/Carbon.sol:Carbon",
        "label": "maxTokenId",
        "offset": 0,
        "slot": "2",
        "type": "t_uint256"
      },
      {
        "astId": 14042,
        "contract": "contracts/Carbon.sol:Carbon",
        "label": "tokenOwners",
        "offset": 0,
        "slot": "3",
        "type": "t_mapping(t_uint256,t_address)"
      },
      {
        "astId": 14046,
        "contract": "contracts/Carbon.sol:Carbon",
        "label": "tokenFlow",
        "offset": 0,
        "slot": "4",
        "type": "t_mapping(t_uint256,t_struct(TokenFlow)14036_storage)"
      },
      {
        "astId": 14050,
        "contract": "contracts/Carbon.sol:Carbon",
        "label": "totalSupplyImpl",
        "offset": 0,
        "slot": "5",
        "type": "t_mapping(t_uint256,t_uint256)"
      },
      {
        "astId": 14054,
        "contract": "contracts/Carbon.sol:Carbon",
        "label": "nameImpl",
        "offset": 0,
        "slot": "6",
        "type": "t_mapping(t_uint256,t_string_storage)"
      },
      {
        "astId": 14058,
        "contract": "contracts/Carbon.sol:Carbon",
        "label": "symbolImpl",
        "offset": 0,
        "slot": "7",
        "type": "t_mapping(t_uint256,t_string_storage)"
      },
      {
        "astId": 14062,
        "contract": "contracts/Carbon.sol:Carbon",
        "label": "uriImpl",
        "offset": 0,
        "slot": "8",
        "type": "t_mapping(t_uint256,t_string_storage)"
      },
      {
        "astId": 10771,
        "contract": "contracts/Carbon.sol:Carbon",
        "label": "globalCommunityFund",
        "offset": 0,
        "slot": "9",
        "type": "t_address"
      },
      {
        "astId": 10780,
        "contract": "contracts/Carbon.sol:Carbon",
        "label": "tax",
        "offset": 0,
        "slot": "10",
        "type": "t_int128"
      },
      {
        "astId": 10963,
        "contract": "contracts/Carbon.sol:Carbon",
        "label": "authorities",
        "offset": 0,
        "slot": "11",
        "type": "t_mapping(t_uint256,t_struct(Authority)10948_storage)"
      },
      {
        "astId": 10967,
        "contract": "contracts/Carbon.sol:Carbon",
        "label": "credits",
        "offset": 0,
        "slot": "12",
        "type": "t_mapping(t_uint256,t_struct(CarbonCredit)10959_storage)"
      },
      {
        "astId": 10969,
        "contract": "contracts/Carbon.sol:Carbon",
        "label": "maxCreditId",
        "offset": 0,
        "slot": "13",
        "type": "t_uint256"
      }
    ],
    "types": {
      "t_address": {
        "encoding": "inplace",
        "label": "address",
        "numberOfBytes": "20"
      },
      "t_bool": {
        "encoding": "inplace",
        "label": "bool",
        "numberOfBytes": "1"
      },
      "t_bytes32": {
        "encoding": "inplace",
        "label": "bytes32",
        "numberOfBytes": "32"
      },
      "t_int128": {
        "encoding": "inplace",
        "label": "int128",
        "numberOfBytes": "16"
      },
      "t_int256": {
        "encoding": "inplace",
        "label": "int256",
        "numberOfBytes": "32"
      },
      "t_mapping(t_address,t_mapping(t_address,t_uint256))": {
        "encoding": "mapping",
        "key": "t_address",
        "label": "mapping(address => mapping(address => uint256))",
        "numberOfBytes": "32",
        "value": "t_mapping(t_address,t_uint256)"
      },
      "t_mapping(t_address,t_uint256)": {
        "encoding": "mapping",
        "key": "t_address",
        "label": "mapping(address => uint256)",
        "numberOfBytes": "32",
        "value": "t_uint256"
      },
      "t_mapping(t_uint256,t_address)": {
        "encoding": "mapping",
        "key": "t_uint256",
        "label": "mapping(uint256 => address)",
        "numberOfBytes": "32",
        "value": "t_address"
      },
      "t_mapping(t_uint256,t_mapping(t_address,t_mapping(t_address,t_uint256)))": {
        "encoding": "mapping",
        "key": "t_uint256",
        "label": "mapping(uint256 => mapping(address => mapping(address => uint256)))",
        "numberOfBytes": "32",
        "value": "t_mapping(t_address,t_mapping(t_address,t_uint256))"
      },
      "t_mapping(t_uint256,t_mapping(t_address,t_uint256))": {
        "encoding": "mapping",
        "key": "t_uint256",
        "label": "mapping(uint256 => mapping(address => uint256))",
        "numberOfBytes": "32",
        "value": "t_mapping(t_address,t_uint256)"
      },
      "t_mapping(t_uint256,t_string_storage)": {
        "encoding": "mapping",
        "key": "t_uint256",
        "label": "mapping(uint256 => string)",
        "numberOfBytes": "32",
        "value": "t_string_storage"
      },
      "t_mapping(t_uint256,t_struct(Authority)10948_storage)": {
        "encoding": "mapping",
        "key": "t_uint256",
        "label": "mapping(uint256 => struct Carbon.Authority)",
        "numberOfBytes": "32",
        "value": "t_struct(Authority)10948_storage"
      },
      "t_mapping(t_uint256,t_struct(CarbonCredit)10959_storage)": {
        "encoding": "mapping",
        "key": "t_uint256",
        "label": "mapping(uint256 => struct Carbon.CarbonCredit)",
        "numberOfBytes": "32",
        "value": "t_struct(CarbonCredit)10959_storage"
      },
      "t_mapping(t_uint256,t_struct(TokenFlow)14036_storage)": {
        "encoding": "mapping",
        "key": "t_uint256",
        "label": "mapping(uint256 => struct TokensFlow.TokenFlow)",
        "numberOfBytes": "32",
        "value": "t_struct(TokenFlow)14036_storage"
      },
      "t_mapping(t_uint256,t_uint256)": {
        "encoding": "mapping",
        "key": "t_uint256",
        "label": "mapping(uint256 => uint256)",
        "numberOfBytes": "32",
        "value": "t_uint256"
      },
      "t_string_storage": {
        "encoding": "bytes",
        "label": "string",
        "numberOfBytes": "32"
      },
      "t_struct(Authority)10948_storage": {
        "encoding": "inplace",
        "label": "struct Carbon.Authority",
        "members": [
          {
            "astId": 10945,
            "contract": "contracts/Carbon.sol:Carbon",
            "label": "token",
            "offset": 0,
            "slot": "0",
            "type": "t_uint256"
          },
          {
            "astId": 10947,
            "contract": "contracts/Carbon.sol:Carbon",
            "label": "maxSerial",
            "offset": 0,
            "slot": "1",
            "type": "t_uint256"
          }
        ],
        "numberOfBytes": "64"
      },
      "t_struct(CarbonCredit)10959_storage": {
        "encoding": "inplace",
        "label": "struct Carbon.CarbonCredit",
        "members": [
          {
            "astId": 10950,
            "contract": "contracts/Carbon.sol:Carbon",
            "label": "authority",
            "offset": 0,
            "slot": "0",
            "type": "t_address"
          },
          {
            "astId": 10952,
            "contract": "contracts/Carbon.sol:Carbon",
            "label": "serial",
            "offset": 0,
            "slot": "1",
            "type": "t_uint256"
          },
          {
            "astId": 10954,
            "contract": "contracts/Carbon.sol:Carbon",
            "label": "amount",
            "offset": 0,
            "slot": "2",
            "type": "t_uint256"
          },
          {
            "astId": 10956,
            "contract": "contracts/Carbon.sol:Carbon",
            "label": "owner",
            "offset": 0,
            "slot": "3",
            "type": "t_address"
          },
          {
            "astId": 10958,
            "contract": "contracts/Carbon.sol:Carbon",
            "label": "arweaveHash",
            "offset": 0,
            "slot": "4",
            "type": "t_bytes32"
          }
        ],
        "numberOfBytes": "160"
      },
      "t_struct(TokenFlow)14036_storage": {
        "encoding": "inplace",
        "label": "struct TokensFlow.TokenFlow",
        "members": [
          {
            "astId": 14023,
            "contract": "contracts/Carbon.sol:Carbon",
            "label": "parentToken",
            "offset": 0,
            "slot": "0",
            "type": "t_uint256"
          },
          {
            "astId": 14025,
            "contract": "contracts/Carbon.sol:Carbon",
            "label": "maxSwapCredit",
            "offset": 0,
            "slot": "1",
            "type": "t_int256"
          },
          {
            "astId": 14027,
            "contract": "contracts/Carbon.sol:Carbon",
            "label": "swapCreditPeriod",
            "offset": 0,
            "slot": "2",
            "type": "t_int256"
          },
          {
            "astId": 14029,
            "contract": "contracts/Carbon.sol:Carbon",
            "label": "timeEnteredSwapCredit",
            "offset": 0,
            "slot": "3",
            "type": "t_int256"
          },
          {
            "astId": 14031,
            "contract": "contracts/Carbon.sol:Carbon",
            "label": "lastSwapTime",
            "offset": 0,
            "slot": "4",
            "type": "t_int256"
          },
          {
            "astId": 14033,
            "contract": "contracts/Carbon.sol:Carbon",
            "label": "remainingSwapCredit",
            "offset": 0,
            "slot": "5",
            "type": "t_int256"
          },
          {
            "astId": 14035,
            "contract": "contracts/Carbon.sol:Carbon",
            "label": "enabled",
            "offset": 0,
            "slot": "6",
            "type": "t_bool"
          }
        ],
        "numberOfBytes": "224"
      },
      "t_uint256": {
        "encoding": "inplace",
        "label": "uint256",
        "numberOfBytes": "32"
      }
    }
  },
  "gasEstimates": {
    "creation": {
      "codeDepositCost": "2342400",
      "executionCost": "infinite",
      "totalCost": "infinite"
    },
    "external": {
      "_doBurn(address,uint256,uint256)": "45026",
      "_doMint(address,uint256,uint256,bytes)": "infinite",
      "_inSwapCredit((uint256,int256,int256,int256,int256,int256,bool),int256)": "864",
      "_maxSwapAmount((uint256,int256,int256,int256,int256,int256,bool),int256,bool)": "infinite",
      "allowance(uint256,address,address)": "infinite",
      "approve(address,uint256,uint256,uint256)": "21775",
      "authorities(uint256)": "2071",
      "balanceOf(address,uint256)": "1437",
      "balanceOfBatch(address[],uint256[])": "infinite",
      "batchApprove(address,uint256[],uint256[],uint256[])": "infinite",
      "createAuthority(uint256,string,string,string)": "infinite",
      "createCredit(uint256,uint256,address,bytes32)": "infinite",
      "credits(uint256)": "4706",
      "decimals(uint256)": "453",
      "exchangeToParent(uint256,uint256,uint256,bytes)": "infinite",
      "globalCommunityFund()": "1137",
      "maxTokenId()": "1140",
      "name(uint256)": "infinite",
      "nameImpl(uint256)": "infinite",
      "newToken(uint256,string,string,string)": "infinite",
      "retireCredit(uint256)": "infinite",
      "safeBatchTransferFrom(address,address,uint256[],uint256[],bytes)": "infinite",
      "safeTransferFrom(address,address,uint256,uint256,bytes)": "infinite",
      "setEnabled(uint256[],bool)": "infinite",
      "setGlobalCommunityFundAddress(address)": "22157",
      "setTax(int128)": "22173",
      "setTokenFlow(uint256,int256,int256,int256,int256)": "82190",
      "setTokenParent(uint256,uint256)": "68273",
      "setTokenUri(uint256,string)": "infinite",
      "supportsInterface(bytes4)": "609",
      "symbol(uint256)": "infinite",
      "symbolImpl(uint256)": "infinite",
      "tax()": "1184",
      "tokenFlow(uint256)": "6282",
      "tokenOwners(uint256)": "1301",
      "totalSupply(uint256)": "1282",
      "totalSupplyImpl(uint256)": "1260",
      "uri(uint256)": "infinite",
      "uriImpl(uint256)": "infinite"
    },
    "internal": {
      "_setTokenParent(uint256,uint256)": "infinite"
    }
  }
}