{
  "_format": "hh-sol-artifact-1",
  "contractName": "BaseCarbon",
  "sourceName": "contracts/BaseCarbon.sol",
  "abi": [
    {
      "inputs": [],
      "stateMutability": "nonpayable",
      "type": "constructor"
    },
    {
      "anonymous": false,
      "inputs": [
        {
          "indexed": true,
          "internalType": "address",
          "name": "_owner",
          "type": "address"
        },
        {
          "indexed": true,
          "internalType": "address",
          "name": "_operator",
          "type": "address"
        },
        {
          "indexed": false,
          "internalType": "bool",
          "name": "_approved",
          "type": "bool"
        }
      ],
      "name": "ApprovalForAll",
      "type": "event"
    },
    {
      "anonymous": false,
      "inputs": [
        {
          "indexed": true,
          "internalType": "uint256",
          "name": "id",
          "type": "uint256"
        },
        {
          "indexed": true,
          "internalType": "address",
          "name": "owner",
          "type": "address"
        },
        {
          "indexed": false,
          "internalType": "string",
          "name": "uri",
          "type": "string"
        }
      ],
      "name": "NewToken",
      "type": "event"
    },
    {
      "anonymous": false,
      "inputs": [
        {
          "indexed": true,
          "internalType": "address",
          "name": "_operator",
          "type": "address"
        },
        {
          "indexed": true,
          "internalType": "address",
          "name": "_from",
          "type": "address"
        },
        {
          "indexed": true,
          "internalType": "address",
          "name": "_to",
          "type": "address"
        },
        {
          "indexed": false,
          "internalType": "uint256[]",
          "name": "_ids",
          "type": "uint256[]"
        },
        {
          "indexed": false,
          "internalType": "uint256[]",
          "name": "_values",
          "type": "uint256[]"
        }
      ],
      "name": "TransferBatch",
      "type": "event"
    },
    {
      "anonymous": false,
      "inputs": [
        {
          "indexed": true,
          "internalType": "address",
          "name": "_operator",
          "type": "address"
        },
        {
          "indexed": true,
          "internalType": "address",
          "name": "_from",
          "type": "address"
        },
        {
          "indexed": true,
          "internalType": "address",
          "name": "_to",
          "type": "address"
        },
        {
          "indexed": false,
          "internalType": "uint256",
          "name": "_id",
          "type": "uint256"
        },
        {
          "indexed": false,
          "internalType": "uint256",
          "name": "_value",
          "type": "uint256"
        }
      ],
      "name": "TransferSingle",
      "type": "event"
    },
    {
      "anonymous": false,
      "inputs": [
        {
          "indexed": false,
          "internalType": "string",
          "name": "_value",
          "type": "string"
        },
        {
          "indexed": true,
          "internalType": "uint256",
          "name": "_id",
          "type": "uint256"
        }
      ],
      "name": "URI",
      "type": "event"
    },
    {
      "inputs": [
        {
          "internalType": "address",
          "name": "_from",
          "type": "address"
        },
        {
          "internalType": "uint256",
          "name": "_id",
          "type": "uint256"
        },
        {
          "internalType": "uint256",
          "name": "_value",
          "type": "uint256"
        }
      ],
      "name": "_doBurn",
      "outputs": [],
      "stateMutability": "nonpayable",
      "type": "function"
    },
    {
      "inputs": [
        {
          "internalType": "address",
          "name": "_to",
          "type": "address"
        },
        {
          "internalType": "uint256",
          "name": "_id",
          "type": "uint256"
        },
        {
          "internalType": "uint256",
          "name": "_value",
          "type": "uint256"
        },
        {
          "internalType": "bytes",
          "name": "_data",
          "type": "bytes"
        }
      ],
      "name": "_doMint",
      "outputs": [],
      "stateMutability": "nonpayable",
      "type": "function"
    },
    {
      "inputs": [
        {
          "components": [
            {
              "components": [
                {
                  "internalType": "bool",
                  "name": "recurring",
                  "type": "bool"
                },
                {
                  "internalType": "int256",
                  "name": "initialSwapCredit",
                  "type": "int256"
                },
                {
                  "internalType": "int256",
                  "name": "maxSwapCredit",
                  "type": "int256"
                },
                {
                  "internalType": "int256",
                  "name": "swapCreditPeriod",
                  "type": "int256"
                },
                {
                  "internalType": "int256",
                  "name": "firstTimeEnteredSwapCredit",
                  "type": "int256"
                }
              ],
              "internalType": "struct TokensFlow.SwapLimit",
              "name": "limit",
              "type": "tuple"
            },
            {
              "internalType": "int256",
              "name": "remainingSwapCredit",
              "type": "int256"
            },
            {
              "internalType": "int256",
              "name": "timeEnteredSwapCredit",
              "type": "int256"
            },
            {
              "internalType": "int256",
              "name": "lastSwapTime",
              "type": "int256"
            },
            {
              "internalType": "bool",
              "name": "disabled",
              "type": "bool"
            }
          ],
          "internalType": "struct TokensFlow.TokenFlow",
          "name": "_flow",
          "type": "tuple"
        },
        {
          "internalType": "int256",
          "name": "_currentTimeResult",
          "type": "int256"
        }
      ],
      "name": "_inSwapCredit",
      "outputs": [
        {
          "internalType": "bool",
          "name": "",
          "type": "bool"
        }
      ],
      "stateMutability": "pure",
      "type": "function"
    },
    {
      "inputs": [
        {
          "components": [
            {
              "components": [
                {
                  "internalType": "bool",
                  "name": "recurring",
                  "type": "bool"
                },
                {
                  "internalType": "int256",
                  "name": "initialSwapCredit",
                  "type": "int256"
                },
                {
                  "internalType": "int256",
                  "name": "maxSwapCredit",
                  "type": "int256"
                },
                {
                  "internalType": "int256",
                  "name": "swapCreditPeriod",
                  "type": "int256"
                },
                {
                  "internalType": "int256",
                  "name": "firstTimeEnteredSwapCredit",
                  "type": "int256"
                }
              ],
              "internalType": "struct TokensFlow.SwapLimit",
              "name": "limit",
              "type": "tuple"
            },
            {
              "internalType": "int256",
              "name": "remainingSwapCredit",
              "type": "int256"
            },
            {
              "internalType": "int256",
              "name": "timeEnteredSwapCredit",
              "type": "int256"
            },
            {
              "internalType": "int256",
              "name": "lastSwapTime",
              "type": "int256"
            },
            {
              "internalType": "bool",
              "name": "disabled",
              "type": "bool"
            }
          ],
          "internalType": "struct TokensFlow.TokenFlow",
          "name": "_flow",
          "type": "tuple"
        },
        {
          "internalType": "int256",
          "name": "_currentTimeResult",
          "type": "int256"
        },
        {
          "internalType": "bool",
          "name": "_inSwapCreditResult",
          "type": "bool"
        }
      ],
      "name": "_maxRecurringSwapAmount",
      "outputs": [
        {
          "internalType": "uint256",
          "name": "",
          "type": "uint256"
        }
      ],
      "stateMutability": "pure",
      "type": "function"
    },
    {
      "inputs": [
        {
          "internalType": "address",
          "name": "_owner",
          "type": "address"
        },
        {
          "internalType": "uint256",
          "name": "_id",
          "type": "uint256"
        }
      ],
      "name": "balanceOf",
      "outputs": [
        {
          "internalType": "uint256",
          "name": "",
          "type": "uint256"
        }
      ],
      "stateMutability": "view",
      "type": "function"
    },
    {
      "inputs": [
        {
          "internalType": "address[]",
          "name": "_owners",
          "type": "address[]"
        },
        {
          "internalType": "uint256[]",
          "name": "_ids",
          "type": "uint256[]"
        }
      ],
      "name": "balanceOfBatch",
      "outputs": [
        {
          "internalType": "uint256[]",
          "name": "",
          "type": "uint256[]"
        }
      ],
      "stateMutability": "view",
      "type": "function"
    },
    {
      "inputs": [
        {
          "internalType": "address",
          "name": "_from",
          "type": "address"
        },
        {
          "internalType": "uint256",
          "name": "_id",
          "type": "uint256"
        },
        {
          "internalType": "uint256",
          "name": "_value",
          "type": "uint256"
        }
      ],
      "name": "burn",
      "outputs": [],
      "stateMutability": "nonpayable",
      "type": "function"
    },
    {
      "inputs": [
        {
          "internalType": "uint256",
          "name": "_child",
          "type": "uint256"
        },
        {
          "internalType": "uint256",
          "name": "_parent",
          "type": "uint256"
        }
      ],
      "name": "coeffient",
      "outputs": [
        {
          "internalType": "int128",
          "name": "",
          "type": "int128"
        }
      ],
      "stateMutability": "view",
      "type": "function"
    },
    {
      "inputs": [
        {
          "internalType": "uint256[]",
          "name": "_ids",
          "type": "uint256[]"
        },
        {
          "internalType": "uint256",
          "name": "_amount",
          "type": "uint256"
        },
        {
          "internalType": "address",
          "name": "_from",
          "type": "address"
        },
        {
          "internalType": "bytes",
          "name": "_data",
          "type": "bytes"
        }
      ],
      "name": "exchangeToAncestor",
      "outputs": [],
      "stateMutability": "nonpayable",
      "type": "function"
    },
    {
      "inputs": [
        {
          "internalType": "address",
          "name": "_owner",
          "type": "address"
        },
        {
          "internalType": "address",
          "name": "_operator",
          "type": "address"
        }
      ],
      "name": "isApprovedForAll",
      "outputs": [
        {
          "internalType": "bool",
          "name": "",
          "type": "bool"
        }
      ],
      "stateMutability": "view",
      "type": "function"
    },
    {
      "inputs": [
        {
          "internalType": "uint256",
          "name": "_child",
          "type": "uint256"
        },
        {
          "internalType": "uint256",
          "name": "_parent",
          "type": "uint256"
        }
      ],
      "name": "isChild",
      "outputs": [
        {
          "internalType": "bool",
          "name": "",
          "type": "bool"
        }
      ],
      "stateMutability": "view",
      "type": "function"
    },
    {
      "inputs": [],
      "name": "nextTokenId",
      "outputs": [
        {
          "internalType": "uint256",
          "name": "",
          "type": "uint256"
        }
      ],
      "stateMutability": "view",
      "type": "function"
    },
    {
      "inputs": [
        {
          "internalType": "uint256",
          "name": "_id",
          "type": "uint256"
        }
      ],
      "name": "removeTokenOwner",
      "outputs": [],
      "stateMutability": "nonpayable",
      "type": "function"
    },
    {
      "inputs": [
        {
          "internalType": "uint256",
          "name": "_nonRetiredToken",
          "type": "uint256"
        },
        {
          "internalType": "uint256",
          "name": "_amount",
          "type": "uint256"
        }
      ],
      "name": "retireCredit",
      "outputs": [],
      "stateMutability": "nonpayable",
      "type": "function"
    },
    {
      "inputs": [
        {
          "internalType": "address",
          "name": "_from",
          "type": "address"
        },
        {
          "internalType": "address",
          "name": "_to",
          "type": "address"
        },
        {
          "internalType": "uint256[]",
          "name": "_ids",
          "type": "uint256[]"
        },
        {
          "internalType": "uint256[]",
          "name": "_values",
          "type": "uint256[]"
        },
        {
          "internalType": "bytes",
          "name": "_data",
          "type": "bytes"
        }
      ],
      "name": "safeBatchTransferFrom",
      "outputs": [],
      "stateMutability": "nonpayable",
      "type": "function"
    },
    {
      "inputs": [
        {
          "internalType": "address",
          "name": "_from",
          "type": "address"
        },
        {
          "internalType": "address",
          "name": "_to",
          "type": "address"
        },
        {
          "internalType": "uint256",
          "name": "_id",
          "type": "uint256"
        },
        {
          "internalType": "uint256",
          "name": "_value",
          "type": "uint256"
        },
        {
          "internalType": "bytes",
          "name": "_data",
          "type": "bytes"
        }
      ],
      "name": "safeTransferFrom",
      "outputs": [],
      "stateMutability": "nonpayable",
      "type": "function"
    },
    {
      "inputs": [
        {
          "internalType": "address",
          "name": "_operator",
          "type": "address"
        },
        {
          "internalType": "bool",
          "name": "_approved",
          "type": "bool"
        }
      ],
      "name": "setApprovalForAll",
      "outputs": [],
      "stateMutability": "nonpayable",
      "type": "function"
    },
    {
      "inputs": [
        {
          "internalType": "uint256",
          "name": "_child",
          "type": "uint256"
        },
        {
          "internalType": "uint256",
          "name": "_parent",
          "type": "uint256"
        },
        {
          "internalType": "int128",
          "name": "_coefficient",
          "type": "int128"
        }
      ],
      "name": "setCoefficient",
      "outputs": [],
      "stateMutability": "nonpayable",
      "type": "function"
    },
    {
      "inputs": [
        {
          "internalType": "uint256[]",
          "name": "_childs",
          "type": "uint256[]"
        },
        {
          "internalType": "bool",
          "name": "_disabled",
          "type": "bool"
        }
      ],
      "name": "setDisabled",
      "outputs": [],
      "stateMutability": "nonpayable",
      "type": "function"
    },
    {
      "inputs": [
        {
          "internalType": "uint256",
          "name": "_child",
          "type": "uint256"
        },
        {
          "internalType": "uint256",
          "name": "_parent",
          "type": "uint256"
        },
        {
          "internalType": "int256",
          "name": "_remainingSwapCredit",
          "type": "int256"
        },
        {
          "internalType": "bytes32",
          "name": "oldLimitHash",
          "type": "bytes32"
        }
      ],
      "name": "setNonRecurringFlow",
      "outputs": [],
      "stateMutability": "nonpayable",
      "type": "function"
    },
    {
      "inputs": [
        {
          "internalType": "uint256",
          "name": "_child",
          "type": "uint256"
        },
        {
          "internalType": "uint256",
          "name": "_parent",
          "type": "uint256"
        },
        {
          "internalType": "int256",
          "name": "_maxSwapCredit",
          "type": "int256"
        },
        {
          "internalType": "int256",
          "name": "_remainingSwapCredit",
          "type": "int256"
        },
        {
          "internalType": "int256",
          "name": "_swapCreditPeriod",
          "type": "int256"
        },
        {
          "internalType": "int256",
          "name": "_timeEnteredSwapCredit",
          "type": "int256"
        },
        {
          "internalType": "bytes32",
          "name": "oldLimitHash",
          "type": "bytes32"
        }
      ],
      "name": "setRecurringFlow",
      "outputs": [],
      "stateMutability": "nonpayable",
      "type": "function"
    },
    {
      "inputs": [
        {
          "internalType": "uint256",
          "name": "_nonRetiredToken",
          "type": "uint256"
        },
        {
          "internalType": "int128",
          "name": "_tax",
          "type": "int128"
        }
      ],
      "name": "setTax",
      "outputs": [],
      "stateMutability": "nonpayable",
      "type": "function"
    },
    {
      "inputs": [
        {
          "internalType": "uint256",
          "name": "_id",
          "type": "uint256"
        },
        {
          "internalType": "address",
          "name": "_newOwner",
          "type": "address"
        }
      ],
      "name": "setTokenOwner",
      "outputs": [],
      "stateMutability": "nonpayable",
      "type": "function"
    },
    {
      "inputs": [
        {
          "internalType": "uint256",
          "name": "_child",
          "type": "uint256"
        },
        {
          "internalType": "uint256",
          "name": "_parent",
          "type": "uint256"
        },
        {
          "internalType": "bool",
          "name": "_value",
          "type": "bool"
        }
      ],
      "name": "setTokenParent",
      "outputs": [],
      "stateMutability": "nonpayable",
      "type": "function"
    },
    {
      "inputs": [
        {
          "internalType": "uint256",
          "name": "_id",
          "type": "uint256"
        },
        {
          "internalType": "string",
          "name": "_uri",
          "type": "string"
        }
      ],
      "name": "setTokenUri",
      "outputs": [],
      "stateMutability": "nonpayable",
      "type": "function"
    },
    {
      "inputs": [
        {
          "internalType": "bytes4",
          "name": "_interfaceId",
          "type": "bytes4"
        }
      ],
      "name": "supportsInterface",
      "outputs": [
        {
          "internalType": "bool",
          "name": "",
          "type": "bool"
        }
      ],
      "stateMutability": "pure",
      "type": "function"
    },
    {
      "inputs": [
        {
          "internalType": "uint256",
          "name": "",
          "type": "uint256"
        }
      ],
      "name": "taxes",
      "outputs": [
        {
          "internalType": "int128",
          "name": "",
          "type": "int128"
        }
      ],
      "stateMutability": "view",
      "type": "function"
    },
    {
      "inputs": [
        {
          "internalType": "uint256",
          "name": "_child",
          "type": "uint256"
        },
        {
          "internalType": "uint256",
          "name": "_parent",
          "type": "uint256"
        }
      ],
      "name": "tokenFlow",
      "outputs": [
        {
          "components": [
            {
              "components": [
                {
                  "internalType": "bool",
                  "name": "recurring",
                  "type": "bool"
                },
                {
                  "internalType": "int256",
                  "name": "initialSwapCredit",
                  "type": "int256"
                },
                {
                  "internalType": "int256",
                  "name": "maxSwapCredit",
                  "type": "int256"
                },
                {
                  "internalType": "int256",
                  "name": "swapCreditPeriod",
                  "type": "int256"
                },
                {
                  "internalType": "int256",
                  "name": "firstTimeEnteredSwapCredit",
                  "type": "int256"
                }
              ],
              "internalType": "struct TokensFlow.SwapLimit",
              "name": "limit",
              "type": "tuple"
            },
            {
              "internalType": "int256",
              "name": "remainingSwapCredit",
              "type": "int256"
            },
            {
              "internalType": "int256",
              "name": "timeEnteredSwapCredit",
              "type": "int256"
            },
            {
              "internalType": "int256",
              "name": "lastSwapTime",
              "type": "int256"
            },
            {
              "internalType": "bool",
              "name": "disabled",
              "type": "bool"
            }
          ],
          "internalType": "struct TokensFlow.TokenFlow",
          "name": "",
          "type": "tuple"
        }
      ],
      "stateMutability": "view",
      "type": "function"
    },
    {
      "inputs": [
        {
          "internalType": "uint256",
          "name": "",
          "type": "uint256"
        }
      ],
      "name": "tokenOwners",
      "outputs": [
        {
          "internalType": "address",
          "name": "",
          "type": "address"
        }
      ],
      "stateMutability": "view",
      "type": "function"
    },
    {
      "inputs": [
        {
          "internalType": "uint256",
          "name": "_id",
          "type": "uint256"
        }
      ],
      "name": "totalSupply",
      "outputs": [
        {
          "internalType": "uint256",
          "name": "",
          "type": "uint256"
        }
      ],
      "stateMutability": "view",
      "type": "function"
    },
    {
      "inputs": [
        {
          "internalType": "uint256",
          "name": "_id",
          "type": "uint256"
        }
      ],
      "name": "uri",
      "outputs": [
        {
          "internalType": "string",
          "name": "",
          "type": "string"
        }
      ],
      "stateMutability": "view",
      "type": "function"
    }
  ],
  "bytecode": "0x608060405234801561001057600080fd5b5061465b806100206000396000f3fe608060405234801561001057600080fd5b50600436106101e45760003560e01c8063a22cb4651161010f578063e985e9c5116100a2578063f5298aca11610071578063f5298aca146105cf578063f8a14f46146105eb578063f98e990f1461061b578063fbd1342d14610637576101e4565b8063e985e9c51461054b578063ecf95bc91461057b578063f104eb9514610597578063f242432a146105b3576101e4565b8063c5be2bc7116100de578063c5be2bc71461049f578063de3d7f8a146104cf578063e0511b31146104ff578063e0a82ab41461052f576101e4565b8063a22cb4651461041b578063b7fdf31414610437578063bd85b03914610453578063c11abbd914610483576101e4565b80632eb2c2d611610187578063728dc99211610156578063728dc9921461039557806375794a3c146103c55780637c65cd03146103e3578063946c0c0f146103ff576101e4565b80632eb2c2d614610311578063489b5d421461032d5780634e1273f41461034957806357f7789e14610379576101e4565b806309aca943116101c357806309aca943146102795780630a074d3e146102a95780630e89341c146102c557806323eac4bd146102f5576101e4565b8062fdd58e146101e957806301ffc9a714610219578063061af13514610249575b600080fd5b61020360048036038101906101fe9190613597565b610653565b6040516102109190614349565b60405180910390f35b610233600480360381019061022e9190613805565b6106ad565b6040516102409190614215565b60405180910390f35b610263600480360381019061025e91906139e0565b61075e565b6040516102709190614215565b60405180910390f35b610293600480360381019061028e9190613857565b61079a565b6040516102a09190614215565b60405180910390f35b6102c360048036038101906102be91906135d3565b6107c5565b005b6102df60048036038101906102da91906138e7565b61091f565b6040516102ec919061424b565b60405180910390f35b61030f600480360381019061030a9190613910565b6109d4565b005b61032b600480360381019061032691906133fd565b610acf565b005b61034760048036038101906103429190613622565b610ae9565b005b610363600480360381019061035e919061369d565b610cb5565b60405161037091906141f3565b60405180910390f35b610393600480360381019061038e9190613988565b610dd7565b005b6103af60048036038101906103aa91906139e0565b610e6a565b6040516103bc9190614230565b60405180910390f35b6103cd610ea6565b6040516103da9190614349565b60405180910390f35b6103fd60048036038101906103f8919061376a565b610eac565b005b610419600480360381019061041491906138e7565b6113bb565b005b6104356004803603810190610430919061355b565b61147c565b005b610451600480360381019061044c9190613b1d565b611579565b005b61046d600480360381019061046891906138e7565b6116ea565b60405161047a9190614349565b60405180910390f35b61049d600480360381019061049891906139e0565b611707565b005b6104b960048036038101906104b491906138e7565b6117da565b6040516104c69190614230565b60405180910390f35b6104e960048036038101906104e49190613895565b6117fa565b6040516104f69190614349565b60405180910390f35b610519600480360381019061051491906139e0565b611865565b604051610526919061432d565b60405180910390f35b61054960048036038101906105449190613a1c565b611934565b005b610565600480360381019061056091906133c1565b6119af565b6040516105729190614215565b60405180910390f35b61059560048036038101906105909190613a6b565b611a43565b005b6105b160048036038101906105ac919061394c565b611b11565b005b6105cd60048036038101906105c891906134c9565b611c0f565b005b6105e960048036038101906105e491906135d3565b611c25565b005b610605600480360381019061060091906138e7565b611e7e565b60405161061291906140db565b60405180910390f35b61063560048036038101906106309190613aba565b611eb1565b005b610651600480360381019061064c9190613712565b612018565b005b600080600083815260200190815260200160002060008473ffffffffffffffffffffffffffffffffffffffff1673ffffffffffffffffffffffffffffffffffffffff16815260200190815260200160002054905092915050565b60006301ffc9a760e01b7bffffffffffffffffffffffffffffffffffffffffffffffffffffffff1916827bffffffffffffffffffffffffffffffffffffffffffffffffffffffff19161480610746575063d9b67a2660e01b7bffffffffffffffffffffffffffffffffffffffffffffffffffffffff1916827bffffffffffffffffffffffffffffffffffffffffffffffffffffffff1916145b156107545760019050610759565b600090505b919050565b600060036000848152602001908152602001600020600083815260200190815260200160002060009054906101000a900460ff16905092915050565b6000808360400151141580156107bd575082600001516060015183604001518303125b905092915050565b6108278160008085815260200190815260200160002060008673ffffffffffffffffffffffffffffffffffffffff1673ffffffffffffffffffffffffffffffffffffffff1681526020019081526020016000205461218a90919063ffffffff16565b60008084815260200190815260200160002060008573ffffffffffffffffffffffffffffffffffffffff1673ffffffffffffffffffffffffffffffffffffffff16815260200190815260200160002081905550806007600084815260200190815260200160002060008282540392505081905550600073ffffffffffffffffffffffffffffffffffffffff168373ffffffffffffffffffffffffffffffffffffffff163373ffffffffffffffffffffffffffffffffffffffff167fc3d58168c5ae7397731d063d5bbf3d657854427343f4c083240f7aacaa2d0f628585604051610912929190614364565b60405180910390a4505050565b6060600860008381526020019081526020016000208054600181600116156101000203166002900480601f0160208091040260200160405190810160405280929190818152602001828054600181600116156101000203166002900480156109c85780601f1061099d576101008083540402835291602001916109c8565b820191906000526020600020905b8154815290600101906020018083116109ab57829003601f168201915b50505050509050919050565b6006600083815260200190815260200160002060009054906101000a900473ffffffffffffffffffffffffffffffffffffffff1673ffffffffffffffffffffffffffffffffffffffff163373ffffffffffffffffffffffffffffffffffffffff1614610a3f57600080fd5b600073ffffffffffffffffffffffffffffffffffffffff168173ffffffffffffffffffffffffffffffffffffffff161415610a7957600080fd5b806006600084815260200190815260200160002060006101000a81548173ffffffffffffffffffffffffffffffffffffffff021916908373ffffffffffffffffffffffffffffffffffffffff1602179055505050565b610adf88888888888888886121a1565b5050505050505050565b600073ffffffffffffffffffffffffffffffffffffffff168473ffffffffffffffffffffffffffffffffffffffff161415610b59576040517f08c379a0000000000000000000000000000000000000000000000000000000008152600401610b509061430d565b60405180910390fd5b60008214610bfc57610b8760076000858152602001908152602001600020548361269190919063ffffffff16565b60076000858152602001908152602001600020819055508160008085815260200190815260200160002060008673ffffffffffffffffffffffffffffffffffffffff1673ffffffffffffffffffffffffffffffffffffffff168152602001908152602001600020600082825401925050819055505b8373ffffffffffffffffffffffffffffffffffffffff16600073ffffffffffffffffffffffffffffffffffffffff163373ffffffffffffffffffffffffffffffffffffffff167fc3d58168c5ae7397731d063d5bbf3d657854427343f4c083240f7aacaa2d0f628686604051610c73929190614364565b60405180910390a4610c9a8473ffffffffffffffffffffffffffffffffffffffff166126a8565b15610caf57610cae336000868686866126bb565b5b50505050565b6060828290508585905014610cc957600080fd5b60608585905067ffffffffffffffff81118015610ce557600080fd5b50604051908082528060200260200182016040528015610d145781602001602082028036833780820191505090505b50905060005b86869050811015610dca57600080868684818110610d3457fe5b9050602002013581526020019081526020016000206000888884818110610d5757fe5b9050602002016020810190610d6c9190613398565b73ffffffffffffffffffffffffffffffffffffffff1673ffffffffffffffffffffffffffffffffffffffff16815260200190815260200160002054828281518110610db357fe5b602002602001018181525050806001019050610d1a565b5080915050949350505050565b6006600084815260200190815260200160002060009054906101000a900473ffffffffffffffffffffffffffffffffffffffff1673ffffffffffffffffffffffffffffffffffffffff163373ffffffffffffffffffffffffffffffffffffffff1614610e4257600080fd5b8181600860008681526020019081526020016000209190610e64929190612f5d565b50505050565b600060056000848152602001908152602001600020600083815260200190815260200160002060009054906101000a9004600f0b905092915050565b60025481565b3373ffffffffffffffffffffffffffffffffffffffff168373ffffffffffffffffffffffffffffffffffffffff161480610f6c5750600160003373ffffffffffffffffffffffffffffffffffffffff1673ffffffffffffffffffffffffffffffffffffffff16815260200190815260200160002060008473ffffffffffffffffffffffffffffffffffffffff1673ffffffffffffffffffffffffffffffffffffffff16815260200190815260200160002060009054906101000a900460ff165b610fab576040517f08c379a0000000000000000000000000000000000000000000000000000000008152600401610fa29061426d565b60405180910390fd5b6000868660018989905003818110610fbf57fe5b905060200201351415610fd157600080fd5b7001000000000000000000000000000000008410610fee57600080fd5b60008060008888600081811061100057fe5b90506020020135815260200190815260200160002060008573ffffffffffffffffffffffffffffffffffffffff1673ffffffffffffffffffffffffffffffffffffffff1681526020019081526020016000205490508085111561106257600080fd5b60008086905060005b60018a8a90500381146113295760008a8a8381811061108657fe5b90506020020135905060008b8b600185018181106110a057fe5b9050602002013590506110b382826127dc565b94508460080160009054906101000a900460ff16156110d157600080fd5b60006110db6128a6565b90506000808760000160000160009054906101000a900460ff161561124e5761119f886040518060a0016040529081600082016040518060a00160405290816000820160009054906101000a900460ff1615151515815260200160018201548152602001600282015481526020016003820154815260200160048201548152505081526020016005820154815260200160068201548152602001600782015481526020016008820160009054906101000a900460ff1615151515815250508461079a565b9050611247886040518060a0016040529081600082016040518060a00160405290816000820160009054906101000a900460ff1615151515815260200160018201548152602001600282015481526020016003820154815260200160048201548152505081526020016005820154815260200160068201548152602001600782015481526020016008820160009054906101000a900460ff16151515158152505084836117fa565b915061126a565b6000886005015412611264578760050154611267565b60005b91505b818d111561127757600080fd5b8760000160000160009054906101000a900460ff168015611296575080155b156112b557828860060181905550876000016002015488600501819055505b8288600701819055508c88600501600082825403925050819055506113178760056000888152602001908152602001600020600087815260200190815260200160002060009054906101000a9004600f0b600f0b6128ae90919063ffffffff16565b9650505050505080600101905061106b565b50611348868a8a600081811061133b57fe5b90506020020135896107c5565b6113b0868a8a60018d8d90500381811061135e57fe5b905060200201358388888080601f016020809104026020016040519081016040528093929190818152602001838380828437600081840152601f19601f82011690508083019250505050505050610ae9565b505050505050505050565b6006600082815260200190815260200160002060009054906101000a900473ffffffffffffffffffffffffffffffffffffffff1673ffffffffffffffffffffffffffffffffffffffff163373ffffffffffffffffffffffffffffffffffffffff161461142657600080fd5b60006006600083815260200190815260200160002060006101000a81548173ffffffffffffffffffffffffffffffffffffffff021916908373ffffffffffffffffffffffffffffffffffffffff16021790555050565b80600160003373ffffffffffffffffffffffffffffffffffffffff1673ffffffffffffffffffffffffffffffffffffffff16815260200190815260200160002060008473ffffffffffffffffffffffffffffffffffffffff1673ffffffffffffffffffffffffffffffffffffffff16815260200190815260200160002060006101000a81548160ff0219169083151502179055508173ffffffffffffffffffffffffffffffffffffffff163373ffffffffffffffffffffffffffffffffffffffff167f17307eab39ab6107e8899845ad3d59bd9653f200f220920489ca2b5937696c318360405161156d9190614215565b60405180910390a35050565b6006600087815260200190815260200160002060009054906101000a900473ffffffffffffffffffffffffffffffffffffffff1673ffffffffffffffffffffffffffffffffffffffff163373ffffffffffffffffffffffffffffffffffffffff16146115e457600080fd5b60006004600089815260200190815260200160002060008881526020019081526020016000209050611666816000016040518060a00160405290816000820160009054906101000a900460ff16151515158152602001600182015481526020016002820154815260200160038201548152602001600482015481525050612969565b821461167157600080fd5b61167f6001868887876129b5565b8160000160008201518160000160006101000a81548160ff021916908315150217905550602082015181600101556040820151816002015560608201518160030155608082015181600401559050508281600601819055508481600501819055505050505050505050565b600060076000838152602001908152602001600020549050919050565b8160016002828161171457fe5b061461171f57600080fd5b61172a3384846107c5565b6000611762836009600087815260200190815260200160002060009054906101000a9004600f0b600f0b6128ae90919063ffffffff16565b905060606040518060200160405280600081525090506000611783866129f1565b90506117c46006600083815260200190815260200160002060009054906101000a900473ffffffffffffffffffffffffffffffffffffffff16828585610ae9565b6117d2338285880385610ae9565b505050505050565b60096020528060005260406000206000915054906101000a9004600f0b81565b600080821561183e576000856060015185039050600086600001516060015182886000015160400151028161182b57fe5b059050808760200151039250505061184a565b84600001516040015190505b60008112611858578061185b565b60005b9150509392505050565b61186d612fdd565b6004600084815260200190815260200160002060008381526020019081526020016000206040518060a0016040529081600082016040518060a00160405290816000820160009054906101000a900460ff1615151515815260200160018201548152602001600282015481526020016003820154815260200160048201548152505081526020016005820154815260200160068201548152602001600782015481526020016008820160009054906101000a900460ff161515151581525050905092915050565b6006600084815260200190815260200160002060009054906101000a900473ffffffffffffffffffffffffffffffffffffffff1673ffffffffffffffffffffffffffffffffffffffff163373ffffffffffffffffffffffffffffffffffffffff161461199f57600080fd5b6119aa838383612a17565b505050565b6000600160008473ffffffffffffffffffffffffffffffffffffffff1673ffffffffffffffffffffffffffffffffffffffff16815260200190815260200160002060008373ffffffffffffffffffffffffffffffffffffffff1673ffffffffffffffffffffffffffffffffffffffff16815260200190815260200160002060009054906101000a900460ff16905092915050565b6006600083815260200190815260200160002060009054906101000a900473ffffffffffffffffffffffffffffffffffffffff1673ffffffffffffffffffffffffffffffffffffffff163373ffffffffffffffffffffffffffffffffffffffff1614611aae57600080fd5b8060056000858152602001908152602001600020600084815260200190815260200160002060006101000a8154816fffffffffffffffffffffffffffffffff0219169083600f0b6fffffffffffffffffffffffffffffffff160217905550505050565b81600160028281611b1e57fe5b0614611b2957600080fd5b6006600084815260200190815260200160002060009054906101000a900473ffffffffffffffffffffffffffffffffffffffff1673ffffffffffffffffffffffffffffffffffffffff163373ffffffffffffffffffffffffffffffffffffffff1614611b9457600080fd5b600082600f0b12158015611bb457506801000000000000000082600f0b13155b611bbd57600080fd5b816009600085815260200190815260200160002060006101000a8154816fffffffffffffffffffffffffffffffff0219169083600f0b6fffffffffffffffffffffffffffffffff160217905550505050565b611c1d868686868686612a66565b505050505050565b3373ffffffffffffffffffffffffffffffffffffffff168373ffffffffffffffffffffffffffffffffffffffff161480611ce55750600160003373ffffffffffffffffffffffffffffffffffffffff1673ffffffffffffffffffffffffffffffffffffffff16815260200190815260200160002060008473ffffffffffffffffffffffffffffffffffffffff1673ffffffffffffffffffffffffffffffffffffffff16815260200190815260200160002060009054906101000a900460ff165b611d24576040517f08c379a0000000000000000000000000000000000000000000000000000000008152600401611d1b9061426d565b60405180910390fd5b611d868160008085815260200190815260200160002060008673ffffffffffffffffffffffffffffffffffffffff1673ffffffffffffffffffffffffffffffffffffffff1681526020019081526020016000205461218a90919063ffffffff16565b60008084815260200190815260200160002060008573ffffffffffffffffffffffffffffffffffffffff1673ffffffffffffffffffffffffffffffffffffffff16815260200190815260200160002081905550806007600084815260200190815260200160002060008282540392505081905550600073ffffffffffffffffffffffffffffffffffffffff168373ffffffffffffffffffffffffffffffffffffffff163373ffffffffffffffffffffffffffffffffffffffff167fc3d58168c5ae7397731d063d5bbf3d657854427343f4c083240f7aacaa2d0f628585604051611e71929190614364565b60405180910390a4505050565b60066020528060005260406000206000915054906101000a900473ffffffffffffffffffffffffffffffffffffffff1681565b6006600084815260200190815260200160002060009054906101000a900473ffffffffffffffffffffffffffffffffffffffff1673ffffffffffffffffffffffffffffffffffffffff163373ffffffffffffffffffffffffffffffffffffffff1614611f1c57600080fd5b60006004600086815260200190815260200160002060008581526020019081526020016000209050611f9e816000016040518060a00160405290816000820160009054906101000a900460ff16151515158152602001600182015481526020016002820154815260200160038201548152602001600482015481525050612969565b8214611fa957600080fd5b611fb960008460008060006129b5565b8160000160008201518160000160006101000a81548160ff021916908315150217905550602082015181600101556040820151816002015560608201518160030155608082015181600401559050508281600501819055505050505050565b600083836001868690500381811061202c57fe5b9050602002013590506006600082815260200190815260200160002060009054906101000a900473ffffffffffffffffffffffffffffffffffffffff1673ffffffffffffffffffffffffffffffffffffffff163373ffffffffffffffffffffffffffffffffffffffff16146120a057600080fd5b60005b6001858590500381146121835760008585838181106120be57fe5b905060200201359050828114156120d457600080fd5b6001868690500382146121775760008686600185018181106120f257fe5b90506020020135905060036000838152602001908152602001600020600082815260200190815260200160002060009054906101000a900460ff1661213657600080fd5b8460046000848152602001908152602001600020600083815260200190815260200160002060080160006101000a81548160ff021916908315150217905550505b508060010190506120a3565b5050505050565b60008282111561219657fe5b818303905092915050565b600073ffffffffffffffffffffffffffffffffffffffff168773ffffffffffffffffffffffffffffffffffffffff161415612211576040517f08c379a00000000000000000000000000000000000000000000000000000000081526004016122089061428d565b60405180910390fd5b838390508686905014612259576040517f08c379a0000000000000000000000000000000000000000000000000000000008152600401612250906142cd565b60405180910390fd5b3373ffffffffffffffffffffffffffffffffffffffff168873ffffffffffffffffffffffffffffffffffffffff1614806123195750600160003373ffffffffffffffffffffffffffffffffffffffff1673ffffffffffffffffffffffffffffffffffffffff16815260200190815260200160002060008973ffffffffffffffffffffffffffffffffffffffff1673ffffffffffffffffffffffffffffffffffffffff16815260200190815260200160002060009054906101000a900460ff165b612358576040517f08c379a000000000000000000000000000000000000000000000000000000000815260040161234f9061426d565b60405180910390fd5b60005b8686905081101561250b57600087878381811061237457fe5b905060200201359050600086868481811061238b57fe5b9050602002013590506123f68160008085815260200190815260200160002060008e73ffffffffffffffffffffffffffffffffffffffff1673ffffffffffffffffffffffffffffffffffffffff1681526020019081526020016000205461218a90919063ffffffff16565b60008084815260200190815260200160002060008d73ffffffffffffffffffffffffffffffffffffffff1673ffffffffffffffffffffffffffffffffffffffff168152602001908152602001600020819055506124ab60008084815260200190815260200160002060008c73ffffffffffffffffffffffffffffffffffffffff1673ffffffffffffffffffffffffffffffffffffffff168152602001908152602001600020548261269190919063ffffffff16565b60008084815260200190815260200160002060008c73ffffffffffffffffffffffffffffffffffffffff1673ffffffffffffffffffffffffffffffffffffffff16815260200190815260200160002081905550505080600101905061235b565b508673ffffffffffffffffffffffffffffffffffffffff168873ffffffffffffffffffffffffffffffffffffffff163373ffffffffffffffffffffffffffffffffffffffff167f4a39dc06d4c0dbc64b70af90fd698a233a518aa5d07e595d983b8c0526c8f7fb8989898960405161258694939291906141b8565b60405180910390a46125ad8773ffffffffffffffffffffffffffffffffffffffff166126a8565b1561268757612686338989898980806020026020016040519081016040528093929190818152602001838360200280828437600081840152601f19601f82011690508083019250505050505050888880806020026020016040519081016040528093929190818152602001838360200280828437600081840152601f19601f8201169050808301925050505050505087878080601f016020809104026020016040519081016040528093929190818152602001838380828437600081840152601f19601f82011690508083019250505050505050612e3c565b5b5050505050505050565b60008183019050828110156126a257fe5b92915050565b600080823b905060008111915050919050565b63f23a6e6160e01b7bffffffffffffffffffffffffffffffffffffffffffffffffffffffff19168473ffffffffffffffffffffffffffffffffffffffff1663f23a6e6188888787876040518663ffffffff1660e01b815260040161272395949392919061415e565b602060405180830381600087803b15801561273d57600080fd5b505af1158015612751573d6000803e3d6000fd5b505050506040513d601f19601f82011682018060405250810190612775919061382e565b7bffffffffffffffffffffffffffffffffffffffffffffffffffffffff1916146127d4576040517f08c379a00000000000000000000000000000000000000000000000000000000081526004016127cb906142ed565b60405180910390fd5b505050505050565b6000807ffffffffffffffffffffffffffffffffffffffffffffffffffffffffffffffffe8416905060007ffffffffffffffffffffffffffffffffffffffffffffffffffffffffffffffffe8416905060036000838152602001908152602001600020600082815260200190815260200160002060009054906101000a900460ff1661286657600080fd5b60018416600186161461287857600080fd5b6004600083815260200190815260200160002060008281526020019081526020016000209250505092915050565b600042905090565b6000808214156128c15760009050612963565b600083600f0b12156128d257600080fd5b600060406fffffffffffffffffffffffffffffffff841685600f0b02901c90506000608084901c85600f0b02905077ffffffffffffffffffffffffffffffffffffffffffffffff81111561292557600080fd5b604081901b9050817fffffffffffffffffffffffffffffffffffffffffffffffffffffffffffffffff0381111561295b57600080fd5b818101925050505b92915050565b60008160000151826020015183604001518460600151856080015160405160200161299895949392919061407c565b604051602081830303815290604052805190602001209050919050565b6129bd613014565b6040518060a00160405280871515815260200186815260200185815260200184815260200183815250905095945050505050565b600081600160028281612a0057fe5b0614612a0b57600080fd5b60018301915050919050565b6002548210612a2557600080fd5b8060036000858152602001908152602001600020600084815260200190815260200160002060006101000a81548160ff021916908315150217905550505050565b600073ffffffffffffffffffffffffffffffffffffffff168573ffffffffffffffffffffffffffffffffffffffff161415612ad6576040517f08c379a0000000000000000000000000000000000000000000000000000000008152600401612acd9061430d565b60405180910390fd5b3373ffffffffffffffffffffffffffffffffffffffff168673ffffffffffffffffffffffffffffffffffffffff161480612b965750600160003373ffffffffffffffffffffffffffffffffffffffff1673ffffffffffffffffffffffffffffffffffffffff16815260200190815260200160002060008773ffffffffffffffffffffffffffffffffffffffff1673ffffffffffffffffffffffffffffffffffffffff16815260200190815260200160002060009054906101000a900460ff165b612bd5576040517f08c379a0000000000000000000000000000000000000000000000000000000008152600401612bcc9061426d565b60405180910390fd5b612c378360008087815260200190815260200160002060008973ffffffffffffffffffffffffffffffffffffffff1673ffffffffffffffffffffffffffffffffffffffff1681526020019081526020016000205461218a90919063ffffffff16565b60008086815260200190815260200160002060008873ffffffffffffffffffffffffffffffffffffffff1673ffffffffffffffffffffffffffffffffffffffff16815260200190815260200160002081905550612cec60008086815260200190815260200160002060008773ffffffffffffffffffffffffffffffffffffffff1673ffffffffffffffffffffffffffffffffffffffff168152602001908152602001600020548461269190919063ffffffff16565b60008086815260200190815260200160002060008773ffffffffffffffffffffffffffffffffffffffff1673ffffffffffffffffffffffffffffffffffffffff168152602001908152602001600020819055508473ffffffffffffffffffffffffffffffffffffffff168673ffffffffffffffffffffffffffffffffffffffff163373ffffffffffffffffffffffffffffffffffffffff167fc3d58168c5ae7397731d063d5bbf3d657854427343f4c083240f7aacaa2d0f628787604051612db5929190614364565b60405180910390a4612ddc8573ffffffffffffffffffffffffffffffffffffffff166126a8565b15612e3457612e33338787878787878080601f016020809104026020016040519081016040528093929190818152602001838380828437600081840152601f19601f820116905080830192505050505050506126bb565b5b505050505050565b63bc197c8160e01b7bffffffffffffffffffffffffffffffffffffffffffffffffffffffff19168473ffffffffffffffffffffffffffffffffffffffff1663bc197c8188888787876040518663ffffffff1660e01b8152600401612ea49594939291906140f6565b602060405180830381600087803b158015612ebe57600080fd5b505af1158015612ed2573d6000803e3d6000fd5b505050506040513d601f19601f82011682018060405250810190612ef6919061382e565b7bffffffffffffffffffffffffffffffffffffffffffffffffffffffff191614612f55576040517f08c379a0000000000000000000000000000000000000000000000000000000008152600401612f4c906142ad565b60405180910390fd5b505050505050565b828054600181600116156101000203166002900490600052602060002090601f016020900481019282601f10612f9e57803560ff1916838001178555612fcc565b82800160010185558215612fcc579182015b82811115612fcb578235825591602001919060010190612fb0565b5b509050612fd99190613045565b5090565b6040518060a00160405280612ff0613014565b81526020016000815260200160008152602001600081526020016000151581525090565b6040518060a00160405280600015158152602001600081526020016000815260200160008152602001600081525090565b5b8082111561305e576000816000905550600101613046565b5090565b60008135905061307181614584565b92915050565b60008083601f84011261308957600080fd5b8235905067ffffffffffffffff8111156130a257600080fd5b6020830191508360208202830111156130ba57600080fd5b9250929050565b60008083601f8401126130d357600080fd5b8235905067ffffffffffffffff8111156130ec57600080fd5b60208301915083602082028301111561310457600080fd5b9250929050565b60008135905061311a8161459b565b92915050565b60008135905061312f816145b2565b92915050565b600081359050613144816145c9565b92915050565b600081519050613159816145c9565b92915050565b60008083601f84011261317157600080fd5b8235905067ffffffffffffffff81111561318a57600080fd5b6020830191508360018202830111156131a257600080fd5b9250929050565b600082601f8301126131ba57600080fd5b81356131cd6131c8826143be565b61438d565b915080825260208301602083018583830111156131e957600080fd5b6131f48382846144f4565b50505092915050565b60008135905061320c816145e0565b92915050565b600081359050613221816145f7565b92915050565b60008083601f84011261323957600080fd5b8235905067ffffffffffffffff81111561325257600080fd5b60208301915083600182028301111561326a57600080fd5b9250929050565b600060a0828403121561328357600080fd5b61328d60a061438d565b9050600061329d8482850161310b565b60008301525060206132b184828501613212565b60208301525060406132c584828501613212565b60408301525060606132d984828501613212565b60608301525060806132ed84828501613212565b60808301525092915050565b6000610120828403121561330c57600080fd5b61331660a061438d565b9050600061332684828501613271565b60008301525060a061333a84828501613212565b60208301525060c061334e84828501613212565b60408301525060e061336284828501613212565b6060830152506101006133778482850161310b565b60808301525092915050565b6000813590506133928161460e565b92915050565b6000602082840312156133aa57600080fd5b60006133b884828501613062565b91505092915050565b600080604083850312156133d457600080fd5b60006133e285828601613062565b92505060206133f385828601613062565b9150509250929050565b60008060008060008060008060a0898b03121561341957600080fd5b60006134278b828c01613062565b98505060206134388b828c01613062565b975050604089013567ffffffffffffffff81111561345557600080fd5b6134618b828c016130c1565b9650965050606089013567ffffffffffffffff81111561348057600080fd5b61348c8b828c016130c1565b9450945050608089013567ffffffffffffffff8111156134ab57600080fd5b6134b78b828c0161315f565b92509250509295985092959890939650565b60008060008060008060a087890312156134e257600080fd5b60006134f089828a01613062565b965050602061350189828a01613062565b955050604061351289828a01613383565b945050606061352389828a01613383565b935050608087013567ffffffffffffffff81111561354057600080fd5b61354c89828a0161315f565b92509250509295509295509295565b6000806040838503121561356e57600080fd5b600061357c85828601613062565b925050602061358d8582860161310b565b9150509250929050565b600080604083850312156135aa57600080fd5b60006135b885828601613062565b92505060206135c985828601613383565b9150509250929050565b6000806000606084860312156135e857600080fd5b60006135f686828701613062565b935050602061360786828701613383565b925050604061361886828701613383565b9150509250925092565b6000806000806080858703121561363857600080fd5b600061364687828801613062565b945050602061365787828801613383565b935050604061366887828801613383565b925050606085013567ffffffffffffffff81111561368557600080fd5b613691878288016131a9565b91505092959194509250565b600080600080604085870312156136b357600080fd5b600085013567ffffffffffffffff8111156136cd57600080fd5b6136d987828801613077565b9450945050602085013567ffffffffffffffff8111156136f857600080fd5b613704878288016130c1565b925092505092959194509250565b60008060006040848603121561372757600080fd5b600084013567ffffffffffffffff81111561374157600080fd5b61374d868287016130c1565b935093505060206137608682870161310b565b9150509250925092565b6000806000806000806080878903121561378357600080fd5b600087013567ffffffffffffffff81111561379d57600080fd5b6137a989828a016130c1565b965096505060206137bc89828a01613383565b94505060406137cd89828a01613062565b935050606087013567ffffffffffffffff8111156137ea57600080fd5b6137f689828a0161315f565b92509250509295509295509295565b60006020828403121561381757600080fd5b600061382584828501613135565b91505092915050565b60006020828403121561384057600080fd5b600061384e8482850161314a565b91505092915050565b600080610140838503121561386b57600080fd5b6000613879858286016132f9565b92505061012061388b85828601613212565b9150509250929050565b600080600061016084860312156138ab57600080fd5b60006138b9868287016132f9565b9350506101206138cb86828701613212565b9250506101406138dd8682870161310b565b9150509250925092565b6000602082840312156138f957600080fd5b600061390784828501613383565b91505092915050565b6000806040838503121561392357600080fd5b600061393185828601613383565b925050602061394285828601613062565b9150509250929050565b6000806040838503121561395f57600080fd5b600061396d85828601613383565b925050602061397e858286016131fd565b9150509250929050565b60008060006040848603121561399d57600080fd5b60006139ab86828701613383565b935050602084013567ffffffffffffffff8111156139c857600080fd5b6139d486828701613227565b92509250509250925092565b600080604083850312156139f357600080fd5b6000613a0185828601613383565b9250506020613a1285828601613383565b9150509250929050565b600080600060608486031215613a3157600080fd5b6000613a3f86828701613383565b9350506020613a5086828701613383565b9250506040613a618682870161310b565b9150509250925092565b600080600060608486031215613a8057600080fd5b6000613a8e86828701613383565b9350506020613a9f86828701613383565b9250506040613ab0868287016131fd565b9150509250925092565b60008060008060808587031215613ad057600080fd5b6000613ade87828801613383565b9450506020613aef87828801613383565b9350506040613b0087828801613212565b9250506060613b1187828801613120565b91505092959194509250565b600080600080600080600060e0888a031215613b3857600080fd5b6000613b468a828b01613383565b9750506020613b578a828b01613383565b9650506040613b688a828b01613212565b9550506060613b798a828b01613212565b9450506080613b8a8a828b01613212565b93505060a0613b9b8a828b01613212565b92505060c0613bac8a828b01613120565b91505092959891949750929550565b6000613bc7838361405e565b60208301905092915050565b613bdc8161445f565b82525050565b6000613bee838561442c565b93507f07ffffffffffffffffffffffffffffffffffffffffffffffffffffffffffffff831115613c1d57600080fd5b602083029250613c2e8385846144f4565b82840190509392505050565b6000613c45826143fe565b613c4f818561442c565b9350613c5a836143ee565b8060005b83811015613c8b578151613c728882613bbb565b9750613c7d8361441f565b925050600181019050613c5e565b5085935050505092915050565b613ca181614471565b82525050565b613cb081614471565b82525050565b613cc7613cc282614471565b614536565b82525050565b6000613cd882614409565b613ce2818561443d565b9350613cf2818560208601614503565b613cfb81614566565b840191505092915050565b613d0f816144b3565b82525050565b613d1e816144c0565b82525050565b613d35613d30826144c0565b614548565b82525050565b6000613d4682614414565b613d50818561444e565b9350613d60818560208601614503565b613d6981614566565b840191505092915050565b6000613d81600c8361444e565b91507f4e6f20617070726f76616c2e00000000000000000000000000000000000000006000830152602082019050919050565b6000613dc160258361444e565b91507f64657374696e6174696f6e2061646472657373206d757374206265206e6f6e2d60008301527f7a65726f2e0000000000000000000000000000000000000000000000000000006020830152604082019050919050565b6000613e27603e8361444e565b91507f636f6e74726163742072657475726e656420616e20756e6b6e6f776e2076616c60008301527f75652066726f6d206f6e455243313135354261746368526563656976656400006020830152604082019050919050565b6000613e8d60298361444e565b91507f5f69647320616e64205f76616c756573206172726179206c656e677468206d7560008301527f7374206d617463682e00000000000000000000000000000000000000000000006020830152604082019050919050565b6000613ef360398361444e565b91507f636f6e74726163742072657475726e656420616e20756e6b6e6f776e2076616c60008301527f75652066726f6d206f6e455243313135355265636569766564000000000000006020830152604082019050919050565b6000613f5960158361444e565b91507f5f746f206d757374206265206e6f6e2d7a65726f2e00000000000000000000006000830152602082019050919050565b60a082016000820151613fa26000850182613c98565b506020820151613fb56020850182613d15565b506040820151613fc86040850182613d15565b506060820151613fdb6060850182613d15565b506080820151613fee6080850182613d15565b50505050565b6101208201600082015161400b6000850182613f8c565b50602082015161401e60a0850182613d15565b50604082015161403160c0850182613d15565b50606082015161404460e0850182613d15565b506080820151614058610100850182613c98565b50505050565b614067816144ea565b82525050565b614076816144ea565b82525050565b60006140888288613cb6565b6001820191506140988287613d24565b6020820191506140a88286613d24565b6020820191506140b88285613d24565b6020820191506140c88284613d24565b6020820191508190509695505050505050565b60006020820190506140f06000830184613bd3565b92915050565b600060a08201905061410b6000830188613bd3565b6141186020830187613bd3565b818103604083015261412a8186613c3a565b9050818103606083015261413e8185613c3a565b905081810360808301526141528184613ccd565b90509695505050505050565b600060a0820190506141736000830188613bd3565b6141806020830187613bd3565b61418d604083018661406d565b61419a606083018561406d565b81810360808301526141ac8184613ccd565b90509695505050505050565b600060408201905081810360008301526141d3818688613be2565b905081810360208301526141e8818486613be2565b905095945050505050565b6000602082019050818103600083015261420d8184613c3a565b905092915050565b600060208201905061422a6000830184613ca7565b92915050565b60006020820190506142456000830184613d06565b92915050565b600060208201905081810360008301526142658184613d3b565b905092915050565b6000602082019050818103600083015261428681613d74565b9050919050565b600060208201905081810360008301526142a681613db4565b9050919050565b600060208201905081810360008301526142c681613e1a565b9050919050565b600060208201905081810360008301526142e681613e80565b9050919050565b6000602082019050818103600083015261430681613ee6565b9050919050565b6000602082019050818103600083015261432681613f4c565b9050919050565b6000610120820190506143436000830184613ff4565b92915050565b600060208201905061435e600083018461406d565b92915050565b6000604082019050614379600083018561406d565b614386602083018461406d565b9392505050565b6000604051905081810181811067ffffffffffffffff821117156143b4576143b3614564565b5b8060405250919050565b600067ffffffffffffffff8211156143d9576143d8614564565b5b601f19601f8301169050602081019050919050565b6000819050602082019050919050565b600081519050919050565b600081519050919050565b600081519050919050565b6000602082019050919050565b600082825260208201905092915050565b600082825260208201905092915050565b600082825260208201905092915050565b600061446a826144ca565b9050919050565b60008115159050919050565b6000819050919050565b60007fffffffff0000000000000000000000000000000000000000000000000000000082169050919050565b600081600f0b9050919050565b6000819050919050565b600073ffffffffffffffffffffffffffffffffffffffff82169050919050565b6000819050919050565b82818337600083830152505050565b60005b83811015614521578082015181840152602081019050614506565b83811115614530576000848401525b50505050565b600061454182614552565b9050919050565b6000819050919050565b600061455d82614577565b9050919050565bfe5b6000601f19601f8301169050919050565b60008160f81b9050919050565b61458d8161445f565b811461459857600080fd5b50565b6145a481614471565b81146145af57600080fd5b50565b6145bb8161447d565b81146145c657600080fd5b50565b6145d281614487565b81146145dd57600080fd5b50565b6145e9816144b3565b81146145f457600080fd5b50565b614600816144c0565b811461460b57600080fd5b50565b614617816144ea565b811461462257600080fd5b5056fea264697066735822122016c94fc5b43df29452ff696947bfd8cac2ca27ea10e9eeb239c52b4b1946aa3364736f6c63430007030033",
  "linkReferences": {},
  "deployedLinkReferences": {}
}