{
  "_format": "hh-sol-artifact-1",
  "contractName": "ExchangeRateSetter",
  "sourceName": "contracts/ExchangeRateSetter.sol",
  "abi": [
    {
      "inputs": [
        {
          "internalType": "contract TokensFlow",
          "name": "_tokenContract",
          "type": "address"
        },
        {
          "internalType": "address",
          "name": "_admin",
          "type": "address"
        },
        {
          "internalType": "bytes",
          "name": "_data",
          "type": "bytes"
        }
      ],
      "stateMutability": "nonpayable",
      "type": "constructor"
    },
    {
      "anonymous": false,
      "inputs": [
        {
          "indexed": false,
          "internalType": "address",
          "name": "previousAdmin",
          "type": "address"
        },
        {
          "indexed": false,
          "internalType": "address",
          "name": "newAdmin",
          "type": "address"
        }
      ],
      "name": "AdminChanged",
      "type": "event"
    },
    {
      "anonymous": false,
      "inputs": [
        {
          "indexed": false,
          "internalType": "uint256",
          "name": "child",
          "type": "uint256"
        },
        {
          "indexed": false,
          "internalType": "uint256",
          "name": "parent",
          "type": "uint256"
        },
        {
          "indexed": false,
          "internalType": "contract AggregatorV3Interface",
          "name": "aggregator",
          "type": "address"
        }
      ],
      "name": "SetAggregator",
      "type": "event"
    },
    {
      "anonymous": false,
      "inputs": [
        {
          "indexed": true,
          "internalType": "address",
          "name": "implementation",
          "type": "address"
        }
      ],
      "name": "Upgraded",
      "type": "event"
    },
    {
      "stateMutability": "payable",
      "type": "fallback"
    },
    {
      "inputs": [],
      "name": "admin",
      "outputs": [
        {
          "internalType": "address",
          "name": "admin_",
          "type": "address"
        }
      ],
      "stateMutability": "nonpayable",
      "type": "function"
    },
    {
      "inputs": [
        {
          "internalType": "address",
          "name": "newAdmin",
          "type": "address"
        }
      ],
      "name": "changeAdmin",
      "outputs": [],
      "stateMutability": "nonpayable",
      "type": "function"
    },
    {
      "inputs": [],
      "name": "implementation",
      "outputs": [
        {
          "internalType": "address",
          "name": "implementation_",
          "type": "address"
        }
      ],
      "stateMutability": "nonpayable",
      "type": "function"
    },
    {
      "inputs": [
        {
          "internalType": "uint256",
          "name": "_child",
          "type": "uint256"
        },
        {
          "internalType": "uint256",
          "name": "_parent",
          "type": "uint256"
        },
        {
          "internalType": "contract AggregatorV3Interface",
          "name": "_aggregator",
          "type": "address"
        }
      ],
      "name": "setAggregator",
      "outputs": [],
      "stateMutability": "nonpayable",
      "type": "function"
    },
    {
      "inputs": [
        {
          "internalType": "uint256",
          "name": "_child",
          "type": "uint256"
        },
        {
          "internalType": "uint256",
          "name": "_parent",
          "type": "uint256"
        }
      ],
      "name": "updateFromAggregator",
      "outputs": [],
      "stateMutability": "nonpayable",
      "type": "function"
    },
    {
      "inputs": [
        {
          "internalType": "address",
          "name": "newImplementation",
          "type": "address"
        }
      ],
      "name": "upgradeTo",
      "outputs": [],
      "stateMutability": "nonpayable",
      "type": "function"
    },
    {
      "inputs": [
        {
          "internalType": "address",
          "name": "newImplementation",
          "type": "address"
        },
        {
          "internalType": "bytes",
          "name": "data",
          "type": "bytes"
        }
      ],
      "name": "upgradeToAndCall",
      "outputs": [],
      "stateMutability": "payable",
      "type": "function"
    },
    {
      "stateMutability": "payable",
      "type": "receive"
    }
  ],
  "bytecode": "0x60806040523480156200001157600080fd5b5060405162001b5138038062001b51833981810160405281019062000037919062000456565b828282828160017f360894a13ba1a3210667c828492db98dca3e2076cc3735a920a3ca505d382bbd60001c0360001b7f360894a13ba1a3210667c828492db98dca3e2076cc3735a920a3ca505d382bbc60001b146200009257fe5b620000a3826200017c60201b60201c565b600081511115620000c757620000c582826200020360201b620007621760201c565b505b505060017fb53127684a568b3173ae13b9f8a6016e243e63b6e8ee1178d6a717850b5d610460001c0360001b7fb53127684a568b3173ae13b9f8a6016e243e63b6e8ee1178d6a717850b5d610360001b146200011f57fe5b62000130826200023960201b60201c565b505050826000806101000a81548173ffffffffffffffffffffffffffffffffffffffff021916908373ffffffffffffffffffffffffffffffffffffffff160217905550505050620007ec565b62000192816200026860201b6200078f1760201c565b620001d4576040517f08c379a0000000000000000000000000000000000000000000000000000000008152600401620001cb906200064a565b60405180910390fd5b60007f360894a13ba1a3210667c828492db98dca3e2076cc3735a920a3ca505d382bbc60001b90508181555050565b606062000231838360405180606001604052806027815260200162001b2a602791396200027b60201b60201c565b905092915050565b60007fb53127684a568b3173ae13b9f8a6016e243e63b6e8ee1178d6a717850b5d610360001b90508181555050565b600080823b905060008111915050919050565b60606200028e846200026860201b60201c565b620002d0576040517f08c379a0000000000000000000000000000000000000000000000000000000008152600401620002c7906200066c565b60405180910390fd5b600060608573ffffffffffffffffffffffffffffffffffffffff1685604051620002fb91906200060d565b600060405180830381855af49150503d806000811462000338576040519150601f19603f3d011682016040523d82523d6000602084013e6200033d565b606091505b5091509150620003558282866200036060201b60201c565b925050509392505050565b606083156200037257829050620003c5565b600083511115620003865782518084602001fd5b816040517f08c379a0000000000000000000000000000000000000000000000000000000008152600401620003bc919062000626565b60405180910390fd5b9392505050565b600081519050620003dd81620007b8565b92915050565b600082601f830112620003f557600080fd5b81516200040c6200040682620006c2565b6200068e565b915080825260208301602083018583830111156200042957600080fd5b620004368382846200076f565b50505092915050565b6000815190506200045081620007d2565b92915050565b6000806000606084860312156200046c57600080fd5b60006200047c868287016200043f565b93505060206200048f86828701620003cc565b925050604084015167ffffffffffffffff811115620004ad57600080fd5b620004bb86828701620003e3565b9150509250925092565b6000620004d282620006f5565b620004de81856200070b565b9350620004f08185602086016200076f565b80840191505092915050565b6000620005098262000700565b62000515818562000716565b9350620005278185602086016200076f565b6200053281620007a7565b840191505092915050565b60006200054c60368362000716565b91507f5570677261646561626c6550726f78793a206e657720696d706c656d656e746160008301527f74696f6e206973206e6f74206120636f6e7472616374000000000000000000006020830152604082019050919050565b6000620005b460268362000716565b91507f416464726573733a2064656c65676174652063616c6c20746f206e6f6e2d636f60008301527f6e747261637400000000000000000000000000000000000000000000000000006020830152604082019050919050565b60006200061b8284620004c5565b915081905092915050565b60006020820190508181036000830152620006428184620004fc565b905092915050565b6000602082019050818103600083015262000665816200053d565b9050919050565b600060208201905081810360008301526200068781620005a5565b9050919050565b6000604051905081810181811067ffffffffffffffff82111715620006b857620006b7620007a5565b5b8060405250919050565b600067ffffffffffffffff821115620006e057620006df620007a5565b5b601f19601f8301169050602081019050919050565b600081519050919050565b600081519050919050565b600081905092915050565b600082825260208201905092915050565b600062000734826200074f565b9050919050565b6000620007488262000727565b9050919050565b600073ffffffffffffffffffffffffffffffffffffffff82169050919050565b60005b838110156200078f57808201518184015260208101905062000772565b838111156200079f576000848401525b50505050565bfe5b6000601f19601f8301169050919050565b620007c38162000727565b8114620007cf57600080fd5b50565b620007dd816200073b565b8114620007e957600080fd5b50565b61132e80620007fc6000396000f3fe6080604052600436106100745760003560e01c8063643550f31161004e578063643550f3146100fd5780638f28397014610126578063b1447e401461014f578063f851a4401461017857610083565b80633659cfe61461008d5780634f1ef286146100b65780635c60da1b146100d257610083565b36610083576100816101a3565b005b61008b6101a3565b005b34801561009957600080fd5b506100b460048036038101906100af9190610bb3565b6101bd565b005b6100d060048036038101906100cb9190610c05565b610212565b005b3480156100de57600080fd5b506100e76102b8565b6040516100f49190610fda565b60405180910390f35b34801561010957600080fd5b50610124600480360381019061011f9190610c99565b610310565b005b34801561013257600080fd5b5061014d60048036038101906101489190610bb3565b610493565b005b34801561015b57600080fd5b5061017660048036038101906101719190610c5d565b610598565b005b34801561018457600080fd5b5061018d61070a565b60405161019a9190610fda565b60405180910390f35b6101ab6107a2565b6101bb6101b6610822565b610853565b565b6101c5610879565b73ffffffffffffffffffffffffffffffffffffffff163373ffffffffffffffffffffffffffffffffffffffff16141561020657610201816108aa565b61020f565b61020e6101a3565b5b50565b61021a610879565b73ffffffffffffffffffffffffffffffffffffffff163373ffffffffffffffffffffffffffffffffffffffff1614156102aa57610256836108aa565b6102a48383838080601f016020809104026020016040519081016040528093929190818152602001838380828437600081840152601f19601f82011690508083019250505050505050610762565b506102b3565b6102b26101a3565b5b505050565b60006102c2610879565b73ffffffffffffffffffffffffffffffffffffffff163373ffffffffffffffffffffffffffffffffffffffff161415610304576102fd610822565b905061030d565b61030c6101a3565b5b90565b60008054906101000a900473ffffffffffffffffffffffffffffffffffffffff1673ffffffffffffffffffffffffffffffffffffffff1663f8a14f46836040518263ffffffff1660e01b815260040161036991906110c0565b60206040518083038186803b15801561038157600080fd5b505afa158015610395573d6000803e3d6000fd5b505050506040513d601f19601f820116820180604052508101906103b99190610bdc565b73ffffffffffffffffffffffffffffffffffffffff163373ffffffffffffffffffffffffffffffffffffffff16146103f057600080fd5b8060016000858152602001908152602001600020600084815260200190815260200160002060006101000a81548173ffffffffffffffffffffffffffffffffffffffff021916908373ffffffffffffffffffffffffffffffffffffffff1602179055507fc0289fdb97b7f2795b9603fa15831e862e3dd9b16ab9cb2d74bd94b9258cbe15838383604051610486939291906110db565b60405180910390a1505050565b61049b610879565b73ffffffffffffffffffffffffffffffffffffffff163373ffffffffffffffffffffffffffffffffffffffff16141561058c57600073ffffffffffffffffffffffffffffffffffffffff168173ffffffffffffffffffffffffffffffffffffffff16141561053e576040517f08c379a000000000000000000000000000000000000000000000000000000000815260040161053590611040565b60405180910390fd5b7f7e644d79422f17c01e4894b5f4f588d331ebfa28653d42ae832dc59e38c9798f610567610879565b82604051610576929190610ff5565b60405180910390a1610587816108f9565b610595565b6105946101a3565b5b50565b600060016000848152602001908152602001600020600083815260200190815260200160002060009054906101000a900473ffffffffffffffffffffffffffffffffffffffff16905060008060008060008573ffffffffffffffffffffffffffffffffffffffff1663feaf968c6040518163ffffffff1660e01b815260040160a06040518083038186803b15801561062f57600080fd5b505afa158015610643573d6000803e3d6000fd5b505050506040513d601f19601f820116820180604052508101906106679190610ce8565b9450945094509450945060008054906101000a900473ffffffffffffffffffffffffffffffffffffffff1673ffffffffffffffffffffffffffffffffffffffff1663ecf95bc98989876040518463ffffffff1660e01b81526004016106ce93929190611112565b600060405180830381600087803b1580156106e857600080fd5b505af11580156106fc573d6000803e3d6000fd5b505050505050505050505050565b6000610714610879565b73ffffffffffffffffffffffffffffffffffffffff163373ffffffffffffffffffffffffffffffffffffffff1614156107565761074f610879565b905061075f565b61075e6101a3565b5b90565b606061078783836040518060600160405280602781526020016112d260279139610928565b905092915050565b600080823b905060008111915050919050565b6107aa610879565b73ffffffffffffffffffffffffffffffffffffffff163373ffffffffffffffffffffffffffffffffffffffff161415610818576040517f08c379a000000000000000000000000000000000000000000000000000000000815260040161080f906110a0565b60405180910390fd5b6108206109f6565b565b6000807f360894a13ba1a3210667c828492db98dca3e2076cc3735a920a3ca505d382bbc60001b9050805491505090565b3660008037600080366000845af43d6000803e8060008114610874573d6000f35b3d6000fd5b6000807fb53127684a568b3173ae13b9f8a6016e243e63b6e8ee1178d6a717850b5d610360001b9050805491505090565b6108b3816109f8565b8073ffffffffffffffffffffffffffffffffffffffff167fbc7cd75a20ee27fd9adebab32041f755214dbc6bffa90cc0225b39da2e5c2d3b60405160405180910390a250565b60007fb53127684a568b3173ae13b9f8a6016e243e63b6e8ee1178d6a717850b5d610360001b90508181555050565b60606109338461078f565b610972576040517f08c379a000000000000000000000000000000000000000000000000000000000815260040161096990611080565b60405180910390fd5b600060608573ffffffffffffffffffffffffffffffffffffffff168560405161099b9190610fc3565b600060405180830381855af49150503d80600081146109d6576040519150601f19603f3d011682016040523d82523d6000602084013e6109db565b606091505b50915091506109eb828286610a6f565b925050509392505050565b565b610a018161078f565b610a40576040517f08c379a0000000000000000000000000000000000000000000000000000000008152600401610a3790611060565b60405180910390fd5b60007f360894a13ba1a3210667c828492db98dca3e2076cc3735a920a3ca505d382bbc60001b90508181555050565b60608315610a7f57829050610acf565b600083511115610a925782518084602001fd5b816040517f08c379a0000000000000000000000000000000000000000000000000000000008152600401610ac6919061101e565b60405180910390fd5b9392505050565b600081359050610ae58161125e565b92915050565b600081519050610afa8161125e565b92915050565b60008083601f840112610b1257600080fd5b8235905067ffffffffffffffff811115610b2b57600080fd5b602083019150836001820283011115610b4357600080fd5b9250929050565b600081359050610b5981611275565b92915050565b600081519050610b6e8161128c565b92915050565b600081359050610b83816112a3565b92915050565b600081519050610b98816112a3565b92915050565b600081519050610bad816112ba565b92915050565b600060208284031215610bc557600080fd5b6000610bd384828501610ad6565b91505092915050565b600060208284031215610bee57600080fd5b6000610bfc84828501610aeb565b91505092915050565b600080600060408486031215610c1a57600080fd5b6000610c2886828701610ad6565b935050602084013567ffffffffffffffff811115610c4557600080fd5b610c5186828701610b00565b92509250509250925092565b60008060408385031215610c7057600080fd5b6000610c7e85828601610b74565b9250506020610c8f85828601610b74565b9150509250929050565b600080600060608486031215610cae57600080fd5b6000610cbc86828701610b74565b9350506020610ccd86828701610b74565b9250506040610cde86828701610b4a565b9150509250925092565b600080600080600060a08688031215610d0057600080fd5b6000610d0e88828901610b9e565b9550506020610d1f88828901610b5f565b9450506040610d3088828901610b89565b9350506060610d4188828901610b89565b9250506080610d5288828901610b9e565b9150509295509295909350565b610d688161117b565b82525050565b6000610d7982611149565b610d83818561115f565b9350610d9381856020860161121a565b80840191505092915050565b610da8816111f6565b82525050565b610db78161119f565b82525050565b6000610dc882611154565b610dd2818561116a565b9350610de281856020860161121a565b610deb8161124d565b840191505092915050565b6000610e03603a8361116a565b91507f5472616e73706172656e745570677261646561626c6550726f78793a206e657760008301527f2061646d696e20697320746865207a65726f20616464726573730000000000006020830152604082019050919050565b6000610e6960368361116a565b91507f5570677261646561626c6550726f78793a206e657720696d706c656d656e746160008301527f74696f6e206973206e6f74206120636f6e7472616374000000000000000000006020830152604082019050919050565b6000610ecf60268361116a565b91507f416464726573733a2064656c65676174652063616c6c20746f206e6f6e2d636f60008301527f6e747261637400000000000000000000000000000000000000000000000000006020830152604082019050919050565b6000610f3560428361116a565b91507f5472616e73706172656e745570677261646561626c6550726f78793a2061646d60008301527f696e2063616e6e6f742066616c6c6261636b20746f2070726f7879207461726760208301527f65740000000000000000000000000000000000000000000000000000000000006040830152606082019050919050565b610fbd816111d6565b82525050565b6000610fcf8284610d6e565b915081905092915050565b6000602082019050610fef6000830184610d5f565b92915050565b600060408201905061100a6000830185610d5f565b6110176020830184610d5f565b9392505050565b600060208201905081810360008301526110388184610dbd565b905092915050565b6000602082019050818103600083015261105981610df6565b9050919050565b6000602082019050818103600083015261107981610e5c565b9050919050565b6000602082019050818103600083015261109981610ec2565b9050919050565b600060208201905081810360008301526110b981610f28565b9050919050565b60006020820190506110d56000830184610fb4565b92915050565b60006060820190506110f06000830186610fb4565b6110fd6020830185610fb4565b61110a6040830184610d9f565b949350505050565b60006060820190506111276000830186610fb4565b6111346020830185610fb4565b6111416040830184610dae565b949350505050565b600081519050919050565b600081519050919050565b600081905092915050565b600082825260208201905092915050565b6000611186826111b6565b9050919050565b60006111988261117b565b9050919050565b600081600f0b9050919050565b6000819050919050565b600073ffffffffffffffffffffffffffffffffffffffff82169050919050565b6000819050919050565b600069ffffffffffffffffffff82169050919050565b600061120182611208565b9050919050565b6000611213826111b6565b9050919050565b60005b8381101561123857808201518184015260208101905061121d565b83811115611247576000848401525b50505050565b6000601f19601f8301169050919050565b6112678161117b565b811461127257600080fd5b50565b61127e8161118d565b811461128957600080fd5b50565b611295816111ac565b81146112a057600080fd5b50565b6112ac816111d6565b81146112b757600080fd5b50565b6112c3816111e0565b81146112ce57600080fd5b5056fe416464726573733a206c6f772d6c6576656c2064656c65676174652063616c6c206661696c6564a26469706673582212205c5f75370567aa004ed7a08cf1ad4dfcc89d10e4037a3837aba821537e79854964736f6c63430007030033416464726573733a206c6f772d6c6576656c2064656c65676174652063616c6c206661696c6564",
  "linkReferences": {},
  "deployedLinkReferences": {}
}