{
  "_format": "hh-sol-artifact-1",
  "contractName": "CarbonTest",
  "sourceName": "contracts/CarbonTest.sol",
  "abi": [
    {
      "inputs": [],
      "stateMutability": "nonpayable",
      "type": "constructor"
    },
    {
      "anonymous": false,
      "inputs": [
        {
          "indexed": true,
          "internalType": "address",
          "name": "_owner",
          "type": "address"
        },
        {
          "indexed": true,
          "internalType": "address",
          "name": "_operator",
          "type": "address"
        },
        {
          "indexed": false,
          "internalType": "bool",
          "name": "_approved",
          "type": "bool"
        }
      ],
      "name": "ApprovalForAll",
      "type": "event"
    },
    {
      "anonymous": false,
      "inputs": [
        {
          "indexed": true,
          "internalType": "address",
          "name": "owner",
          "type": "address"
        },
        {
          "indexed": true,
          "internalType": "uint256",
          "name": "token",
          "type": "uint256"
        }
      ],
      "name": "AuthorityCreated",
      "type": "event"
    },
    {
      "anonymous": false,
      "inputs": [
        {
          "indexed": true,
          "internalType": "uint256",
          "name": "id",
          "type": "uint256"
        },
        {
          "indexed": true,
          "internalType": "address",
          "name": "authority",
          "type": "address"
        },
        {
          "indexed": true,
          "internalType": "uint256",
          "name": "serial",
          "type": "uint256"
        },
        {
          "indexed": false,
          "internalType": "uint256",
          "name": "amount",
          "type": "uint256"
        },
        {
          "indexed": false,
          "internalType": "address",
          "name": "owner",
          "type": "address"
        },
        {
          "indexed": false,
          "internalType": "string",
          "name": "fileCoinHash",
          "type": "string"
        }
      ],
      "name": "CreditCreated",
      "type": "event"
    },
    {
      "anonymous": false,
      "inputs": [
        {
          "indexed": true,
          "internalType": "uint256",
          "name": "id",
          "type": "uint256"
        },
        {
          "indexed": true,
          "internalType": "address",
          "name": "owner",
          "type": "address"
        },
        {
          "indexed": false,
          "internalType": "string",
          "name": "uri",
          "type": "string"
        }
      ],
      "name": "NewToken",
      "type": "event"
    },
    {
      "anonymous": false,
      "inputs": [
        {
          "indexed": true,
          "internalType": "address",
          "name": "_operator",
          "type": "address"
        },
        {
          "indexed": true,
          "internalType": "address",
          "name": "_from",
          "type": "address"
        },
        {
          "indexed": true,
          "internalType": "address",
          "name": "_to",
          "type": "address"
        },
        {
          "indexed": false,
          "internalType": "uint256[]",
          "name": "_ids",
          "type": "uint256[]"
        },
        {
          "indexed": false,
          "internalType": "uint256[]",
          "name": "_values",
          "type": "uint256[]"
        }
      ],
      "name": "TransferBatch",
      "type": "event"
    },
    {
      "anonymous": false,
      "inputs": [
        {
          "indexed": true,
          "internalType": "address",
          "name": "_operator",
          "type": "address"
        },
        {
          "indexed": true,
          "internalType": "address",
          "name": "_from",
          "type": "address"
        },
        {
          "indexed": true,
          "internalType": "address",
          "name": "_to",
          "type": "address"
        },
        {
          "indexed": false,
          "internalType": "uint256",
          "name": "_id",
          "type": "uint256"
        },
        {
          "indexed": false,
          "internalType": "uint256",
          "name": "_value",
          "type": "uint256"
        }
      ],
      "name": "TransferSingle",
      "type": "event"
    },
    {
      "anonymous": false,
      "inputs": [
        {
          "indexed": false,
          "internalType": "string",
          "name": "_value",
          "type": "string"
        },
        {
          "indexed": true,
          "internalType": "uint256",
          "name": "_id",
          "type": "uint256"
        }
      ],
      "name": "URI",
      "type": "event"
    },
    {
      "inputs": [
        {
          "internalType": "address",
          "name": "_from",
          "type": "address"
        },
        {
          "internalType": "uint256",
          "name": "_id",
          "type": "uint256"
        },
        {
          "internalType": "uint256",
          "name": "_value",
          "type": "uint256"
        }
      ],
      "name": "_doBurn",
      "outputs": [],
      "stateMutability": "nonpayable",
      "type": "function"
    },
    {
      "inputs": [
        {
          "internalType": "address",
          "name": "_to",
          "type": "address"
        },
        {
          "internalType": "uint256",
          "name": "_id",
          "type": "uint256"
        },
        {
          "internalType": "uint256",
          "name": "_value",
          "type": "uint256"
        },
        {
          "internalType": "bytes",
          "name": "_data",
          "type": "bytes"
        }
      ],
      "name": "_doMint",
      "outputs": [],
      "stateMutability": "nonpayable",
      "type": "function"
    },
    {
      "inputs": [
        {
          "components": [
            {
              "components": [
                {
                  "internalType": "bool",
                  "name": "recurring",
                  "type": "bool"
                },
                {
                  "internalType": "int256",
                  "name": "initialSwapCredit",
                  "type": "int256"
                },
                {
                  "internalType": "int256",
                  "name": "maxSwapCredit",
                  "type": "int256"
                },
                {
                  "internalType": "int256",
                  "name": "swapCreditPeriod",
                  "type": "int256"
                },
                {
                  "internalType": "int256",
                  "name": "firstTimeEnteredSwapCredit",
                  "type": "int256"
                }
              ],
              "internalType": "struct TokensFlow.SwapLimit",
              "name": "limit",
              "type": "tuple"
            },
            {
              "internalType": "int256",
              "name": "remainingSwapCredit",
              "type": "int256"
            },
            {
              "internalType": "int256",
              "name": "timeEnteredSwapCredit",
              "type": "int256"
            },
            {
              "internalType": "int256",
              "name": "lastSwapTime",
              "type": "int256"
            },
            {
              "internalType": "bool",
              "name": "disabled",
              "type": "bool"
            }
          ],
          "internalType": "struct TokensFlow.TokenFlow",
          "name": "_flow",
          "type": "tuple"
        },
        {
          "internalType": "int256",
          "name": "_currentTimeResult",
          "type": "int256"
        }
      ],
      "name": "_inSwapCredit",
      "outputs": [
        {
          "internalType": "bool",
          "name": "",
          "type": "bool"
        }
      ],
      "stateMutability": "pure",
      "type": "function"
    },
    {
      "inputs": [
        {
          "components": [
            {
              "components": [
                {
                  "internalType": "bool",
                  "name": "recurring",
                  "type": "bool"
                },
                {
                  "internalType": "int256",
                  "name": "initialSwapCredit",
                  "type": "int256"
                },
                {
                  "internalType": "int256",
                  "name": "maxSwapCredit",
                  "type": "int256"
                },
                {
                  "internalType": "int256",
                  "name": "swapCreditPeriod",
                  "type": "int256"
                },
                {
                  "internalType": "int256",
                  "name": "firstTimeEnteredSwapCredit",
                  "type": "int256"
                }
              ],
              "internalType": "struct TokensFlow.SwapLimit",
              "name": "limit",
              "type": "tuple"
            },
            {
              "internalType": "int256",
              "name": "remainingSwapCredit",
              "type": "int256"
            },
            {
              "internalType": "int256",
              "name": "timeEnteredSwapCredit",
              "type": "int256"
            },
            {
              "internalType": "int256",
              "name": "lastSwapTime",
              "type": "int256"
            },
            {
              "internalType": "bool",
              "name": "disabled",
              "type": "bool"
            }
          ],
          "internalType": "struct TokensFlow.TokenFlow",
          "name": "_flow",
          "type": "tuple"
        },
        {
          "internalType": "int256",
          "name": "_currentTimeResult",
          "type": "int256"
        },
        {
          "internalType": "bool",
          "name": "_inSwapCreditResult",
          "type": "bool"
        }
      ],
      "name": "_maxRecurringSwapAmount",
      "outputs": [
        {
          "internalType": "uint256",
          "name": "",
          "type": "uint256"
        }
      ],
      "stateMutability": "pure",
      "type": "function"
    },
    {
      "inputs": [
        {
          "internalType": "uint256",
          "name": "",
          "type": "uint256"
        }
      ],
      "name": "authorities",
      "outputs": [
        {
          "internalType": "uint256",
          "name": "token",
          "type": "uint256"
        },
        {
          "internalType": "uint256",
          "name": "maxSerial",
          "type": "uint256"
        }
      ],
      "stateMutability": "view",
      "type": "function"
    },
    {
      "inputs": [
        {
          "internalType": "address",
          "name": "_owner",
          "type": "address"
        },
        {
          "internalType": "uint256",
          "name": "_id",
          "type": "uint256"
        }
      ],
      "name": "balanceOf",
      "outputs": [
        {
          "internalType": "uint256",
          "name": "",
          "type": "uint256"
        }
      ],
      "stateMutability": "view",
      "type": "function"
    },
    {
      "inputs": [
        {
          "internalType": "address[]",
          "name": "_owners",
          "type": "address[]"
        },
        {
          "internalType": "uint256[]",
          "name": "_ids",
          "type": "uint256[]"
        }
      ],
      "name": "balanceOfBatch",
      "outputs": [
        {
          "internalType": "uint256[]",
          "name": "",
          "type": "uint256[]"
        }
      ],
      "stateMutability": "view",
      "type": "function"
    },
    {
      "inputs": [
        {
          "internalType": "address",
          "name": "_from",
          "type": "address"
        },
        {
          "internalType": "uint256",
          "name": "_id",
          "type": "uint256"
        },
        {
          "internalType": "uint256",
          "name": "_value",
          "type": "uint256"
        }
      ],
      "name": "burn",
      "outputs": [],
      "stateMutability": "nonpayable",
      "type": "function"
    },
    {
      "inputs": [
        {
          "internalType": "uint256",
          "name": "_child",
          "type": "uint256"
        },
        {
          "internalType": "uint256",
          "name": "_parent",
          "type": "uint256"
        }
      ],
      "name": "coeffient",
      "outputs": [
        {
          "internalType": "int128",
          "name": "",
          "type": "int128"
        }
      ],
      "stateMutability": "view",
      "type": "function"
    },
    {
      "inputs": [
        {
          "internalType": "string",
          "name": "_nonRetiredUri",
          "type": "string"
        },
        {
          "internalType": "string",
          "name": "_retiredUri",
          "type": "string"
        }
      ],
      "name": "createAuthority",
      "outputs": [],
      "stateMutability": "nonpayable",
      "type": "function"
    },
    {
      "inputs": [
        {
          "internalType": "uint256",
          "name": "_token",
          "type": "uint256"
        },
        {
          "internalType": "uint256",
          "name": "_amount",
          "type": "uint256"
        },
        {
          "internalType": "address",
          "name": "_owner",
          "type": "address"
        },
        {
          "internalType": "string",
          "name": "_fileCoinHash",
          "type": "string"
        }
      ],
      "name": "createCredit",
      "outputs": [
        {
          "internalType": "uint256",
          "name": "",
          "type": "uint256"
        }
      ],
      "stateMutability": "nonpayable",
      "type": "function"
    },
    {
      "inputs": [
        {
          "internalType": "uint256",
          "name": "",
          "type": "uint256"
        }
      ],
      "name": "credits",
      "outputs": [
        {
          "internalType": "address",
          "name": "authority",
          "type": "address"
        },
        {
          "internalType": "uint256",
          "name": "serial",
          "type": "uint256"
        },
        {
          "internalType": "uint256",
          "name": "amount",
          "type": "uint256"
        },
        {
          "internalType": "address",
          "name": "owner",
          "type": "address"
        },
        {
          "internalType": "string",
          "name": "fileCoinHash",
          "type": "string"
        }
      ],
      "stateMutability": "view",
      "type": "function"
    },
    {
      "inputs": [],
      "name": "currentTime",
      "outputs": [
        {
          "internalType": "int256",
          "name": "",
          "type": "int256"
        }
      ],
      "stateMutability": "view",
      "type": "function"
    },
    {
      "inputs": [
        {
          "internalType": "uint256[]",
          "name": "_ids",
          "type": "uint256[]"
        },
        {
          "internalType": "uint256",
          "name": "_amount",
          "type": "uint256"
        },
        {
          "internalType": "address",
          "name": "_from",
          "type": "address"
        },
        {
          "internalType": "bytes",
          "name": "_data",
          "type": "bytes"
        }
      ],
      "name": "exchangeToAncestor",
      "outputs": [],
      "stateMutability": "nonpayable",
      "type": "function"
    },
    {
      "inputs": [
        {
          "internalType": "address",
          "name": "_owner",
          "type": "address"
        },
        {
          "internalType": "address",
          "name": "_operator",
          "type": "address"
        }
      ],
      "name": "isApprovedForAll",
      "outputs": [
        {
          "internalType": "bool",
          "name": "",
          "type": "bool"
        }
      ],
      "stateMutability": "view",
      "type": "function"
    },
    {
      "inputs": [
        {
          "internalType": "uint256",
          "name": "_child",
          "type": "uint256"
        },
        {
          "internalType": "uint256",
          "name": "_parent",
          "type": "uint256"
        }
      ],
      "name": "isChild",
      "outputs": [
        {
          "internalType": "bool",
          "name": "",
          "type": "bool"
        }
      ],
      "stateMutability": "view",
      "type": "function"
    },
    {
      "inputs": [],
      "name": "maxCreditId",
      "outputs": [
        {
          "internalType": "uint256",
          "name": "",
          "type": "uint256"
        }
      ],
      "stateMutability": "view",
      "type": "function"
    },
    {
      "inputs": [
        {
          "internalType": "address",
          "name": "_to",
          "type": "address"
        },
        {
          "internalType": "uint256",
          "name": "_id",
          "type": "uint256"
        },
        {
          "internalType": "uint256",
          "name": "_value",
          "type": "uint256"
        },
        {
          "internalType": "bytes",
          "name": "_data",
          "type": "bytes"
        }
      ],
      "name": "mint",
      "outputs": [],
      "stateMutability": "nonpayable",
      "type": "function"
    },
    {
      "inputs": [],
      "name": "nextTokenId",
      "outputs": [
        {
          "internalType": "uint256",
          "name": "",
          "type": "uint256"
        }
      ],
      "stateMutability": "view",
      "type": "function"
    },
    {
      "inputs": [
        {
          "internalType": "uint256",
          "name": "_id",
          "type": "uint256"
        }
      ],
      "name": "removeTokenOwner",
      "outputs": [],
      "stateMutability": "nonpayable",
      "type": "function"
    },
    {
      "inputs": [
        {
          "internalType": "uint256",
          "name": "_nonRetiredToken",
          "type": "uint256"
        },
        {
          "internalType": "uint256",
          "name": "_amount",
          "type": "uint256"
        }
      ],
      "name": "retireCredit",
      "outputs": [],
      "stateMutability": "nonpayable",
      "type": "function"
    },
    {
      "inputs": [
        {
          "internalType": "address",
          "name": "_from",
          "type": "address"
        },
        {
          "internalType": "address",
          "name": "_to",
          "type": "address"
        },
        {
          "internalType": "uint256[]",
          "name": "_ids",
          "type": "uint256[]"
        },
        {
          "internalType": "uint256[]",
          "name": "_values",
          "type": "uint256[]"
        },
        {
          "internalType": "bytes",
          "name": "_data",
          "type": "bytes"
        }
      ],
      "name": "safeBatchTransferFrom",
      "outputs": [],
      "stateMutability": "nonpayable",
      "type": "function"
    },
    {
      "inputs": [
        {
          "internalType": "address",
          "name": "_from",
          "type": "address"
        },
        {
          "internalType": "address",
          "name": "_to",
          "type": "address"
        },
        {
          "internalType": "uint256",
          "name": "_id",
          "type": "uint256"
        },
        {
          "internalType": "uint256",
          "name": "_value",
          "type": "uint256"
        },
        {
          "internalType": "bytes",
          "name": "_data",
          "type": "bytes"
        }
      ],
      "name": "safeTransferFrom",
      "outputs": [],
      "stateMutability": "nonpayable",
      "type": "function"
    },
    {
      "inputs": [
        {
          "internalType": "address",
          "name": "_operator",
          "type": "address"
        },
        {
          "internalType": "bool",
          "name": "_approved",
          "type": "bool"
        }
      ],
      "name": "setApprovalForAll",
      "outputs": [],
      "stateMutability": "nonpayable",
      "type": "function"
    },
    {
      "inputs": [
        {
          "internalType": "uint256",
          "name": "_child",
          "type": "uint256"
        },
        {
          "internalType": "uint256",
          "name": "_parent",
          "type": "uint256"
        },
        {
          "internalType": "int128",
          "name": "_coefficient",
          "type": "int128"
        }
      ],
      "name": "setCoefficient",
      "outputs": [],
      "stateMutability": "nonpayable",
      "type": "function"
    },
    {
      "inputs": [
        {
          "internalType": "int256",
          "name": "_timestamp",
          "type": "int256"
        }
      ],
      "name": "setCurrentTime",
      "outputs": [],
      "stateMutability": "nonpayable",
      "type": "function"
    },
    {
      "inputs": [
        {
          "internalType": "uint256[]",
          "name": "_childs",
          "type": "uint256[]"
        },
        {
          "internalType": "bool",
          "name": "_disabled",
          "type": "bool"
        }
      ],
      "name": "setDisabled",
      "outputs": [],
      "stateMutability": "nonpayable",
      "type": "function"
    },
    {
      "inputs": [
        {
          "internalType": "uint256",
          "name": "_child",
          "type": "uint256"
        },
        {
          "internalType": "uint256",
          "name": "_parent",
          "type": "uint256"
        },
        {
          "internalType": "int256",
          "name": "_remainingSwapCredit",
          "type": "int256"
        },
        {
          "internalType": "bytes32",
          "name": "oldLimitHash",
          "type": "bytes32"
        }
      ],
      "name": "setNonRecurringFlow",
      "outputs": [],
      "stateMutability": "nonpayable",
      "type": "function"
    },
    {
      "inputs": [
        {
          "internalType": "uint256",
          "name": "_child",
          "type": "uint256"
        },
        {
          "internalType": "uint256",
          "name": "_parent",
          "type": "uint256"
        },
        {
          "internalType": "int256",
          "name": "_maxSwapCredit",
          "type": "int256"
        },
        {
          "internalType": "int256",
          "name": "_remainingSwapCredit",
          "type": "int256"
        },
        {
          "internalType": "int256",
          "name": "_swapCreditPeriod",
          "type": "int256"
        },
        {
          "internalType": "int256",
          "name": "_timeEnteredSwapCredit",
          "type": "int256"
        },
        {
          "internalType": "bytes32",
          "name": "oldLimitHash",
          "type": "bytes32"
        }
      ],
      "name": "setRecurringFlow",
      "outputs": [],
      "stateMutability": "nonpayable",
      "type": "function"
    },
    {
      "inputs": [
        {
          "internalType": "uint256",
          "name": "_nonRetiredToken",
          "type": "uint256"
        },
        {
          "internalType": "int128",
          "name": "_tax",
          "type": "int128"
        }
      ],
      "name": "setTax",
      "outputs": [],
      "stateMutability": "nonpayable",
      "type": "function"
    },
    {
      "inputs": [
        {
          "internalType": "uint256",
          "name": "_id",
          "type": "uint256"
        },
        {
          "internalType": "address",
          "name": "_newOwner",
          "type": "address"
        }
      ],
      "name": "setTokenOwner",
      "outputs": [],
      "stateMutability": "nonpayable",
      "type": "function"
    },
    {
      "inputs": [
        {
          "internalType": "uint256",
          "name": "_child",
          "type": "uint256"
        },
        {
          "internalType": "uint256",
          "name": "_parent",
          "type": "uint256"
        },
        {
          "internalType": "bool",
          "name": "_value",
          "type": "bool"
        }
      ],
      "name": "setTokenParent",
      "outputs": [],
      "stateMutability": "nonpayable",
      "type": "function"
    },
    {
      "inputs": [
        {
          "internalType": "uint256",
          "name": "_id",
          "type": "uint256"
        },
        {
          "internalType": "string",
          "name": "_uri",
          "type": "string"
        }
      ],
      "name": "setTokenUri",
      "outputs": [],
      "stateMutability": "nonpayable",
      "type": "function"
    },
    {
      "inputs": [
        {
          "internalType": "bytes4",
          "name": "_interfaceId",
          "type": "bytes4"
        }
      ],
      "name": "supportsInterface",
      "outputs": [
        {
          "internalType": "bool",
          "name": "",
          "type": "bool"
        }
      ],
      "stateMutability": "pure",
      "type": "function"
    },
    {
      "inputs": [
        {
          "internalType": "uint256",
          "name": "",
          "type": "uint256"
        }
      ],
      "name": "taxes",
      "outputs": [
        {
          "internalType": "int128",
          "name": "",
          "type": "int128"
        }
      ],
      "stateMutability": "view",
      "type": "function"
    },
    {
      "inputs": [
        {
          "internalType": "uint256",
          "name": "_child",
          "type": "uint256"
        },
        {
          "internalType": "uint256",
          "name": "_parent",
          "type": "uint256"
        }
      ],
      "name": "tokenFlow",
      "outputs": [
        {
          "components": [
            {
              "components": [
                {
                  "internalType": "bool",
                  "name": "recurring",
                  "type": "bool"
                },
                {
                  "internalType": "int256",
                  "name": "initialSwapCredit",
                  "type": "int256"
                },
                {
                  "internalType": "int256",
                  "name": "maxSwapCredit",
                  "type": "int256"
                },
                {
                  "internalType": "int256",
                  "name": "swapCreditPeriod",
                  "type": "int256"
                },
                {
                  "internalType": "int256",
                  "name": "firstTimeEnteredSwapCredit",
                  "type": "int256"
                }
              ],
              "internalType": "struct TokensFlow.SwapLimit",
              "name": "limit",
              "type": "tuple"
            },
            {
              "internalType": "int256",
              "name": "remainingSwapCredit",
              "type": "int256"
            },
            {
              "internalType": "int256",
              "name": "timeEnteredSwapCredit",
              "type": "int256"
            },
            {
              "internalType": "int256",
              "name": "lastSwapTime",
              "type": "int256"
            },
            {
              "internalType": "bool",
              "name": "disabled",
              "type": "bool"
            }
          ],
          "internalType": "struct TokensFlow.TokenFlow",
          "name": "",
          "type": "tuple"
        }
      ],
      "stateMutability": "view",
      "type": "function"
    },
    {
      "inputs": [
        {
          "internalType": "uint256",
          "name": "",
          "type": "uint256"
        }
      ],
      "name": "tokenOwners",
      "outputs": [
        {
          "internalType": "address",
          "name": "",
          "type": "address"
        }
      ],
      "stateMutability": "view",
      "type": "function"
    },
    {
      "inputs": [
        {
          "internalType": "uint256",
          "name": "_id",
          "type": "uint256"
        }
      ],
      "name": "totalSupply",
      "outputs": [
        {
          "internalType": "uint256",
          "name": "",
          "type": "uint256"
        }
      ],
      "stateMutability": "view",
      "type": "function"
    },
    {
      "inputs": [
        {
          "internalType": "uint256",
          "name": "_id",
          "type": "uint256"
        }
      ],
      "name": "uri",
      "outputs": [
        {
          "internalType": "string",
          "name": "",
          "type": "string"
        }
      ],
      "stateMutability": "view",
      "type": "function"
    }
  ],
  "bytecode": "0x6080604052612710600d5534801561001657600080fd5b5060016002819055506151198061002e6000396000f3fe608060405234801561001057600080fd5b506004361061023c5760003560e01c80637c65cd031161013b578063e0511b31116100b8578063f242432a1161007c578063f242432a14610730578063f5298aca1461074c578063f8a14f4614610768578063f98e990f14610798578063fbd1342d146107b45761023c565b8063e0511b311461067c578063e0a82ab4146106ac578063e985e9c5146106c8578063ecf95bc9146106f8578063f104eb95146107145761023c565b8063bd85b039116100ff578063bd85b039146105b2578063c11abbd9146105e2578063c5be2bc7146105fe578063d18e81b31461062e578063de3d7f8a1461064c5761023c565b80637c65cd0314610512578063946c0c0f1461052e578063a22cb4651461054a578063a2c2823a14610566578063b7fdf314146105965761023c565b8063489b5d42116101c957806365f9b9b81161018d57806365f9b9b8146104705780636aee80db1461048c578063728dc992146104a8578063731133e9146104d857806375794a3c146104f45761023c565b8063489b5d42146103b9578063494503d4146103d55780634e1273f414610406578063543a76d51461043657806357f7789e146104545761023c565b806309aca9431161021057806309aca943146103055780630a074d3e146103355780630e89341c1461035157806323eac4bd146103815780632eb2c2d61461039d5761023c565b8062fdd58e1461024157806301ffc9a714610271578063036a1c22146102a1578063061af135146102d5575b600080fd5b61025b60048036038101906102569190613e46565b6107d0565b6040516102689190614dc7565b60405180910390f35b61028b600480360381019061028691906140b4565b61082a565b6040516102989190614c78565b60405180910390f35b6102bb60048036038101906102b69190614234565b6108db565b6040516102cc959493929190614bc1565b60405180910390f35b6102ef60048036038101906102ea919061432d565b6109e9565b6040516102fc9190614c78565b60405180910390f35b61031f600480360381019061031a91906141a4565b610a25565b60405161032c9190614c78565b60405180910390f35b61034f600480360381019061034a9190613e82565b610a50565b005b61036b60048036038101906103669190614234565b610baa565b6040516103789190614cc9565b60405180910390f35b61039b6004803603810190610396919061425d565b610c5f565b005b6103b760048036038101906103b29190613cac565b610d5a565b005b6103d360048036038101906103ce9190613ed1565b610d74565b005b6103ef60048036038101906103ea9190614234565b610f40565b6040516103fd929190614e22565b60405180910390f35b610420600480360381019061041b9190613f4c565b610f64565b60405161042d9190614c56565b60405180910390f35b61043e611086565b60405161044b9190614dc7565b60405180910390f35b61046e600480360381019061046991906142d5565b61108c565b005b61048a6004803603810190610485919061412f565b61111f565b005b6104a660048036038101906104a19190614106565b611258565b005b6104c260048036038101906104bd919061432d565b611271565b6040516104cf9190614c93565b60405180910390f35b6104f260048036038101906104ed9190613ed1565b6112ad565b005b6104fc6112bf565b6040516105099190614dc7565b60405180910390f35b61052c60048036038101906105279190614019565b6112c5565b005b61054860048036038101906105439190614234565b6117d4565b005b610564600480360381019061055f9190613e0a565b611895565b005b610580600480360381019061057b9190614369565b611992565b60405161058d9190614dc7565b60405180910390f35b6105b060048036038101906105ab91906144ea565b611c38565b005b6105cc60048036038101906105c79190614234565b611da9565b6040516105d99190614dc7565b60405180910390f35b6105fc60048036038101906105f7919061432d565b611dc6565b005b61061860048036038101906106139190614234565b611e99565b6040516106259190614c93565b60405180910390f35b610636611eb9565b6040516106439190614cae565b60405180910390f35b610666600480360381019061066191906141e2565b611ec8565b6040516106739190614dc7565b60405180910390f35b6106966004803603810190610691919061432d565b611f33565b6040516106a39190614dab565b60405180910390f35b6106c660048036038101906106c191906143e9565b612002565b005b6106e260048036038101906106dd9190613c70565b61207d565b6040516106ef9190614c78565b60405180910390f35b610712600480360381019061070d9190614438565b612111565b005b61072e60048036038101906107299190614299565b6121df565b005b61074a60048036038101906107459190613d78565b6122dd565b005b61076660048036038101906107619190613e82565b6122f3565b005b610782600480360381019061077d9190614234565b61254c565b60405161078f9190614ae4565b60405180910390f35b6107b260048036038101906107ad9190614487565b61257f565b005b6107ce60048036038101906107c99190613fc1565b6126e6565b005b600080600083815260200190815260200160002060008473ffffffffffffffffffffffffffffffffffffffff1673ffffffffffffffffffffffffffffffffffffffff16815260200190815260200160002054905092915050565b60006301ffc9a760e01b7bffffffffffffffffffffffffffffffffffffffffffffffffffffffff1916827bffffffffffffffffffffffffffffffffffffffffffffffffffffffff191614806108c3575063d9b67a2660e01b7bffffffffffffffffffffffffffffffffffffffffffffffffffffffff1916827bffffffffffffffffffffffffffffffffffffffffffffffffffffffff1916145b156108d157600190506108d6565b600090505b919050565b600b6020528060005260406000206000915090508060000160009054906101000a900473ffffffffffffffffffffffffffffffffffffffff16908060010154908060020154908060030160009054906101000a900473ffffffffffffffffffffffffffffffffffffffff1690806004018054600181600116156101000203166002900480601f0160208091040260200160405190810160405280929190818152602001828054600181600116156101000203166002900480156109df5780601f106109b4576101008083540402835291602001916109df565b820191906000526020600020905b8154815290600101906020018083116109c257829003601f168201915b5050505050905085565b600060036000848152602001908152602001600020600083815260200190815260200160002060009054906101000a900460ff16905092915050565b600080836040015114158015610a48575082600001516060015183604001518303125b905092915050565b610ab28160008085815260200190815260200160002060008673ffffffffffffffffffffffffffffffffffffffff1673ffffffffffffffffffffffffffffffffffffffff1681526020019081526020016000205461285890919063ffffffff16565b60008084815260200190815260200160002060008573ffffffffffffffffffffffffffffffffffffffff1673ffffffffffffffffffffffffffffffffffffffff16815260200190815260200160002081905550806007600084815260200190815260200160002060008282540392505081905550600073ffffffffffffffffffffffffffffffffffffffff168373ffffffffffffffffffffffffffffffffffffffff163373ffffffffffffffffffffffffffffffffffffffff167fc3d58168c5ae7397731d063d5bbf3d657854427343f4c083240f7aacaa2d0f628585604051610b9d929190614e22565b60405180910390a4505050565b6060600860008381526020019081526020016000208054600181600116156101000203166002900480601f016020809104026020016040519081016040528092919081815260200182805460018160011615610100020316600290048015610c535780601f10610c2857610100808354040283529160200191610c53565b820191906000526020600020905b815481529060010190602001808311610c3657829003601f168201915b50505050509050919050565b6006600083815260200190815260200160002060009054906101000a900473ffffffffffffffffffffffffffffffffffffffff1673ffffffffffffffffffffffffffffffffffffffff163373ffffffffffffffffffffffffffffffffffffffff1614610cca57600080fd5b600073ffffffffffffffffffffffffffffffffffffffff168173ffffffffffffffffffffffffffffffffffffffff161415610d0457600080fd5b806006600084815260200190815260200160002060006101000a81548173ffffffffffffffffffffffffffffffffffffffff021916908373ffffffffffffffffffffffffffffffffffffffff1602179055505050565b610d6a888888888888888861286f565b5050505050505050565b600073ffffffffffffffffffffffffffffffffffffffff168473ffffffffffffffffffffffffffffffffffffffff161415610de4576040517f08c379a0000000000000000000000000000000000000000000000000000000008152600401610ddb90614d8b565b60405180910390fd5b60008214610e8757610e12600760008581526020019081526020016000205483612d5f90919063ffffffff16565b60076000858152602001908152602001600020819055508160008085815260200190815260200160002060008673ffffffffffffffffffffffffffffffffffffffff1673ffffffffffffffffffffffffffffffffffffffff168152602001908152602001600020600082825401925050819055505b8373ffffffffffffffffffffffffffffffffffffffff16600073ffffffffffffffffffffffffffffffffffffffff163373ffffffffffffffffffffffffffffffffffffffff167fc3d58168c5ae7397731d063d5bbf3d657854427343f4c083240f7aacaa2d0f628686604051610efe929190614e22565b60405180910390a4610f258473ffffffffffffffffffffffffffffffffffffffff16612d76565b15610f3a57610f3933600086868686612d89565b5b50505050565b600a6020528060005260406000206000915090508060000154908060010154905082565b6060828290508585905014610f7857600080fd5b60608585905067ffffffffffffffff81118015610f9457600080fd5b50604051908082528060200260200182016040528015610fc35781602001602082028036833780820191505090505b50905060005b8686905081101561107957600080868684818110610fe357fe5b905060200201358152602001908152602001600020600088888481811061100657fe5b905060200201602081019061101b9190613c47565b73ffffffffffffffffffffffffffffffffffffffff1673ffffffffffffffffffffffffffffffffffffffff1681526020019081526020016000205482828151811061106257fe5b602002602001018181525050806001019050610fc9565b5080915050949350505050565b600c5481565b6006600084815260200190815260200160002060009054906101000a900473ffffffffffffffffffffffffffffffffffffffff1673ffffffffffffffffffffffffffffffffffffffff163373ffffffffffffffffffffffffffffffffffffffff16146110f757600080fd5b8181600860008681526020019081526020016000209190611119929190613717565b50505050565b600061116f85858080601f016020809104026020016040519081016040528093929190818152602001838380828437600081840152601f19601f8201169050808301925050505050505033612eaa565b90506111c083838080601f016020809104026020016040519081016040528093929190818152602001838380828437600081840152601f19601f820116905080830192505050505050506000612eaa565b506111c9613797565b60405180604001604052808381526020016000815250905080600a60008481526020019081526020016000206000820151816000015560208201518160010155905050813373ffffffffffffffffffffffffffffffffffffffff167f0e77afbf76314bb085ab34f7e91e15cdb38dc97d740b8421e3bc413074b7148f60405160405180910390a3505050505050565b600d5481121561126757600080fd5b80600d8190555050565b600060056000848152602001908152602001600020600083815260200190815260200160002060009054906101000a9004600f0b905092915050565b6112b984848484610d74565b50505050565b60025481565b3373ffffffffffffffffffffffffffffffffffffffff168373ffffffffffffffffffffffffffffffffffffffff1614806113855750600160003373ffffffffffffffffffffffffffffffffffffffff1673ffffffffffffffffffffffffffffffffffffffff16815260200190815260200160002060008473ffffffffffffffffffffffffffffffffffffffff1673ffffffffffffffffffffffffffffffffffffffff16815260200190815260200160002060009054906101000a900460ff165b6113c4576040517f08c379a00000000000000000000000000000000000000000000000000000000081526004016113bb90614ceb565b60405180910390fd5b60008686600189899050038181106113d857fe5b9050602002013514156113ea57600080fd5b700100000000000000000000000000000000841061140757600080fd5b60008060008888600081811061141957fe5b90506020020135815260200190815260200160002060008573ffffffffffffffffffffffffffffffffffffffff1673ffffffffffffffffffffffffffffffffffffffff1681526020019081526020016000205490508085111561147b57600080fd5b60008086905060005b60018a8a90500381146117425760008a8a8381811061149f57fe5b90506020020135905060008b8b600185018181106114b957fe5b9050602002013590506114cc8282612f94565b94508460080160009054906101000a900460ff16156114ea57600080fd5b60006114f461305e565b90506000808760000160000160009054906101000a900460ff1615611667576115b8886040518060a0016040529081600082016040518060a00160405290816000820160009054906101000a900460ff1615151515815260200160018201548152602001600282015481526020016003820154815260200160048201548152505081526020016005820154815260200160068201548152602001600782015481526020016008820160009054906101000a900460ff16151515158152505084610a25565b9050611660886040518060a0016040529081600082016040518060a00160405290816000820160009054906101000a900460ff1615151515815260200160018201548152602001600282015481526020016003820154815260200160048201548152505081526020016005820154815260200160068201548152602001600782015481526020016008820160009054906101000a900460ff1615151515815250508483611ec8565b9150611683565b600088600501541261167d578760050154611680565b60005b91505b818d111561169057600080fd5b8760000160000160009054906101000a900460ff1680156116af575080155b156116ce57828860060181905550876000016002015488600501819055505b8288600701819055508c88600501600082825403925050819055506117308760056000888152602001908152602001600020600087815260200190815260200160002060009054906101000a9004600f0b600f0b61306890919063ffffffff16565b96505050505050806001019050611484565b50611761868a8a600081811061175457fe5b9050602002013589610a50565b6117c9868a8a60018d8d90500381811061177757fe5b905060200201358388888080601f016020809104026020016040519081016040528093929190818152602001838380828437600081840152601f19601f82011690508083019250505050505050610d74565b505050505050505050565b6006600082815260200190815260200160002060009054906101000a900473ffffffffffffffffffffffffffffffffffffffff1673ffffffffffffffffffffffffffffffffffffffff163373ffffffffffffffffffffffffffffffffffffffff161461183f57600080fd5b60006006600083815260200190815260200160002060006101000a81548173ffffffffffffffffffffffffffffffffffffffff021916908373ffffffffffffffffffffffffffffffffffffffff16021790555050565b80600160003373ffffffffffffffffffffffffffffffffffffffff1673ffffffffffffffffffffffffffffffffffffffff16815260200190815260200160002060008473ffffffffffffffffffffffffffffffffffffffff1673ffffffffffffffffffffffffffffffffffffffff16815260200190815260200160002060006101000a81548160ff0219169083151502179055508173ffffffffffffffffffffffffffffffffffffffff163373ffffffffffffffffffffffffffffffffffffffff167f17307eab39ab6107e8899845ad3d59bd9653f200f220920489ca2b5937696c31836040516119869190614c78565b60405180910390a35050565b60003373ffffffffffffffffffffffffffffffffffffffff166006600088815260200190815260200160002060009054906101000a900473ffffffffffffffffffffffffffffffffffffffff1673ffffffffffffffffffffffffffffffffffffffff16146119ff57600080fd5b6000600a60008881526020019081526020016000209050611a1e6137b1565b6040518060a001604052803373ffffffffffffffffffffffffffffffffffffffff168152602001836001016000815460010191905081905581526020018881526020018773ffffffffffffffffffffffffffffffffffffffff16815260200186868080601f016020809104026020016040519081016040528093929190818152602001838380828437600081840152601f19601f82011690508083019250505050505050815250905080600b6000600c60008154600101919050819055815260200190815260200160002060008201518160000160006101000a81548173ffffffffffffffffffffffffffffffffffffffff021916908373ffffffffffffffffffffffffffffffffffffffff160217905550602082015181600101556040820151816002015560608201518160030160006101000a81548173ffffffffffffffffffffffffffffffffffffffff021916908373ffffffffffffffffffffffffffffffffffffffff1602179055506080820151816004019080519060200190611ba792919061380c565b509050506060604051806020016040528060008152509050611bcb878a8a84610d74565b82600101543373ffffffffffffffffffffffffffffffffffffffff16600c547f5fb186fbfd022553cd9c231aeaca029cb50000d19f12e02ff460c13b0bc53d708b8b8b8b604051611c1f9493929190614de2565b60405180910390a4600c54935050505095945050505050565b6006600087815260200190815260200160002060009054906101000a900473ffffffffffffffffffffffffffffffffffffffff1673ffffffffffffffffffffffffffffffffffffffff163373ffffffffffffffffffffffffffffffffffffffff1614611ca357600080fd5b60006004600089815260200190815260200160002060008881526020019081526020016000209050611d25816000016040518060a00160405290816000820160009054906101000a900460ff16151515158152602001600182015481526020016002820154815260200160038201548152602001600482015481525050613123565b8214611d3057600080fd5b611d3e60018688878761316f565b8160000160008201518160000160006101000a81548160ff021916908315150217905550602082015181600101556040820151816002015560608201518160030155608082015181600401559050508281600601819055508481600501819055505050505050505050565b600060076000838152602001908152602001600020549050919050565b81600160028281611dd357fe5b0614611dde57600080fd5b611de9338484610a50565b6000611e21836009600087815260200190815260200160002060009054906101000a9004600f0b600f0b61306890919063ffffffff16565b905060606040518060200160405280600081525090506000611e42866131ab565b9050611e836006600083815260200190815260200160002060009054906101000a900473ffffffffffffffffffffffffffffffffffffffff16828585610d74565b611e91338285880385610d74565b505050505050565b60096020528060005260406000206000915054906101000a9004600f0b81565b6000611ec361305e565b905090565b6000808215611f0c5760008560600151850390506000866000015160600151828860000151604001510281611ef957fe5b0590508087602001510392505050611f18565b84600001516040015190505b60008112611f265780611f29565b60005b9150509392505050565b611f3b61388c565b6004600084815260200190815260200160002060008381526020019081526020016000206040518060a0016040529081600082016040518060a00160405290816000820160009054906101000a900460ff1615151515815260200160018201548152602001600282015481526020016003820154815260200160048201548152505081526020016005820154815260200160068201548152602001600782015481526020016008820160009054906101000a900460ff161515151581525050905092915050565b6006600084815260200190815260200160002060009054906101000a900473ffffffffffffffffffffffffffffffffffffffff1673ffffffffffffffffffffffffffffffffffffffff163373ffffffffffffffffffffffffffffffffffffffff161461206d57600080fd5b6120788383836131d1565b505050565b6000600160008473ffffffffffffffffffffffffffffffffffffffff1673ffffffffffffffffffffffffffffffffffffffff16815260200190815260200160002060008373ffffffffffffffffffffffffffffffffffffffff1673ffffffffffffffffffffffffffffffffffffffff16815260200190815260200160002060009054906101000a900460ff16905092915050565b6006600083815260200190815260200160002060009054906101000a900473ffffffffffffffffffffffffffffffffffffffff1673ffffffffffffffffffffffffffffffffffffffff163373ffffffffffffffffffffffffffffffffffffffff161461217c57600080fd5b8060056000858152602001908152602001600020600084815260200190815260200160002060006101000a8154816fffffffffffffffffffffffffffffffff0219169083600f0b6fffffffffffffffffffffffffffffffff160217905550505050565b816001600282816121ec57fe5b06146121f757600080fd5b6006600084815260200190815260200160002060009054906101000a900473ffffffffffffffffffffffffffffffffffffffff1673ffffffffffffffffffffffffffffffffffffffff163373ffffffffffffffffffffffffffffffffffffffff161461226257600080fd5b600082600f0b1215801561228257506801000000000000000082600f0b13155b61228b57600080fd5b816009600085815260200190815260200160002060006101000a8154816fffffffffffffffffffffffffffffffff0219169083600f0b6fffffffffffffffffffffffffffffffff160217905550505050565b6122eb868686868686613220565b505050505050565b3373ffffffffffffffffffffffffffffffffffffffff168373ffffffffffffffffffffffffffffffffffffffff1614806123b35750600160003373ffffffffffffffffffffffffffffffffffffffff1673ffffffffffffffffffffffffffffffffffffffff16815260200190815260200160002060008473ffffffffffffffffffffffffffffffffffffffff1673ffffffffffffffffffffffffffffffffffffffff16815260200190815260200160002060009054906101000a900460ff165b6123f2576040517f08c379a00000000000000000000000000000000000000000000000000000000081526004016123e990614ceb565b60405180910390fd5b6124548160008085815260200190815260200160002060008673ffffffffffffffffffffffffffffffffffffffff1673ffffffffffffffffffffffffffffffffffffffff1681526020019081526020016000205461285890919063ffffffff16565b60008084815260200190815260200160002060008573ffffffffffffffffffffffffffffffffffffffff1673ffffffffffffffffffffffffffffffffffffffff16815260200190815260200160002081905550806007600084815260200190815260200160002060008282540392505081905550600073ffffffffffffffffffffffffffffffffffffffff168373ffffffffffffffffffffffffffffffffffffffff163373ffffffffffffffffffffffffffffffffffffffff167fc3d58168c5ae7397731d063d5bbf3d657854427343f4c083240f7aacaa2d0f62858560405161253f929190614e22565b60405180910390a4505050565b60066020528060005260406000206000915054906101000a900473ffffffffffffffffffffffffffffffffffffffff1681565b6006600084815260200190815260200160002060009054906101000a900473ffffffffffffffffffffffffffffffffffffffff1673ffffffffffffffffffffffffffffffffffffffff163373ffffffffffffffffffffffffffffffffffffffff16146125ea57600080fd5b6000600460008681526020019081526020016000206000858152602001908152602001600020905061266c816000016040518060a00160405290816000820160009054906101000a900460ff16151515158152602001600182015481526020016002820154815260200160038201548152602001600482015481525050613123565b821461267757600080fd5b612687600084600080600061316f565b8160000160008201518160000160006101000a81548160ff021916908315150217905550602082015181600101556040820151816002015560608201518160030155608082015181600401559050508281600501819055505050505050565b60008383600186869050038181106126fa57fe5b9050602002013590506006600082815260200190815260200160002060009054906101000a900473ffffffffffffffffffffffffffffffffffffffff1673ffffffffffffffffffffffffffffffffffffffff163373ffffffffffffffffffffffffffffffffffffffff161461276e57600080fd5b60005b60018585905003811461285157600085858381811061278c57fe5b905060200201359050828114156127a257600080fd5b6001868690500382146128455760008686600185018181106127c057fe5b90506020020135905060036000838152602001908152602001600020600082815260200190815260200160002060009054906101000a900460ff1661280457600080fd5b8460046000848152602001908152602001600020600083815260200190815260200160002060080160006101000a81548160ff021916908315150217905550505b50806001019050612771565b5050505050565b60008282111561286457fe5b818303905092915050565b600073ffffffffffffffffffffffffffffffffffffffff168773ffffffffffffffffffffffffffffffffffffffff1614156128df576040517f08c379a00000000000000000000000000000000000000000000000000000000081526004016128d690614d0b565b60405180910390fd5b838390508686905014612927576040517f08c379a000000000000000000000000000000000000000000000000000000000815260040161291e90614d4b565b60405180910390fd5b3373ffffffffffffffffffffffffffffffffffffffff168873ffffffffffffffffffffffffffffffffffffffff1614806129e75750600160003373ffffffffffffffffffffffffffffffffffffffff1673ffffffffffffffffffffffffffffffffffffffff16815260200190815260200160002060008973ffffffffffffffffffffffffffffffffffffffff1673ffffffffffffffffffffffffffffffffffffffff16815260200190815260200160002060009054906101000a900460ff165b612a26576040517f08c379a0000000000000000000000000000000000000000000000000000000008152600401612a1d90614ceb565b60405180910390fd5b60005b86869050811015612bd9576000878783818110612a4257fe5b9050602002013590506000868684818110612a5957fe5b905060200201359050612ac48160008085815260200190815260200160002060008e73ffffffffffffffffffffffffffffffffffffffff1673ffffffffffffffffffffffffffffffffffffffff1681526020019081526020016000205461285890919063ffffffff16565b60008084815260200190815260200160002060008d73ffffffffffffffffffffffffffffffffffffffff1673ffffffffffffffffffffffffffffffffffffffff16815260200190815260200160002081905550612b7960008084815260200190815260200160002060008c73ffffffffffffffffffffffffffffffffffffffff1673ffffffffffffffffffffffffffffffffffffffff1681526020019081526020016000205482612d5f90919063ffffffff16565b60008084815260200190815260200160002060008c73ffffffffffffffffffffffffffffffffffffffff1673ffffffffffffffffffffffffffffffffffffffff168152602001908152602001600020819055505050806001019050612a29565b508673ffffffffffffffffffffffffffffffffffffffff168873ffffffffffffffffffffffffffffffffffffffff163373ffffffffffffffffffffffffffffffffffffffff167f4a39dc06d4c0dbc64b70af90fd698a233a518aa5d07e595d983b8c0526c8f7fb89898989604051612c549493929190614c1b565b60405180910390a4612c7b8773ffffffffffffffffffffffffffffffffffffffff16612d76565b15612d5557612d54338989898980806020026020016040519081016040528093929190818152602001838360200280828437600081840152601f19601f82011690508083019250505050505050888880806020026020016040519081016040528093929190818152602001838360200280828437600081840152601f19601f8201169050808301925050505050505087878080601f016020809104026020016040519081016040528093929190818152602001838380828437600081840152601f19601f820116905080830192505050505050506135f6565b5b5050505050505050565b6000818301905082811015612d7057fe5b92915050565b600080823b905060008111915050919050565b63f23a6e6160e01b7bffffffffffffffffffffffffffffffffffffffffffffffffffffffff19168473ffffffffffffffffffffffffffffffffffffffff1663f23a6e6188888787876040518663ffffffff1660e01b8152600401612df1959493929190614b67565b602060405180830381600087803b158015612e0b57600080fd5b505af1158015612e1f573d6000803e3d6000fd5b505050506040513d601f19601f82011682018060405250810190612e4391906140dd565b7bffffffffffffffffffffffffffffffffffffffffffffffffffffffff191614612ea2576040517f08c379a0000000000000000000000000000000000000000000000000000000008152600401612e9990614d6b565b60405180910390fd5b505050505050565b60008160066000600254815260200190815260200160002060006101000a81548173ffffffffffffffffffffffffffffffffffffffff021916908373ffffffffffffffffffffffffffffffffffffffff160217905550826008600060025481526020019081526020016000209080519060200190612f2992919061380c565b508173ffffffffffffffffffffffffffffffffffffffff166002547ff031a088aa7b1646f284daae9871f10581d991a0d4dcfe07f7834d04201680c585604051612f739190614cc9565b60405180910390a36002600081548092919060010191905055905092915050565b6000807ffffffffffffffffffffffffffffffffffffffffffffffffffffffffffffffffe8416905060007ffffffffffffffffffffffffffffffffffffffffffffffffffffffffffffffffe8416905060036000838152602001908152602001600020600082815260200190815260200160002060009054906101000a900460ff1661301e57600080fd5b60018416600186161461303057600080fd5b6004600083815260200190815260200160002060008281526020019081526020016000209250505092915050565b6000600d54905090565b60008082141561307b576000905061311d565b600083600f0b121561308c57600080fd5b600060406fffffffffffffffffffffffffffffffff841685600f0b02901c90506000608084901c85600f0b02905077ffffffffffffffffffffffffffffffffffffffffffffffff8111156130df57600080fd5b604081901b9050817fffffffffffffffffffffffffffffffffffffffffffffffffffffffffffffffff0381111561311557600080fd5b818101925050505b92915050565b600081600001518260200151836040015184606001518560800151604051602001613152959493929190614a85565b604051602081830303815290604052805190602001209050919050565b6131776138c3565b6040518060a00160405280871515815260200186815260200185815260200184815260200183815250905095945050505050565b6000816001600282816131ba57fe5b06146131c557600080fd5b60018301915050919050565b60025482106131df57600080fd5b8060036000858152602001908152602001600020600084815260200190815260200160002060006101000a81548160ff021916908315150217905550505050565b600073ffffffffffffffffffffffffffffffffffffffff168573ffffffffffffffffffffffffffffffffffffffff161415613290576040517f08c379a000000000000000000000000000000000000000000000000000000000815260040161328790614d8b565b60405180910390fd5b3373ffffffffffffffffffffffffffffffffffffffff168673ffffffffffffffffffffffffffffffffffffffff1614806133505750600160003373ffffffffffffffffffffffffffffffffffffffff1673ffffffffffffffffffffffffffffffffffffffff16815260200190815260200160002060008773ffffffffffffffffffffffffffffffffffffffff1673ffffffffffffffffffffffffffffffffffffffff16815260200190815260200160002060009054906101000a900460ff165b61338f576040517f08c379a000000000000000000000000000000000000000000000000000000000815260040161338690614ceb565b60405180910390fd5b6133f18360008087815260200190815260200160002060008973ffffffffffffffffffffffffffffffffffffffff1673ffffffffffffffffffffffffffffffffffffffff1681526020019081526020016000205461285890919063ffffffff16565b60008086815260200190815260200160002060008873ffffffffffffffffffffffffffffffffffffffff1673ffffffffffffffffffffffffffffffffffffffff168152602001908152602001600020819055506134a660008086815260200190815260200160002060008773ffffffffffffffffffffffffffffffffffffffff1673ffffffffffffffffffffffffffffffffffffffff1681526020019081526020016000205484612d5f90919063ffffffff16565b60008086815260200190815260200160002060008773ffffffffffffffffffffffffffffffffffffffff1673ffffffffffffffffffffffffffffffffffffffff168152602001908152602001600020819055508473ffffffffffffffffffffffffffffffffffffffff168673ffffffffffffffffffffffffffffffffffffffff163373ffffffffffffffffffffffffffffffffffffffff167fc3d58168c5ae7397731d063d5bbf3d657854427343f4c083240f7aacaa2d0f62878760405161356f929190614e22565b60405180910390a46135968573ffffffffffffffffffffffffffffffffffffffff16612d76565b156135ee576135ed338787878787878080601f016020809104026020016040519081016040528093929190818152602001838380828437600081840152601f19601f82011690508083019250505050505050612d89565b5b505050505050565b63bc197c8160e01b7bffffffffffffffffffffffffffffffffffffffffffffffffffffffff19168473ffffffffffffffffffffffffffffffffffffffff1663bc197c8188888787876040518663ffffffff1660e01b815260040161365e959493929190614aff565b602060405180830381600087803b15801561367857600080fd5b505af115801561368c573d6000803e3d6000fd5b505050506040513d601f19601f820116820180604052508101906136b091906140dd565b7bffffffffffffffffffffffffffffffffffffffffffffffffffffffff19161461370f576040517f08c379a000000000000000000000000000000000000000000000000000000000815260040161370690614d2b565b60405180910390fd5b505050505050565b828054600181600116156101000203166002900490600052602060002090601f016020900481019282601f1061375857803560ff1916838001178555613786565b82800160010185558215613786579182015b8281111561378557823582559160200191906001019061376a565b5b50905061379391906138f4565b5090565b604051806040016040528060008152602001600081525090565b6040518060a00160405280600073ffffffffffffffffffffffffffffffffffffffff1681526020016000815260200160008152602001600073ffffffffffffffffffffffffffffffffffffffff168152602001606081525090565b828054600181600116156101000203166002900490600052602060002090601f016020900481019282601f1061384d57805160ff191683800117855561387b565b8280016001018555821561387b579182015b8281111561387a57825182559160200191906001019061385f565b5b50905061388891906138f4565b5090565b6040518060a0016040528061389f6138c3565b81526020016000815260200160008152602001600081526020016000151581525090565b6040518060a00160405280600015158152602001600081526020016000815260200160008152602001600081525090565b5b8082111561390d5760008160009055506001016138f5565b5090565b60008135905061392081615042565b92915050565b60008083601f84011261393857600080fd5b8235905067ffffffffffffffff81111561395157600080fd5b60208301915083602082028301111561396957600080fd5b9250929050565b60008083601f84011261398257600080fd5b8235905067ffffffffffffffff81111561399b57600080fd5b6020830191508360208202830111156139b357600080fd5b9250929050565b6000813590506139c981615059565b92915050565b6000813590506139de81615070565b92915050565b6000813590506139f381615087565b92915050565b600081519050613a0881615087565b92915050565b60008083601f840112613a2057600080fd5b8235905067ffffffffffffffff811115613a3957600080fd5b602083019150836001820283011115613a5157600080fd5b9250929050565b600082601f830112613a6957600080fd5b8135613a7c613a7782614e7c565b614e4b565b91508082526020830160208301858383011115613a9857600080fd5b613aa3838284614fb2565b50505092915050565b600081359050613abb8161509e565b92915050565b600081359050613ad0816150b5565b92915050565b60008083601f840112613ae857600080fd5b8235905067ffffffffffffffff811115613b0157600080fd5b602083019150836001820283011115613b1957600080fd5b9250929050565b600060a08284031215613b3257600080fd5b613b3c60a0614e4b565b90506000613b4c848285016139ba565b6000830152506020613b6084828501613ac1565b6020830152506040613b7484828501613ac1565b6040830152506060613b8884828501613ac1565b6060830152506080613b9c84828501613ac1565b60808301525092915050565b60006101208284031215613bbb57600080fd5b613bc560a0614e4b565b90506000613bd584828501613b20565b60008301525060a0613be984828501613ac1565b60208301525060c0613bfd84828501613ac1565b60408301525060e0613c1184828501613ac1565b606083015250610100613c26848285016139ba565b60808301525092915050565b600081359050613c41816150cc565b92915050565b600060208284031215613c5957600080fd5b6000613c6784828501613911565b91505092915050565b60008060408385031215613c8357600080fd5b6000613c9185828601613911565b9250506020613ca285828601613911565b9150509250929050565b60008060008060008060008060a0898b031215613cc857600080fd5b6000613cd68b828c01613911565b9850506020613ce78b828c01613911565b975050604089013567ffffffffffffffff811115613d0457600080fd5b613d108b828c01613970565b9650965050606089013567ffffffffffffffff811115613d2f57600080fd5b613d3b8b828c01613970565b9450945050608089013567ffffffffffffffff811115613d5a57600080fd5b613d668b828c01613a0e565b92509250509295985092959890939650565b60008060008060008060a08789031215613d9157600080fd5b6000613d9f89828a01613911565b9650506020613db089828a01613911565b9550506040613dc189828a01613c32565b9450506060613dd289828a01613c32565b935050608087013567ffffffffffffffff811115613def57600080fd5b613dfb89828a01613a0e565b92509250509295509295509295565b60008060408385031215613e1d57600080fd5b6000613e2b85828601613911565b9250506020613e3c858286016139ba565b9150509250929050565b60008060408385031215613e5957600080fd5b6000613e6785828601613911565b9250506020613e7885828601613c32565b9150509250929050565b600080600060608486031215613e9757600080fd5b6000613ea586828701613911565b9350506020613eb686828701613c32565b9250506040613ec786828701613c32565b9150509250925092565b60008060008060808587031215613ee757600080fd5b6000613ef587828801613911565b9450506020613f0687828801613c32565b9350506040613f1787828801613c32565b925050606085013567ffffffffffffffff811115613f3457600080fd5b613f4087828801613a58565b91505092959194509250565b60008060008060408587031215613f6257600080fd5b600085013567ffffffffffffffff811115613f7c57600080fd5b613f8887828801613926565b9450945050602085013567ffffffffffffffff811115613fa757600080fd5b613fb387828801613970565b925092505092959194509250565b600080600060408486031215613fd657600080fd5b600084013567ffffffffffffffff811115613ff057600080fd5b613ffc86828701613970565b9350935050602061400f868287016139ba565b9150509250925092565b6000806000806000806080878903121561403257600080fd5b600087013567ffffffffffffffff81111561404c57600080fd5b61405889828a01613970565b9650965050602061406b89828a01613c32565b945050604061407c89828a01613911565b935050606087013567ffffffffffffffff81111561409957600080fd5b6140a589828a01613a0e565b92509250509295509295509295565b6000602082840312156140c657600080fd5b60006140d4848285016139e4565b91505092915050565b6000602082840312156140ef57600080fd5b60006140fd848285016139f9565b91505092915050565b60006020828403121561411857600080fd5b600061412684828501613ac1565b91505092915050565b6000806000806040858703121561414557600080fd5b600085013567ffffffffffffffff81111561415f57600080fd5b61416b87828801613ad6565b9450945050602085013567ffffffffffffffff81111561418a57600080fd5b61419687828801613ad6565b925092505092959194509250565b60008061014083850312156141b857600080fd5b60006141c685828601613ba8565b9250506101206141d885828601613ac1565b9150509250929050565b600080600061016084860312156141f857600080fd5b600061420686828701613ba8565b93505061012061421886828701613ac1565b92505061014061422a868287016139ba565b9150509250925092565b60006020828403121561424657600080fd5b600061425484828501613c32565b91505092915050565b6000806040838503121561427057600080fd5b600061427e85828601613c32565b925050602061428f85828601613911565b9150509250929050565b600080604083850312156142ac57600080fd5b60006142ba85828601613c32565b92505060206142cb85828601613aac565b9150509250929050565b6000806000604084860312156142ea57600080fd5b60006142f886828701613c32565b935050602084013567ffffffffffffffff81111561431557600080fd5b61432186828701613ad6565b92509250509250925092565b6000806040838503121561434057600080fd5b600061434e85828601613c32565b925050602061435f85828601613c32565b9150509250929050565b60008060008060006080868803121561438157600080fd5b600061438f88828901613c32565b95505060206143a088828901613c32565b94505060406143b188828901613911565b935050606086013567ffffffffffffffff8111156143ce57600080fd5b6143da88828901613ad6565b92509250509295509295909350565b6000806000606084860312156143fe57600080fd5b600061440c86828701613c32565b935050602061441d86828701613c32565b925050604061442e868287016139ba565b9150509250925092565b60008060006060848603121561444d57600080fd5b600061445b86828701613c32565b935050602061446c86828701613c32565b925050604061447d86828701613aac565b9150509250925092565b6000806000806080858703121561449d57600080fd5b60006144ab87828801613c32565b94505060206144bc87828801613c32565b93505060406144cd87828801613ac1565b92505060606144de878288016139cf565b91505092959194509250565b600080600080600080600060e0888a03121561450557600080fd5b60006145138a828b01613c32565b97505060206145248a828b01613c32565b96505060406145358a828b01613ac1565b95505060606145468a828b01613ac1565b94505060806145578a828b01613ac1565b93505060a06145688a828b01613ac1565b92505060c06145798a828b016139cf565b91505092959891949750929550565b60006145948383614a67565b60208301905092915050565b6145a981614f1d565b82525050565b60006145bb8385614eea565b93507f07ffffffffffffffffffffffffffffffffffffffffffffffffffffffffffffff8311156145ea57600080fd5b6020830292506145fb838584614fb2565b82840190509392505050565b600061461282614ebc565b61461c8185614eea565b935061462783614eac565b8060005b8381101561465857815161463f8882614588565b975061464a83614edd565b92505060018101905061462b565b5085935050505092915050565b61466e81614f2f565b82525050565b61467d81614f2f565b82525050565b61469461468f82614f2f565b614ff4565b82525050565b60006146a582614ec7565b6146af8185614efb565b93506146bf818560208601614fc1565b6146c881615024565b840191505092915050565b6146dc81614f71565b82525050565b6146eb81614f7e565b82525050565b6146fa81614f7e565b82525050565b61471161470c82614f7e565b615006565b82525050565b60006147238385614f0c565b9350614730838584614fb2565b61473983615024565b840190509392505050565b600061474f82614ed2565b6147598185614f0c565b9350614769818560208601614fc1565b61477281615024565b840191505092915050565b600061478a600c83614f0c565b91507f4e6f20617070726f76616c2e00000000000000000000000000000000000000006000830152602082019050919050565b60006147ca602583614f0c565b91507f64657374696e6174696f6e2061646472657373206d757374206265206e6f6e2d60008301527f7a65726f2e0000000000000000000000000000000000000000000000000000006020830152604082019050919050565b6000614830603e83614f0c565b91507f636f6e74726163742072657475726e656420616e20756e6b6e6f776e2076616c60008301527f75652066726f6d206f6e455243313135354261746368526563656976656400006020830152604082019050919050565b6000614896602983614f0c565b91507f5f69647320616e64205f76616c756573206172726179206c656e677468206d7560008301527f7374206d617463682e00000000000000000000000000000000000000000000006020830152604082019050919050565b60006148fc603983614f0c565b91507f636f6e74726163742072657475726e656420616e20756e6b6e6f776e2076616c60008301527f75652066726f6d206f6e455243313135355265636569766564000000000000006020830152604082019050919050565b6000614962601583614f0c565b91507f5f746f206d757374206265206e6f6e2d7a65726f2e00000000000000000000006000830152602082019050919050565b60a0820160008201516149ab6000850182614665565b5060208201516149be60208501826146e2565b5060408201516149d160408501826146e2565b5060608201516149e460608501826146e2565b5060808201516149f760808501826146e2565b50505050565b61012082016000820151614a146000850182614995565b506020820151614a2760a08501826146e2565b506040820151614a3a60c08501826146e2565b506060820151614a4d60e08501826146e2565b506080820151614a61610100850182614665565b50505050565b614a7081614fa8565b82525050565b614a7f81614fa8565b82525050565b6000614a918288614683565b600182019150614aa18287614700565b602082019150614ab18286614700565b602082019150614ac18285614700565b602082019150614ad18284614700565b6020820191508190509695505050505050565b6000602082019050614af960008301846145a0565b92915050565b600060a082019050614b1460008301886145a0565b614b2160208301876145a0565b8181036040830152614b338186614607565b90508181036060830152614b478185614607565b90508181036080830152614b5b818461469a565b90509695505050505050565b600060a082019050614b7c60008301886145a0565b614b8960208301876145a0565b614b966040830186614a76565b614ba36060830185614a76565b8181036080830152614bb5818461469a565b90509695505050505050565b600060a082019050614bd660008301886145a0565b614be36020830187614a76565b614bf06040830186614a76565b614bfd60608301856145a0565b8181036080830152614c0f8184614744565b90509695505050505050565b60006040820190508181036000830152614c368186886145af565b90508181036020830152614c4b8184866145af565b905095945050505050565b60006020820190508181036000830152614c708184614607565b905092915050565b6000602082019050614c8d6000830184614674565b92915050565b6000602082019050614ca860008301846146d3565b92915050565b6000602082019050614cc360008301846146f1565b92915050565b60006020820190508181036000830152614ce38184614744565b905092915050565b60006020820190508181036000830152614d048161477d565b9050919050565b60006020820190508181036000830152614d24816147bd565b9050919050565b60006020820190508181036000830152614d4481614823565b9050919050565b60006020820190508181036000830152614d6481614889565b9050919050565b60006020820190508181036000830152614d84816148ef565b9050919050565b60006020820190508181036000830152614da481614955565b9050919050565b600061012082019050614dc160008301846149fd565b92915050565b6000602082019050614ddc6000830184614a76565b92915050565b6000606082019050614df76000830187614a76565b614e0460208301866145a0565b8181036040830152614e17818486614717565b905095945050505050565b6000604082019050614e376000830185614a76565b614e446020830184614a76565b9392505050565b6000604051905081810181811067ffffffffffffffff82111715614e7257614e71615022565b5b8060405250919050565b600067ffffffffffffffff821115614e9757614e96615022565b5b601f19601f8301169050602081019050919050565b6000819050602082019050919050565b600081519050919050565b600081519050919050565b600081519050919050565b6000602082019050919050565b600082825260208201905092915050565b600082825260208201905092915050565b600082825260208201905092915050565b6000614f2882614f88565b9050919050565b60008115159050919050565b6000819050919050565b60007fffffffff0000000000000000000000000000000000000000000000000000000082169050919050565b600081600f0b9050919050565b6000819050919050565b600073ffffffffffffffffffffffffffffffffffffffff82169050919050565b6000819050919050565b82818337600083830152505050565b60005b83811015614fdf578082015181840152602081019050614fc4565b83811115614fee576000848401525b50505050565b6000614fff82615010565b9050919050565b6000819050919050565b600061501b82615035565b9050919050565bfe5b6000601f19601f8301169050919050565b60008160f81b9050919050565b61504b81614f1d565b811461505657600080fd5b50565b61506281614f2f565b811461506d57600080fd5b50565b61507981614f3b565b811461508457600080fd5b50565b61509081614f45565b811461509b57600080fd5b50565b6150a781614f71565b81146150b257600080fd5b50565b6150be81614f7e565b81146150c957600080fd5b50565b6150d581614fa8565b81146150e057600080fd5b5056fea264697066735822122002caf4e64425d86a95898e0a33766cb1a385da1a53b190a3165c8d83cc9d2d9a64736f6c63430007030033",
  "linkReferences": {},
  "deployedLinkReferences": {}
}