{
  "_format": "hh-sol-artifact-1",
  "contractName": "CarbonTest",
  "sourceName": "contracts/CarbonTest.sol",
  "abi": [
    {
      "inputs": [],
      "stateMutability": "nonpayable",
      "type": "constructor"
    },
    {
      "anonymous": false,
      "inputs": [
        {
          "indexed": true,
          "internalType": "address",
          "name": "_owner",
          "type": "address"
        },
        {
          "indexed": true,
          "internalType": "address",
          "name": "_operator",
          "type": "address"
        },
        {
          "indexed": false,
          "internalType": "bool",
          "name": "_approved",
          "type": "bool"
        }
      ],
      "name": "ApprovalForAll",
      "type": "event"
    },
    {
      "anonymous": false,
      "inputs": [
        {
          "indexed": true,
          "internalType": "address",
          "name": "owner",
          "type": "address"
        },
        {
          "indexed": true,
          "internalType": "uint256",
          "name": "token",
          "type": "uint256"
        }
      ],
      "name": "AuthorityCreated",
      "type": "event"
    },
    {
      "anonymous": false,
      "inputs": [
        {
          "indexed": true,
          "internalType": "uint256",
          "name": "id",
          "type": "uint256"
        },
        {
          "indexed": true,
          "internalType": "address",
          "name": "authority",
          "type": "address"
        },
        {
          "indexed": true,
          "internalType": "uint256",
          "name": "serial",
          "type": "uint256"
        },
        {
          "indexed": false,
          "internalType": "uint256",
          "name": "amount",
          "type": "uint256"
        },
        {
          "indexed": false,
          "internalType": "address",
          "name": "owner",
          "type": "address"
        },
        {
          "indexed": false,
          "internalType": "string",
          "name": "fileCoinHash",
          "type": "string"
        }
      ],
      "name": "CreditCreated",
      "type": "event"
    },
    {
      "anonymous": false,
      "inputs": [
        {
          "indexed": true,
          "internalType": "uint256",
          "name": "id",
          "type": "uint256"
        },
        {
          "indexed": true,
          "internalType": "address",
          "name": "owner",
          "type": "address"
        },
        {
          "indexed": false,
          "internalType": "string",
          "name": "uri",
          "type": "string"
        }
      ],
      "name": "NewToken",
      "type": "event"
    },
    {
      "anonymous": false,
      "inputs": [
        {
          "indexed": true,
          "internalType": "address",
          "name": "_operator",
          "type": "address"
        },
        {
          "indexed": true,
          "internalType": "address",
          "name": "_from",
          "type": "address"
        },
        {
          "indexed": true,
          "internalType": "address",
          "name": "_to",
          "type": "address"
        },
        {
          "indexed": false,
          "internalType": "uint256[]",
          "name": "_ids",
          "type": "uint256[]"
        },
        {
          "indexed": false,
          "internalType": "uint256[]",
          "name": "_values",
          "type": "uint256[]"
        }
      ],
      "name": "TransferBatch",
      "type": "event"
    },
    {
      "anonymous": false,
      "inputs": [
        {
          "indexed": true,
          "internalType": "address",
          "name": "_operator",
          "type": "address"
        },
        {
          "indexed": true,
          "internalType": "address",
          "name": "_from",
          "type": "address"
        },
        {
          "indexed": true,
          "internalType": "address",
          "name": "_to",
          "type": "address"
        },
        {
          "indexed": false,
          "internalType": "uint256",
          "name": "_id",
          "type": "uint256"
        },
        {
          "indexed": false,
          "internalType": "uint256",
          "name": "_value",
          "type": "uint256"
        }
      ],
      "name": "TransferSingle",
      "type": "event"
    },
    {
      "anonymous": false,
      "inputs": [
        {
          "indexed": false,
          "internalType": "string",
          "name": "_value",
          "type": "string"
        },
        {
          "indexed": true,
          "internalType": "uint256",
          "name": "_id",
          "type": "uint256"
        }
      ],
      "name": "URI",
      "type": "event"
    },
    {
      "inputs": [
        {
          "internalType": "address",
          "name": "_from",
          "type": "address"
        },
        {
          "internalType": "uint256",
          "name": "_id",
          "type": "uint256"
        },
        {
          "internalType": "uint256",
          "name": "_value",
          "type": "uint256"
        }
      ],
      "name": "_doBurn",
      "outputs": [],
      "stateMutability": "nonpayable",
      "type": "function"
    },
    {
      "inputs": [
        {
          "internalType": "address",
          "name": "_to",
          "type": "address"
        },
        {
          "internalType": "uint256",
          "name": "_id",
          "type": "uint256"
        },
        {
          "internalType": "uint256",
          "name": "_value",
          "type": "uint256"
        },
        {
          "internalType": "bytes",
          "name": "_data",
          "type": "bytes"
        }
      ],
      "name": "_doMint",
      "outputs": [],
      "stateMutability": "nonpayable",
      "type": "function"
    },
    {
      "inputs": [
        {
          "components": [
            {
              "components": [
                {
                  "internalType": "bool",
                  "name": "recurring",
                  "type": "bool"
                },
                {
                  "internalType": "int256",
                  "name": "initialSwapCredit",
                  "type": "int256"
                },
                {
                  "internalType": "int256",
                  "name": "maxSwapCredit",
                  "type": "int256"
                },
                {
                  "internalType": "int256",
                  "name": "swapCreditPeriod",
                  "type": "int256"
                },
                {
                  "internalType": "int256",
                  "name": "firstTimeEnteredSwapCredit",
                  "type": "int256"
                }
              ],
              "internalType": "struct TokensFlow.SwapLimit",
              "name": "limit",
              "type": "tuple"
            },
            {
              "internalType": "int256",
              "name": "remainingSwapCredit",
              "type": "int256"
            },
            {
              "internalType": "int256",
              "name": "timeEnteredSwapCredit",
              "type": "int256"
            },
            {
              "internalType": "int256",
              "name": "lastSwapTime",
              "type": "int256"
            },
            {
              "internalType": "bool",
              "name": "disabled",
              "type": "bool"
            }
          ],
          "internalType": "struct TokensFlow.TokenFlow",
          "name": "_flow",
          "type": "tuple"
        },
        {
          "internalType": "int256",
          "name": "_currentTimeResult",
          "type": "int256"
        }
      ],
      "name": "_inSwapCredit",
      "outputs": [
        {
          "internalType": "bool",
          "name": "",
          "type": "bool"
        }
      ],
      "stateMutability": "pure",
      "type": "function"
    },
    {
      "inputs": [
        {
          "components": [
            {
              "components": [
                {
                  "internalType": "bool",
                  "name": "recurring",
                  "type": "bool"
                },
                {
                  "internalType": "int256",
                  "name": "initialSwapCredit",
                  "type": "int256"
                },
                {
                  "internalType": "int256",
                  "name": "maxSwapCredit",
                  "type": "int256"
                },
                {
                  "internalType": "int256",
                  "name": "swapCreditPeriod",
                  "type": "int256"
                },
                {
                  "internalType": "int256",
                  "name": "firstTimeEnteredSwapCredit",
                  "type": "int256"
                }
              ],
              "internalType": "struct TokensFlow.SwapLimit",
              "name": "limit",
              "type": "tuple"
            },
            {
              "internalType": "int256",
              "name": "remainingSwapCredit",
              "type": "int256"
            },
            {
              "internalType": "int256",
              "name": "timeEnteredSwapCredit",
              "type": "int256"
            },
            {
              "internalType": "int256",
              "name": "lastSwapTime",
              "type": "int256"
            },
            {
              "internalType": "bool",
              "name": "disabled",
              "type": "bool"
            }
          ],
          "internalType": "struct TokensFlow.TokenFlow",
          "name": "_flow",
          "type": "tuple"
        },
        {
          "internalType": "int256",
          "name": "_currentTimeResult",
          "type": "int256"
        },
        {
          "internalType": "bool",
          "name": "_inSwapCreditResult",
          "type": "bool"
        }
      ],
      "name": "_maxRecurringSwapAmount",
      "outputs": [
        {
          "internalType": "uint256",
          "name": "",
          "type": "uint256"
        }
      ],
      "stateMutability": "pure",
      "type": "function"
    },
    {
      "inputs": [
        {
          "internalType": "uint256",
          "name": "",
          "type": "uint256"
        }
      ],
      "name": "authorities",
      "outputs": [
        {
          "internalType": "uint256",
          "name": "token",
          "type": "uint256"
        },
        {
          "internalType": "uint256",
          "name": "maxSerial",
          "type": "uint256"
        }
      ],
      "stateMutability": "view",
      "type": "function"
    },
    {
      "inputs": [
        {
          "internalType": "address",
          "name": "_owner",
          "type": "address"
        },
        {
          "internalType": "uint256",
          "name": "_id",
          "type": "uint256"
        }
      ],
      "name": "balanceOf",
      "outputs": [
        {
          "internalType": "uint256",
          "name": "",
          "type": "uint256"
        }
      ],
      "stateMutability": "view",
      "type": "function"
    },
    {
      "inputs": [
        {
          "internalType": "address[]",
          "name": "_owners",
          "type": "address[]"
        },
        {
          "internalType": "uint256[]",
          "name": "_ids",
          "type": "uint256[]"
        }
      ],
      "name": "balanceOfBatch",
      "outputs": [
        {
          "internalType": "uint256[]",
          "name": "",
          "type": "uint256[]"
        }
      ],
      "stateMutability": "view",
      "type": "function"
    },
    {
      "inputs": [
        {
          "internalType": "address",
          "name": "_from",
          "type": "address"
        },
        {
          "internalType": "uint256",
          "name": "_id",
          "type": "uint256"
        },
        {
          "internalType": "uint256",
          "name": "_value",
          "type": "uint256"
        }
      ],
      "name": "burn",
      "outputs": [],
      "stateMutability": "nonpayable",
      "type": "function"
    },
    {
      "inputs": [
        {
          "internalType": "uint256",
          "name": "_child",
          "type": "uint256"
        },
        {
          "internalType": "uint256",
          "name": "_parent",
          "type": "uint256"
        }
      ],
      "name": "coeffient",
      "outputs": [
        {
          "internalType": "int128",
          "name": "",
          "type": "int128"
        }
      ],
      "stateMutability": "view",
      "type": "function"
    },
    {
      "inputs": [
        {
          "internalType": "string",
          "name": "_nonRetiredUri",
          "type": "string"
        },
        {
          "internalType": "string",
          "name": "_retiredUri",
          "type": "string"
        }
      ],
      "name": "createAuthority",
      "outputs": [
        {
          "internalType": "uint256",
          "name": "",
          "type": "uint256"
        }
      ],
      "stateMutability": "nonpayable",
      "type": "function"
    },
    {
      "inputs": [
        {
          "internalType": "uint256",
          "name": "_token",
          "type": "uint256"
        },
        {
          "internalType": "uint256",
          "name": "_amount",
          "type": "uint256"
        },
        {
          "internalType": "address",
          "name": "_owner",
          "type": "address"
        },
        {
          "internalType": "string",
          "name": "_fileCoinHash",
          "type": "string"
        }
      ],
      "name": "createCredit",
      "outputs": [
        {
          "internalType": "uint256",
          "name": "",
          "type": "uint256"
        }
      ],
      "stateMutability": "nonpayable",
      "type": "function"
    },
    {
      "inputs": [
        {
          "internalType": "uint256",
          "name": "",
          "type": "uint256"
        }
      ],
      "name": "credits",
      "outputs": [
        {
          "internalType": "address",
          "name": "authority",
          "type": "address"
        },
        {
          "internalType": "uint256",
          "name": "serial",
          "type": "uint256"
        },
        {
          "internalType": "uint256",
          "name": "amount",
          "type": "uint256"
        },
        {
          "internalType": "address",
          "name": "owner",
          "type": "address"
        },
        {
          "internalType": "string",
          "name": "fileCoinHash",
          "type": "string"
        }
      ],
      "stateMutability": "view",
      "type": "function"
    },
    {
      "inputs": [],
      "name": "currentTime",
      "outputs": [
        {
          "internalType": "int256",
          "name": "",
          "type": "int256"
        }
      ],
      "stateMutability": "view",
      "type": "function"
    },
    {
      "inputs": [
        {
          "internalType": "uint256[]",
          "name": "_ids",
          "type": "uint256[]"
        },
        {
          "internalType": "uint256",
          "name": "_amount",
          "type": "uint256"
        },
        {
          "internalType": "address",
          "name": "_from",
          "type": "address"
        },
        {
          "internalType": "bytes",
          "name": "_data",
          "type": "bytes"
        }
      ],
      "name": "exchangeToAncestor",
      "outputs": [],
      "stateMutability": "nonpayable",
      "type": "function"
    },
    {
      "inputs": [
        {
          "internalType": "address",
          "name": "_owner",
          "type": "address"
        },
        {
          "internalType": "address",
          "name": "_operator",
          "type": "address"
        }
      ],
      "name": "isApprovedForAll",
      "outputs": [
        {
          "internalType": "bool",
          "name": "",
          "type": "bool"
        }
      ],
      "stateMutability": "view",
      "type": "function"
    },
    {
      "inputs": [
        {
          "internalType": "uint256",
          "name": "_child",
          "type": "uint256"
        },
        {
          "internalType": "uint256",
          "name": "_parent",
          "type": "uint256"
        }
      ],
      "name": "isChild",
      "outputs": [
        {
          "internalType": "bool",
          "name": "",
          "type": "bool"
        }
      ],
      "stateMutability": "view",
      "type": "function"
    },
    {
      "inputs": [],
      "name": "maxCreditId",
      "outputs": [
        {
          "internalType": "uint256",
          "name": "",
          "type": "uint256"
        }
      ],
      "stateMutability": "view",
      "type": "function"
    },
    {
      "inputs": [
        {
          "internalType": "address",
          "name": "_to",
          "type": "address"
        },
        {
          "internalType": "uint256",
          "name": "_id",
          "type": "uint256"
        },
        {
          "internalType": "uint256",
          "name": "_value",
          "type": "uint256"
        },
        {
          "internalType": "bytes",
          "name": "_data",
          "type": "bytes"
        }
      ],
      "name": "mint",
      "outputs": [],
      "stateMutability": "nonpayable",
      "type": "function"
    },
    {
      "inputs": [],
      "name": "nextTokenId",
      "outputs": [
        {
          "internalType": "uint256",
          "name": "",
          "type": "uint256"
        }
      ],
      "stateMutability": "view",
      "type": "function"
    },
    {
      "inputs": [
        {
          "internalType": "uint256",
          "name": "_id",
          "type": "uint256"
        }
      ],
      "name": "removeTokenOwner",
      "outputs": [],
      "stateMutability": "nonpayable",
      "type": "function"
    },
    {
      "inputs": [
        {
          "internalType": "uint256",
          "name": "_nonRetiredToken",
          "type": "uint256"
        },
        {
          "internalType": "uint256",
          "name": "_amount",
          "type": "uint256"
        }
      ],
      "name": "retireCredit",
      "outputs": [],
      "stateMutability": "nonpayable",
      "type": "function"
    },
    {
      "inputs": [
        {
          "internalType": "address",
          "name": "_from",
          "type": "address"
        },
        {
          "internalType": "address",
          "name": "_to",
          "type": "address"
        },
        {
          "internalType": "uint256[]",
          "name": "_ids",
          "type": "uint256[]"
        },
        {
          "internalType": "uint256[]",
          "name": "_values",
          "type": "uint256[]"
        },
        {
          "internalType": "bytes",
          "name": "_data",
          "type": "bytes"
        }
      ],
      "name": "safeBatchTransferFrom",
      "outputs": [],
      "stateMutability": "nonpayable",
      "type": "function"
    },
    {
      "inputs": [
        {
          "internalType": "address",
          "name": "_from",
          "type": "address"
        },
        {
          "internalType": "address",
          "name": "_to",
          "type": "address"
        },
        {
          "internalType": "uint256",
          "name": "_id",
          "type": "uint256"
        },
        {
          "internalType": "uint256",
          "name": "_value",
          "type": "uint256"
        },
        {
          "internalType": "bytes",
          "name": "_data",
          "type": "bytes"
        }
      ],
      "name": "safeTransferFrom",
      "outputs": [],
      "stateMutability": "nonpayable",
      "type": "function"
    },
    {
      "inputs": [
        {
          "internalType": "address",
          "name": "_operator",
          "type": "address"
        },
        {
          "internalType": "bool",
          "name": "_approved",
          "type": "bool"
        }
      ],
      "name": "setApprovalForAll",
      "outputs": [],
      "stateMutability": "nonpayable",
      "type": "function"
    },
    {
      "inputs": [
        {
          "internalType": "uint256",
          "name": "_child",
          "type": "uint256"
        },
        {
          "internalType": "uint256",
          "name": "_parent",
          "type": "uint256"
        },
        {
          "internalType": "int128",
          "name": "_coefficient",
          "type": "int128"
        }
      ],
      "name": "setCoefficient",
      "outputs": [],
      "stateMutability": "nonpayable",
      "type": "function"
    },
    {
      "inputs": [
        {
          "internalType": "int256",
          "name": "_timestamp",
          "type": "int256"
        }
      ],
      "name": "setCurrentTime",
      "outputs": [],
      "stateMutability": "nonpayable",
      "type": "function"
    },
    {
      "inputs": [
        {
          "internalType": "uint256[]",
          "name": "_childs",
          "type": "uint256[]"
        },
        {
          "internalType": "bool",
          "name": "_disabled",
          "type": "bool"
        }
      ],
      "name": "setDisabled",
      "outputs": [],
      "stateMutability": "nonpayable",
      "type": "function"
    },
    {
      "inputs": [
        {
          "internalType": "uint256",
          "name": "_child",
          "type": "uint256"
        },
        {
          "internalType": "uint256",
          "name": "_parent",
          "type": "uint256"
        },
        {
          "internalType": "int256",
          "name": "_remainingSwapCredit",
          "type": "int256"
        },
        {
          "internalType": "bytes32",
          "name": "oldLimitHash",
          "type": "bytes32"
        }
      ],
      "name": "setNonRecurringFlow",
      "outputs": [],
      "stateMutability": "nonpayable",
      "type": "function"
    },
    {
      "inputs": [
        {
          "internalType": "uint256",
          "name": "_child",
          "type": "uint256"
        },
        {
          "internalType": "uint256",
          "name": "_parent",
          "type": "uint256"
        },
        {
          "internalType": "int256",
          "name": "_maxSwapCredit",
          "type": "int256"
        },
        {
          "internalType": "int256",
          "name": "_remainingSwapCredit",
          "type": "int256"
        },
        {
          "internalType": "int256",
          "name": "_swapCreditPeriod",
          "type": "int256"
        },
        {
          "internalType": "int256",
          "name": "_timeEnteredSwapCredit",
          "type": "int256"
        },
        {
          "internalType": "bytes32",
          "name": "oldLimitHash",
          "type": "bytes32"
        }
      ],
      "name": "setRecurringFlow",
      "outputs": [],
      "stateMutability": "nonpayable",
      "type": "function"
    },
    {
      "inputs": [
        {
          "internalType": "uint256",
          "name": "_nonRetiredToken",
          "type": "uint256"
        },
        {
          "internalType": "int128",
          "name": "_tax",
          "type": "int128"
        }
      ],
      "name": "setTax",
      "outputs": [],
      "stateMutability": "nonpayable",
      "type": "function"
    },
    {
      "inputs": [
        {
          "internalType": "uint256",
          "name": "_id",
          "type": "uint256"
        },
        {
          "internalType": "address",
          "name": "_newOwner",
          "type": "address"
        }
      ],
      "name": "setTokenOwner",
      "outputs": [],
      "stateMutability": "nonpayable",
      "type": "function"
    },
    {
      "inputs": [
        {
          "internalType": "uint256",
          "name": "_child",
          "type": "uint256"
        },
        {
          "internalType": "uint256",
          "name": "_parent",
          "type": "uint256"
        },
        {
          "internalType": "bool",
          "name": "_value",
          "type": "bool"
        }
      ],
      "name": "setTokenParent",
      "outputs": [],
      "stateMutability": "nonpayable",
      "type": "function"
    },
    {
      "inputs": [
        {
          "internalType": "uint256",
          "name": "_id",
          "type": "uint256"
        },
        {
          "internalType": "string",
          "name": "_uri",
          "type": "string"
        }
      ],
      "name": "setTokenUri",
      "outputs": [],
      "stateMutability": "nonpayable",
      "type": "function"
    },
    {
      "inputs": [
        {
          "internalType": "bytes4",
          "name": "_interfaceId",
          "type": "bytes4"
        }
      ],
      "name": "supportsInterface",
      "outputs": [
        {
          "internalType": "bool",
          "name": "",
          "type": "bool"
        }
      ],
      "stateMutability": "pure",
      "type": "function"
    },
    {
      "inputs": [
        {
          "internalType": "uint256",
          "name": "",
          "type": "uint256"
        }
      ],
      "name": "taxes",
      "outputs": [
        {
          "internalType": "int128",
          "name": "",
          "type": "int128"
        }
      ],
      "stateMutability": "view",
      "type": "function"
    },
    {
      "inputs": [
        {
          "internalType": "uint256",
          "name": "_child",
          "type": "uint256"
        },
        {
          "internalType": "uint256",
          "name": "_parent",
          "type": "uint256"
        }
      ],
      "name": "tokenFlow",
      "outputs": [
        {
          "components": [
            {
              "components": [
                {
                  "internalType": "bool",
                  "name": "recurring",
                  "type": "bool"
                },
                {
                  "internalType": "int256",
                  "name": "initialSwapCredit",
                  "type": "int256"
                },
                {
                  "internalType": "int256",
                  "name": "maxSwapCredit",
                  "type": "int256"
                },
                {
                  "internalType": "int256",
                  "name": "swapCreditPeriod",
                  "type": "int256"
                },
                {
                  "internalType": "int256",
                  "name": "firstTimeEnteredSwapCredit",
                  "type": "int256"
                }
              ],
              "internalType": "struct TokensFlow.SwapLimit",
              "name": "limit",
              "type": "tuple"
            },
            {
              "internalType": "int256",
              "name": "remainingSwapCredit",
              "type": "int256"
            },
            {
              "internalType": "int256",
              "name": "timeEnteredSwapCredit",
              "type": "int256"
            },
            {
              "internalType": "int256",
              "name": "lastSwapTime",
              "type": "int256"
            },
            {
              "internalType": "bool",
              "name": "disabled",
              "type": "bool"
            }
          ],
          "internalType": "struct TokensFlow.TokenFlow",
          "name": "",
          "type": "tuple"
        }
      ],
      "stateMutability": "view",
      "type": "function"
    },
    {
      "inputs": [
        {
          "internalType": "uint256",
          "name": "",
          "type": "uint256"
        }
      ],
      "name": "tokenOwners",
      "outputs": [
        {
          "internalType": "address",
          "name": "",
          "type": "address"
        }
      ],
      "stateMutability": "view",
      "type": "function"
    },
    {
      "inputs": [
        {
          "internalType": "uint256",
          "name": "_id",
          "type": "uint256"
        }
      ],
      "name": "totalSupply",
      "outputs": [
        {
          "internalType": "uint256",
          "name": "",
          "type": "uint256"
        }
      ],
      "stateMutability": "view",
      "type": "function"
    },
    {
      "inputs": [
        {
          "internalType": "uint256",
          "name": "_id",
          "type": "uint256"
        }
      ],
      "name": "uri",
      "outputs": [
        {
          "internalType": "string",
          "name": "",
          "type": "string"
        }
      ],
      "stateMutability": "view",
      "type": "function"
    }
  ],
  "bytecode": "0x6080604052612710600d5534801561001657600080fd5b5060016002819055506151338061002e6000396000f3fe608060405234801561001057600080fd5b506004361061023c5760003560e01c80637c65cd031161013b578063e0511b31116100b8578063f242432a1161007c578063f242432a14610744578063f5298aca14610760578063f8a14f461461077c578063f98e990f146107ac578063fbd1342d146107c85761023c565b8063e0511b3114610690578063e0a82ab4146106c0578063e985e9c5146106dc578063ecf95bc91461070c578063f104eb95146107285761023c565b8063bd85b039116100ff578063bd85b039146105c6578063c11abbd9146105f6578063c5be2bc714610612578063d18e81b314610642578063de3d7f8a146106605761023c565b80637c65cd0314610526578063946c0c0f14610542578063a22cb4651461055e578063a2c2823a1461057a578063b7fdf314146105aa5761023c565b8063489b5d42116101c957806365f9b9b81161018d57806365f9b9b8146104705780636aee80db146104a0578063728dc992146104bc578063731133e9146104ec57806375794a3c146105085761023c565b8063489b5d42146103b9578063494503d4146103d55780634e1273f414610406578063543a76d51461043657806357f7789e146104545761023c565b806309aca9431161021057806309aca943146103055780630a074d3e146103355780630e89341c1461035157806323eac4bd146103815780632eb2c2d61461039d5761023c565b8062fdd58e1461024157806301ffc9a714610271578063036a1c22146102a1578063061af135146102d5575b600080fd5b61025b60048036038101906102569190613e60565b6107e4565b6040516102689190614de1565b60405180910390f35b61028b600480360381019061028691906140ce565b61083e565b6040516102989190614c92565b60405180910390f35b6102bb60048036038101906102b6919061424e565b6108ef565b6040516102cc959493929190614bdb565b60405180910390f35b6102ef60048036038101906102ea9190614347565b6109fd565b6040516102fc9190614c92565b60405180910390f35b61031f600480360381019061031a91906141be565b610a39565b60405161032c9190614c92565b60405180910390f35b61034f600480360381019061034a9190613e9c565b610a64565b005b61036b6004803603810190610366919061424e565b610bbe565b6040516103789190614ce3565b60405180910390f35b61039b60048036038101906103969190614277565b610c73565b005b6103b760048036038101906103b29190613cc6565b610d6e565b005b6103d360048036038101906103ce9190613eeb565b610d88565b005b6103ef60048036038101906103ea919061424e565b610f54565b6040516103fd929190614e3c565b60405180910390f35b610420600480360381019061041b9190613f66565b610f78565b60405161042d9190614c70565b60405180910390f35b61043e61109a565b60405161044b9190614de1565b60405180910390f35b61046e600480360381019061046991906142ef565b6110a0565b005b61048a60048036038101906104859190614149565b611133565b6040516104979190614de1565b60405180910390f35b6104ba60048036038101906104b59190614120565b611272565b005b6104d660048036038101906104d19190614347565b61128b565b6040516104e39190614cad565b60405180910390f35b61050660048036038101906105019190613eeb565b6112c7565b005b6105106112d9565b60405161051d9190614de1565b60405180910390f35b610540600480360381019061053b9190614033565b6112df565b005b61055c6004803603810190610557919061424e565b6117ee565b005b61057860048036038101906105739190613e24565b6118af565b005b610594600480360381019061058f9190614383565b6119ac565b6040516105a19190614de1565b60405180910390f35b6105c460048036038101906105bf9190614504565b611c52565b005b6105e060048036038101906105db919061424e565b611dc3565b6040516105ed9190614de1565b60405180910390f35b610610600480360381019061060b9190614347565b611de0565b005b61062c6004803603810190610627919061424e565b611eb3565b6040516106399190614cad565b60405180910390f35b61064a611ed3565b6040516106579190614cc8565b60405180910390f35b61067a600480360381019061067591906141fc565b611ee2565b6040516106879190614de1565b60405180910390f35b6106aa60048036038101906106a59190614347565b611f4d565b6040516106b79190614dc5565b60405180910390f35b6106da60048036038101906106d59190614403565b61201c565b005b6106f660048036038101906106f19190613c8a565b612097565b6040516107039190614c92565b60405180910390f35b61072660048036038101906107219190614452565b61212b565b005b610742600480360381019061073d91906142b3565b6121f9565b005b61075e60048036038101906107599190613d92565b6122f7565b005b61077a60048036038101906107759190613e9c565b61230d565b005b6107966004803603810190610791919061424e565b612566565b6040516107a39190614afe565b60405180910390f35b6107c660048036038101906107c191906144a1565b612599565b005b6107e260048036038101906107dd9190613fdb565b612700565b005b600080600083815260200190815260200160002060008473ffffffffffffffffffffffffffffffffffffffff1673ffffffffffffffffffffffffffffffffffffffff16815260200190815260200160002054905092915050565b60006301ffc9a760e01b7bffffffffffffffffffffffffffffffffffffffffffffffffffffffff1916827bffffffffffffffffffffffffffffffffffffffffffffffffffffffff191614806108d7575063d9b67a2660e01b7bffffffffffffffffffffffffffffffffffffffffffffffffffffffff1916827bffffffffffffffffffffffffffffffffffffffffffffffffffffffff1916145b156108e557600190506108ea565b600090505b919050565b600b6020528060005260406000206000915090508060000160009054906101000a900473ffffffffffffffffffffffffffffffffffffffff16908060010154908060020154908060030160009054906101000a900473ffffffffffffffffffffffffffffffffffffffff1690806004018054600181600116156101000203166002900480601f0160208091040260200160405190810160405280929190818152602001828054600181600116156101000203166002900480156109f35780601f106109c8576101008083540402835291602001916109f3565b820191906000526020600020905b8154815290600101906020018083116109d657829003601f168201915b5050505050905085565b600060036000848152602001908152602001600020600083815260200190815260200160002060009054906101000a900460ff16905092915050565b600080836040015114158015610a5c575082600001516060015183604001518303125b905092915050565b610ac68160008085815260200190815260200160002060008673ffffffffffffffffffffffffffffffffffffffff1673ffffffffffffffffffffffffffffffffffffffff1681526020019081526020016000205461287290919063ffffffff16565b60008084815260200190815260200160002060008573ffffffffffffffffffffffffffffffffffffffff1673ffffffffffffffffffffffffffffffffffffffff16815260200190815260200160002081905550806007600084815260200190815260200160002060008282540392505081905550600073ffffffffffffffffffffffffffffffffffffffff168373ffffffffffffffffffffffffffffffffffffffff163373ffffffffffffffffffffffffffffffffffffffff167fc3d58168c5ae7397731d063d5bbf3d657854427343f4c083240f7aacaa2d0f628585604051610bb1929190614e3c565b60405180910390a4505050565b6060600860008381526020019081526020016000208054600181600116156101000203166002900480601f016020809104026020016040519081016040528092919081815260200182805460018160011615610100020316600290048015610c675780601f10610c3c57610100808354040283529160200191610c67565b820191906000526020600020905b815481529060010190602001808311610c4a57829003601f168201915b50505050509050919050565b6006600083815260200190815260200160002060009054906101000a900473ffffffffffffffffffffffffffffffffffffffff1673ffffffffffffffffffffffffffffffffffffffff163373ffffffffffffffffffffffffffffffffffffffff1614610cde57600080fd5b600073ffffffffffffffffffffffffffffffffffffffff168173ffffffffffffffffffffffffffffffffffffffff161415610d1857600080fd5b806006600084815260200190815260200160002060006101000a81548173ffffffffffffffffffffffffffffffffffffffff021916908373ffffffffffffffffffffffffffffffffffffffff1602179055505050565b610d7e8888888888888888612889565b5050505050505050565b600073ffffffffffffffffffffffffffffffffffffffff168473ffffffffffffffffffffffffffffffffffffffff161415610df8576040517f08c379a0000000000000000000000000000000000000000000000000000000008152600401610def90614da5565b60405180910390fd5b60008214610e9b57610e26600760008581526020019081526020016000205483612d7990919063ffffffff16565b60076000858152602001908152602001600020819055508160008085815260200190815260200160002060008673ffffffffffffffffffffffffffffffffffffffff1673ffffffffffffffffffffffffffffffffffffffff168152602001908152602001600020600082825401925050819055505b8373ffffffffffffffffffffffffffffffffffffffff16600073ffffffffffffffffffffffffffffffffffffffff163373ffffffffffffffffffffffffffffffffffffffff167fc3d58168c5ae7397731d063d5bbf3d657854427343f4c083240f7aacaa2d0f628686604051610f12929190614e3c565b60405180910390a4610f398473ffffffffffffffffffffffffffffffffffffffff16612d90565b15610f4e57610f4d33600086868686612da3565b5b50505050565b600a6020528060005260406000206000915090508060000154908060010154905082565b6060828290508585905014610f8c57600080fd5b60608585905067ffffffffffffffff81118015610fa857600080fd5b50604051908082528060200260200182016040528015610fd75781602001602082028036833780820191505090505b50905060005b8686905081101561108d57600080868684818110610ff757fe5b905060200201358152602001908152602001600020600088888481811061101a57fe5b905060200201602081019061102f9190613c61565b73ffffffffffffffffffffffffffffffffffffffff1673ffffffffffffffffffffffffffffffffffffffff1681526020019081526020016000205482828151811061107657fe5b602002602001018181525050806001019050610fdd565b5080915050949350505050565b600c5481565b6006600084815260200190815260200160002060009054906101000a900473ffffffffffffffffffffffffffffffffffffffff1673ffffffffffffffffffffffffffffffffffffffff163373ffffffffffffffffffffffffffffffffffffffff161461110b57600080fd5b818160086000868152602001908152602001600020919061112d929190613731565b50505050565b60008061118486868080601f016020809104026020016040519081016040528093929190818152602001838380828437600081840152601f19601f8201169050808301925050505050505033612ec4565b90506111d584848080601f016020809104026020016040519081016040528093929190818152602001838380828437600081840152601f19601f820116905080830192505050505050506000612ec4565b506111de6137b1565b60405180604001604052808381526020016000815250905080600a60008481526020019081526020016000206000820151816000015560208201518160010155905050813373ffffffffffffffffffffffffffffffffffffffff167f0e77afbf76314bb085ab34f7e91e15cdb38dc97d740b8421e3bc413074b7148f60405160405180910390a38192505050949350505050565b600d5481121561128157600080fd5b80600d8190555050565b600060056000848152602001908152602001600020600083815260200190815260200160002060009054906101000a9004600f0b905092915050565b6112d384848484610d88565b50505050565b60025481565b3373ffffffffffffffffffffffffffffffffffffffff168373ffffffffffffffffffffffffffffffffffffffff16148061139f5750600160003373ffffffffffffffffffffffffffffffffffffffff1673ffffffffffffffffffffffffffffffffffffffff16815260200190815260200160002060008473ffffffffffffffffffffffffffffffffffffffff1673ffffffffffffffffffffffffffffffffffffffff16815260200190815260200160002060009054906101000a900460ff165b6113de576040517f08c379a00000000000000000000000000000000000000000000000000000000081526004016113d590614d05565b60405180910390fd5b60008686600189899050038181106113f257fe5b90506020020135141561140457600080fd5b700100000000000000000000000000000000841061142157600080fd5b60008060008888600081811061143357fe5b90506020020135815260200190815260200160002060008573ffffffffffffffffffffffffffffffffffffffff1673ffffffffffffffffffffffffffffffffffffffff1681526020019081526020016000205490508085111561149557600080fd5b60008086905060005b60018a8a905003811461175c5760008a8a838181106114b957fe5b90506020020135905060008b8b600185018181106114d357fe5b9050602002013590506114e68282612fae565b94508460080160009054906101000a900460ff161561150457600080fd5b600061150e613078565b90506000808760000160000160009054906101000a900460ff1615611681576115d2886040518060a0016040529081600082016040518060a00160405290816000820160009054906101000a900460ff1615151515815260200160018201548152602001600282015481526020016003820154815260200160048201548152505081526020016005820154815260200160068201548152602001600782015481526020016008820160009054906101000a900460ff16151515158152505084610a39565b905061167a886040518060a0016040529081600082016040518060a00160405290816000820160009054906101000a900460ff1615151515815260200160018201548152602001600282015481526020016003820154815260200160048201548152505081526020016005820154815260200160068201548152602001600782015481526020016008820160009054906101000a900460ff1615151515815250508483611ee2565b915061169d565b600088600501541261169757876005015461169a565b60005b91505b818d11156116aa57600080fd5b8760000160000160009054906101000a900460ff1680156116c9575080155b156116e857828860060181905550876000016002015488600501819055505b8288600701819055508c886005016000828254039250508190555061174a8760056000888152602001908152602001600020600087815260200190815260200160002060009054906101000a9004600f0b600f0b61308290919063ffffffff16565b9650505050505080600101905061149e565b5061177b868a8a600081811061176e57fe5b9050602002013589610a64565b6117e3868a8a60018d8d90500381811061179157fe5b905060200201358388888080601f016020809104026020016040519081016040528093929190818152602001838380828437600081840152601f19601f82011690508083019250505050505050610d88565b505050505050505050565b6006600082815260200190815260200160002060009054906101000a900473ffffffffffffffffffffffffffffffffffffffff1673ffffffffffffffffffffffffffffffffffffffff163373ffffffffffffffffffffffffffffffffffffffff161461185957600080fd5b60006006600083815260200190815260200160002060006101000a81548173ffffffffffffffffffffffffffffffffffffffff021916908373ffffffffffffffffffffffffffffffffffffffff16021790555050565b80600160003373ffffffffffffffffffffffffffffffffffffffff1673ffffffffffffffffffffffffffffffffffffffff16815260200190815260200160002060008473ffffffffffffffffffffffffffffffffffffffff1673ffffffffffffffffffffffffffffffffffffffff16815260200190815260200160002060006101000a81548160ff0219169083151502179055508173ffffffffffffffffffffffffffffffffffffffff163373ffffffffffffffffffffffffffffffffffffffff167f17307eab39ab6107e8899845ad3d59bd9653f200f220920489ca2b5937696c31836040516119a09190614c92565b60405180910390a35050565b60003373ffffffffffffffffffffffffffffffffffffffff166006600088815260200190815260200160002060009054906101000a900473ffffffffffffffffffffffffffffffffffffffff1673ffffffffffffffffffffffffffffffffffffffff1614611a1957600080fd5b6000600a60008881526020019081526020016000209050611a386137cb565b6040518060a001604052803373ffffffffffffffffffffffffffffffffffffffff168152602001836001016000815460010191905081905581526020018881526020018773ffffffffffffffffffffffffffffffffffffffff16815260200186868080601f016020809104026020016040519081016040528093929190818152602001838380828437600081840152601f19601f82011690508083019250505050505050815250905080600b6000600c60008154600101919050819055815260200190815260200160002060008201518160000160006101000a81548173ffffffffffffffffffffffffffffffffffffffff021916908373ffffffffffffffffffffffffffffffffffffffff160217905550602082015181600101556040820151816002015560608201518160030160006101000a81548173ffffffffffffffffffffffffffffffffffffffff021916908373ffffffffffffffffffffffffffffffffffffffff1602179055506080820151816004019080519060200190611bc1929190613826565b509050506060604051806020016040528060008152509050611be5878a8a84610d88565b82600101543373ffffffffffffffffffffffffffffffffffffffff16600c547f5fb186fbfd022553cd9c231aeaca029cb50000d19f12e02ff460c13b0bc53d708b8b8b8b604051611c399493929190614dfc565b60405180910390a4600c54935050505095945050505050565b6006600087815260200190815260200160002060009054906101000a900473ffffffffffffffffffffffffffffffffffffffff1673ffffffffffffffffffffffffffffffffffffffff163373ffffffffffffffffffffffffffffffffffffffff1614611cbd57600080fd5b60006004600089815260200190815260200160002060008881526020019081526020016000209050611d3f816000016040518060a00160405290816000820160009054906101000a900460ff1615151515815260200160018201548152602001600282015481526020016003820154815260200160048201548152505061313d565b8214611d4a57600080fd5b611d58600186888787613189565b8160000160008201518160000160006101000a81548160ff021916908315150217905550602082015181600101556040820151816002015560608201518160030155608082015181600401559050508281600601819055508481600501819055505050505050505050565b600060076000838152602001908152602001600020549050919050565b81600160028281611ded57fe5b0614611df857600080fd5b611e03338484610a64565b6000611e3b836009600087815260200190815260200160002060009054906101000a9004600f0b600f0b61308290919063ffffffff16565b905060606040518060200160405280600081525090506000611e5c866131c5565b9050611e9d6006600083815260200190815260200160002060009054906101000a900473ffffffffffffffffffffffffffffffffffffffff16828585610d88565b611eab338285880385610d88565b505050505050565b60096020528060005260406000206000915054906101000a9004600f0b81565b6000611edd613078565b905090565b6000808215611f265760008560600151850390506000866000015160600151828860000151604001510281611f1357fe5b0590508087602001510392505050611f32565b84600001516040015190505b60008112611f405780611f43565b60005b9150509392505050565b611f556138a6565b6004600084815260200190815260200160002060008381526020019081526020016000206040518060a0016040529081600082016040518060a00160405290816000820160009054906101000a900460ff1615151515815260200160018201548152602001600282015481526020016003820154815260200160048201548152505081526020016005820154815260200160068201548152602001600782015481526020016008820160009054906101000a900460ff161515151581525050905092915050565b6006600084815260200190815260200160002060009054906101000a900473ffffffffffffffffffffffffffffffffffffffff1673ffffffffffffffffffffffffffffffffffffffff163373ffffffffffffffffffffffffffffffffffffffff161461208757600080fd5b6120928383836131eb565b505050565b6000600160008473ffffffffffffffffffffffffffffffffffffffff1673ffffffffffffffffffffffffffffffffffffffff16815260200190815260200160002060008373ffffffffffffffffffffffffffffffffffffffff1673ffffffffffffffffffffffffffffffffffffffff16815260200190815260200160002060009054906101000a900460ff16905092915050565b6006600083815260200190815260200160002060009054906101000a900473ffffffffffffffffffffffffffffffffffffffff1673ffffffffffffffffffffffffffffffffffffffff163373ffffffffffffffffffffffffffffffffffffffff161461219657600080fd5b8060056000858152602001908152602001600020600084815260200190815260200160002060006101000a8154816fffffffffffffffffffffffffffffffff0219169083600f0b6fffffffffffffffffffffffffffffffff160217905550505050565b8160016002828161220657fe5b061461221157600080fd5b6006600084815260200190815260200160002060009054906101000a900473ffffffffffffffffffffffffffffffffffffffff1673ffffffffffffffffffffffffffffffffffffffff163373ffffffffffffffffffffffffffffffffffffffff161461227c57600080fd5b600082600f0b1215801561229c57506801000000000000000082600f0b13155b6122a557600080fd5b816009600085815260200190815260200160002060006101000a8154816fffffffffffffffffffffffffffffffff0219169083600f0b6fffffffffffffffffffffffffffffffff160217905550505050565b61230586868686868661323a565b505050505050565b3373ffffffffffffffffffffffffffffffffffffffff168373ffffffffffffffffffffffffffffffffffffffff1614806123cd5750600160003373ffffffffffffffffffffffffffffffffffffffff1673ffffffffffffffffffffffffffffffffffffffff16815260200190815260200160002060008473ffffffffffffffffffffffffffffffffffffffff1673ffffffffffffffffffffffffffffffffffffffff16815260200190815260200160002060009054906101000a900460ff165b61240c576040517f08c379a000000000000000000000000000000000000000000000000000000000815260040161240390614d05565b60405180910390fd5b61246e8160008085815260200190815260200160002060008673ffffffffffffffffffffffffffffffffffffffff1673ffffffffffffffffffffffffffffffffffffffff1681526020019081526020016000205461287290919063ffffffff16565b60008084815260200190815260200160002060008573ffffffffffffffffffffffffffffffffffffffff1673ffffffffffffffffffffffffffffffffffffffff16815260200190815260200160002081905550806007600084815260200190815260200160002060008282540392505081905550600073ffffffffffffffffffffffffffffffffffffffff168373ffffffffffffffffffffffffffffffffffffffff163373ffffffffffffffffffffffffffffffffffffffff167fc3d58168c5ae7397731d063d5bbf3d657854427343f4c083240f7aacaa2d0f628585604051612559929190614e3c565b60405180910390a4505050565b60066020528060005260406000206000915054906101000a900473ffffffffffffffffffffffffffffffffffffffff1681565b6006600084815260200190815260200160002060009054906101000a900473ffffffffffffffffffffffffffffffffffffffff1673ffffffffffffffffffffffffffffffffffffffff163373ffffffffffffffffffffffffffffffffffffffff161461260457600080fd5b60006004600086815260200190815260200160002060008581526020019081526020016000209050612686816000016040518060a00160405290816000820160009054906101000a900460ff1615151515815260200160018201548152602001600282015481526020016003820154815260200160048201548152505061313d565b821461269157600080fd5b6126a16000846000806000613189565b8160000160008201518160000160006101000a81548160ff021916908315150217905550602082015181600101556040820151816002015560608201518160030155608082015181600401559050508281600501819055505050505050565b600083836001868690500381811061271457fe5b9050602002013590506006600082815260200190815260200160002060009054906101000a900473ffffffffffffffffffffffffffffffffffffffff1673ffffffffffffffffffffffffffffffffffffffff163373ffffffffffffffffffffffffffffffffffffffff161461278857600080fd5b60005b60018585905003811461286b5760008585838181106127a657fe5b905060200201359050828114156127bc57600080fd5b60018686905003821461285f5760008686600185018181106127da57fe5b90506020020135905060036000838152602001908152602001600020600082815260200190815260200160002060009054906101000a900460ff1661281e57600080fd5b8460046000848152602001908152602001600020600083815260200190815260200160002060080160006101000a81548160ff021916908315150217905550505b5080600101905061278b565b5050505050565b60008282111561287e57fe5b818303905092915050565b600073ffffffffffffffffffffffffffffffffffffffff168773ffffffffffffffffffffffffffffffffffffffff1614156128f9576040517f08c379a00000000000000000000000000000000000000000000000000000000081526004016128f090614d25565b60405180910390fd5b838390508686905014612941576040517f08c379a000000000000000000000000000000000000000000000000000000000815260040161293890614d65565b60405180910390fd5b3373ffffffffffffffffffffffffffffffffffffffff168873ffffffffffffffffffffffffffffffffffffffff161480612a015750600160003373ffffffffffffffffffffffffffffffffffffffff1673ffffffffffffffffffffffffffffffffffffffff16815260200190815260200160002060008973ffffffffffffffffffffffffffffffffffffffff1673ffffffffffffffffffffffffffffffffffffffff16815260200190815260200160002060009054906101000a900460ff165b612a40576040517f08c379a0000000000000000000000000000000000000000000000000000000008152600401612a3790614d05565b60405180910390fd5b60005b86869050811015612bf3576000878783818110612a5c57fe5b9050602002013590506000868684818110612a7357fe5b905060200201359050612ade8160008085815260200190815260200160002060008e73ffffffffffffffffffffffffffffffffffffffff1673ffffffffffffffffffffffffffffffffffffffff1681526020019081526020016000205461287290919063ffffffff16565b60008084815260200190815260200160002060008d73ffffffffffffffffffffffffffffffffffffffff1673ffffffffffffffffffffffffffffffffffffffff16815260200190815260200160002081905550612b9360008084815260200190815260200160002060008c73ffffffffffffffffffffffffffffffffffffffff1673ffffffffffffffffffffffffffffffffffffffff1681526020019081526020016000205482612d7990919063ffffffff16565b60008084815260200190815260200160002060008c73ffffffffffffffffffffffffffffffffffffffff1673ffffffffffffffffffffffffffffffffffffffff168152602001908152602001600020819055505050806001019050612a43565b508673ffffffffffffffffffffffffffffffffffffffff168873ffffffffffffffffffffffffffffffffffffffff163373ffffffffffffffffffffffffffffffffffffffff167f4a39dc06d4c0dbc64b70af90fd698a233a518aa5d07e595d983b8c0526c8f7fb89898989604051612c6e9493929190614c35565b60405180910390a4612c958773ffffffffffffffffffffffffffffffffffffffff16612d90565b15612d6f57612d6e338989898980806020026020016040519081016040528093929190818152602001838360200280828437600081840152601f19601f82011690508083019250505050505050888880806020026020016040519081016040528093929190818152602001838360200280828437600081840152601f19601f8201169050808301925050505050505087878080601f016020809104026020016040519081016040528093929190818152602001838380828437600081840152601f19601f82011690508083019250505050505050613610565b5b5050505050505050565b6000818301905082811015612d8a57fe5b92915050565b600080823b905060008111915050919050565b63f23a6e6160e01b7bffffffffffffffffffffffffffffffffffffffffffffffffffffffff19168473ffffffffffffffffffffffffffffffffffffffff1663f23a6e6188888787876040518663ffffffff1660e01b8152600401612e0b959493929190614b81565b602060405180830381600087803b158015612e2557600080fd5b505af1158015612e39573d6000803e3d6000fd5b505050506040513d601f19601f82011682018060405250810190612e5d91906140f7565b7bffffffffffffffffffffffffffffffffffffffffffffffffffffffff191614612ebc576040517f08c379a0000000000000000000000000000000000000000000000000000000008152600401612eb390614d85565b60405180910390fd5b505050505050565b60008160066000600254815260200190815260200160002060006101000a81548173ffffffffffffffffffffffffffffffffffffffff021916908373ffffffffffffffffffffffffffffffffffffffff160217905550826008600060025481526020019081526020016000209080519060200190612f43929190613826565b508173ffffffffffffffffffffffffffffffffffffffff166002547ff031a088aa7b1646f284daae9871f10581d991a0d4dcfe07f7834d04201680c585604051612f8d9190614ce3565b60405180910390a36002600081548092919060010191905055905092915050565b6000807ffffffffffffffffffffffffffffffffffffffffffffffffffffffffffffffffe8416905060007ffffffffffffffffffffffffffffffffffffffffffffffffffffffffffffffffe8416905060036000838152602001908152602001600020600082815260200190815260200160002060009054906101000a900460ff1661303857600080fd5b60018416600186161461304a57600080fd5b6004600083815260200190815260200160002060008281526020019081526020016000209250505092915050565b6000600d54905090565b6000808214156130955760009050613137565b600083600f0b12156130a657600080fd5b600060406fffffffffffffffffffffffffffffffff841685600f0b02901c90506000608084901c85600f0b02905077ffffffffffffffffffffffffffffffffffffffffffffffff8111156130f957600080fd5b604081901b9050817fffffffffffffffffffffffffffffffffffffffffffffffffffffffffffffffff0381111561312f57600080fd5b818101925050505b92915050565b60008160000151826020015183604001518460600151856080015160405160200161316c959493929190614a9f565b604051602081830303815290604052805190602001209050919050565b6131916138dd565b6040518060a00160405280871515815260200186815260200185815260200184815260200183815250905095945050505050565b6000816001600282816131d457fe5b06146131df57600080fd5b60018301915050919050565b60025482106131f957600080fd5b8060036000858152602001908152602001600020600084815260200190815260200160002060006101000a81548160ff021916908315150217905550505050565b600073ffffffffffffffffffffffffffffffffffffffff168573ffffffffffffffffffffffffffffffffffffffff1614156132aa576040517f08c379a00000000000000000000000000000000000000000000000000000000081526004016132a190614da5565b60405180910390fd5b3373ffffffffffffffffffffffffffffffffffffffff168673ffffffffffffffffffffffffffffffffffffffff16148061336a5750600160003373ffffffffffffffffffffffffffffffffffffffff1673ffffffffffffffffffffffffffffffffffffffff16815260200190815260200160002060008773ffffffffffffffffffffffffffffffffffffffff1673ffffffffffffffffffffffffffffffffffffffff16815260200190815260200160002060009054906101000a900460ff165b6133a9576040517f08c379a00000000000000000000000000000000000000000000000000000000081526004016133a090614d05565b60405180910390fd5b61340b8360008087815260200190815260200160002060008973ffffffffffffffffffffffffffffffffffffffff1673ffffffffffffffffffffffffffffffffffffffff1681526020019081526020016000205461287290919063ffffffff16565b60008086815260200190815260200160002060008873ffffffffffffffffffffffffffffffffffffffff1673ffffffffffffffffffffffffffffffffffffffff168152602001908152602001600020819055506134c060008086815260200190815260200160002060008773ffffffffffffffffffffffffffffffffffffffff1673ffffffffffffffffffffffffffffffffffffffff1681526020019081526020016000205484612d7990919063ffffffff16565b60008086815260200190815260200160002060008773ffffffffffffffffffffffffffffffffffffffff1673ffffffffffffffffffffffffffffffffffffffff168152602001908152602001600020819055508473ffffffffffffffffffffffffffffffffffffffff168673ffffffffffffffffffffffffffffffffffffffff163373ffffffffffffffffffffffffffffffffffffffff167fc3d58168c5ae7397731d063d5bbf3d657854427343f4c083240f7aacaa2d0f628787604051613589929190614e3c565b60405180910390a46135b08573ffffffffffffffffffffffffffffffffffffffff16612d90565b1561360857613607338787878787878080601f016020809104026020016040519081016040528093929190818152602001838380828437600081840152601f19601f82011690508083019250505050505050612da3565b5b505050505050565b63bc197c8160e01b7bffffffffffffffffffffffffffffffffffffffffffffffffffffffff19168473ffffffffffffffffffffffffffffffffffffffff1663bc197c8188888787876040518663ffffffff1660e01b8152600401613678959493929190614b19565b602060405180830381600087803b15801561369257600080fd5b505af11580156136a6573d6000803e3d6000fd5b505050506040513d601f19601f820116820180604052508101906136ca91906140f7565b7bffffffffffffffffffffffffffffffffffffffffffffffffffffffff191614613729576040517f08c379a000000000000000000000000000000000000000000000000000000000815260040161372090614d45565b60405180910390fd5b505050505050565b828054600181600116156101000203166002900490600052602060002090601f016020900481019282601f1061377257803560ff19168380011785556137a0565b828001600101855582156137a0579182015b8281111561379f578235825591602001919060010190613784565b5b5090506137ad919061390e565b5090565b604051806040016040528060008152602001600081525090565b6040518060a00160405280600073ffffffffffffffffffffffffffffffffffffffff1681526020016000815260200160008152602001600073ffffffffffffffffffffffffffffffffffffffff168152602001606081525090565b828054600181600116156101000203166002900490600052602060002090601f016020900481019282601f1061386757805160ff1916838001178555613895565b82800160010185558215613895579182015b82811115613894578251825591602001919060010190613879565b5b5090506138a2919061390e565b5090565b6040518060a001604052806138b96138dd565b81526020016000815260200160008152602001600081526020016000151581525090565b6040518060a00160405280600015158152602001600081526020016000815260200160008152602001600081525090565b5b8082111561392757600081600090555060010161390f565b5090565b60008135905061393a8161505c565b92915050565b60008083601f84011261395257600080fd5b8235905067ffffffffffffffff81111561396b57600080fd5b60208301915083602082028301111561398357600080fd5b9250929050565b60008083601f84011261399c57600080fd5b8235905067ffffffffffffffff8111156139b557600080fd5b6020830191508360208202830111156139cd57600080fd5b9250929050565b6000813590506139e381615073565b92915050565b6000813590506139f88161508a565b92915050565b600081359050613a0d816150a1565b92915050565b600081519050613a22816150a1565b92915050565b60008083601f840112613a3a57600080fd5b8235905067ffffffffffffffff811115613a5357600080fd5b602083019150836001820283011115613a6b57600080fd5b9250929050565b600082601f830112613a8357600080fd5b8135613a96613a9182614e96565b614e65565b91508082526020830160208301858383011115613ab257600080fd5b613abd838284614fcc565b50505092915050565b600081359050613ad5816150b8565b92915050565b600081359050613aea816150cf565b92915050565b60008083601f840112613b0257600080fd5b8235905067ffffffffffffffff811115613b1b57600080fd5b602083019150836001820283011115613b3357600080fd5b9250929050565b600060a08284031215613b4c57600080fd5b613b5660a0614e65565b90506000613b66848285016139d4565b6000830152506020613b7a84828501613adb565b6020830152506040613b8e84828501613adb565b6040830152506060613ba284828501613adb565b6060830152506080613bb684828501613adb565b60808301525092915050565b60006101208284031215613bd557600080fd5b613bdf60a0614e65565b90506000613bef84828501613b3a565b60008301525060a0613c0384828501613adb565b60208301525060c0613c1784828501613adb565b60408301525060e0613c2b84828501613adb565b606083015250610100613c40848285016139d4565b60808301525092915050565b600081359050613c5b816150e6565b92915050565b600060208284031215613c7357600080fd5b6000613c818482850161392b565b91505092915050565b60008060408385031215613c9d57600080fd5b6000613cab8582860161392b565b9250506020613cbc8582860161392b565b9150509250929050565b60008060008060008060008060a0898b031215613ce257600080fd5b6000613cf08b828c0161392b565b9850506020613d018b828c0161392b565b975050604089013567ffffffffffffffff811115613d1e57600080fd5b613d2a8b828c0161398a565b9650965050606089013567ffffffffffffffff811115613d4957600080fd5b613d558b828c0161398a565b9450945050608089013567ffffffffffffffff811115613d7457600080fd5b613d808b828c01613a28565b92509250509295985092959890939650565b60008060008060008060a08789031215613dab57600080fd5b6000613db989828a0161392b565b9650506020613dca89828a0161392b565b9550506040613ddb89828a01613c4c565b9450506060613dec89828a01613c4c565b935050608087013567ffffffffffffffff811115613e0957600080fd5b613e1589828a01613a28565b92509250509295509295509295565b60008060408385031215613e3757600080fd5b6000613e458582860161392b565b9250506020613e56858286016139d4565b9150509250929050565b60008060408385031215613e7357600080fd5b6000613e818582860161392b565b9250506020613e9285828601613c4c565b9150509250929050565b600080600060608486031215613eb157600080fd5b6000613ebf8682870161392b565b9350506020613ed086828701613c4c565b9250506040613ee186828701613c4c565b9150509250925092565b60008060008060808587031215613f0157600080fd5b6000613f0f8782880161392b565b9450506020613f2087828801613c4c565b9350506040613f3187828801613c4c565b925050606085013567ffffffffffffffff811115613f4e57600080fd5b613f5a87828801613a72565b91505092959194509250565b60008060008060408587031215613f7c57600080fd5b600085013567ffffffffffffffff811115613f9657600080fd5b613fa287828801613940565b9450945050602085013567ffffffffffffffff811115613fc157600080fd5b613fcd8782880161398a565b925092505092959194509250565b600080600060408486031215613ff057600080fd5b600084013567ffffffffffffffff81111561400a57600080fd5b6140168682870161398a565b93509350506020614029868287016139d4565b9150509250925092565b6000806000806000806080878903121561404c57600080fd5b600087013567ffffffffffffffff81111561406657600080fd5b61407289828a0161398a565b9650965050602061408589828a01613c4c565b945050604061409689828a0161392b565b935050606087013567ffffffffffffffff8111156140b357600080fd5b6140bf89828a01613a28565b92509250509295509295509295565b6000602082840312156140e057600080fd5b60006140ee848285016139fe565b91505092915050565b60006020828403121561410957600080fd5b600061411784828501613a13565b91505092915050565b60006020828403121561413257600080fd5b600061414084828501613adb565b91505092915050565b6000806000806040858703121561415f57600080fd5b600085013567ffffffffffffffff81111561417957600080fd5b61418587828801613af0565b9450945050602085013567ffffffffffffffff8111156141a457600080fd5b6141b087828801613af0565b925092505092959194509250565b60008061014083850312156141d257600080fd5b60006141e085828601613bc2565b9250506101206141f285828601613adb565b9150509250929050565b6000806000610160848603121561421257600080fd5b600061422086828701613bc2565b93505061012061423286828701613adb565b925050610140614244868287016139d4565b9150509250925092565b60006020828403121561426057600080fd5b600061426e84828501613c4c565b91505092915050565b6000806040838503121561428a57600080fd5b600061429885828601613c4c565b92505060206142a98582860161392b565b9150509250929050565b600080604083850312156142c657600080fd5b60006142d485828601613c4c565b92505060206142e585828601613ac6565b9150509250929050565b60008060006040848603121561430457600080fd5b600061431286828701613c4c565b935050602084013567ffffffffffffffff81111561432f57600080fd5b61433b86828701613af0565b92509250509250925092565b6000806040838503121561435a57600080fd5b600061436885828601613c4c565b925050602061437985828601613c4c565b9150509250929050565b60008060008060006080868803121561439b57600080fd5b60006143a988828901613c4c565b95505060206143ba88828901613c4c565b94505060406143cb8882890161392b565b935050606086013567ffffffffffffffff8111156143e857600080fd5b6143f488828901613af0565b92509250509295509295909350565b60008060006060848603121561441857600080fd5b600061442686828701613c4c565b935050602061443786828701613c4c565b9250506040614448868287016139d4565b9150509250925092565b60008060006060848603121561446757600080fd5b600061447586828701613c4c565b935050602061448686828701613c4c565b925050604061449786828701613ac6565b9150509250925092565b600080600080608085870312156144b757600080fd5b60006144c587828801613c4c565b94505060206144d687828801613c4c565b93505060406144e787828801613adb565b92505060606144f8878288016139e9565b91505092959194509250565b600080600080600080600060e0888a03121561451f57600080fd5b600061452d8a828b01613c4c565b975050602061453e8a828b01613c4c565b965050604061454f8a828b01613adb565b95505060606145608a828b01613adb565b94505060806145718a828b01613adb565b93505060a06145828a828b01613adb565b92505060c06145938a828b016139e9565b91505092959891949750929550565b60006145ae8383614a81565b60208301905092915050565b6145c381614f37565b82525050565b60006145d58385614f04565b93507f07ffffffffffffffffffffffffffffffffffffffffffffffffffffffffffffff83111561460457600080fd5b602083029250614615838584614fcc565b82840190509392505050565b600061462c82614ed6565b6146368185614f04565b935061464183614ec6565b8060005b8381101561467257815161465988826145a2565b975061466483614ef7565b925050600181019050614645565b5085935050505092915050565b61468881614f49565b82525050565b61469781614f49565b82525050565b6146ae6146a982614f49565b61500e565b82525050565b60006146bf82614ee1565b6146c98185614f15565b93506146d9818560208601614fdb565b6146e28161503e565b840191505092915050565b6146f681614f8b565b82525050565b61470581614f98565b82525050565b61471481614f98565b82525050565b61472b61472682614f98565b615020565b82525050565b600061473d8385614f26565b935061474a838584614fcc565b6147538361503e565b840190509392505050565b600061476982614eec565b6147738185614f26565b9350614783818560208601614fdb565b61478c8161503e565b840191505092915050565b60006147a4600c83614f26565b91507f4e6f20617070726f76616c2e00000000000000000000000000000000000000006000830152602082019050919050565b60006147e4602583614f26565b91507f64657374696e6174696f6e2061646472657373206d757374206265206e6f6e2d60008301527f7a65726f2e0000000000000000000000000000000000000000000000000000006020830152604082019050919050565b600061484a603e83614f26565b91507f636f6e74726163742072657475726e656420616e20756e6b6e6f776e2076616c60008301527f75652066726f6d206f6e455243313135354261746368526563656976656400006020830152604082019050919050565b60006148b0602983614f26565b91507f5f69647320616e64205f76616c756573206172726179206c656e677468206d7560008301527f7374206d617463682e00000000000000000000000000000000000000000000006020830152604082019050919050565b6000614916603983614f26565b91507f636f6e74726163742072657475726e656420616e20756e6b6e6f776e2076616c60008301527f75652066726f6d206f6e455243313135355265636569766564000000000000006020830152604082019050919050565b600061497c601583614f26565b91507f5f746f206d757374206265206e6f6e2d7a65726f2e00000000000000000000006000830152602082019050919050565b60a0820160008201516149c5600085018261467f565b5060208201516149d860208501826146fc565b5060408201516149eb60408501826146fc565b5060608201516149fe60608501826146fc565b506080820151614a1160808501826146fc565b50505050565b61012082016000820151614a2e60008501826149af565b506020820151614a4160a08501826146fc565b506040820151614a5460c08501826146fc565b506060820151614a6760e08501826146fc565b506080820151614a7b61010085018261467f565b50505050565b614a8a81614fc2565b82525050565b614a9981614fc2565b82525050565b6000614aab828861469d565b600182019150614abb828761471a565b602082019150614acb828661471a565b602082019150614adb828561471a565b602082019150614aeb828461471a565b6020820191508190509695505050505050565b6000602082019050614b1360008301846145ba565b92915050565b600060a082019050614b2e60008301886145ba565b614b3b60208301876145ba565b8181036040830152614b4d8186614621565b90508181036060830152614b618185614621565b90508181036080830152614b7581846146b4565b90509695505050505050565b600060a082019050614b9660008301886145ba565b614ba360208301876145ba565b614bb06040830186614a90565b614bbd6060830185614a90565b8181036080830152614bcf81846146b4565b90509695505050505050565b600060a082019050614bf060008301886145ba565b614bfd6020830187614a90565b614c0a6040830186614a90565b614c1760608301856145ba565b8181036080830152614c29818461475e565b90509695505050505050565b60006040820190508181036000830152614c508186886145c9565b90508181036020830152614c658184866145c9565b905095945050505050565b60006020820190508181036000830152614c8a8184614621565b905092915050565b6000602082019050614ca7600083018461468e565b92915050565b6000602082019050614cc260008301846146ed565b92915050565b6000602082019050614cdd600083018461470b565b92915050565b60006020820190508181036000830152614cfd818461475e565b905092915050565b60006020820190508181036000830152614d1e81614797565b9050919050565b60006020820190508181036000830152614d3e816147d7565b9050919050565b60006020820190508181036000830152614d5e8161483d565b9050919050565b60006020820190508181036000830152614d7e816148a3565b9050919050565b60006020820190508181036000830152614d9e81614909565b9050919050565b60006020820190508181036000830152614dbe8161496f565b9050919050565b600061012082019050614ddb6000830184614a17565b92915050565b6000602082019050614df66000830184614a90565b92915050565b6000606082019050614e116000830187614a90565b614e1e60208301866145ba565b8181036040830152614e31818486614731565b905095945050505050565b6000604082019050614e516000830185614a90565b614e5e6020830184614a90565b9392505050565b6000604051905081810181811067ffffffffffffffff82111715614e8c57614e8b61503c565b5b8060405250919050565b600067ffffffffffffffff821115614eb157614eb061503c565b5b601f19601f8301169050602081019050919050565b6000819050602082019050919050565b600081519050919050565b600081519050919050565b600081519050919050565b6000602082019050919050565b600082825260208201905092915050565b600082825260208201905092915050565b600082825260208201905092915050565b6000614f4282614fa2565b9050919050565b60008115159050919050565b6000819050919050565b60007fffffffff0000000000000000000000000000000000000000000000000000000082169050919050565b600081600f0b9050919050565b6000819050919050565b600073ffffffffffffffffffffffffffffffffffffffff82169050919050565b6000819050919050565b82818337600083830152505050565b60005b83811015614ff9578082015181840152602081019050614fde565b83811115615008576000848401525b50505050565b60006150198261502a565b9050919050565b6000819050919050565b60006150358261504f565b9050919050565bfe5b6000601f19601f8301169050919050565b60008160f81b9050919050565b61506581614f37565b811461507057600080fd5b50565b61507c81614f49565b811461508757600080fd5b50565b61509381614f55565b811461509e57600080fd5b50565b6150aa81614f5f565b81146150b557600080fd5b50565b6150c181614f8b565b81146150cc57600080fd5b50565b6150d881614f98565b81146150e357600080fd5b50565b6150ef81614fc2565b81146150fa57600080fd5b5056fea264697066735822122037aee947bf377ee50e876fa3df62d7f18202aee081bd90dc82ffd2eef97b742264736f6c63430007030033",
  "linkReferences": {},
  "deployedLinkReferences": {}
}